S02B0000626F6F746C6F616465722D73746F726167652D696E7465726E616C2D73696E676C652D7A77617665F4
S315080000000810002071010008353D0008F33B000880
S31508000010353D0008353D0008353D0008353D0008EA
S31508000020353D0008353D0008A83F0008353D000865
S31508000030353D0008F03F0008353D0008353D00080D
S31508000040353D0008353D0008353D0008353D0008BA
S31508000050353D0008353D0008353D0008353D0008AA
S31508000060353D0008353D0008353D0008353D00089A
S31508000070353D0008353D0008353D0008353D00088A
S31508000080353D0008353D0008353D0008353D00087A
S31508000090353D0008353D0008353D0008353D00086A
S315080000A0353D0008353D0008353D0008353D00085A
S315080000B0353D0008353D0008353D0008353D00084A
S315080000C0353D0008353D0008353D0008353D00083A
S315080000D0353D0008353D0008353D0008353D00082A
S315080000E0353D0008353D0008353D0008353D00081A
S315080000F0353D0008353D0008353D0008353D00080A
S31508000100353D0008353D0008353D0008353D0008F9
S31508000110353D0008353D0008353D0008353D0008E9
S31508000120353D0008353D0008353D0008353D0008D9
S31508000130353D0008353D0008353D0008353D0008C9
S31508000140353D0008353D0008353D0008353D0008B9
S31508000150353D0008353D0008353D0008353D0008A9
S31508000160353D0008353D0008353D0008353D000899
S3150800017008B50D4B83F30A880C4B09A1D1E9000198
S31508000180C3E9000102F000FA02F0F6F802F0EEF90F
S3150800019002F0C6F902F0D8F902F06EF8AFF3008063
S315080001A0A5EDF5FEA5EDF5FE0800002008100020D7
S315080001B010B5054C237833B9044B13B1044800E055
S315080001C000BF0123237010BD10100020000000009E
S315080001D04040000808B5034B1BB10349034800E03B
S315080001E000BF08BD000000001410002040400008B1
S315080001F02DE9F041012905460E4690461F4692B064
S315080002004BD8046824F04003802B02D0B4F5807FD5
S3150800021046D11C2200210BA803F0D0FD234A244B0B
S315080002200121012E18BF13460A932B1D0193E408DA
S31508000230204B44F0005402910AA80394CDF810808C
S31508000240059106930797089101A9099302F0F9F910
S3150800025004A90AA802F0F5F907A90AA802F0FBF909
S3150800026029680AA8C90802F000FA10210AA802F0AB
S31508000270FCF900F0E5F8B0B90AA802F0FFF94FF06A
S3150800028098435A6CD202FCD55C6D00F0E1F804F490
S315080002907024204612B0BDE8F0816FF02000F9E71F
S315080002A06FF07100F6E74FF0FF30F3E70001010445
S315080002B000010004100000202DE9F04F9BB007460E
S315080002C0894698461646DDF894B072B115683B68BB
S315080002D023F04002802A03D0B3F5807F40F0A68041
S315080002E00BEB0903002400930DE01546EFE795B1E3
S315080002F0249A1BF80430525D01355340269A05F0BE
S315080003000F05135501344C45F1D3002E00F09180AA
S315080003100020356067E0A9EB040ABAF10F0F57D938
S315080003201C22294613A803F049FD434B3A68129349
S315080003303B1D03930123D20842F000520493059211
S315080003403E4A2699CDF818802AF00F0A0793089294
S31508000350CDF824800A930B920BEB04020C922144ED
S315080003604AF000520D9312A80E920F9103A910930A
S31508000370119202F066F906A912A802F062F90CA910
S3150800038012A802F05EF90FA912A802F064F909A9E9
S3150800039012A802F060F9396812A8C90802F065F9CE
S315080003A0514612A802F061F900F04AF8C8B912A835
S315080003B002F064F94FF098435A6CD202FCD55B6D93
S315080003C0544403F47023019300F042F8019B5BBB8D
S315080003D0269B0BEB040A1C44009B9A4506D14C4607
S315080003E091E74FF0FF301BB0BDE8F08F8DB942465C
S315080003F001213846249BFFF7FBFE0028F3D108F1BC
S31508000400100212F8013D0133DBB213700BB99045A7
S31508000410F7D1249A1AF8013B525D0135534004F886
S31508000420013B05F00F05D7E71846DCE76FF01F001C
S31508000430D9E73046D7E700BF0303000410000020C1
S315080004404FF48062014B00209A6670470090004086
S315080004504FF48062014B00209A66704700A0004066
S3150800046008B5B0B14FF480620B4B9A6602F006F9F4
S315080004704FF098435A6CD202FCD54FF48062586DFF
S31508000480064B10F470209A6604D0BDE8084002F0C6
S31508000490A8B8212008BD00BF0090004000A0004079
S315080004A01FB5044660B35AB3402B29D1930727D109
S315080004B0042925D8DFE801F0200724031E00114986
S315080004C04FF4806302E04FF400730E490B43236038
S315080004D00023C4E90133E3610123019202930A4B25
S315080004E0204601A9039302F0B6F82046FFF7B8FFA5
S315080004F004B010BD0549E3E74FF480730149E5E709
S315080005002120F5E7010008FF40000020000008FF51
S31508000510430905D0012B0DD0022B094B18BF002328
S3150800052000F01F0041B103F58053012202FA00F0E2
S3150800053018607047034BF3E703F50053F5E700BF70
S315080005406880004064800040F0B5114A114C124E94
S3150800055000F00105E3695F0713D40DB9334213D1DF
S3150800056003EA00078F4207D10B4A1A40002A14BF34
S315080005706FF001000020F0BD013AEBD16FF00200E8
S31508000580F9E74FF0FF30F6E76FF00100F3E700BF39
S3150800059080969800000003400200010070B5134CD5
S315080005A06061E3695B071ED40E4656F8043B8D1856
S315080005B0A361AE420BD10423002121202361FFF75A
S315080005C0C3FF58B9BDE870402120FFF7BDBF082119
S315080005D00846FFF7B9FF10B10423236170BD56F82A
S315080005E0043BA361E5E74FF0FF30F7E7000003405F
S315080005F04FF4803238B50E4B0E4C9A66E56941F6D3
S31508000600713315400122E3630B4B0021DA600223A4
S31508000610606121202361FFF797FF10B92120FFF7BA
S3150800062093FF0122054BDA600DB10023E36338BD61
S3150800063000900040000003400010034000200340E3
S315080006402DE9F84315464FF48032184B89469A66C9
S3150800065003F51C33DF690646174041F67132DA6343
S31508000660012203F58053DFF84C80DA6055B9284635
S3150800067001220F4BDA601FB10022A3F50053DA639B
S31508000680BDE8F88306F5005404EA0804A41BAC4246
S3150800069028BF2C46494622463046FFF77FFF0028EA
S315080006A0E6D12644A1442D1BE0E700BF0090004098
S315080006B00020034000E0FFFF2DE9F04F06464FF407
S315080006C030250120B400DFF8C0C004F1402404F549
S315080006D08024CCF804006560302500244FF4803768
S315080006E0DFF8A8E0DFF8A89005FB06E5EC652C66C0
S315080006F02C67234CDFF89CA0A76641F6713704F5F2
S315080007001C34D4F81C80E763E76800FA06F607434A
S31508000710E7604BB9E26818F4803F22F00102E26014
S3150800072000D0E363184628E001F5005000EA090006
S31508000730401A984228BF18466161D4F81CB0870849
S315080007401BF0040F17D1013F3F0147F060576F6652
S31508000750AA66C5F86CA0CCF82460DEF834703E4270
S31508000760FBD0084F01447E630427CCF82860024476
S3150800077027611B1ACDE74FF0FF30BDE8F08F00BFA9
S31508000780009000400020044000100440000004408F
S3150800079000E0FFFF18000340B1F5002F0BD800F169
S315080007A07843B3F5002F06D80844044988428CBF1D
S315080007B00020012070470020704700BF000008088D
S315080007C070B504460646044D0FCD0FC495E80F00D4
S315080007D084E80F00304670BDF83D00084FF48032BB
S315080007E0014B00209A66704700900040024BD8697A
S315080007F000F00100704700BF000003404FF480324C
S31508000800014B00209A66704700A000402DE9F04190
S31508000810A2B0502204460D460EA8002103F0CEFAD7
S315080008203422002101A803F0C9FA01A800F03CFA15
S31508000830049B012B11D8002320466A1E9D424FEACD
S3150800084082024FF0FF0108BF1A4640F8043B03F046
S31508000850B5FA002022B0BDE8F081AB4260D300F0C3
S315080008602BF9059B0C220EA90646DF6801F024FF2A
S315080008700028EFD1DFF8B4800E9B434515D1109AB6
S315080008800EA9304601F018FF4FF0FF3210990EA856
S3150800089000F094FB244B98422ED0FF212046AA0054
S315080008A003F08CFA40F20650D4E737440C22384657
S315080008B00EA901F001FF0028CCD10E9B434507D0B5
S315080008C0FF212046AA0003F079FA40F20550C1E755
S315080008D00EA93846109A01F0EFFE059B3046D968F6
S315080008E001F021FF0028B5D13046109A0EA901F073
S315080008F0F3FE0028C3D0ADE7109E11A9103EB60836
S31508000900AE4228BF2E46B7003A46204603F02FFAD5
S31508000910AA1B9200B54238BF0022FF21E01996E7CC
S3150800092040F2045096E700BFE320BBDE39528FE160
S3150800093044222DE9F043A3B00C46814600210DEB75
S31508000940020003F03BFA012350262E4A0021CDE986
S315080009500E2301A83422109603F030FA01A800F0FD
S31508000960A3F9049BA34249D3012B0AD8D9F800302E
S3150800097040F204500133012B98BF002023B0BDE894
S31508000980F08300F099F8102C28BF1024059B4FEA35
S315080009908408DF68424649460744054611A803F01D
S315080009A0E6F9C4F110040EAB08F10C001844FF2157
S315080009B0A20003F003FA4C214FF0FF320EA800F014
S315080009C0FDFAC043059B2190D968384601F0ABFE75
S315080009D00028D3D1324638460EA901F07DFE0028FC
S315080009E0CCD1059B2846D96801F09DFE0028C5D1C3
S315080009F0324628460EA901F06FFEBFE740F20450C2
S31508000A00BCE700BF39528FE130B5ADF5137D4FF421
S31508000A100D7205A9054640F2012401F028FF0021C0
S31508000A2005A801F0F6FEA042F9D040F20323984249
S31508000A3017D19DF81430590716D50F9803F0C5F845
S31508000A4090B18E9800F052F970B1194B01AC0FCBEA
S31508000A5084E80F00589B54F83500184401F086FBCB
S31508000A6010B940F2054017E09DF814309A0710D5E2
S31508000A704FF00062926A06999268914209D98E9857
S31508000A8000F052F90028ECD00E990A4801F024FB30
S31508000A90E7E7DB0703D400200DF5137D30BD002200
S31508000AA008998E9800F064F90028F4D1D9E700BFB8
S31508000AB0303E0008008000080048704700400408DF
S31508000AC031B10A4B5A68824205D80023C1E900337E
S31508000AD040F201407047013053F8302003EBC00064
S31508000AE043680A6000204B60704700BF183E000844
S31508000AF070B40C4611460E4A5568854211D9013024
S31508000B0002EBC0056D68E618AE420ED8A5420CD3B6
S31508000B109D420AD352F830001A46204470BC01F0B0
S31508000B20CBBD40F2014070BC704740F20240FAE784
S31508000B30183E000830B5CA681B4B04469A420D4653
S31508000B40A3B019D101F070FBD4F82432174A013347
S31508000B5052F83330D4F82C221344984208D3803301
S31508000B60984209D241F20D03C4F8303223B030BDA1
S31508000B7000F5C0309842F5D88023D4F82C1202AA82
S31508000B80D4F82402FFF7B4FF80232146009502AA71
S31508000B9004F12C0000F01AFCD4F82C32C4F8300208
S31508000BA08033C4F82C32E1E71D1F0008183E000800
S31508000BB070B50D46002186B00DF1070302931F4B51
S31508000BC004461646116028461C22CDE903338DF8E3
S31508000BD00710059303F0F2F894F87230132B28D017
S31508000BE0D4F830322BBBD4E98A21914207D2204669
S31508000BF002A9FFF79FFF9DF80730002BECD022785B
S31508000C00910744BF61683160D20709D504F108022B
S31508000C1004F1240152F8040B8A4245F8040BF9D171
S31508000C204BB9237840F20640002B18BF002006B0C7
S31508000C3070BD0023E3E70020F9E700BF0D28000890
S31508000C4070B40C4611460E4A5568854211D90130D2
S31508000C5002EBC0056D68E618AE420ED8A5420CD365
S31508000C609D420AD352F830001A46204470BC01F05F
S31508000C7033BD40F2014070BC704740F20240FAE7CB
S31508000C80183E0008074B5A68824207D9013003EB21
S31508000C90C002516853F8300001F045BD40F20140EA
S31508000CA0704700BF183E000870B5054688B0C0B149
S31508000CB04FF4403200236C46C0E900230A4B05F185
S31508000CC014061A785B680272C3606846FFF778FDF7
S31508000CD00FCC0FC694E80F0086E80F0005F1140341
S31508000CE02B6108B070BD00BF183E000800B5ADF511
S31508000CF0137D4FF40D7205A901F0B9FD78B90423E7
S31508000D008DF81530074BCDE90100039001A905A818
S31508000D10049301F0C0FD0DF5137D5DF804FB00207A
S31508000D20F9E700BF1D1F00084FF0006300B59B6A76
S31508000D30ADF5137D9B688B4204D300200DF5137D1A
S31508000D405DF804FB4FF40D7205A901F090FD00282B
S31508000D50F3D102238DF81530044BCDE90100039039
S31508000D6001A905A8049301F096FDE7E71D1F0008F1
S31508000D7010B5ADF5127D05AC4FF40D72214601F0A4
S31508000D8076FD70B901238DF81530074B0490CDE92F
S31508000D90023001A92046019401F07DFD0DF5127D72
S31508000DA010BD0020FAE700BF713B00082DE9F347A4
S31508000DB099460A9B0C46196805463F29164642D8A5
S31508000DC05A68002A41D0224A002E14BFB0469046DF
S31508000DD001F03F07091928BF5A68196024BF013274
S31508000DE05A60AFB1C7F1400AA24521D829465246F2
S31508000DF009EB070002F0BBFF0123414600934A4670
S31508000E003346002000F086F8B046403C55443C4442
S31508000E103F2C0CD9A3092A460093414633460020A5
S31508000E2000F078F824F03F031D4404F03F0400273F
S31508000E302CB12246294609EB070002F098FF00204C
S31508000E4002B0BDE8F0879046C2E7DFF80480BFE746
S31508000E50843E000830B40546084611461A46DDE9C0
S31508000E60023425B931B1029430BCFFF79FBF02485E
S31508000E7030BC70470846FBE780AFFFFF2DE9F0411D
S31508000E801746146886B01E46E3008DF80F306309CE
S31508000E9052688DF80E30630B8DF80D30630D8DF8A2
S31508000EA00C30D30003EB54738DF80B3004F03F0479
S31508000EB05309372C8DF80A304FEA52334FEA52520B
S31508000EC005468DF80820884694BFC4F13802C4F157
S31508000ED07802CDE900178DF809300D490346002040
S31508000EE0FFF7B8FF082143462A4600970DEB010095
S31508000EF0FFF75CFF284605F1200350F8042B9842BB
S31508000F0046F8042BF9D1002006B0BDE8F08100BFF1
S31508000F10A43E0008F0B517464FF480621D46254BDF
S31508000F2093B00E469A660446202200210AA802F0CB
S31508000F3045FF01204FF00052019702900392049654
S31508000F4005900692079508900992002C2FD1189CB7
S31508000F50194BA40121460AA80A9301F086FB0399B6
S31508000F600AA80C430394069B04A943F0200306939E
S31508000F70099B43F02003099301F063FB01A90AA822
S31508000F8001F05FFB07A90AA801F065FB0AA801F0B2
S31508000F9075FB4FF098435A6CD202FCD55B6D13F47F
S31508000FA0702F0CBF00206FF06F0013B0F0BD6FF00C
S31508000FB07100FAE7009000400004010330B50824E8
S31508000FC0094B00255C66012403F5FE235C60014499
S31508000FD09D601A61DC60884201D1586A30BD10F8FC
S31508000FE0012B1A62F7E700BF00900040F7B51646D6
S31508000FF04FF480621D46114B04469A6620300F4610
S31508001000019001F0CFFADDE90812019801F0CEFA55
S31508001010002384F8587063643368C4F859307368D9
S31508001020C4F85D30B368C4F861302B0C6DBA84F827
S315080010306530A4F8665003B0F0BD00BF00900040CC
S315080010402DE9F04315464FF480621C46364B99B09D
S31508001050DDF880900E4607469A66002861D000297A
S315080010605FD0002D5DD0002C58D0304B304AB9F1F6
S31508001070000F14BF984690461C22002111A802F0C2
S315080010809DFE2C4B414610A8109301F0EEFA202144
S3150800109010A801F0EAFA0122274B01940292039361
S315080010A0CDF810900592069354B1B9F1000F07D008
S315080010B001A910A801F0C5FA04A910A801F0C1FAFF
S315080010C0079701271C4C07A910A80897099401F04F
S315080010D0B8FA0AA910A80A960B970C940D950E97BC
S315080010E00F9401F0AEFA0DA910A801F0AAFA10A8FB
S315080010F001F0C4FA114B00934FF098435A6CD20290
S31508001100FCD55B6D40F2046003F470230093009BEA
S31508001110002B08BF002019B0BDE8F083DFF8108067
S31508001120AAE740F20160F6E7009000401F2400801D
S315080011301F24FC8400000106200000207856341283
S315080011404FF4806210B50446044B9A6601F0BEFB64
S315080011502046BDE81040002101F0BCBB00900040CD
S315080011604FF4806200B50B4B99B09A660021202295
S31508001170684602F023FE40230021684608AAFFF7C6
S315080011808FF920F010000128034818BF002019B075
S315080011905DF804FB009000404CE307084FF48062BA
S315080011A000B50B4B99B09A6600212022684602F0DA
S315080011B005FE40230021684608AAFFF771F920F0CA
S315080011C010000128034818BF002019B05DF804FB79
S315080011D0009000406CE307080048704786E207085D
S315080011E00068024BC31A584258417047FD0707FD6D
S315080011F0034A044B90420CBF18460020704700BFB4
S31508001200FD0707FDE43E000830B500220C24064B16
S3150800121004FB02F1CD58854201D1581830BD013280
S315080012200D2AF5D10020F9E7F83E0008002370B52D
S3150800123086B0CDE9013308231546009304AA04466F
S3150800124001F098FB41F20302904206464FF008036C
S3150800125023D194F8432052B11A46E06C04A901F050
S3150800126063FB04AA08231146A06C01F04CFB059AFF
S31508001270049B6A6094F843202B6052B9084A93424B
S3150800128007D0084A934204D00822E06C04A901F06A
S315080012904BFB6B68236500236365304606B070BD5B
S315080012A0F70A0AF7FC0404FC2DE9F74304465868D4
S315080012B00E4617469846002841D08B0742D14FF074
S315080012C000639B6A206E1B6902EB000C1D1D6545B9
S315080012D01CD81C33984219D28542294638BF014684
S315080012E09C4594BFC1EB0C02C1EB0302081AC5F179
S315080012F0680506EB0009681820444946019202F081
S3150800130036FDFF214846019A02F058FD226E0F4B22
S315080013109A420AD80E49B818884206D39B1AF25838
S31508001320C4F880204FF0FF32F2503A46D8E900352B
S31508001330206E3146A8470020226E3A44226603B042
S31508001340BDE8F08341F20200F9E700BF0480000817
S31508001350088000082DE9F04100254FF0FF370446C4
S315080013608846164603F0200380F842301822FF21EB
S31508001370C0E91855A0F8405080F84350A0F84450EA
S3150800138080F84650C0F88870683002F017FD882249
S315080013902946C4E91286C4F88070C4F8847004F13A
S315080013A0900002F00BFD084BC4F82071C4E94635DD
S315080013B084F824512EB13046FFF7C2FE2846BDE810
S315080013C0F08141F20B00FAE7000101012DE9F04F27
S315080013D0A9B09846CDE91523002304460D46329F49
S315080013E01793179A424501D30020D7E094F8463060
S315080013F0142BF7D8DFE813F06600B7006000480042
S315080014002F003C0103022F00FB012F007E012F0055
S31508001410FB014203B50315003201E702E7027A022F
S31508001420B3034FF00009636D0F2B49D8102301262B
S3150800143018AACDE9003620464023CDF8089015A90C
S3150800144001F098FA41F203030B900B9A9A4200F0C6
S31508001450F7800B9B42E04FF00109D4E914629642EB
S315080014602ED9B61ADDE91623D21A94F84030032E7F
S315080014701A4440F2C881032A00F2C881204615A9F9
S3150800148001F057FA002329E00126636D072B00F2C5
S31508001490FD80082318AA009320464023CDE901665B
S315080014A015A901F067FA41F203030E900E9A9A42C3
S315080014B000F063810E9B11E00026636D072B22D98D
S315080014C0012399E118AA204615A9FFF7AFFE41F2B4
S315080014D003020890089B934208D0089B079341F2A1
S315080014E00303079A9A423FF47CAF56E0199A189973
S315080014F0226500226265B04A914240F04B81022281
S3150800150084F84620EAE70823012018AACDE9003026
S3150800151002964023204615A901F02CFA41F203034E
S315080015200990099A9A4201D0099BD7E7189B03F0BC
S315080015307F43B3F1407F05D0142384F8463041F247
S315080015400903CBE7199AD10742BF94F8423043F012
S31508001550010384F84230D305AFD4142384F8463007
S3150800156041F20A03BAE7204618AA15A9FFF75EFE54
S3150800157041F203030A90DDF82890994511D0DDF869
S31508001580289041F20303CDF81C90079A9A423FF43B
S3150800159028AF079B0BB10023EB70079829B0BDE86D
S315080015A0F08F1898FFF730FE064628B9142341F243
S315080015B0080984F84630E4E7437994F824219A42E6
S315080015C005D9142341F20E0984F84630D9E7026892
S315080015D07A498A4205D00289D00748BF013384F880
S315080015E0243194F84230D9070DD5328994F843301E
S315080015F0920706D53BB1142384F8463041F2010917
S31508001600BFE7002BF7D018A8FFF7EAFD18B933791A
S3150800161084F84630B5E71898C4F88C00FFF7E8FD5B
S3150800162094F842309B06F2D50028F0D04368002B88
S31508001630EDD0204698470A900A9B002BE7D0DDE7B5
S31508001640D4F848A0FFF7C8FD80230221CDE900039E
S3150800165019AA33465046FFF7C9FCE4E6226D012372
S31508001660A265002284F84330E26584F84630B8E67D
S3150800167000213C2219A818914FF0010902F09EFB9F
S31508001680D4E91432934204D884F8469041F203030D
S3150800169024E7009318AA40232046CDE9019915A905
S315080016A001F068F941F203030C900C9A9A4201D0B2
S315080016B00C9B13E705F1080C634618AE0DF1780E7E
S315080016C0324603CA724518605960164603F1080384
S315080016D0F6D1106818602B78604643F001032B702A
S315080016E002F0FEFA0028CBD1142384F8463041F2E2
S315080016F00C03F3E60126D4F81C31083BC4F8203164
S31508001700636D072BC2D808231AAA009320463823EC
S31508001710CDE9016615A901F02DF941F203030D90F3
S315080017200D9A9A4201D00D9BD8E62B7843F0040314
S315080017302B701B9BAB626B7858071AD5EB238DF879
S31508001740603017238DF86130A6238DF862305E234A
S315080017508DF86330236DC4F884300023636694F8EB
S31508001760453043F0020384F84530FB680BB110237B
S3150800177063660B2384F84630C2E72B7843F00203EE
S315080017802B70189B6B60236D083B6B62199BB3F13A
S31508001790006F05D0142384F8463041F201039DE614
S315080017A0042384F8463094F8453043F0010384F85E
S315080017B045300023636668E6EB17A603F90707F9C1
S315080017C0042318AA009320464023CDE9016615A9EB
S315080017D001F0D0F841F203030F900F9A9A4201D014
S315080017E00F9B7BE6236D042B02D9189B23660126E3
S315080017F0636D032BE4D9092384F8463046E70023B2
S315080018006366072331E796423FF638AE402E28BF77
S315080018104026964228BF1646032E88BF26F00306A2
S31508001820402318AA2046CDE90199009615A901F08A
S31508001830A1F841F203031090109A9A4201D0109B26
S315080018404CE694F846B0BBF1070F04D1D7F808A0C8
S31508001850BAF1000F1BD1042EC6F1040A88BF4FF057
S31508001860000A18AB5246FF21981902F0A7FABBF1F5
S31508001870090FB24414D13B465246204618A9FFF731
S3150800188013FD1090109B002B3FF4E7ADD7E73246C7
S315080018903B68606E18A9D047626E32446266DCE522
S315080018A0BBF1040F7FF4D9AD6B7899077FF5D5ADF9
S315080018B0FB68002B3FF4D1AD626E042A0BD80AEB05
S315080018C00203062B07D919AB9B1A1A68C4F8842099
S315080018D04FF0FF321A605246FE683B68606E18A9E0
S315080018E0B047626E0AEB02066666B6E594F8426091
S315080018F016F0200607D0D4F88C00FFF779FC0646C8
S3150800190000283FF44AAF4FF0010941E043B33EB324
S3150800191033692BB320469847DDE916329B1A94F8AB
S31508001920402013448342FFF4A9ADD4E91421521A86
S31508001930402A28BF40229A4228BF1A4620464023FA
S3150800194000929246CDE9019918AA15A901F012F854
S3150800195041F203031190119A9A4203D0119BBDE5F7
S315080019600120D9E794F842309A0611D5002E3FF4A3
S3150800197014AFD6F808B0BBF1000F3FF40EAF3B46E4
S315080019805246204618A9D8471190119B002BE5D13D
S31508001990D4E9142194F84230914203F02003B5D3D8
S315080019A0002B3FF48DAD002E3FF48AADF368002B73
S315080019B03FF486AD3946204698471190119B002B77
S315080019C03FF47EADCAE74FF000618A6A496B126937
S315080019D0503A91423FF6E1AE112B0FD194F81831E7
S315080019E0002B7FF46DAD41F206031293129A9A42C8
S315080019F002D1142384F84630129B6FE594F84430DC
S31508001A00002B7FF45DADCDE90133402318AA00937E
S31508001A10204615A900F0AEFF41F203031290129A70
S31508001A209A42E9D1E06C00F081FF94F81831A3B12D
S31508001A3004F1B403E06C009320AA04F1940318A9F6
S31508001A40FFF7FEFA1290129B9BB10023EB7014234A
S31508001A5084F8463041F2060340E5E66CFFF780FB62
S31508001A600590FFF79BFB059B009020AA304618A916
S31508001A70E6E70123EB7084F8443021E500234FF0B4
S31508001A800408CDE9013318AA40232046CDF8008082
S31508001A9015A900F06FFF41F203031390139A9A42B7
S31508001AA002D0139B079378E5D4F888202E4B9A42E8
S31508001AB005D0142384F8463041F20503F2E794F87A
S31508001AC0443033B9EB70142384F8463041F20603E8
S31508001AD0E8E7EB78002B3BD094F84530DB0707D5D1
S31508001AE0FE682EB1424640463B6804F18401B04781
S31508001AF0236E6BB37E685EB34FF0FF3304F180014B
S31508001B00042214A81493059102F021F920B10422A5
S31508001B103B6805991548B04704F168090422494607
S31508001B2014A802F014F998B14FF000639B6A1422C6
S31508001B30D3F8108004F16C0108F10800D7E90036E3
S31508001B40B047D7E900360422494608EB0200B047F9
S31508001B500123AB700E2384F846300023A2E7002346
S31508001B60EB7041F2070019E5E320BBDE04800008AC
S31508001B702DE9F04385B0E84604464046994601F00B
S31508001B80A4FF054670BB4A464146204601F071FF50
S31508001B90054638BB039FB7F1804F27D240F6FF763C
S31508001BA0164BB7F5800F28BF1E46F31923EA06061B
S31508001BB06169B74238BF374611B1A36ABB4217D02D
S31508001BC04846D9F8043098470023394663614846A1
S31508001BD0D9F800309847606150B94946204601F067
S31508001BE03FFF0225284605B0BDE8F083044EDCE732
S31508001BF098E80F00A76284E80F00F3E7FFFF0F00DD
S31508001C00FFFF3F000A4B186830B9B1F5205F0DD8C1
S31508001C10012208481A607047012806D1B1F5005F0D
S31508001C2003D8022204481A6070470020704700BF94
S31508001C302C100020A0300020A010002031B1044A4A
S31508001C401368002BC4BF03F1FF331360704700BF4E
S31508001C502C10002030B5002585B0089CCDE900354C
S31508001C60029413460A460146074801F0ABFE22785D
S31508001C7030B941F20233AA4208BF184605B030BD52
S31508001C8041F20330FAE700BF3010002002232DE9A5
S31508001C90F04F80468946002789B0DFF8ACA0DFF808
S31508001CA0ACB002928DF817309DF81720022A0AD098
S31508001CB0029B23B141F20231012A18BF0F4638466A
S31508001CC009B0BDE8F08FDAF800001D4DC0F5407385
S31508001CD00693DBF800301B4A07930DF117030093B0
S31508001CE006A907AB2844FFF7B5FF07460028E6D143
S31508001CF0069BDAF8004029461C4424F003063246BF
S31508001D004B464046FFF7D0FAB4420746A4EB060214
S31508001D1005D02846A919039202F036F8039A0799BE
S31508001D20CAF80020DBF800208A42A2EB010404D995
S31508001D3004482246014402F027F8CBF80040B3E7EE
S31508001D40A45A0020A0580020A45D0020A05A002014
S31508001D5008B570220021064802F030F8012200205A
S31508001D60044B1A70044B1860044B186008BD00BF7A
S31508001D7030100020A85D0020A45D0020A05A002095
S31508001D802DE9F8430646586888461446994648B3E6
S31508001D901E4B1D78A5B100221A7051F8043B052286
S31508001DA033661B481B4BFFF7E3FE60BB184801F080
S31508001DB0E7FCD6F88C50184B9D420CBF1925112507
S31508001DC0164F641B3B68C3F50073A3420CD33E68E9
S31508001DD01348224608EB0501304401F0C8FF0020ED
S31508001DE034443C60BDE8F883002249463046FFF794
S31508001DF04DFF0028F6D13B68C3F50073A342E6D22F
S31508001E0041F20430EEE741F20530EBE7A85D002029
S31508001E1030100020AC5D0020F80C0CF8A05A002009
S31508001E20A0580020F8B54C6806460D46ECB10122CC
S31508001E30FFF72CFF0446C0B90E4B186888B10E4F41
S31508001E400428C0F104024FF0FF0188BF002238447D
S31508001E5001F0B4FF2B46042239463046FFF724FA30
S31508001E6028B90649064801F024FE2046F8BD04466E
S31508001E70FBE700BFA45D0020A45A0020AC5D00204B
S31508001E80301000204FF4803208B5044B9A66FEF7EE
S31508001E90AFFBB0FA80F0400908BD00BF00900040D3
S31508001EA0072BF8B506460F4614461D4601D90020ED
S31508001EB0F8BD01212020FEF72BFB01212120FEF78A
S31508001EC027FB8CB144EA06039B07F0D14FF4803216
S31508001ED0064B31469A66284623463A46FEF7ECFBF9
S31508001EE0B0FA80F04009E3E70120E1E700900040FE
S31508001EF0134610B562B103439B070BD14FF48034E8
S31508001F00054B9C66FEF79CFBB0FA80F0400910BDB5
S31508001F100120FCE70020FAE7009000401FB500F119
S31508001F20006303F500430393104B144698421BD8ED
S31508001F30039A0F4B9A4217D2039A9B1AA34213D3BA
S31508001F4058B94FF000639B6A0A4A5869904204D907
S31508001F5018690191FFF796FF01992246039804B084
S31508001F60BDE8104001F0E2BD04B010BDFF7FFFF7E9
S31508001F7000E00708008000087FB56FF0006200F1F6
S31508001F807841914203461AD26D460E4A02F110066E
S31508001F902C4610685168083203C4B2422546F7D168
S31508001FA05A1E0DF10F010F3311F8010912F8014FEE
S31508001FB0844204D19A42F7D1012004B070BD0020B2
S31508001FC0FBE700BF943F00082DE9F041036804468B
S31508001FD003F16043B3F5803FA0B034D84FF00063F7
S31508001FE09B6A42681E6996422DD8394B9A422AD86E
S31508001FF0456B06F14002AA4268D89D4266D8284633
S31508002000FFF7BAFF002861D0284601F0C2FD80B16B
S315080020106B6973B1022B0FD1AB69C4F10401194482
S315080020204FF0FF322046FEF7C9FF2A4BC31A584223
S31508002030584120B0BDE8F08140F204632846049375
S31508002040FFF79AFF08B90020F3E7284601F0A1FD3B
S315080020500028F8D04FF00067D7F834804046FFF7DD
S315080020608BFF0028EFD0503EB045ECD8284605A98E
S3150800207001F096FD0028E6D0BA6A059B12699A42D5
S31508002080E1D89C42DFD8124A9342DCD806A8FFF76B
S3150800209057F8059A2146121B06A800F045FC06A823
S315080020A000F044FC059CFFF75BF80390FFF776F811
S315080020B021460090039B04F1200206A8FEF7C0FF04
S315080020C004900498B0FA80F04009B2E70120B0E71E
S315080020D000000808E320BBDE70B54FF0FF3290B071
S315080020E005460C46FEF76AFF1C4B984232D14FF460
S315080020F080621B4B00219A6601A81C2201F05EFE35
S31508002100184B29466846043C009300F0AEFA21466F
S31508002110684600F0AAFA684600F0B0FA01F0FDFC3D
S315080021200646B8B940F2022000F0A6F91C2231464C
S3150800213009A801F043FE0C4B294608A8089300F0AD
S3150800214094FA08A8214600F090FA08A800F096FA32
S3150800215001F0E3FC002010B070BD00BFE320BBDE39
S315080021600090004001000543010006434FF48062D9
S3150800217030B50446154B91B09A6600211C2201A879
S3150800218001F01CFE124B21466846009300F06DFADA
S31508002190684600F073FA01F0C0FC054698B940F2AB
S315080021A0022000F069F91C22294609A801F006FE5A
S315080021B0084B08A82146089300F057FA08A800F02B
S315080021C05DFA01F0AAFC002011B030BD0090004075
S315080021D000000243000003434FF4806210B50F4B22
S315080021E08CB004469A6600211C2205A801F0E6FD7B
S315080021F00B4B01940493012302930A4B01A904A8EB
S31508002200039300F028FA04A800F038FA01F085FCD8
S31508002210B0FA80F040090CB010BD00BF0090004035
S3150800222000000843040000200048704700800008AA
S3150800223038B50C46054680B179B100230B60074BCB
S31508002240036000F06EFA01301EBF2B6843F4C043EA
S315080022502B60236843F40003236038BD0C12000882
S31508002260044B1846016881F3088881F30988406899
S315080022708746FEE70060000813B54FF480303749FB
S31508002280374A4B6E5066486E4FF000414AF6CD34D9
S315080022905166344903F480334A6C0C6402F0010237
S315080022A04C6BE407FCD401242F494C60A1F500517E
S315080022B00C6BE407FCD50AB12C4A0A640028A2BFB5
S315080022C04FF000412A4A51661BB94FF48032284B19
S315080022D05A664FF04023D3F88420110606D44FF4EB
S315080022E000621A67D3F88420D206FBD401F07DFC7D
S315080022F000F0B4F808B900F099F800F066FA044658
S3150800230058B900F0ABF808B100F0A0F840F2012087
S3150800231000F0DCF84FF4017018E000F09FF808B9F7
S3150800232000F08CF800F0B4F8012802D900F07EF825
S31508002330FEE700F0B9F80F4B0193019B002B0ADC6E
S3150800234040F205439C42E5D140F2032000F0BEF876
S31508002350002002B010BD019B013BEDE70080004064
S315080023600090004000400940006009403254FFFFD9
S3150800237000A0004000350C0013B501244FF040239F
S315080023808DF806408DF80740D3F894305B0610D5D3
S3150800239000F0B0F8A0F2022080B2072809D804FAA3
S315080023A000F010F0C90F1EBF00238DF806308DF817
S315080023B007301B4B5B68013308D14FF4027000F0FD
S315080023C05BF800238DF806308DF807309DF8073046
S315080023D05BB11348FFF7F8FD8DF806009DF8063047
S315080023E01BB94FF4027000F047F89DF80630ABB100
S315080023F000F034F808B100F029F84FF480330721CB
S31508002400084A0748936602F52032C2F82011A2F559
S315080024101C329366044B9860FFF722FF02B010BD8A
S31508002420006000080090004000ED00E04CF23C32ED
S31508002430014B5A80704700BF000000204AF6C032A0
S31508002440014B5A80704700BF000000204FF20F0270
S31508002450014B5A80704700BF000000204AF6C03082
S31508002460044B5B8823F00F039BB21B1A5842584152
S31508002470704700BF00000020044A08B51080FFF727
S31508002480EDFF10B94FF20F03538008BD000000207E
S3150800249008B5FFF7E3FF18B1024B588800F00F00A4
S315080024A008BD00BF0000002008B5FFF7D7FF48B1F8
S315080024B0054A538803F00F010F2914BF013323F08F
S315080024C00F03538008BD00BF0000002008B5FFF7C2
S315080024D0D3FFBFF34F8F0549054BCA6802F4E06284
S315080024E01343CB60BFF34F8F00BFFDE700ED00E05D
S315080024F00400FA054FF20F01084B5A888A4201D1A7
S31508002500188870473AB91B8840F20220012B18BF79
S315080025104FF4007070474FF40070704700000020B9
S31508002520064B0748DA1C121AC11E22F0030299420A
S3150800253088BF0022034901F01ABC00BFBC5D002019
S31508002540AC5D00204C400008064B0748DA1C121AFE
S31508002550C11E22F00302994288BF0022002101F021
S315080025602DBC00BFAC5D0020101000200348044AB3
S315080025700449121A921001F0DEBB00BF7001000870
S3150800258070010008AC5D0020044B054A9A60D3F838
S31508002590882042F47002C3F88820704700ED00E0F6
S315080025A0000000082422002101F008BC70B5154679
S315080025B00E4624220021044601F000FC25F04003C3
S315080025C0802B02D0B5F5807F08D12046314640F8E9
S315080025D0045BEA0801F0CBFB002070BD6FF01F001A
S315080025E0FBE7B0F5802F24D010D8B0F5003F22D0F5
S315080025F006D828B3B0F5803F14BF0120482070479D
S31508002600B0F5403F14BF01202C207047B0F5302F9D
S3150800261013D008D8B0F5E02F11D0B0F5202F14BF8D
S31508002620012010207047B0F57F0F14BF0120062047
S3150800263070474B2070472A20704711207047212089
S315080026407047436813B9416070475B685A68012A46
S31508002650FBD159607047836813B9816070475B681E
S315080026605A68012AFBD159607047C369032B9FBF7B
S3150800267000EB83020133D160C3617047C369042B41
S3150800268015D84FF09842116CC902FCD504339B004B
S3150800269013650168103B116041680C30116050F8F1
S315080026A0041C034411604FF09842984200D17047C9
S315080026B050F8041B1160F8E738B50C461146054674
S315080026C0FEF76AF828B12946204601F050FB00209B
S315080026D038BD40F20240FBE738B50D4611460446C0
S315080026E0FEF75AF880B940F2024016E0E158013187
S315080026F014D104339A42F9D8AB0707D102232946E5
S315080027002046FFF7CDFB05E00023F3E729462046E0
S31508002710FFF7EEFB0028E6D0002038BD40F2034064
S31508002720FBE70220704738B541EA0003C3F30C0300
S3150800273004460D469BB9FEF72FF848B125442046B6
S3150800274004F50054FFF79EFBAC4204D00028F6D1EE
S3150800275040F2024038BD0028FAD00020FAE740F2DD
S315080027600440F7E730B59FB034220021054601A89A
S3150800277001F024FB01A8FEF797FA049C012C1ED948
S3150800278021460EA8FEF742F818B140F205539842C2
S315080027900ED100230EAA52F8041B481C0AD11EAA01
S315080027A002EB8303214643F8405C0EA8FEF7C0F807
S315080027B01FB030BDA94205D001339C42EBD140F28F
S315080027C00250F5E740F20350F2E713B54FF0FF3336
S315080027D0002402216846CDE90034FEF717F830B127
S315080027E040F2055398420FD1012300940193009BB0
S315080027F0591C03D01846FEF707F928B1019B5A1C45
S3150800280002D01846FEF700F902B010BD01221A7070
S3150800281070471FB50023CDE90033CDE90213D0F880
S315080028203032044693B9D0E98A329A420ED26946C2
S31508002830FEF780F9D4F8300298B141F2070240F267
S315080028400123904208BF184604B010BDA3785BB1B7
S3150800285040F2022040F20323E278002A18BF184605
S31508002860F2E740F20120EFE740F20220ECE737B545
S315080028700C4605461146204601F0BFF948B9694697
S315080028802846FEF71DF920B9019BC4F82452C4F85E
S31508002890283203B030BD38B500F5DE7204460D4661
S315080028A0202300F5AA712C30FEF754FDD4F83032F7
S315080028B01BB9D4E98A329A4203D3A07800B1E078EA
S315080028C038BD29462046FEF735F9EFE7682200218C
S315080028D001F074BA0023C0E900331846704707B5FB
S315080028E000F128030190009300F108030020FEF789
S315080028F0B1FA03B05DF804FB02460B4600F1280165
S315080029000830FEF7BBBA1FB50C46194600F1480356
S31508002910CDE90142009300F1440200F1580320304A
S31508002920FDF7CAFC04B010BDFFF7D9BF0146FFF793
S31508002930E3BF70B5D1E90152AA4205D290F84030FA
S315080029402B449B1A402B10D9002012E00A6890F8F5
S315080029504040D65C90F841200133224402F03F0201
S31508002960013486548B6080F840408B689D42EDD8D0
S31508002970012070BD2DE9F84390F840C017469E46E1
S31508002980D1E90123089DD21A6244954204460E46AF
S315080029909DF824909DF828800AD9FFF7CAFF0028D9
S315080029A06CD1142341F2020084F84630BDE8F8835E
S315080029B075455AD8002394F840200AB19D423AD169
S315080029C0D6E90121914201D29D4246D89D4252D173
S315080029D029463846D4F88820FEF7F0FAC4F8880065
S315080029E0B9F1000F04D02A463946E06CFFF79CFF80
S315080029F0B8F1000F08D094F843308BB12B463A460D
S31508002A003946A06CFFF77FFF94F8433043B1E36D76
S31508002A10A26D2B449342E36524BF002384F8433018
S31508002A20D4F81C3141F203002B44C4F81C31636D01
S31508002A302B446365BAE794F84120A25CFA5494F8EB
S31508002A4041200133013202F03F0284F8412094F814
S31508002A504020013A84F84020ADE73268525CFA54C7
S31508002A60B26801330132B260AAE741F201001423C9
S31508002A7084F846309AE741F20200F8E7002095E725
S31508002A80826CF0B5531EB3F5887F18D8D0E9093C97
S31508002A90D0E90B47C91A914228BF11464569866B8A
S31508002AA02FB9C768A7EB040E8E4598BF07630C4479
S31508002AB0521AC462826419448B4201D14362F0BD42
S31508002AC0B34234BF644600249A1B2A44125DEA5472
S31508002AD00133F1E72DE9F04F93B008910E92036B9D
S31508002AE0D0F82CB00793436A0093079B002B40F05D
S31508002AF09D80C368089A0099A3EB0B03521A9A4261
S31508002B0040F294800B444FF0FF37D0E90DA9856851
S31508002B10099307FA05F5ED430F954568C36B07FA60
S31508002B2005F5ED43109500250193036C046902939E
S31508002B30436C0C950393036804F244650D9343694B
S31508002B40026A0493836A05950693D0E906360F9DB3
S31508002B50B6F1807F05EA0B084FEA0A150A9508EBD5
S31508002B600A1C3CBF13F8015B360234F81C7038BFE8
S31508002B7045EA0222F50A7D43954240F2B480C7F53C
S31508002B80006607EB561624F81C60079E04F66C6C64
S31508002B9056EA0B0115D0109E00990BEA06070D9E02
S31508002BA0B740002944D1069E013E04998E5D0D99D1
S31508002BB0C1F1080E46FA0EF637444FF4C06606FB16
S31508002BC007CCBAF1060F0BF1010B3DD80126BAF175
S31508002BD0030F94BFAAEB0A0AAAF1030AB5F1807F8C
S31508002BE038BF13F801EB4FEA460638BF2D023CF80A
S31508002BF0067038BF4EEA02224FEAD52E07FB0EFEB4
S31508002C0096450CEB060816D9C7F5006507EB551768
S31508002C107546BFB2FF2EA8F80070DFD90499009F49
S31508002C20CE5539462E4601310091A1E1089B6AE747
S31508002C3000994E1EB9E7A7EB5717A5EB0E05A2EBB1
S31508002C400E02BFB20136E5E70099069FA1EB090619
S31508002C50494528BF00270499BAF10A0F0E44F15DC9
S31508002C6034BF032606264FF48078AAEB060A012607
S31508002C700A910A99B5F1807F4FEA410108EB0607E8
S31508002C800A9101EA080138BF13F801EB0F4438BF6F
S31508002C902D020B910CEB47013CF8177038BF4EEA32
S31508002CA002224FEAD52E07FB0EFE964511914FEAF2
S31508002CB046060DD9C7F5006507EB551775460B99F6
S31508002CC0BFB228EA01081199FF2E0F80D1D9A5E7CE
S31508002CD0A7EB5717DDF82C80A5EB0E05A2EB0E0225
S31508002CE0BFB20136EFE7761BA7EB5717B6F1807F21
S31508002CF024F81C70A2EB05020AF1C00E3CBF13F8BB
S31508002D00015B360234F81E7038BF45EA0222F50A1E
S31508002D107D4395424FEA4E0C40F2D3800399C7F59E
S31508002D2000660B91029907EB56160391019924F850
S31508002D301E60CDE901910AF10C0A04F26467B5F147
S31508002D40807F3CBF13F8016B2D02B7F800C038BF6F
S31508002D5046EA0222EE0A0CFB06F6964240F2798112
S31508002D604FF0000ECCF500650CEB55153D8007EBD2
S31508002D70081704374FF008094FF0010CB6F1807FA9
S31508002D8038BF13F8018B4FEA4C0C38BF360237F8B8
S31508002D900C5038BF48EA02224FEAD62805FB08F845
S31508002DA0904507EB0C0140F28481C5F5006605EBFA
S31508002DB056154646ADB2CC450D80DFD3AEEB090EAF
S31508002DC00EEB0C01BAF10B0F0A9140F2A58203290A
S31508002DD088BF4FF49C6E4FF001059CBF4FEAC11E99
S31508002DE00EF5587EB6F1807F4FEA450538BF13F8D1
S31508002DF001CB05EB0E0838BF360234F8087038BF29
S31508002E004CEA02224FEAD62C07FB0CFC944540F20A
S31508002E105A81C7F5006607EB56176646BFB23F2DBF
S31508002E2024F80870DED9403D032D3BD905F0010C86
S31508002E300D2D4FEA55074CF0020C00F25A814FF05F
S31508002E40010EC5F10049013F0CFA07FC09F2AF294A
S31508002E50E1444FEA49016546F1460B910B99B6F1F3
S31508002E60807F4FEA4E0E38BF13F8018B714438BF86
S31508002E70360234F801C038BF48EA02224FEAD6289B
S31508002E800CFB08F8904540F22781CCF500660CEB60
S31508002E90561C46461FFA8CFC013F24F801C04FEA2F
S31508002EA04909DBD1079905F10109002940F020827B
S31508002EB0AB4500F22082009B4362012013B0BDE8B7
S31508002EC0F08F0799A7EB571751EA0B01A6EB0506F2
S31508002ED0A2EB050224F81E70EFD0B6F1807F38BF4A
S31508002EE013F8015B0CF1180E38BF360234F80E7071
S31508002EF038BF45EA0222F50A7D4395425BD9C7F5F4
S31508002F0000660A9907EB561624F80E60B5F1807F1D
S31508002F1001F1F00E38BF13F8016BC64438BF2D0215
S31508002F2034F81E7038BF46EA0222EE0A7E439642FD
S31508002F3028D9C7F50065009907EB5515069F24F8AB
S31508002F401E50494528BF0027A1EB09050499BAF187
S31508002F50070F0D44ED5D009F38BF4FF0090ACD55A8
S31508002F60394628BF4FF00B0A013100910BF1010BCE
S31508002F700999009DA94240F281810E9999423FF62E
S31508002F80E6AD7BE1AD1B921B019ECDF80490B146E0
S31508002F90A7EB571724F81E700399BAF1070F0B9180
S31508002FA0029934BF4FF0080A4FF00B0ACDE9029197
S31508002FB004F66827C3E6761BA7EB5717B6F1807F9A
S31508002FC024F80E70A2EB05020CF1300E3CBF13F884
S31508002FD0015B360234F80E7038BF45EA0222F50A5C
S31508002FE07D43954206D9C7F5006607EB561624F8C1
S31508002FF00E60D1E7761BA7EB5717B6F1807F24F84A
S315080030000E70A2EB05020CF1480C3CBF13F8015BED
S31508003010360234F80C7038BF45EA0222F50A7D43B9
S3150800302095420AD9C7F5006607EB561624F80C60D0
S31508003030DDE9016101910296AEE70399521B751B02
S31508003040019E01910299A7EB571724F80C7003917A
S31508003050F1E7AD1BACEB5C1CB5F1807FA7F800C0AF
S31508003060A2EB06023CBF13F8016B2D02B7F802C0AB
S3150800307038BF46EA0222EE0A0CFB06F696420BD940
S31508003080CCF500650CEB55157D8007EB08174FF05E
S31508003090080E07F582776DE6ACEB5C1C921BA7F869
S315080030A002C04FF0100E4FF4807907F50177AE1B7A
S315080030B062E6A5EB5515A6EB0806A2EB0802ADB22B
S315080030C00CF1010C77E6A7EB5717A6EB0C06A2EB5B
S315080030D00C02BFB20135A2E6ACEB5C1CA6EB0806F7
S315080030E0A2EB08021FFA8CFC0EF1010E45EA09054F
S315080030F0D2E6053FB6F1807F3EBF13F8015B360284
S3150800310045EA02227608921B4FEA4C0C0CF1010C98
S3150800311006EAE275013F0CEBE27C2A44EAD1B6F1F5
S31508003120807F38BF3602B4F846E64FEA0C154FEAF8
S31508003130D62C0EFB0CFC3CBF13F8017B47EA022297
S3150800314094455ED90227CEF500660EEB561E1FFA89
S315080031508EFE0599BCF1807FA4F846E631F817E0A3
S315080031604FEA470601EB47083EBF13F8017B4FEAD3
S315080031700C2C47EA02224FEADC270EFB07F7974298
S315080031804BD9CEF5006C0EEB5C1E1FFA8EFE059928
S31508003190A8F800E0B7F1807F31F816C04FEA460E6E
S315080031A001EB46083EBF13F8016B3F0246EA0222CE
S315080031B0FE0A0CFB06F696423AD9CCF500670CEBEC
S315080031C0571C1FFA8CFC0599B6F1807FA8F800C039
S315080031D031F81E704FEA4E0C3EBF13F801EB36026B
S315080031E04EEA02224FEAD62E07FB0EFE96452AD94C
S315080031F00599C7F5006607EB561621F80C60764662
S3150800320050E6AEEB5E1EA2EB0C0203271FFA8EFEFB
S3150800321045F00105A6EB0C0C9BE7AEEB5E1ED21B38
S315080032201FFA8EFE013645F00205ACEB0707AEE73E
S31508003230ACEB5C1C921B1FFA8CFC0EF1010E45F0E0
S315080032400405BE1BBFE70599A7EB571745F0080508
S3150800325021F80C70691CA6EB0E06A2EB0E027FF491
S3150800326021AE0A99AAF10C0A01F589710C91DDE9DA
S3150800327001910191039902910B990391B6F1807F0F
S315080032803CBF13F8014B3602C0E906360C9B38BF23
S3150800329044EA02228364009B02624362019BC0F8EF
S315080032A02CB0C363029BC0F838900364039BC0F834
S315080032B034A04364036B1BB9C3685B4598BF0363BB
S315080032C00899FFF7DDFB436A089A9342836C07D295
S315080032D082690E998A4203D2B3F5897FFFF4FFAB60
S315080032E0B3F5897F02D94FF4897383640020E5E535
S315080032F00799A942DDE5BAF1130F34BF4FF0070A63
S315080033004FF00A0A0A99009D01F1020C0999B1EBDE
S31508003310050809D12B46CFE5DDE90191019103990D
S3150800332002910B990391EDE7E04528BFE046009925
S31508003330069FA1EB0905494528BF0027ACEB080104
S315080033400C9106993D444F1BB8450499009FC34408
S315080033500F440CD8009907EB080C6D1A41440091EC
S3150800336017F805E007F801EBBC45F9D100E608EBCC
S31508003370070C049911F805E0069907F801EB0135E1
S31508003380A94208BF0025BC45F3D1009941444BE446
S315080033902DE9F047D0E9075301278468D0F82C8037
S315080033A0A740D0F834C0013F066907EA080707EBCB
S315080033B00C1EB5F1807F36F81E900A4407D291425A
S315080033C080F0DC8111F8014B2D0244EA0323EC0A54
S315080033D009FB04F4A34278D2076B06F66C6658EA32
S315080033E0070519D0D0E900E70125BD40013D05EAEA
S315080033F0080505FA0EF7456AD0F8148005B9856AF6
S31508003400013D18F80550CEF1080E45FA0EF53D4473
S315080034104FF4C06707FB0566BCF1060F20D80120EC
S315080034204000B4F1807F375A07D2914280F0A681D6
S3150800343011F8015B240245EA0323E50A7D43AB4202
S3150800344029BF01302C46641B5B1BFF28E8D90120E5
S31508003450B4F1807F80F02281914228BF00201DE1CF
S31508003460876BD0F824C04569BC45ACEB070E2CBF6A
S315080034700027876A05EB0E0010F807C001204FF4F5
S3150800348080774FEA4C0C07EA0C0E3D187544B4F1E8
S31508003490807F36F8158007D2914280F06F8111F847
S315080034A0015B240245EA0323E50A08FB05F540000B
S315080034B0AB422BBF01302C46774627EA0E0724BFBE
S315080034C0641B5B1BFF28DCD9C1E7281B0CF1C00C69
S315080034D0B0F1807FA3EB04034FEA4C0436F81CC016
S315080034E007D2914280F04A8111F8015B000245EA51
S315080034F00323C50A0CFB05F5AB4280F0A080022029
S315080035004FF0000E06F2646CB5F1807FBCF80080BF
S3150800351007D2914280F0328111F8014B2D0244EA1C
S315080035200323EC0A08FB04F4A34280F0EB800CEBBF
S31508003530071707F1040C00274FF008094FF0010898
S315080035404FEA4808B4F1807F3CF808A007D29142B8
S3150800355080F0148111F8015B240245EA0323E50A89
S315080035600AFB05F5AB4229BF08F101082C46641B86
S315080035705B1BC845E4D3BEF1030F3FF669AFA7EB63
S3150800358009074744032F88BF4FF49C674FF001058E
S315080035909CBFFF0107F558776D0006EB050CB4F1E3
S315080035A0807F3CF807E007D2914280F0E78011F867
S315080035B001CB24024CEA03234FEAD42C0EFB0CFC65
S315080035C0634529BF01356446A4EB0C04A3EB0C0341
S315080035D03F2DE1D9403D032D7FF63AAF0D2D4FEA39
S315080035E0550700F2B18005F0010C013F4CF0020CC2
S315080035F0C5F100450CFA07FC05F2AF25654406EB54
S3150800360045064FF0010C4FEA4C0CB4F1807F36F8B2
S315080036100CE007D2914280F0B18011F8015B2402D8
S3150800362045EA0323E50A0EFB05F5AB4231BF2C46F6
S31508003630641B5B1B0CF1010C013FE4D108E7401B3E
S315080036403444B0F1807FB4F818C0A3EB050307D261
S31508003650914280F0938011F8015B000245EA03234A
S31508003660C50A0CFB05F5AB4222D20EF1F00EB5F1F8
S31508003670807F36F81E4006D291427FD211F8010BA0
S315080036802D0240EA0323E80A6043834208D2B0F1D8
S31508003690807F71D2914234BF03200020BDE8F087B5
S315080036A02D1A1B1A03204FF00C0E06F6682C2BE772
S315080036B0401BB0F1807FB4F830C0A3EB050306D2F7
S315080036C091425BD211F8015B000245EA0323C50A61
S315080036D00CFB05F5AB42E5D3401BB0F1807FB4F88F
S315080036E04840A3EB050306D2914247D211F8015B85
S315080036F0000245EA0323C50A6543AB4224BF5B1BA8
S31508003700451BCFE72D1BB5F1807FBCF80280A3EBE4
S31508003710040306D2914231D211F8014B2D0244EA34
S315080037200323EC0A08FB04F4A34205D20CEB0717A3
S3150800373007F5827C0827FFE61B1B10274FF48079C4
S315080037400CF5017C2C1BF9E6053FB4F1807F06D207
S31508003750914213D211F8015B240245EA0323640857
S315080037601D1BED0F013D2540013FA3EB0503ECD1E1
S31508003770042706F2446644E703208FE700208DE716
S3150800378000230122C0E90B33C0E912324362836584
S31508003790026570472DE9F04F98460025044685B026
S315080037A09DF83830DDF83CB0D8F80070C8F80050FD
S315080037B007EE901A16460293FFF762F98BF8005047
S315080037C0A36CB3F5897F09D1236A13B901238BF852
S315080037D00030256A003D18BF01251EE0E36C4BB397
S315080037E0A36DA7B1042B04D994F85C30CBB101259D
S315080037F013E05A1CA26516F8012B234483F85C20B3
S31508003800D8F80030013F0133C8F80030E8E7042B48
S31508003810EAD8032300258BF80030284605B0BDE812
S31508003820F08FD4F85D20E36412BA22624FF0FF32BB
S31508003830A365E26117EE902A636A93420DD3A36CDF
S31508003840002B40F0B180256A002D40F0B580042396
S315080038508BF80030E1E70223DCE700230193236DB0
S315080038609BB1D4E900321A444FF4407393400022C6
S31508003870216903F23673934225D80123C4E910332C
S31508003880C4E90E33002363632365D4F85890B9F16D
S31508003890000F5DD1132F01D9019B03B33A46314678
S315080038A02046FFF775FD054698B93A46314604F1B4
S315080038B05C0000F05CFAA765D8F800303B44C8F80D
S315080038C000300323C4E74FF4806021F81200013268
S315080038D0D1E7019A0AB102286AD1324602E0A7F175
S315080038E01402324417EE901A2046A661FFF7F2F842
S315080038F000287FF47CAFA169D8F800308E1B3344CA
S31508003900C8F80030BF1B0E465AE716F80A2009F118
S31508003910010903F809200AF1010AB9F1130F01D8C0
S31508003920BA45F2D1B9F1130FC4F8589004F15C0303
S3150800393001D9019AAAB119464A4620460393FFF7C8
S3150800394027FD039B054640B9D8F800305344B6E72F
S315080039504FF0000A04F15B03DFE7019909B1022879
S3150800396026D11A4617EE901A2046A3610193FFF74F
S31508003970B1F800287FF43BAFA269019BD31A994599
S3150800398010D3A9EB030292450CD3D8F80020534470
S31508003990A3EB09010A444F44C8F800203144FF1A32
S315080039A0A065B0E70B2538E7029B002B3FF453AF21
S315080039B002238BF800301AE7029B002B3FF44BAF2B
S315080039C001234BE72DE9F04F89B099469DF84C3015
S315080039D004460393002388461646DDF848A0176870
S315080039E0DAF800B01360CAF80030D4E909318B421E
S315080039F004BF00236362656A149A4B1BBB4232BF3D
S31508003A000023039B7919CDE9003220464A4607ABC5
S31508003A10CDF81CB0FFF7BEFE079ADAF800306169E8
S31508003A201344CAF80030636A029029444046914418
S31508003A30ABEB020B5A1B0593049200F098F9059B11
S31508003A40049AED1A3368904413443360029B2F445A
S31508003A5013B90AB1002FC8D1029809B0BDE8F08F92
S31508003A6010B504464B680846216998470023236128
S31508003A7010BD70B5D1E900532B444FF440759D40F5
S31508003A8003690446164605F2367523B1436DAB4203
S31508003A9001D1002070BD31462046FFF7E1FF3046D0
S31508003AA0336869009847656520610028F1D10220CE
S31508003AB0F0E738B504460D46FFF7D2FF6B6828468F
S31508003AC0616998470023636138BD042A01D8042038
S31508003AD07047D1F80130B3F5805F38BF4FF4805393
S31508003AE0C3600A78E02AF2D80923B2FBF3F303EBA2
S31508003AF0C301521AD2B202600522B3FBF2F2826007
S31508003B0002EB82029B1ADBB2436000207047436DCA
S31508003B10002B0CBF1120012070474FF098435A6CB8
S31508003B20D202FCD5586D00F470207047C0F30C0320
S31508003B302DE9F04105460F4616460BB9FEF7A2F9E0
S31508003B4005F5005424F4FF5424F01F0405EB060879
S31508003B50A04507D8324639462846BDE8F041022333
S31508003B60FEF79EB92046FEF78DF904F50054EFE7F7
S31508003B7070B44FF00065AD6A03462E69864206D8D2
S31508003B806C6913449C4202D370BCFFF7CFBF70BC6C
S31508003B907047036913F0FE0F0CBF01200020704721
S31508003BA038B504460D46FEF7E7F948B16369012BB7
S31508003BB009D12046FFF7EDFF08B1A3692B6038BD90
S31508003BC001202C60FBE70020F9E74FF0FF3313B51F
S31508003BD0044601A80193FEF7FFFA20B1019BA34210
S31508003BE02CBF0020012002B010BDFCF7F7BDFCF782
S31508003BF005BE4FF40170FEF769BCB1F50D7F10B52F
S31508003C0004460FD34FF40D72002100F0D7F804F5DF
S31508003C10DE7204F5AA7104F12C000023BDE81040F9
S31508003C20FDF798BB40F2052010BD13B50446009178
S31508003C3001462C30FDF7CAFBC4F8300218B141F230
S31508003C400703984209D1A3784BB140F2032040F20A
S31508003C500223E278002A08BF184602B010BD40F2D7
S31508003C600120FAE72DE9F04387B00DF1080904466B
S31508003C700E4617460021102248461D46DDF83880B4
S31508003C8000F09CF800211C22C8F80010284600F015
S31508003C9095F832463B462146CDF8009004F12C00B3
S31508003CA0FDF794FB23789A0744BF6268C8F800209A
S31508003CB0DB0709D504F1080304F1240253F8041BB1
S31508003CC0934245F8041BF9D1237840F20640002BAD
S31508003CD018BF002007B0BDE8F0834FF40D70704799
S31508003CE038B54FF000639B6A05461A69546BA242C1
S31508003CF001D3012038BD5B69A342FAD92046FEF7F5
S31508003D003BF90028F5D0236913F0FE030ED1696844
S31508003D10226A91420CD9102204F1280105F10C00FF
S31508003D2000F015F8B0FA80F04009E3E70020E1E773
S31508003D301846DFE7FEE74AB1002310B550F82340DE
S31508003D4041F8234001339342F8D110BD7047013939
S31508003D50024410B5904201D1002005E0037811F81D
S31508003D60014FA34201D0181B10BD0130F2E70A44E7
S31508003D70431E914200D1704710B511F8014B91428C
S31508003D8003F8014FF9D110BD884210B501EB0204C2
S31508003D9002D98442234607D8431EA14208D011F807
S31508003DA0012B03F8012FF8E7024401468A4200D1A5
S31508003DB010BD13F8014D02F8014DF7E7024403461A
S31508003DC0934200D1704703F8011BF9E70000000091
S31508003DD000000000000000000000000000000000D5
S31508003DE0F8B500BFF8BC08BC9E467047F8B500BFDA
S31508003DF0F8BC08BC9E467047100203002800000065
S31508003E002800000000200000000008000000000054
S31508003E10040000000000004001000000020000004D
S31508003E2000600408000003000040040800C0020007
S31508003E3000600408000003000040040800C00200F7
S31508003E4000010000A90C0008C10A0008F10A0008D0
S31508003E50410C0008850C0008310900080D08000807
S31508003E60652700086F28000813280008B10B00080A
S31508003E70ED070008B9260008D926000827270008F4
S31508003E80232700086A09E667BB67AE853C6EF372AE
S31508003E90A54FF53A510E527F9B05688C1F83D9AB07
S31508003EA05BE0CD1980000000000000000000000063
S31508003EB000000000000000000000000000000000F4
S31508003EC000000000000000000000000000000000E4
S31508003ED000000000000000000000000000000000D4
S31508003EE000000000FD0707FD511D0008811D0008A0
S31508003EF0251E00080F3B0008EB17A6030201000069
S31508003F0003000000FA0606FA0F040000030000008A
S31508003F10F40A0AF40505000001000000EB17A65E86
S31508003F200A03000003000000F50909F5030700006D
S31508003F3001000000F60808F6060800000000000068
S31508003F40FE0101FE0808000000000000FD0303FD55
S31508003F500C08000000000000FD0707FD130800001C
S31508003F6000000000F90707F9100900000200000028
S31508003F70F30B0BF3110A000003000000F70A0AF717
S31508003F80120B000003000000FC0404FC0D0C0000EA
S31508003F9003000000B814B6F1E0CFF3ADB7DD25C9CC
S31508003FA0FA79B7130000000007B0CD5E02000000E2
S31508003FB003000502604000000060000800000808D1
S31508003FC0F1040100EB3B0008EF3B0008C91F00089D
S31508003FD0FB3B00082B3C0008403E0008653C0008F7
S31508003FE0DB3C0008000000003122000829220008F6
S31508003FF013B779FAC925DDB7ADF3CFE0F1B614B832
S3150800400001020000000000005C40000040000000C3
S315080040100300050200000000000000000000000088
S315080040200000000000000000000000000000000082
S315080040300000000000000000000000000000000072
S311080040404C400008AC5D002004000000A5
S3150800404C051C00083D1C0008D5010008B101000834
S7050800017180
