S01800007261696C746573745F5A4732335F3434322E73333716
S315080000000008002055150008DBEB0108DBEB0108AA
S315080000105B070208DBEB0108DBEB0108DBEB0108F9
S31508000020DBEB0108DBEB0108DBEB0108DBEB010886
S31508000030DBEB0108DBEB0108DBEB0108DBEB010876
S31508000040DBEB0108DBEB0108DBEB0108DBEB010866
S31508000050DBEB0108DBEB0108DBEB0108DBEB010856
S31508000060DBEB0108DBEB0108DBEB010845120008B6
S3150800007035120008DBEB0108DBEB0108DBEB0108B6
S31508000080DBEB0108DBEB0108DBEB0108DBEB010826
S31508000090DBEB0108DBEB0108751D0008DBEB01084B
S315080000A0DBEB0108DBEB0108B11E0008891E00081E
S315080000B0DBEB0108DBEB01089D6B010805760108FF
S315080000C09B12020897120208D16D0108A7120208AE
S315080000D09F120208DD750108A31202086976010855
S315080000E0A5760108DBEB0108DBEB0108DBEB010871
S315080000F0DBEB010833020208DBEB0108DBEB010846
S31508000100DBEB0108DBEB0108DBEB0108DBEB0108A5
S31508000110DBEB0108DBEB0108DBEB0108DBEB010895
S31508000120DBEB0108DBEB0108DBEB0108DBEB010885
S31508000130DBEB0108DBEB0108DBEB0108DBEB010875
S31508000140DBEB0108DBEB0108DBEB0108DBEB010865
S31508000150DBEB0108DBEB0108AD08020885C80108DE
S31508000160DBEB0108DBEB0108E52B0208EB2B0208A9
S31508000170013800D0FCE770472DE9F04F2DED028BD2
S3150800018093B082460C4693461D4657EC106B8DED90
S31508000190080B32463B46304639461DF0A1F8002882
S315080001A000F009814FF0FF32B14B304639461DF059
S315080001B0BFF8002840F0FF804FF0FF326FF480133D
S315080001C0304639461DF096F8002840F0F4800022A3
S315080001D00023DDE90867304639461DF08BF800280C
S315080001E040F0FC809DED087B8DED067B209B13F48B
S315080001F08063119301D106231E93DDE906010246A9
S31508000200C1F30A50C1F31303904643F07F5949F4EA
S315080002104019A0F2FF301CF091FD83A3D3E9002317
S315080002201CF0F6FD82A3D3E900231CF03BFC06462E
S315080002300F4600228F4B404649461CF031FC7EA3F0
S31508000240D3E900231CF0E4FD02460B463046394646
S315080002501CF028FC1DF076F806461CF06FFD80465B
S31508000260894677A3D3E900231CF0D2FD0022824BEE
S315080002701CF018FC1DF066F8074673A3D3E90023A3
S31508000280404649461CF0C4FD8046894638461CF05F
S3150800029055FD6FA3D3E900231CF0BAFD02460B46B1
S315080002A0404649461CF0FCFB8046894602460B46FA
S315080002B01CF0AEFDCDE90C0107F2FF370021002244
S315080002C0CDE90A123B050B9300230A9342464B4697
S315080002D0404649461CF0E6FBCDE90E0142464B4630
S315080002E000204FF080411CF0DBFB80468946002247
S315080002F0624BDDE90C011CF0B5FE0022604B1CF0D8
S31508000300D1FB02460B46DDE90C011CF0ABFE0022D0
S315080003105C4B1CF0C7FB02460B46DDE90C011CF0E2
S31508000320A1FE02460B46404649461CF0BBFB024668
S315080003300B46DDE90E011CF095FE0022524B1CF01F
S31508000340B1FBDDE90A231CF063FD8046894649ECCA
S31508000350188BDDE906231CF0EBFF40B1013E0022B5
S31508000360474B404649461CF07DFE41EC180B06F10A
S315080003706303C62B3BD80427209B13F4006F40D099
S3150800038035A3D3E90023DDE90689404649461CF032
S31508000390C5FF00283BD032A3D3E90023404649468F
S315080003A01CF0A8FF002832D01E9BB34221DD9E1BFD
S315080003B0731E1E931FE0209B02931F9B01931E9B97
S315080003C000939DED080B2B465A462146504600F0F1
S315080003D0CBF813B0BDEC028BBDE8F08F9FED227B06
S315080003E08DED067B069607F100430793FEE6052783
S315080003F0C2E700231E93209B43F4806320930027C3
S315080004003E461F9B9F4241D2A3EB070840E01E9B36
S31508000410002BF6D0119B002BF3D01E9B013B1E939D
S31508000420EFE700BFAFF30080FB799F501344D33F3B
S31508000430B3C8608B288AC63F61436F63A787D23FDC
S3150800044071A379094F930A401655B5BBB16B0240A3
S31508000450EF39FAFE422EE63F2D431CEBE2361A3FF1
S315080004600000000080842E4100000000000000000B
S31508000470FFFFEF7F0000F83F0000E03F00002C4040
S3150800048000002440000018400000F03F4FF000082C
S31508000490209B13F0020902D00FB14FF000083EB1BD
S315080004A053EC182BDDE906011CF0DCFDCDE906014D
S315080004B000220023DDE908011CF01CFF00283BD1BF
S315080004C0209B23F400630293CDF804801E9B0093BF
S315080004D09DED060B2B465A462146504600F044F839
S315080004E0002F3FF476AF209B13F0200F2CD04FF04F
S315080004F0450C00F101082B46024621466046D047C6
S3150800050086EAE672A2EBE67205230593013F049795
S31508000510002303930A230293F30F019300922B46B9
S3150800052042462146504620F0D2FBB9F1000F3FF46F
S3150800053050AF02461F9F10E0DDE90601024601F1B1
S315080005400043CDE90623BBE74FF0650CD1E7561CFF
S315080005502B4621462020D0473246A2EB0B03BB424E
S31508000560F5D3104635E700BF2DE9F04F2DED028B88
S3150800057093B00590089192469B4659EC108B1E9DA8
S3150800058042464B46404649461CF0AAFE002840D043
S315080005904FF0FF326FF48013404649461CF0AAFE1E
S315080005A0002845D14FF0FF32B14B404649461CF072
S315080005B0BFFE00284BD1AAA3D3E9002340464946EB
S315080005C01CF0B6FE00285AD1A7A3D3E9002340465B
S315080005D049461CF08FFE002851D1002200234046D0
S315080005E049461CF087FE002857D100230993209B13
S315080005F013F4806F5CD000241F2C5BD8092D59D9C1
S3150800060004F148036B44302203F8202C013D0134E1
S31508000610F2E7209B03931F9B029303230193954BB9
S3150800062000935B4652460899059820F076FA10E141
S31508000630209B03931F9B0293042301938E4B0093E5
S315080006405B4652460899059820F067FA01E1209B17
S3150800065013F004030FD0894A7BB104232099039130
S315080006601F990291019300925B4652460899059894
S3150800067020F053FAEDE0824AEEE70323EEE7209BEB
S3150800068002931F9B0193009549EC108B5B465246DB
S3150800069008990598FFF770FDDBE042464B460020B7
S315080006A000211CF0FDF980468946012309939EE73F
S315080006B00625A0E7404649461CF044FE06461CF0BF
S315080006C03DFB02460B46404649461CF0E9F96D4B90
S315080006D003EBC50393ED008B53EC182B1CF098FB2A
S315080006E002460B46CDE906231CF054FE07461CF0CD
S315080006F015FB02460B46DDE906011CF0D1F9024658
S315080007000B46CDE9062300225F4B1CF011FE50B3C1
S31508000710013738461CF002FB02460B4651EC180B13
S315080007201CF0F2FD08B10136002755BB30461CF017
S3150800073005FB02460B46404649461CF0B1F9804681
S3150800074089460022504B1CF0D5FD38B100224E4B8D
S31508000750404649461CF0ECFD002842D016F0010F31
S315080007603FD001363DE00022474BDDE906011CF08B
S31508000770C1FD0028D9D117B117F0010FD5D001371F
S31508000780D3E71F2C17D8013D404BA3FB0723DB08F3
S31508000790194603EB8303A7EB4303621C303304F1CA
S315080007A048000DEB000404F8203C092F02D90F4637
S315080007B01446E6E714461F2C0AD86B1E45B104F109
S315080007C048026A44302102F8201C1D460134F2E72B
S315080007D01F2C06D804F148036B442E2203F8202C5C
S315080007E001341F2C17D82A4A82FB0632F317C3EBAB
S315080007F0A2031A4603EB8303A6EB4303611C3033BB
S3150800080004F148000DEB000404F8203C16460AB132
S315080008100C46E6E70C46209B03F00303012B39D070
S315080008201F2C09D8099B002B51D004F148036B44AF
S315080008302D2203F8202C0134209B03931F9B02933F
S3150800084001940AAB00935B4652460899059820F036
S3150800085064F913B0BDEC028BBDE8F08FAFF30080EE
S315080008600000000065CDCD410000000065CDCDC17A
S31508000870FFFFEF7F682203086C2203085C22030847
S3150800088064220308782203080000E03FCDCCCCCCD4
S31508000890676666661F9BB3B1099B1BB9209B13F05D
S315080008A00C0F12D01F9B013B1F93194606E004F15B
S315080008B048036B44302203F8202C01348C42AFD213
S315080008C01F2CF4D9ACE71F99F8E71F99F6E7209B88
S315080008D013F0040F07D004F148036B442B2203F8E6
S315080008E0202C0134A8E7209B13F0080FA4D004F1AC
S315080008F048036B44202203F8202C01349CE700BFF0
S3150800090038B508462DED028B15461CF007FA1FA3CD
S31508000910D3E900231CF0A6FB02460B4643EC182B32
S31508000920002200231CF0F0FC044648BBB0EE480A3F
S31508000930F0EE680A00F03CF816A3D3E9002351EC60
S31508000940100B1CF0AFF802460B4614A1D1E90001C2
S315080009501CF088FB13A3D3E900231CF0A1F800229E
S31508000960094B1CF055FA41EC100B1DF0CDFF51EC6C
S31508000970100B1CF0E7FC28802046BDEC028B38BD26
S315080009800120FAE7AFF300800000204000000000D5
S31508000990006AF8409679D0187A2C2C40000000009E
S315080009A00068B04066666666661271400000000020
S315080009B038B555EC104B2DED028B00F045F8224664
S315080009C02B4620462946B0EE408AF0EE608A1DF096
S315080009D0E9FF98B900220023204629461CF0A8FC06
S315080009E060B900220023204629461CF079FC60B134
S315080009F01DF08EFB22239FED0C8B0360B0EE480A98
S31508000A00F0EE680ABDEC028B38BD1DF081FB212291
S31508000A1003460748BDEC028B1A60BDE8384000F073
S31508000A200BB800BFAFF30080000000000000F0FF25
S31508000A30A0210308000000009FED010B704700BFCE
S31508000A40000000000000F87F53EC102BB3F5801F60
S31508000A502DE9F04F1C4687B058DA23F000411046BE
S31508000A60114300F0F780002B1946C0F234810022AA
S31508000A70D94B1CF0CDF90C460B46D84902466FF007
S31508000A8035008C4246DC2515D549C4F31304A5F276
S31508000A90FF3521440544D34801F48011484005EB4D
S31508000AA0115540EA0403104600221946CD4B1BF0A7
S31508000AB0F7FFA31C82468B46C3F31303022B32DCD3
S31508000AC0002200231CF00CFC002800F0CE80002D2C
S31508000AD000F0928128461CF031F906460F46AAA373
S31508000AE0D3E900231CF094F904460D4630463946EE
S31508000AF0A7A3D3E900231CF08BF902460B46204630
S31508000B0029461BF0CFFF41EC100B09E0B349002042
S31508000B108C42B8DD104619461BF0C4FF41EC100B99
S31508000B2007B0BDE8F08F00224FF080431BF0BAFFF4
S31508000B3002460B4650465946DFF8B8821CF092FA30
S31508000B4006460F4628461CF0F9F832463B46A044AE
S31508000B50CDE9040130463946CDE902671CF058F95B
S31508000B6002460B46CDE900231CF052F906460F460D
S31508000B7089A3D3E900231CF04BF989A3D3E9002301
S31508000B801BF090FF32463B461CF042F986A3D3E998
S31508000B9000231BF087FF32463B461CF039F984A335
S31508000BA0D3E900231BF07EFFDDE900231CF030F9B2
S31508000BB081A3D3E90023CDE90001304639461CF06C
S31508000BC027F97FA3D3E900231BF06CFF32463B4687
S31508000BD01CF01EF97CA3D3E900231BF063FF324601
S31508000BE03B461CF015F90B460246DDE900011BF0F1
S31508000BF059FF7D4B06460F461B1B43EA0803002B8D
S31508000C005BDD0022794B504659461CF001F95246E5
S31508000C105B461CF0FDF880468946002D64D14246A5
S31508000C204B46304639461BF03DFFDDE902231CF0F2
S31508000C30EFF802460B46404649461BF031FF02468E
S31508000C400B46504659461BF02BFF41EC100B07B0DC
S31508000C50BDE8F08F00220023002065491CF002FA47
S31508000C6041EC100B07B0BDE8F08F59A3D3E9002378
S31508000C70504659461CF0CCF802460B4600205B4904
S31508000C801BF00EFF06460F4652465B46504659462F
S31508000C901CF0BEF802460B46304639461CF0B8F83A
S31508000CA006460F46002D56D102460B465046594673
S31508000CB01BF0F6FE41EC100B32E7002D40F09F804A
S31508000CC002460B46504659461BF0EAFEDDE902236A
S31508000CD01CF09EF8B3E71BF0E3FE002200231CF08D
S31508000CE0C1F941EC100B1BE727A3D3E90023DDE983
S31508000CF004011CF08DF842464B4604460D46304624
S31508000D0039461BF0CFFEDDE902231CF081F80646C2
S31508000D100F461FA3D3E90023DDE904011CF078F888
S31508000D2002460B46304639461BF0BCFE02460B46C9
S31508000D30404649461BF0B4FE52465B461BF0B0FEE1
S31508000D4002460B46204629461BF0AAFE41EC100B2C
S31508000D5007B0BDE8F08F28461BF0F0FF80468946AD
S31508000D6009A3D3E900231CF053F804460D46404670
S31508000D70494607A3D3E900231CF04AF802460B4666
S31508000D8030463946D6E700BF0000E0FE422EE63F71
S31508000D90763C7935EF39EA3D44523EDF12F1C23FDF
S31508000DA0DE03CB966446C73F599322942449D23F23
S31508000DB0935555555555E53F9FC678D0099AC33F73
S31508000DC0AF788E1DC571CC3F04FA97999999D93F8A
S31508000DD0555555555555D53F00005043FFFFEF7FF4
S31508000DE0645F09000000F03F51B806000000E03FCC
S31508000DF0000050C386EBF9FF9FED0D0B90E6DDE989
S31508000E0004890DA3D3E90023404649461CF000F89F
S31508000E1032463B4604460D46504659461BF040FEB0
S31508000E20DDE902231BF0F4FF06460F469FE700BFE5
S31508000E3000000000000000000000E0FE422EE63F31
S31508000E400348044B834202D0034B03B1184770474B
S31508000E50CC0F0020CC0F002000000000064B0749ED
S31508000E60C91A891048BF0131491003D0044B0BB188
S31508000E7001481847704700BFCC0F0020CC0F002050
S31508000E800000000010B5064C237843B9FFF7D8FFD9
S31508000E90044B13B10448AFF300800123237010BD3F
S31508000EA0FC660020000000007C85030808B5054B99
S31508000EB01BB105490548AFF30080BDE80840FFF7B8
S31508000EC0CDBF00BF00000000F01200207C8503089B
S31508000ED0A3F5803A704700BF174B002B08BF134B8A
S31508000EE09D46FFF7F5FF00218B460F461348144A27
S31508000EF0121A21F085FF0E4B002B00D098470D4B98
S31508000F00002B00D098470020002104000D000D4852
S31508000F10002802D00C48AFF300801DF0FFF820002F
S31508000F2029001DF057FD1CF035FC00BF0000080025
S31508000F30000000000000000000080020CC0F002080
S31508000F4074670020000000000000000000B585B0AE
S31508000F50094B1868094B1860094B0A4A13600A4A74
S31508000F6001920A4A12680292039301A91EF000FC34
S31508000F7005B05DF804FB00BF1C0800205C4C00208F
S31508000F8010080020584C0020F0BB02082408002056
S31508000F9008B5024B18681EF003FC08BD1C080020A3
S31508000FA038B50EF0ABFE0446064D2B68D3F8B002F2
S31508000FB00EF098FE28681EF010FC20460EF092FEF1
S31508000FC038BD00BF1C080020044B1B68834202D0B2
S31508000FD0034B186870470148704700BFE81A00209D
S31508000FE0081B002008B50948094B1860094B1B68FF
S31508000FF003600A23C360084B4361084B8360084BB0
S315080010004360002303761FF00AF908BDE81A00209A
S31508001010081B00201C080020E815002004BC020854
S3150800102010BC020808B501F01BFB1EF096F8264A0C
S31508001030136F23F0070343F00303136701F066FDFC
S31508001040224B9B6A13F0807F03D1214B4FF48032E9
S315080010509A621D4BD3F8202122F0070242F00202C1
S31508001060C3F82021D3F8282122F0070242F0020211
S31508001070C3F82821D3F8402122F0030242F00202E5
S31508001080C3F84021D3F8602122F0030242F002029D
S31508001090C3F86021D3F8402222F0030242F002028C
S315080010A0C3F84022D3F8002222F0070242F00202D7
S315080010B0C3F80022D3F8082222F0070242F00202FF
S315080010C0C3F80822002008BD008000500040005ADE
S315080010D00060005A10B4194B5A6E02F4803203F5B8
S315080010E080514FF480304866586E4FF000434B6687
S315080010F0134B596C01F001014AF6CD341C64104BB0
S315080011005B6B13F0010FFAD10E4B01245C600C4B9C
S315080011101B6B13F0010FFAD011B1094B0A49196478
S31508001120002803DB094B4FF0004159661AB9074BF3
S315080011304FF480325A665DF8044B704700800050C1
S3150800114000400950006009503254FFFF00A00050CB
S31508001150022907D808B5044B1B68186808B1436A02
S31508001160984708BD704700BF2008002030B59FB0DB
S31508001170254C0DF1580CA646BEE80F00ACE80F004A
S315080011809EE80F008CE80F00302200210AA821F003
S3150800119037FE1E4B0A9301228DF82D2056230C93F9
S315080011A008230F93092311930A23139308AB2034BA
S315080011B094E8030083E803000DF1080C0024029468
S315080011C0039404940594069407948CE803000B236F
S315080011D08DF810300C238DF811300D4B0593202314
S315080011E006938DF81C200B4B00930AAB16AA614692
S315080011F009480EF0F7FD054621464FF4E1301DF08B
S31508001200DDFC28461FB030BD20BC02080000015B8B
S315080012100C1B00202C1B00209C1B002008B5034932
S3150800122003480FF0C9FAFFF7A1FF08BD28080020F8
S31508001230C01B002008B502481FF076F808BD00BF9D
S315080012409C1B002008B502481FF06EF808BD00BFB9
S315080012509C1B002008B5024B1A6A1868904708BDFF
S315080012609C1B002010B58AB00023069307930893A9
S315080012700993254B0693254906A816F01BFB244B14
S31508001280186030B10023059305A920F0EAFB08B1E0
S31508001290FEE7FEE71E4C1F4A1F4B1968206816F02A
S315080012A003FE002120681EF029FA00B1FEE71B495B
S315080012B0174B186816F050FE00B1FEE7184A40F2C0
S315080012C03F23CDE900234FF0FF324FF0FF3310499B
S315080012D0086820F061F900B1FEE7124B1B88ADF8EB
S315080012E01030ADF80C3004A9094B186820F031F914
S315080012F000B1FEE703A9064B186820F042F900B1D1
S31508001300FEE70AB010BD00BF1DEB010801EB01089E
S315080013103008002009EB010800080020070011002A
S31508001320EFFFF3FF48BC020882B0054B019302ABFE
S3150800133003EB800050F8043C186802B0704700BF01
S31508001340300800202DE9F04180460F4601F10905D5
S315080013500026344604E05B21082000F09DFA01349B
S31508001360AC4233D2052C1BD801A353F824F000BF96
S315080013705713000889130008BD13000891130008C5
S315080013809513000899130008FBB20433D9B2E3E7B2
S315080013908021E1E70021DFE7731C3146DEB2DBE797
S315080013A0BB1DA3420CD0FB1DA3420BD007F10803BB
S315080013B0A34209D0A31F18F80310CDE7D121CBE724
S315080013C05A21C9E75A21C7E75D21C5E70020BDE8CC
S315080013D0F08100BF00B583B002218DF8001000220D
S315080013E005481DF0D5FB019008216846FFF7AAFFBE
S315080013F003B05DF804FB00BF006A1800024B102218
S31508001400C3F8A020704700BF00E00350024B10222B
S31508001410C3F8A020704700BF00D0035070B588B04D
S3150800142001AC3F4D0FCD0FC495E8070084E80700CF
S3150800143001213A2001F00AF80121292001F006F8D5
S3150800144001248DF81240374B0393374E01A93046D5
S315080014501DF088FF234604222146022001F09AFF48
S31508001460002322460221084601F094FF234604225F
S315080014700321022001F08EFF234604221146022092
S3150800148001F088FF294D2A4BC5F8AC374FF00213F7
S31508001490C5F8A837A3F58033C5F8B0371C23C5F8B7
S315080014A098374FF4487010F0C5F8FFF7A7FF1420D7
S315080014B010F0C0F8FFF7AAFF232010F0BBF8FFF7DB
S315080014C09DFFB92130461DF09BFFFFF79FFF0023C4
S315080014D01A462146022001F05DFF00231A46022122
S315080014E0084601F057FF234600220321022001F097
S315080014F051FF234600220421022001F04BFF30460B
S3150800150002F0F2F80021C5F8AC17C5F8A817C5F817
S31508001510B017C5F89817292000F098FF08B070BDD5
S315080015204CBC020800127A0000C0055000C00350E7
S315080015300200030008B50448044A121A9210044926
S315080015401DF04CFB08BD00BF5C8D03085C8D0308CD
S315080015507467002008B500F02FF8FFF7EBFF124A72
S315080015600AE01068516850F8230041F82300013357
S3150800157091688B42F5D30C320C4B9A4201D2002368
S31508001580F6E70B4A08E01168002041F8230001330A
S3150800159051688B42F7D30832064B9A4201D2002390
S315080015A0F6E7FFF799FC00BF8485030890850308D2
S315080015B0908503089085030810B4144B144A9A6062
S315080015C0D3F8882042F47002C3F88820114A4FF4F1
S315080015D080419166104901F500524FF0FF301066C0
S315080015E00E4850660220C3F8D000BFF34F8FBFF3F2
S315080015F06F8F0B480124C0F880414FF44033D36005
S3150800160004600B615DF8044B704700BF00ED00E015
S315080016100000000800900050008000447FFF7F0112
S3150800162000E100E0014B1868704700BF3808002049
S3150800163008B5094B1B6F03F00703022B04D0032BD5
S3150800164005D0012B06D0FEE7FFF7ECFF03E0034BBE
S31508001650186800E0024808BD0080005040080020D5
S31508001660002D310108B5FFF7E3FF054B1B6FC3F3E8
S3150800167003330133B0FBF3F0024B186008BD00BF1B
S3150800168000800050340800200048704700B4C404A5
S31508001690014B1868704700BF4008002008B5064B84
S315080016A01860064B1B6F03F00703032B00D008BD19
S315080016B0FFF7D8FFFBE700BF400800200080005076
S315080016C000487047002D31014FF0B4439868C0F3C5
S315080016D004400C2808D8DFE800F0090707070707C1
S315080016E022181A071C1E2000002070474FF0B4432A
S315080016F09B6803F04073B3F1807F12D0B3F1007F8B
S3150800170011D003B17047094870470948704709481E
S31508001710704709487047094870470948704709489B
S315080017207047094870470948ECE700BF00093D00C3
S315080017300024F400C0EA210180BA8C010048E801BF
S31508001740005A6202405DC60080841E0040420F00B7
S31508001750014B1868704700BF3C080020F0B184466A
S31508001760F1B110B409E004F120000FE02033C01AEB
S3150800177018D1BCB10CF1010C01319CF800400B4B9F
S315080017801B5D03F00303012BEDD020460B78074AB7
S31508001790D25C02F00302012AE9D1E7E7012070478B
S315080017A0012070475DF8044B704700BF0D8403089D
S315080017B00346064A10680344054A934202D8034A78
S315080017C0136070474FF0FF30704700BF4408002091
S315080017D00000012008B501213A2000F037FE012358
S315080017E004220321002001F0D5FD00201DF03CFD58
S315080017F0224B0122C3F844244FF460701DF0C7FA47
S315080018001F4BD3F8F02042F00102C3F8F020D3F8BA
S31508001810FC2042F08072C3F8FC20A3F55D43194A08
S315080018201A6000F5D52000F2FC40C008164BA3FB51
S315080018300030800A0138154B18610222C3F8F020DF
S315080018404FF48072C3F804234FF06043104AC3F87C
S31508001850B02F104AC3F8802ED3F8002E42F48072B7
S31508001860C3F8002EFF2283F82020D3F8002E22F496
S315080018708072C3F8002E002008BD00BF00D00350B8
S3150800188000ED00E0FF03004017916502000004E048
S3150800189055CEACC5090001004FF06043D3F8803E31
S315080018A013F0010F01D1112070470E4AD2F8FC300F
S315080018B043F08073C2F8FC304FF06043D3F8002E33
S315080018C04FF0010C0CFA00FC42EA0C02C3F8002E99
S315080018D053F82030002BE8D04FF0604303F820106F
S315080018E00020704700ED00E0F0B585B00C46944640
S315080018F09DF83410664A1278002A00F0BD80054625
S31508001900BCF1070F00F2BA800A9A002A00F0B880E4
S315080019100B9A002A00F0B6800E9AB2F5006F00F313
S31508001920B38001285BD05B4A02EB0C12127B002ABB
S3150800193000F0AC8000220092019202920392564A6D
S3150800194002EB4C1E002C4FD14FEA4C16002090514A
S31508001950CEF80400CEF80800CEF80C009EF8020077
S3150800196040F010008EF802009EF8030040F03000A8
S315080019708EF8030021B9C1B241F003018EF80310B5
S3150800198000930E9B013B444A4FEA4C1002EB4C1164
S31508001990165A63F30E1616520A9B8B600B9B4B6006
S315080019A0CB789DF83C2062F38303CB70012D36D0AB
S315080019B0109B002B56D0374A4FEA0C1102EB0C133A
S315080019C010985050119A5A6000249C605D737246B4
S315080019D06946604601F08CFD204605B0F0BD0C9ABC
S315080019E0002AA0D12D48F8E72B4F4FEA4C1607EBF3
S315080019F04C120020B85150609060D060907840F04A
S31508001A0010009070D07840F00300D0700029B7D14C
S31508001A1007EB4C12C1B241F03001D170B0E70E4667
S31508001A200A7B42F001020A73D2B242F002020A733A
S31508001A30CA68042161F39F02F26006F1100796E86E
S31508001A400F0087E80F00F2696FF0030161F39F0248
S31508001A50F2610C9B7361012CAAD10B9AB2610C9AA4
S31508001A607260A5E7002DA6D10B4B03EB4C139A78B1
S31508001A706FF304129A709EE70948AEE70748ACE789
S31508001A800648AAE70548A8E70448A6E70548A4E7DC
S31508001A90FD660020C81C0020C81B0020018000F03D
S31508001AA0028000F0078000F0134B1B78FBB110B5DD
S31508001AB00446F0B11DF064FB0023072B13D80F4A28
S31508001AC002EB0312127B0AB10133F6E723600B4AD5
S31508001AD0190102EB031301241C73002454501DF052
S31508001AE055FB204602E01DF051FB054810BD054890
S31508001AF070470548FAE700BFFD660020C81C0020AD
S31508001B00048000F0028000F0018000F038B51DF076
S31508001B1037FB04460023072B06DC0C4A02EB0312AC
S31508001B20127B12B90133F6E7002222B120461DF0D6
S31508001B302DFB074838BD01F07DFC0025054B1D70BF
S31508001B4020461DF023FB2846F4E700BFC81C0020EA
S31508001B50058000F0FD6600200F4B1B78BBB110B561
S31508001B600446072815D81DF00BFB0C4B03EB041392
S31508001B701B7B1BB91DF00AFB09480BE0074B03EB5F
S31508001B80041300241C731DF001FB204602E00548DF
S31508001B907047054810BD00BFFD660020C81C002020
S31508001BA0068000F0028000F0018000F000B583B0E6
S31508001BB0134B1B68019300238DF804301DF0E0FADF
S31508001BC0104B1B7833B90F4B01221A701DF0DEFA41
S31508001BD0002309E01DF0DAFA0B480EE00B4A02EB87
S31508001BE00312002111730133072BF7DD08238DF843
S31508001BF0073001A801F04AFC002003B05DF804FB99
S31508001C0068BC0208FD660020038000F0C81C00209E
S31508001C1008B50A4B1B785BB107280BD8084B03EBB2
S31508001C2000131B7B43B1002101F022FC002008BDF4
S31508001C300448FCE70448FAE70448F8E7FD6600208C
S31508001C40C81C0020028000F0018000F0078000F028
S31508001C5008B50A4B1B785BB107280BD8084B03EB72
S31508001C6000131B7B43B1012101F002FC002008BDD3
S31508001C700448FCE70448FAE70448F8E7FD6600204C
S31508001C80C81C0020028000F0018000F0078000F0E8
S31508001C9008B50A4B1B7853B107280AD8084B03EB3B
S31508001CA000131B7B3BB101F06DFC002008BD054805
S31508001CB0FCE70548FAE70548F8E700BFFD66002097
S31508001CC0C81C0020028000F0018000F0078000F0A8
S31508001CD0104B1B78ABB1072815D8B1B10E4B03EBE7
S31508001CE000131B7B9BB10D4B1B6D0122824013EA2F
S31508001CF0020003D001230B700020704700230B70ED
S31508001D0070470748704707487047064870470648AF
S31508001D10704700BFFD660020C81C00200000045064
S31508001D20028000F0018000F0078000F00C4B1B7861
S31508001D3073B110B50C4607280CD869B1094B03EBEB
S31508001D4000131B7B53B101F02FFC2070002010BD3F
S31508001D50054870470548FAE70448F8E70448F6E7EF
S31508001D60FD660020C81C0020028000F0018000F0FB
S31508001D70078000F0F8B5194B1F6D5B6D1F4002D444
S31508001D800125002402E0FEE701346D00072C24D863
S31508001D903D42F9D0124B1D652301124AD358002B38
S31508001DA0F2D002EB0416B1680131B16072682046C0
S31508001DB0984780F00100C0B2737B012BE4D100285C
S31508001DC0E2D0094B03EB44131A7B6FF341021A73F3
S31508001DD01A7F6FF341021A77D6E7F8BD0000045060
S31508001DE000200450C81C0020C81B002010B504465B
S31508001DF002E0202007E09047DCB194FAA4F000281E
S31508001E00F7D0B0FA80F00123834024EA0304094B93
S31508001E1003EB00135A68002AEED0064B03EB0013B7
S31508001E201B7B002BE7D0034B03EB00139968904705
S31508001E30E2E710BD481D002008B51A2000F084FE10
S31508001E4028B1084B4FF08062C3F880211A601B2026
S31508001E5000F07AFE28B1034B4FF00062C3F88021E8
S31508001E601A6008BD00E100E038B505460C461DF0CD
S31508001E7087F9044B03EB05135C6000221A731DF007
S31508001E8085F938BD481D002008B5084BD3F8240449
S31508001E90D3F82024104000F0553020F0502003F5E8
S31508001EA00053C3F82004FFF7A1FF08BD00C0035084
S31508001EB008B5084BD3F82404D3F82024104000F0C2
S31508001EC0AA3020F0A02003F50053C3F82004FFF73A
S31508001ED08DFF08BD00C00350024B4FF480321A67CD
S31508001EE0704700BF0090005038B505460C46174BA2
S31508001EF0D3F8200100F00700062823D8DFE800F011
S31508001F00040A0E16121A1E00012305B1286004B130
S31508001F10236038BDFFF786FB0523F6E7FFF7B8FB16
S31508001F200323F2E7FFF7D0FB0723EEE7FFF7C8FB2B
S31508001F300223EAE7FFF776FB0623E6E7FFF7A8FBA7
S31508001F400423E2E700231846DFE700BF00800050BD
S31508001F5038B505460C46164BD3F8283103F0070367
S31508001F60013B052B20D8DFE803F003131B0F0B17E3
S31508001F70FFF758FB052305B1286004B1236038BD77
S31508001F80FFF750FB0623F6E7FFF79EFB0723F2E76A
S31508001F90FFF77EFB0323EEE7FFF77AFB0423EAE766
S31508001FA0FFF78EFB0223E6E700231846E3E700BFA8
S31508001FB00080005070B582B006460D460023019396
S31508001FC0104BD3F8804104F00304022C16D0032CDE
S31508001FD00FD0012C07D000240EB1019B336005B148
S31508001FE02C6002B070BD002101A8FFF77DFF0F2409
S31508001FF0F2E7FFF769FB01900724EDE7FFF760FBBF
S315080020000190E9E70080005038B505460C460C4BB0
S31508002010D3F8903203F00303012B05D0022B07D126
S31508002020FFF752FB072305E0FFF74AFB022301E00F
S315080020300023184605B1286004B1236038BD00BFE7
S315080020400080005030B583B005460C460023019346
S31508002050154BD3F8203203F00703042B21D8DFE809
S3150800206003F0030B11161B0001230DB1019A2A6018
S3150800207004B1236003B030BD002101A8FFF768FF53
S315080020801123F2E7FFF720FB01900723EDE71CF089
S31508002090B3FD01900A23E8E7FFF75AFB01900923ED
S315080020A0E3E70023E1E700BF0080005038B50546A6
S315080020B00C46104BD3F8400100F00300032815D84E
S315080020C0DFE800F002080C10012305B1286004B10E
S315080020D0236038BD1CF090FD0A23F6E7FFF738FBAE
S315080020E00923F2E71CF08BFD0B23EEE700231846C5
S315080020F0EBE700BF0080005030B583B005460C46BC
S3150800210000230193144BD3F8603203F00703013B15
S31508002110032B1FD8DFE803F0020E1914002101A8CB
S31508002120FFF7E2FE0F230DB1019A2A6004B123607E
S3150800213003B030BD002101A8FFF7B8FF1023F2E76E
S31508002140FFF7C2FA01900723EDE7FFF7B9FA019006
S315080021500223E8E70023E6E70080005030B583B0A5
S3150800216005460C46002301930C4BD3F8703203F056
S315080021700303012B09D0022B0DD114230DB1019AAB
S315080021802A6004B1236003B030BD002101A8FFF71F
S315080021908DFF1023F2E70023F0E700BF0080005010
S315080021A038B505460C46134BD3F8000200F0070075
S315080021B004281BD8DFE800F003090D1115000123D8
S315080021C005B1286004B1236038BD1CF015FD0A234B
S315080021D0F6E7FFF7BDFA0923F2E71CF010FD0B231B
S315080021E0EEE7FFF73FFA800A0E23E9E700231846D1
S315080021F0E6E700BF0080005038B505460C46134B8D
S31508002200D3F8080200F0070004281BD8DFE800F01E
S3150800221003090D111500012305B1286004B12360D7
S3150800222038BD1CF0E9FC0A23F6E7FFF791FA092303
S31508002230F2E71CF0E4FC0B23EEE7FFF713FA800A3B
S315080022400E23E9E700231846E6E700BF00800050A2
S3150800225038B505460C46104BD3F8400200F003008B
S31508002260032815D8DFE800F002080C10012305B191
S31508002270286004B1236038BD1CF0BEFC0A23F6E7CB
S31508002280FFF766FA0923F2E71CF0B9FC0B23EEE721
S3150800229000231846EBE700BF0080005038B5054616
S315080022A00C460F4BD3F8503203F00303022B12D01F
S315080022B0032B08D0012B0AD00023184605B1286045
S315080022C004B1236038BD1CF09AFC0B23F6E71CF01A
S315080022D093FC0A23F2E7FFF73BFA0923EEE700BF70
S315080022E00080005038B505460C46104BD3F86001FF
S315080022F000F00300032815D8DFE800F002080C10E8
S31508002300012305B1286004B1236038BD1CF074FCB4
S315080023100A23F6E7FFF71CFA0923F2E71CF06FFC1D
S315080023200B23EEE700231846EBE700BF00800050BA
S3150800233038B505460C46104BD3F8000100F00300EB
S31508002340032815D8DFE800F002080C10012305B1B0
S31508002350286004B1236038BDFFF79AF90323F6E72E
S31508002360FFF7F6F90923F2E71CF044FC0823EEE729
S3150800237000231846EBE700BF00800050B0F5207F29
S3150800238020D00ED8B0F5007F16D020D810B1B0F501
S31508002390C07F04D10F4B186FC0F3033018E000203C
S315080023A016E0B0F5607F05D10A4BD3F88000C0F37C
S315080023B001100DE000200BE0064BD3F89000C0F3A7
S315080023C0046005E0034B186FC0F3802000E000208E
S315080023D0013070470080005038B505460C46174B4B
S315080023E04FF480329A660020FFF7C8FF05FB00F01D
S315080023F0134BDA6902F4803241F67131D9635B68AE
S3150800240023F440136CB90F49884207D800210B43BF
S315080024100B494B600AB10022CA6338BD4FF48011DC
S31508002420F5E7002C07DD0849884201D80021EEE7C8
S315080024304FF48011EBE74FF44011E8E700900050A5
S3150800244000000350005A6202002D3101430905D0ED
S31508002450012B0DD0022B0DD0002200E0002200F047
S315080024601F0049B102F5805201238340136070476B
S31508002470034AF4E7034AF2E702F50052F4E700BF1D
S31508002480648000506880005008B580201CF07FFCEE
S31508002490034B984203D8034B4FF480321A6708BDA2
S315080024A0005A620200A0005000B583B000230193D1
S315080024B0B0F5807F00F0AF8011D9B0F5086F00F055
S315080024C0B48044D9B0F5286F00F0C38069D9B0F557
S315080024D0306F79D101A90020FFF796FD75E08028B5
S315080024E073D8242871D324385C286ED8DFE800F026
S315080024F04C4C4C4C4C6D446D98546D6D6D6D6D6DBA
S315080025006D6D6D6D6D986D6D6D39A76D6D6D6D6DBC
S315080025106D6D6D6D6D6D6D6DAC4C6D6D6D676D6DC5
S315080025205FB1A277776D6D6D6D6D6D6D6D6D6D6D4E
S315080025306D6D6D6D6D6D6D6D6D6D6D6D6D6D6D6DBD
S315080025406D6D6D6D6D6D6D6D6D6D6D6D7C00B0F540
S31508002550C06F65D00AD9B0F5E06F70D0B0F5F06FEE
S3150800256017D101A90020FFF7BDFE2EE0B0F5A06F38
S3150800257060D0B0F5B06F04D101A90020FFF71AFDAD
S3150800258023E0B0F5806F20D101A90020FFF7ACFC4D
S315080025901BE0B0F5D06F18D101A90020FFF700FEA7
S315080025A013E0B0F5186F4FD0B0F5206F04D101A92C
S315080025B00020FFF7A1FD08E0B0F5106F05D101A9CD
S315080025C00020FFF719FE00E003D2019803B05DF87A
S315080025D004FBB0F5386F23D0B0F5406FF5D101A9EB
S315080025E00020FFF7B5FCF0E71C4B1B6F03F0070351
S315080025F0013B032BE9D8DFE803F00B0205080523A6
S315080026000193E2E703230193DFE708230193DCE75D
S3150800261002230193D9E701A900201CF085FBD4E722
S3150800262001A90020FFF742FDCFE701A90020FFF727
S315080026307FFECAE701A90020FFF704FDC5E701A947
S315080026400020FFF705FEC0E701A90020FFF726FED8
S31508002650BBE701A90020FFF781FDB6E7008000501F
S31508002660044B4FF480125A66034B4FF480329A6239
S31508002670704700BF009000500050005A38B5044615
S315080026808020FFF711FF032800F0B580604B4FF458
S3150800269080125A665F4B45F60E02C3F8802003F592
S315080026A080524FF0A061916203F500534FF48032D7
S315080026B09A62584B9B6D13F4803FFAD1554B9B6D2C
S315080026C013F0804FFAD1226863681B0543EA026358
S315080026D0227B43EA0243627B43EA0233A27B43EA54
S315080026E08213E27B13434B4D2B61AB6903F0004326
S315080026F0226943EA8263626943EA0263227E43EA05
S315080027000243627E43EA0223A27E1343AB614FF47F
S3150800271000624FF4406140481CF024FB2B6A23F00A
S315080027200F03E269002A46D111460B43E17E43EACC
S3150800273081031A43374B1A62E369002B3DD1354AA8
S31508002740916A364B0B4094F8201043EA411394F8EB
S31508002750211043EA011394F8241043EAC10343F411
S31508002760803393622B4B9A6D2D4B9343FAD1294AAA
S3150800277002F580514FF080738B62136923F470035E
S31508002780A06843EA005313614FF000438B6194F845
S3150800279022301BB9234B4FF080729A6294F823308B
S315080027A013BB204B4FF480329A621A4B9B6D13F081
S315080027B0804FFAD118E00821B7E7022B1CD0154A3A
S315080027C0916A164B0B4094F8201043EA411394F88B
S315080027D0221043EA016394F8241043EAC10394F8EB
S315080027E0231043EA0143936294F825301BB1094B41
S315080027F00D4AC3F8802038BD064B00221A619A613B
S315080028004FF408524FF47F4108481CF0ABFAD6E75C
S31508002810009000500040005A3840005AC7FFFEFE9C
S31508002820030001000060005AF1A7FFFF3440005A78
S3150800283070B5124B9E6A9B6D13F4803F03D0104B04
S315080028404FF480329A620D4D05F580534FF0807132
S315080028509962AC69C4F3072432460A481CF082FA26
S31508002860AB6D13F4803F01D1204670BD32464FF45C
S31508002870803104481CF076FAF6E700BF0040005A9B
S315080028800050005A2840005A014B1870704700BF84
S31508002890A20F0020014B93F900007047A20F0020F9
S315080028A070B51D4B9E6AFF2834D804469B6D13F4F9
S315080028B0803F03D0194B4FF480329A62174B4FF082
S315080028C080729A62FFF7E6FF001903D4FF2802DD3B
S315080028D0FF2000E00020104DAB6923F47F0323F4AA
S315080028E07F4343EA00432402A4B22343AB61324642
S315080028F04FF080710A481CF035FAA86D10F4803044
S3150800290000D170BD32464FF4803105481CF02AFAD2
S315080029100020F6E72120F4E70040005A0050005A4C
S315080029202840005A08B5164B9A6A03F580534FF4A7
S3150800293080319962124B9B6D03F00303032BF9D187
S31508002940104B4FF0807199620D4B996D0E4B8B436E
S31508002950FAD10C4B01211965094B9B6D13F0020F37
S31508002960FAD1074B9B6D13F0020FFAD0044B9B6DFF
S3150800297013F0020FFAD0054905481CF0F3F908BD13
S315080029800040005A0050005A0300010000000101EF
S315080029902840005A10B443784F2B28BF4F231A46B5
S315080029A01C4B4FF40001596603F5B8334FF4D15167
S315080029B0596203F5805102244C6003F50053012146
S315080029C05960154B1B6913F4803FFAD1037842EA24
S315080029D00323114A5361416883681B0143EA0123B3
S315080029E0017B43EA4103417B0B439360817BC37BB5
S315080029F01B0143EA4113017C43EA4103417C0B4333
S31508002A005360837C1BB113466FF4D1525A625DF84A
S31508002A10044B70470090005000000250014B18808C
S31508002A20704700BF4E0F0020014B1880704700BF4B
S31508002A304C0F0020B0F5207F48D02DD8B0F5007F88
S31508002A4039D04CD810B1B0F5C07F24D110B54C1E82
S31508002A501CF096F91CF07AFBFFF73EFA204A136F32
S31508002A6023F4704343EA04331367FEF7FBFD1D4B5B
S31508002A70D3F8843013F0100FF9D11A4BD3F8841019
S31508002A80C1F38111C1F102011CF055FB00F02CF8CD
S31508002A90FFF7FAFC10BD7047B0F5607F0AD101391F
S31508002AA00F4AD2F8803023F0300343EA0113C2F804
S31508002AB08030704770470139094AD2F8903023F0C0
S31508002AC0F85343EA0163C2F8903070470139044A63
S31508002AD0136F23F4806343EA8123136770477047B3
S31508002AE0008000500040005008B54FF4C0701CF03C
S31508002AF04EF9054B984205D902214FF42070FFF78D
S31508002B0099FF08BD0121F8E780F0FA0208B5FEF73B
S31508002B10A9FD0C4BD3F8843013F0100FF9D1094BEB
S31508002B20D3F88410C1F38111C1F102011CF003FB33
S31508002B300121002000F0A0F8FFF7D6FFFFF7A4FC5C
S31508002B4008BD00BF004000504209064B53F822302A
S31508002B5000F01F0023FA00F080F0010000F00100E9
S31508002B60704700BF00E100E0044A536F23F4407346
S31508002B70417843EA01235367704700BF004000507D
S31508002B8010B50446094A136943F0040313610EF0AD
S31508002B9061F81CF0FEFA30BF1CF0FCFA0EF096F84D
S31508002BA004B110BDFEF75EFDFBE700BF00ED00E0D7
S31508002BB010B50446074A136943F0040313610EF07F
S31508002BC049F830BF0EF082F804B110BDFEF74AFD91
S31508002BD0FBE700BF00ED00E0034AD36E23F03003A5
S31508002BE001790B43D366704700400050F8B5044698
S31508002BF0204BD3F8843013F0100FF9D11D4BD3F8BE
S31508002C008430C3F381139C422DD0FEF711FD06468E
S31508002C10012C11D01CF0ADFA0546164F07F50053E6
S31508002C204FF000725A6620461CF0B9FA621E4FF43D
S31508002C30806393403B6706E001211CF07CFAE9E7D4
S31508002C400C4BD3F884300B4B5B6E13F0007F05D129
S31508002C50084BD3F8843013F0200FF1D028461CF027
S31508002C608CFA022C00D0F8BD002130461CF063FA1D
S31508002C70F9E700BF0040005010B50C46034650B1B6
S31508002C80094A127812B1094A934208D92146022004
S31508002C90FFF7ACFF10BDFEF7CBFC0346F0E7214675
S31508002CA00120FFF7A3FFF5E7481F0020005A62023C
S31508002CB008B50278034B1A7001210020FFF7DCFFE4
S31508002CC008BD00BF481F002038B52F4B4FF0004203
S31508002CD05A6603F50B235C6C04F001044AF6CD3200
S31508002CE01A64E8B9294B5B6B13F00103FAD1274A3A
S31508002CF0556815F0010539D002F5005201215160D9
S31508002D001A462249096B11F0010F04D120498A425B
S31508002D1001D80132F5E71E498A422FD81D4625E01B
S31508002D2000231A4A126B12F0080F04D0184A93426D
S31508002D3001D80133F5E7164A934221D8134B03F518
S31508002D4000522021916203F5805301225A60002324
S31508002D5000E001330D4A926A12F0200F02D10C4AA4
S31508002D609342F6D90A4A93420CD8002514B1074B68
S31508002D70084A1A641EF068FC284638BD0725F5E798
S31508002D800725F3E70725F1E70090005000400950B2
S31508002D903F420F003254FFFF70B5194BDC6E24F02A
S31508002DA0030444F00204DD6E45F003054AF6E852D2
S31508002DB01A661CF0DEF906461CF0CFF9114A136FA5
S31508002DC023F0070343F001031367FFF79FFE002074
S31508002DD0FFF77AFF1CF0E1F91CF0E0F9002303E0A5
S31508002DE0074AD466D5660133032BF9DD044BDC6646
S31508002DF003F510239B6A30461CF0BFF970BD00BF6F
S31508002E00004000500080005010B51A4B4FF00042A9
S31508002E105A6603F50B235C6C04F001044AF6CD32BE
S31508002E201A6443785B0043F00103134AD363134BD8
S31508002E305B6B13F00B0FFAD1104A536823F4F8733F
S31508002E40817843EA01135360C178437943EA012341
S31508002E5093600179837943EA012313610078FFF7C8
S31508002E6033FF14B1054B064A1A641EF0EDFB012028
S31508002E7010BD00BF009000500040005000400950AF
S31508002E803254FFFF10B50F2800D90F20124B5C6E85
S31508002E9003F580534FF000425A6603F50B235A6C2C
S31508002EA002F001024AF6CD3119640C4B5B6B13F044
S31508002EB0800FFAD109490B6A23F00F0303430B620B
S31508002EC00AB1074A0A64002C03DB064B4FF000429E
S31508002ED05A661EF0B9FB10BD00800050004009502C
S31508002EE03254FFFF00A0005010B5134B5C6E03F57B
S31508002EF080534FF000425A6603F50B235A6C02F0D2
S31508002F0001024AF6CD3119640C4B5B6B13F0800F46
S31508002F10FAD10A490B6A23F4F85343EA00230B62F1
S31508002F200AB1074A0A64002C03DB064B4FF000423D
S31508002F305A661EF089FB10BD0080005000400950FB
S31508002F403254FFFF00A00050084B98420AD0084BA5
S31508002F50984209D003F58043984201D00020704773
S31508002F605820704756207047572070470000015B6D
S31508002F7000000A5010B504461CF012F9042307E0B5
S31508002F8004F5805304221A6104F500531A610B46AE
S31508002F90591E002BF4D1202323610023E360A3608C
S31508002FA041F202026261A3614FF4A0226262E36108
S31508002FB02362A362E3626363236504F50052024950
S31508002FC0D164236310BD00BFFF3F0D03F8B5044667
S31508002FD015460846E1B1A36813F0010F34D06668B8
S31508002FE0B0FBF5F0451E16F001062BD0636D13F005
S31508002FF0280FFBD1A36C13F0030F0FD1A36C13F0AA
S31508003000010F1BD1A36C13F0020F19D1002706E09C
S315080030102046FFF799FF1BF0BAFEDCE70527204696
S315080030201CF0BEF8236923F07F4343EA0563236156
S3150800303046B3394620461CF0D2F823E00927EEE7C6
S315080030400627ECE70027EDE76368A36803F0E003CB
S31508003050402B1DD017D9602B1ED0802B12D10123EF
S31508003060400105FB03F3B0FBF3F020380B4A02EAF4
S31508003070C002636D13F0010FFBD12263636D13F079
S31508003080010FFBD1F8BD2BB1202BFBD10823E7E7B5
S315080030900623E5E71023E3E70423E1E7F8FF7F00CB
S315080030A070B504460D461646436823B1636DC3F3EF
S315080030B00B03002BFAD12046FFF75CFF636923F464
S315080030C04C5323F00F036A7B1343EA8913432A8A76
S315080030D013436361A36823F0804323F0E2032A7B4A
S315080030E013432A7E13436A691343A360AB681BB96B
S315080030F0A36843F00043A360EA69002A70D0A16878
S31508003100694B0B40117A43EA8153917A43EA41436A
S31508003110918801F4C0410B43517843EA8103517BFE
S3150800312043EAC103917B43EA0113927843EA822377
S31508003130A360E2685D4B1340EA6911690B43516964
S315080031400B43917943EA8123D27943EA4223E36028
S31508003150EB691B78012B01D0032B03D1E36843F0FD
S315080031600403E360EB691B78023BDBB2012B51D900
S315080031704F4B9C426BD04F4B9C426AD003F5804321
S315080031809C4262D04FF0FF3303F593735B0103F162
S31508003190A04303F5703302225A60EB695A7A04F5A4
S315080031A080539A62EB695B7A1BB1E36843F4006368
S315080031B0E360EB69DB7A63B1E36843F40043E360F9
S315080031C03B4B9C4247D03B4B9C424BD03A4B9C4294
S315080031D04FD0636A23F00303EA69D27B1343636221
S315080031E03EB196F82030002B4AD004F580530122D0
S315080031F01A62052120461BF0F2FFAA68002A4ED162
S31508003200297820461BF0EBFFA36CDB4313F4405FE1
S31508003210FAD170BD264B9C4213D0264B9C4212D045
S3150800322003F580439C420AD04FF0FF33A6335B0177
S3150800323003F1A04303F5703302225A60ADE7022377
S31508003240F4E70023F2E70123F0E702239CE70023D3
S315080032509AE7012398E7EB691B7B03F00F03174AEC
S315080032605366B0E7EB691B7B03F00F03134A13673A
S31508003270ACE7EB691B7B03F00F03104AD367A8E79B
S31508003280E36923F0090396F82220134396F82120D0
S31508003290134343F0010304F58052D361A9E7696833
S315080032A02046FFF793FEABE7E39BBDFFFFF9F087E8
S315080032B00000015B00000A5000400A5000900350CD
S315080032C02DE9F8430D4614461E469DF820809DF8C4
S315080032D02470072A29D8930000FA03F2032199409B
S315080032E021481BF0B3FF4FF00009072C29D8A1008D
S315080032F005F003028A40032303FA01F11B481BF079
S31508003300A5FF5EB31A4A0123A3401360B8F1000F64
S3150800331026D0184A13600122A2401749C1F8202472
S3150800332007B3164A1360BDE8F883A2F108094FEA05
S31508003330890300FA03F20321994011481BF086FF1E
S31508003340D3E74FEA890905F0030202FA09F20321D5
S3150800335001FA09F10B481BF079FFD2E70A4AD2E7CE
S315080033600A4AD7E70A4ADDE700C4035008C40350EF
S3150800337010D4035014D4035000E0035024D403504F
S3150800338004C403500CC4035010E4035014E403505F
S3150800339024E40350F8B504460D461E4617463AB1CE
S315080033A0FBB101228A4000EB400109011D4B5A502E
S315080033B0072D1ED8A90004EB44031B0107FA01F2E6
S315080033C00F2000FA01F1184818441BF03FFF3FB9D7
S315080033D0FEB10122AA4004EB44042401114B1A5100
S315080033E0F8BD01228A4000EB400109010F4B5A50F3
S315080033F0DEE7A5F108039B0004EB440C4FEA0C1C1E
S3150800340007FA03F20F219940094860441BF01EFF92
S31508003410DDE70122AA4004EB44042401034B1A51B8
S31508003420DEE700BF40D0035034C0035040E00350ED
S315080034303CC0035010B50C4B4FF48002C3F88020F3
S31508003440BFF34F8FBFF36F8F084B00245C65FF22D5
S315080034509A625C6021462020FEF7F8FF214621206B
S31508003460FEF7F4FF10BD00BF00E100E000000450C5
S3150800347029B9044A012303FA00F010607047024A8A
S31508003480F8E700BF401004504020045010B5044629
S3150800349001212020FEF7DAFF01212120FEF7D6FFC1
S315080034A0114B01225A60227812069A606178A27836
S315080034B042EA01429A61FF229A6200229A631A64DA
S315080034C04FF000425A6503F500534FF0FF321A6574
S315080034D0064A4FF48001C2F88011E3781B01DBB27B
S315080034E082F81633116010BD0000045000E100E0B8
S315080034F070B50C46C3B201259D40214E06F5005312
S315080035001D650968830003F1A04303F58823596004
S31508003510637B00EB400106EB01110B6694F80AC0C9
S31508003520E37A1B0543EA0C4394F80CC043EA4C5370
S31508003530CB6522F003020A671BF022FE736D2B434C
S315080035407365237A13B1336C2B433364637A1BB1E7
S315080035500B4A936B2B4393632379A27942EA03427E
S31508003560074B03F500518A616679E27942EA064219
S3150800357003F58054A2614D639D641BF007FE70BD80
S315080035800000045010B5C0B2012484401BF0F8FDB9
S31508003590044B5A6D22EA04025A659C621BF0F6FD3A
S315080035A010BD00BF0000045010B5C0B2012484400D
S315080035B01BF0E6FD084BDB6A234205D1064B5B6B25
S315080035C09C4306D0002400E000241BF0DFFD2046C3
S315080035D010BD0124F9E700BF0000045041B90630C8
S315080035E0084B53F8200020F0F8004004400C7047C0
S315080035F01230044B53F8200020F0F8004004400C29
S31508003600704700BF0080035070B50446C2F3062613
S3150800361002F0070241B942EA062242F44022063481
S31508003620094B43F8242070BD114630461BF04BFE6B
S31508003630054630461BF019FE45EA00251234024BB2
S3150800364043F82450EFE700BF0080035010B40C463F
S3150800365081B90E4942EA034241F8202064B90C496F
S31508003660D1F84836012282401343C1F848365DF83E
S31508003670044B70470749EDE70549D1F848360C3041
S31508003680012282401343C1F84836F0E74CC603507E
S3150800369000C003507CC60350014BD3F89400704712
S315080036A000400050074B4FF480325A6603F5E62374
S315080036B09B69C3F38512827003F03F0242701B0BAD
S315080036C00370704700900050064B984204D0C36DB3
S315080036D043F08003C3657047A3F51033C3F8D411CC
S315080036E0F5E700BF00C0055000F5805301225A6077
S315080036F040F6AA63436100238360C36541F205026D
S31508003700C2600361C361C36400F50052074991644E
S315080037108365074B984204D000F5005001234360A7
S315080037207047002303654365F6E700BFFFFF010006
S3150800373000C00550074B9B6813F0020FFAD1054BE2
S315080037405B6813F0020FF5D1024BDB69002BF1D150
S31508003750704700BF00800A50064B5B6813F0010FE4
S3150800376003D0044BDB69002BF6D1024B02221A6107
S31508003770704700BF00800A5008B5FFF7DBFF034B10
S3150800378003F5805101224A601A6108BD00800A507B
S3150800379008B5054B5B68012B00D008BDFFF7DCFFB9
S315080037A0024B01225A60F8E700800A5000A00A502E
S315080037B010B50446FFF7BEFF084B5B68012B05D022
S315080037C0237843B10122054BDA6010BDFFF7E0FF0D
S315080037D0FFF7B0FFF4E70022F5E700BF00800A50C4
S315080037E0D8B90B78D3B101234A6812B1127843EAE3
S315080037F0C2034A78A2B1022213438A6812B1127828
S3150800380043EA82138A786AB104221343CA6812B15A
S31508003810127843EA4223044A936470470023E3E795
S315080038200022E9E70022F0E700800A5008B9014BB8
S315080038305964704700900A5008B9014B596470479B
S3150800384000A00A5008B9014B1964704700A00A5035
S3150800385010B9024B186C70470020704700800A5058
S3150800386048B911B1012903D07047044BD86C704789
S31508003870024B186D70470020704700BF00800A5041
S3150800388040B911B1012903D07047034BDA64704778
S31508003890014B1A65704700BF00800A5010B9024BE9
S315080038A0586D70470020704700800A5038B50546A5
S315080038B0054C20461BF018FFA5702146034B1868D7
S315080038C01DF070FE38BD00BF4C1F0020083B0020CD
S315080038D038B504468368196801200AF0E1FC00B986
S315080038E038BDA368E26853F822301D68E8B2FFF7CE
S315080038F0DDFFA3682A46024918680DF0E9FFEFE7DD
S315080039006CBC020810B504461BF033FC084B1B7848
S3150800391053B9B4F5A05F09D8054B01221A70054CB6
S315080039201BF02BFC204610BD0024F9E70024F7E71E
S31508003930FE660020541F0020184B1B680BB101209F
S31508003940704710B5044641F27430FFF7DBFF0346B3
S31508003950124A1060C8B100F1680100F58052C2F839
S31508003960EC120021C2F8F01200F594500830C2F8A3
S31508003970F4020120C2F8F802C2F8FC12C2F8881252
S3150800398003F59453C2F89C3210BDA368044A8621F5
S3150800399018680DF0F5FF0020F6E700BF5433002045
S315080039A078BC02080C2A0AD80C2A60D8DFE802F08C
S315080039B014175F1B20255F5F2A30363C4100FF2A1B
S315080039C008D1002302283AD0032849D0002840D03D
S315080039D00120704701207047294B1B68F2E7284BE6
S315080039E01B684C33EEE7264B1B6803F66803E9E7CA
S315080039F0234B1B6803F50763E4E7214B1B6803F5B4
S31508003A000863DFE71E4B1B6803F595530C33D9E7AC
S31508003A101B4B1B6803F598530433D3E7184B1B68F5
S31508003A2003F598530933CDE7154B1B6803F59B53EC
S31508003A30C8E7134B1B6803F59B530C33C2E7B1F574
S31508003A40007F16D20E4A12681A3142F82130002039
S31508003A50704712290FD80A4A126842F8213070476F
S31508003A6059B9074A1268C2F8683800207047012019
S31508003A70704701207047012070470120704700BF3A
S31508003A805433002038B504461DF019FC012802D02D
S31508003A900225284638BD002006F074FD0546002894
S31508003AA0F7D120461DF0C4FD084B1968084A01F5F0
S31508003AB097510C31204614F0F7F90022054B1A608D
S31508003AC0032120461DF0FFFBE3E700BF5433002027
S31508003AD009EB0108E84B002000B50C286FD8DFE891
S31508003AE000F00712181E252C333A6E424A52590026
S31508003AF0354800684FF04C0E01EB020CF44560D8CF
S31508003B000144104653E0304800684C304FF01A0E16
S31508003B10F2E72D48006868304FF4006EECE72A4853
S31508003B20006800F668004FF0080EE5E726480068CA
S31508003B3000F507604FF0100EDEE72348006800F531
S31508003B4008604FF4206ED7E71F48006800F59450C8
S31508003B504FF0080ED0E71C48006800F5945008306E
S31508003B604FF0240EC8E71848006800F5985004304E
S31508003B704FF0050EC0E71448006800F59850093064
S31508003B804FF0560EB8E71048006800F59B504FF006
S31508003B900C0EB1E70C48006800F59B500C304FF04E
S31508003BA0050EA9E713F8012B01F8012B604600F171
S31508003BB0FF3C5FFA8CFC0028F4D15DF804FB012079
S31508003BC0FBE70120F9E700BF54330020F0B585B0C4
S31508003BD004468268C368023352F823301D78FFF71B
S31508003BE0ABFE002839D06368E6689B1BEA1C934243
S31508003BF00BD10A2D10D8A36853F826201078721C0A
S31508003C0053F82230198800231BE0A368174A80213D
S31508003C1018680DF0B5FE20E0A368154A81211868DA
S31508003C200DF0AEFE19E0DA1C3244A76857F82220D8
S31508003C3092F800C003F110026A4402F80CCC013372
S31508003C40DBB2AB42EFD301AB2A46FFF745FF30B9EB
S31508003C50A368084918680DF03BFE05B0F0BDA368D7
S31508003C60054A822118680DF08BFEF6E798BC020813
S31508003C70CCBC020818BD0208FCBC020810B50446F4
S31508003C80FFF75AFE50B16268E368D21A032A06D0D3
S31508003C90A368114A832118680DF072FE10BDA26848
S31508003CA052F82300591C52F82110023352F82330D7
S31508003CB01A7809880078FFF775FE28B9A3680749B6
S31508003CC018680DF005FEE9E7A368054A8421186817
S31508003CD00DF056FEE2E700BF30BD020818BD020827
S31508003CE050BD020810B50446FFF726FE00B910BD00
S31508003CF0084B1868FFF7C6FE28B9A368064918686E
S31508003D000DF0E6FDF3E7A368044A852118680DF06F
S31508003D1037FEECE7083B002018BD02086CBD020818
S31508003D20F0B599B004468368196801200AF0B8FA14
S31508003D30002800F089800DF1440C574D0FCDACE8F2
S31508003D400F0095E807008CE8070000250695012373
S31508003D508DF81C304FF42873ADF81E3002238DF809
S31508003D6020308DF821308DF822308DF823300DF172
S31508003D70240C0DF1440EBEE80F00ACE80F009EE8D7
S31508003D8007008CE807000B238DF840308DF841506A
S31508003D908DF842508DF84350A768E56857F82560B6
S31508003DA004223E4930461FF001F8002839D1012384
S31508003DB08DF820308DF82230A168013551F825306C
S31508003DC01B880B930993E3689A1C51F822201288E2
S31508003DD00C920A3A0A92DA1C51F822201288ADF897
S31508003DE01E206268D21A042A0ADD043351F82330E9
S31508003DF01B78003B18BF0123294A13708DF84330FE
S31508003E00082006F0BFFBC8B906A9264B186814F0A7
S31508003E1095FA0146D0B1A368234A18680DF0B0FD9B
S31508003E2012E00222214930461EF0C0FF0028C3D006
S31508003E301F4A202138680DF0A3FD05E0A3681D4A36
S31508003E40222118680DF09CFD19B0F0BD154B1A68B3
S31508003E50194B1A60A3681D689DF822000AF07CF9C0
S31508003E6004469DF820000AF077F90B9B0C9ABDF8DA
S31508003E701E109DF8436066B1104E04960391029297
S31508003E800193009023460E4A0E4928460DF020FD60
S31508003E90DAE70D4EF1E700BF38C40208ACBD0208E8
S31508003EA0FF660020083B0020F4BD0208783A0208A5
S31508003EB0B4BD0208D4BD0208583300209CBD0208D0
S31508003EC024BE02082CBE0208A4BD020810B58368E9
S31508003ED018680DF09BFC002408E0084B53F83420C2
S31508003EE0214607480DF014FD0134E4B2082CF4D934
S31508003EF00022214602480DF027FD10BDF0C3020836
S31508003F00A4BE020838B504468368196801200AF079
S31508003F10C7F900B938BD082006F034FB0246002868
S31508003F2036D16368E1685B1A002B07DDA06850F894
S31508003F3021201278012B01DD012A30D8012B08DD5A
S31508003F40A0684D1C50F82500007810B142F0020216
S31508003F50D2B2022B08DDA368023153F821301B7850
S31508003F6013B142F00402D2B2082A1ED8174B03EB4B
S31508003F70C2035B68CBB1164A106898470546D8B1A4
S31508003F80A3681868FDB1134A13490DF0A1FCC1E7EF
S31508003F90A368124A222118680DF0F2FCBAE7104A03
S31508003FA0222100680DF0ECFCB4E7A3680D4A012154
S31508003FB018680DF0E5FCADE70B4B01221A700B20D3
S31508003FC008F0F6FADCE7094ADEE700BFF0C30208A4
S31508003FD0083B0020ACBE02081CBF0208D4BD02087C
S31508003FE0B8BE0208FCBE0208A30F002024BE0208C1
S31508003FF038B504468368196801200AF051F900B9F2
S3150800400038BD082006F0BEFA68B9154B18681DF0C9
S3150800401039FF054670B1A3681868FDB1114A1249FF
S315080040200DF056FCECE7A368104A222118680DF03B
S31508004030A7FCE5E70E4B02221A70802008F0B8FAB2
S315080040400C4B1B88102BE6D10B4B1B780F2BE2D1A0
S31508004050094B18221A7070225A70DCE7074ADEE705
S31508004060083B0020ACBE02081CBF0208D4BD0208EB
S31508004070A30F0020500F00205809002024BE020874
S3150800408038B504468368196801200AF009F900B9A9
S3150800409038BD082006F076FA68B9154B18681DF081
S315080040A0F3FE054670B1A3681868FDB1114A1249B6
S315080040B00DF00EFCECE7A368104A222118680DF0F3
S315080040C05FFCE5E70E4B02221A70E02008F070FA52
S315080040D00C4B1B88102BE6D10B4B1B780F2BE2D110
S315080040E0094B18221A7070225A70DCE7074ADEE775
S315080040F0083B0020ACBE02081CBF0208D4BD02085B
S31508004100A30F0020500F00205809002024BE0208E3
S315080041102DE9F04385B004468268C36852F8231037
S315080041200D78591C52F8211091F80080991C52F804
S3150800413021100F78D91C52F821100E784168C91A37
S3150800414004293ADD043352F8233093F80090B9F184
S31508004150000918BF4FF00109002D31D12946B8F1E1
S31508004160000F01D041F004010FB141F002010EB178
S3150800417041F00101B9F1000F01D041F020011A4BBD
S3150800418018681DF0D4FEE8B9A36818680DB3174A75
S31508004190B8F1000F1FD0154BFFB11449FEB1134CEF
S315080041A0B9F1000F1DD0114D0295019400911049E7
S315080041B00DF08EFB05B0BDE8F0834FF00009CBE7A4
S315080041C00821CCE7A3680B4A232118680DF0D8FB11
S315080041D0F0E7094ADCE7084BDEE70749DEE7064C65
S315080041E0DEE7054DE0E700BF083B002024BE0208D5
S315080041F050BF020828BF0208ACBE020838B50446FC
S315080042008368C26853F822301D78291E18BF012119
S315080042100A4B18681DF06BFE38B9A36818685DB1BB
S31508004220074A08490DF054FB38BDA368064A2421FD
S3150800423018680DF0A5FBF7E7044AF2E7083B0020EB
S3150800424024BE0208C4BF0208A0BF0208ACBE02080A
S3150800425038B504468368C26853F822301D78291E8B
S3150800426018BF01210A4B18681DF033FE38B9A36838
S3150800427018685DB1074A08490DF02AFB38BDA368DE
S31508004280064A242118680DF07BFBF7E7044AF2E793
S31508004290083B002024BE0208FCBF0208D8BF02085B
S315080042A0ACBE020810B504468068E36850F82320BF
S315080042B011886268D21A012A11DD013350F82330B9
S315080042C01A78084B18681DF0F2FDA3681C6803F0FD
S315080042D08BFB0246044920460DF0FAFA10BD00226F
S315080042E0EFE700BF083B002010C0020810B50446DF
S315080042F08068E36850F8232011886268D21A012A78
S3150800430011DD013350F823301A78084B18681DF070
S31508004310D4FDA3681C6803F067FB024604492046DF
S315080043200DF0D6FA10BD0022EFE700BF083B0020CB
S3150800433024C0020810B582B0044600230BE0A16829
S31508004340E2681A4451F82220117803F108026A44F7
S3150800435002F8081C0133072BF1DD6368E2689B1A33
S31508004360082B14DDA368083253F822301A786946F8
S31508004370084B18681DF0A7FDA3681C6803F034FBFA
S315080043800246054920460DF0A3FA02B010BD0022E8
S31508004390EDE700BF083B00203CC002082DE9F041CC
S315080043A08AB0044601AD474E0FCE0FC50FCE0FC5D6
S315080043B033682B6000273E4638E0A0687318002251
S315080043C0114650F8230019F057FD83B23DE0A06866
S315080043D00B440022114650F8230019F04DFD83B214
S315080043E047E0A0680B440022114650F8230019F054
S315080043F043FD80468E4652E0EB00C3F1200CA3F144
S31508004400200028FA03F20EFA0CFC42EA0C022EFAF5
S3150800441000F0024328336B440B4403F8182C01318F
S315080044200729E9DD0336F6B20137FFB2022F38D87D
S3150800443032466368E1685B1A9E4232DA012EBCD8BE
S31508004440A3680A4453F822301B883D460AAA02EBA1
S31508004450470222F8243C731CDBB26268E168521AF0
S3150800446093421EDA012BB2D8A2680B4452F82330C5
S315080044701B880AAA02EB450222F81E3CB31CDBB2D3
S315080044806268E168521A93420BDA012BA9D8A2682E
S315080044900B4452F82330B3F800804FF0000E002189
S315080044A0BEE701A9084B18681DF0FFFCA3681C6845
S315080044B003F09AFA0246054920460DF009FA0AB0B1
S315080044C0BDE8F08154C40208083B002054C0020825
S315080044D008B58368C26853F82220126803490A603F
S315080044E0034918680DF0F4F908BD00BF5C330020D5
S315080044F06CC0020830B583B004468368C26853F8B6
S3150800450022301D682A464FF0FF31154B18681DF0FA
S31508004510FCFCB8B905F00201C5F34003114A137053
S31508004520A368186815F0010F13D00F4A99B10E4BFE
S3150800453015F0040F11D00C4900910C490DF0C8F97B
S3150800454003B030BDA3680A4A1F2118680DF018FA8F
S31508004550F6E7084AEAE7074BEAE70649ECE700BF49
S31508004560083B0020006700209CBD020894C0020892
S3150800457080C00208A4BD020830B583B0044683682B
S31508004580C26853F822301D682A464FF0FF31164B91
S3150800459018681DF0CAFCB8B915F001031BD0022132
S315080045A0124A1170A2681068BBB1114A15F0020FC1
S315080045B015D00F4B15F0040F13D00D4900910D4976
S315080045C00DF086F903B030BDA3680B4A1F211868A1
S315080045D00DF0D6F9F6E70121E2E7084AE6E7074BC8
S315080045E0E8E70649EAE700BF083B0020A30F0020DA
S315080045F09CBD0208E4C00208D0C00208A4BD020897
S31508004600F8B504468268C36852F823100E78013359
S3150800461052F823301D782F1E18BF0127311E18BFE8
S3150800462001210F4B18681DF090FC10B95EB10D4EB4
S3150800463000E00D4E39460A4B18681DF094FC20B967
S315080046405DB1084B02E0094EF4E7074BA068324615
S31508004650074900680DF03CF9F8BD044BF6E700BFC2
S31508004660083B002024BE0208A8FB0208ACBE0208CC
S315080046701CC1020838B504468068E36850F8232050
S31508004680117805291CD80025AC4661B16268D21A92
S31508004690022A1CDD5A1C50F822201578023350F8DD
S315080046A0233093F800C0C1B94A4B1B88013303F085
S315080046B07F030122002A00F087804FF0000C78E083
S315080046C00B46454A1F2100680DF05AF97BE0434A1C
S315080046D01F2100680DF054F975E001290BD03D4BF8
S315080046E01A88043AC2F30A028B1E032B4ED8DFE857
S315080046F003F01F2E3849B5F1000E18BF4FF0010E12
S31508004700BCF1000218BF012285B10221314B1B887A
S31508004710023B11FA83F3C3F30A03D20242EA0E32CA
S31508004720134393FAA3F31B0C0222C3E70421EDE714
S3150800473005F01F050CF0030CD20142EAC54242EA15
S31508004740CC03052924D093FAA3F30422B2E7003D4B
S3150800475018BF01250CF003035B0343EAC533134373
S31508004760EFE7B5F1000E18BF4FF0010EBCF1000CD3
S3150800477018BF4FF0010C4FEACC2C4CEA0E3C42EA2B
S315080047800C03DEE7120602F0FE43DAE70023DAE757
S3150800479004228FE74FEACC0EFF2101FA0EF11940E9
S315080047A021FA0EF10E4800F80C100CF1010C5FFA14
S315080047B08CFC6245EED8A0680A4900680DF088F8B6
S315080047C0204604F04FFA38BD074A1F2100680DF04D
S315080047D0D7F8F8E7500F002034C102084CC1020888
S315080047E05809002068C102087CC1020808B5C368D8
S315080047F043608368024A1F2118680DF0C1F808BD96
S3150800480090C1020808B5C36843608368024A1F213D
S3150800481018680DF0B5F808BD90C102082DE9F04FEB
S315080048209BB00446BA4B1868002874D1B94B1E7859
S31508004830002E00F04882B84B1F780BA920461DF0C1
S315080048403EF9BDF82E30BA1C934267D3192B0BD903
S315080048501923ADF82E30BDF83030182B04D919239A
S31508004860ADF8303000230E930BA910A81AF0D4FD2A
S315080048707B1CDBB207F168026A4412F8285C2A46F8
S3150800488005F0070105294ED00237FFB268336B449D
S3150800489013F8283C45EA0325019505F44050AB0A70
S315080048A003F038036A0A02F006021343C5F38012BE
S315080048B013439A4A32F813104FF6FF73994269D098
S315080048C0B0F5005F6BD07B1CDBB207F168020DEB1D
S315080048D0020717F828ACB0F5005F67D0080B00F0A0
S315080048E0E88101F00F02C1F303152A44C1F303213D
S315080048F00A4453FA82F3DBB21844BDF82E209042DC
S3150800490000F3DC8168336B4413F8283CAA2B14BFE8
S3150800491000230123E5E11DF096F987E7804A936AAB
S3150800492001339362E1E115F0080F31D00237FFB287
S3150800493068336B4413F8282C45EA0222930903F4DA
S315080049400273D10901F010010B43510A01F020014D
S315080049500B43910801F4A0710B43910101F44061E6
S315080049600B43120202F44042134343F4005545F048
S31508004970050513F44C438FD0B3F5084F8CD0B3F527
S315080049800C4F89D0B3F5484F86D085F0400583E7AC
S315080049901F46D3E7624A936A01339362A5E115F489
S315080049A0807F90D03B464FF0000A94E75D4AB2F804
S315080049B04020ADF8082000228DF80A2001F00F09E2
S315080049C08DF80890184609EB0302BDF82EC062451B
S315080049D01BDCB9F1000F0FD05A1C6830684410F878
S315080049E0280C8DF809000233DBB21AA850FA82F2B5
S315080049F012F8282C8DF80A20C1F303128DF814201A
S31508004A001A44944506DB012216E0454A936A0133A7
S31508004A1093626AE1424A936A0133936265E1581CDC
S31508004A2068336B4413F8287C02F168036B4403F877
S31508004A30547C0132D2B2C3B29DF814709742EED2BA
S31508004A40C1F3032B8DF80CB018460BEB0302944503
S31508004A501ADBBBF1000F0FD05A1C6830684410F8F7
S31508004A60280C8DF80D000233DBB21AA850FA82F230
S31508004A7012F8282C8DF80E20090B8DF820101944F1
S31508004A808C4506DB012216E0254A936A01339362B8
S31508004A902BE1234A936A0133936226E1591C683352
S31508004AA06B4413F8280C02F168036B4403F8480CAE
S31508004AB00132D2B2CBB29DF820809045EED210AB2F
S31508004AC00493194B1B78BBB905F4A072019B1B090B
S31508004AD003F440631A432B0103F440431A4342F498
S31508004AE0005343F00203B8F1000F1FD09DF82110C0
S31508004AF0AA2907D000261AE0002204A920461CF09D
S31508004B009AFFE1E742F4005343F012030FE000BFB7
S31508004B105C33002000670020A30F00206CC2020847
S31508004B20E80F002038C402080167002000267E4AE4
S31508004B30117801F1010C5FFA8CFC049A53548A1C13
S31508004B40D2B24FEA132E049800F80CE015F4807FD1
S31508004B5004D10331049800F802A0CAB2990A01F0F8
S31508004B603801580A00F006000143C3F380130B43CB
S31508004B706E4931F813C04FF6FF739C452AD01CF0D6
S31508004B800F0F0ED0BBF1000F29D0531CDBB29DF8D6
S31508004B900D00049988540232D2B29DF80E00049989
S31508004BA0C8541CF0F00F3DD11CF4706F48D0B9F111
S31508004BB0000F39D1BBF1000F58D0531CDBB29DF85A
S31508004BC00D00049988540232D2B29DF80E00049959
S31508004BD0C85435E0564A936A0133936285E0B9F1C1
S31508004BE0000F0CD0531CDBB29DF8090004998854B9
S31508004BF00232D2B29DF80A000499C854D1E74C4A49
S31508004C00936A0133936270E0511C03F168006844AB
S31508004C1010F8485C049885540133DBB2CAB298454B
S31508004C20F2D2C1E70123FAE7531CDBB29DF809006B
S31508004C30049988540232D2B29DF80A000499C854DD
S31508004C40BCF5805F17D2384B1B78022B22D0531C39
S31508004C5004990B70049920461DF098F918BB002E8C
S31508004C6043D0334A136A013313623EE0304A936AEB
S31508004C700133936239E001239F42E4D3511C03F1C7
S31508004C806800684410F8545C049885540133DBB214
S31508004C90CAB2F1E7049B1821197092FAA2F3CB4025
S31508004CA004994B70D6E706B3214A536A0133536217
S31508004CB01BE01F4A936A0133936216E01C4A936A03
S31508004CC00133936211E017A920461DF05CF978B903
S31508004CD09DF86430032B10D09DF85C30AA2B12D0B7
S31508004CE00023144A12789A420FD11BB0BDE8F08F00
S31508004CF00F4A936A01339362F7E79DF85C30AA2B53
S31508004D00EAD10123EDE70123EBE720461DF039F947
S31508004D1020B9074A136A01331362E6E7044A536A5D
S31508004D2001335362E1E700BFA30F00206CC20208FB
S31508004D30E80F0020FF66002038B504468368C2687D
S31508004D4053F822301D782946084B18681DF047F994
S31508004D5030B9A3682A46064918680CF0B9FD38BD6B
S31508004D60A368044918680CF0B3FDF8E7083B00206F
S31508004D70D0C10208DCC1020808B583680249186870
S31508004D800CF0A6FD08BD00BFF4C1020808B583688B
S31508004D90024918680CF09CFD08BD00BF14C2020841
S31508004DA010B582B004468368C26853F822301B687F
S31508004DB0019301A9094B18681CF03CFB38B9A36894
S31508004DC0019A074918680CF083FD02B010BD014628
S31508004DD0A368044A18680CF0D3FDF6E7083B0020E0
S31508004DE040C2020850C20208F8B505467AB900233F
S31508004DF003700BE0325D084928460DF00BFA0544AE
S31508004E000134A742F6DC002305F8013CF8BD0E463E
S31508004E1017460024F5E700BF7CC4020810B504460F
S31508004E20074B18681CF0D6FEA3681B6828B1054A0C
S31508004E30054918460CF04CFD10BD044AF8E700BFBA
S31508004E40083B002024BE020884C40208ACBE02083F
S31508004E5010B504468368C26853F8223019680039C9
S31508004E6018BF0121044B18681CF0B0FEE3686360A4
S31508004E702046FFF7D3FF10BD083B00202DE9F0417F
S31508004E8084B083681D4918680CF0D8FC002425E016
S31508004E901B4A03921B4A02921B4A019200912A4618
S31508004EA0214616480CF0F2FC0135032D15DC4FEAB5
S31508004EB0840805EB8401154F3E19B278144B03EBB1
S31508004EC0C1011148FFF790FF3B5DB178114A424492
S31508004ED0525D002ADCD0104ADBE70134012C0ADCDB
S31508004EE00A4B23449A780D4901EBC4010548FFF79C
S31508004EF07BFF0025D9E704B0BDE8F08198C4020815
S31508004F00ACBE02086033002090330020C033002076
S31508004F10D0330020C833002024BE020848080020E9
S31508004F2070B504464022002128481DF069FF284B29
S31508004F3000221A605A60274B4FF0FF321A605A60F7
S31508004F409A60DA60A668E56856F825301A68224B32
S31508004F505A606068401B042802DC013800230FE011
S31508004F600420FBE75A1C2A4456F8222003EBD37187
S31508004F7092F800C0184A02EB610282F802C00133B7
S31508004F8083420FDA13F0010FECD15A1C2A4456F863
S31508004F90221003EBD372521091F800C00E4901F8A3
S31508004FA002C0ECE70C490D4B18681CF011FE28B935
S31508004FB0E36863602046FFF761FF70BDA368084A8F
S31508004FC0302118680CF0DCFCF7E700BFD03300206E
S31508004FD0C833002048080020C0330020083B0020C2
S31508004FE0DCC4020870B582B08668C16856F82130FC
S31508004FF01D78012D0AD8044643685B1A092B0BDC79
S315080050004FF0FF3300930193002215E01B4A31212C
S3150800501030680CF0B5FC28E0194A322130680CF0EB
S31508005020AFFC22E0531CC81856F820000078083256
S315080050306A4402F8080C1A4663685B1A013B9342F5
S31508005040F0DC6A4629460F4B18681CF0B3FD70B9A8
S315080050500D4B03EBC50302AA12E9030083E803001C
S31508005060E36863602046FFF709FF02B070BDA368D6
S31508005070064A332118680CF083FCF6E708C50208CF
S3150800508024C50208083B00204808002044C5020839
S3150800509070B584B004468668C06856F8203019781A
S315080050A0431C56F823301A7802EB810501290AD8E1
S315080050B0032A08D863681B1A0A2B0BDC0023029301
S315080050C003939C461AE0204A312130680CF058FCBC
S315080050D004B070BD1D4A322130680CF051FCF7E768
S315080050E00CF10203034456F8233093F800E00CF160
S315080050F010036B4403F808EC0CF1010C63681B1AE7
S31508005100023B6345ECDC124B03EB81039B5C00938B
S3150800511002AB104800681CF04FFD68B90E4B03EB54
S31508005120C50304AA12E9030083E80300E368636081
S315080051302046FFF7A3FECBE7A368084A3321186881
S315080051400CF01EFCC4E700BF64C5020824C50208AB
S31508005150C8330020083B0020D033002044C502088D
S31508005160F0B585B004468268C36852F823100E78F5
S31508005170591C52F821100F78023352F823301D7843
S31508005180003D18BF01253B463246294612480068AD
S315080051901CF01AFDB8B9114B03EB8603DD55A3685D
S315080051A018680F4B9A5D33449B789DB10D4903915E
S315080051B00D490291019300923B4632460B490CF089
S315080051C087FB05B0F0BDA368094A342118680CF0BE
S315080051D0D7FBF6E70749EAE7083B0020C833002073
S315080051E0C033002024BE020890330020B0C5020850
S315080051F08CC50208ACBE020870B58CB00446012006
S31508005200384B1870A368196809F04AF800283FD087
S31508005210A668E36856F823500422334928461DF049
S31508005220C5FD002836D12F4B01221A719A71002329
S31508005230059306930793089309930A930B93A26819
S31508005240E368591C52F82110098807910591023321
S3150800525052F823301B8808930A2B01D90A3B069378
S31508005260A268E368033352F823301B881D4E738007
S315080052701E4D05A9286812F0A3FC314628681CF0C3
S31508005280C4FB0146B8B1A368194A18680CF078FB44
S315080052900CB070BD0222174928461DF087FD20B9BB
S315080052A0104B02221A719A71C1E7134A20213068FD
S315080052B00CF066FBECE7A3681E680A4D287908F02F
S315080052C04BFF0446A87908F047FF03466A8802920E
S315080052D0089A0192079A00922246084930460CF02D
S315080052E0F7FAD5E710340020ACBD0208083B0020C9
S315080052F0ECC50208783A0208B4BD02081CC60208C2
S31508005300F0B583B00646104F38681CF08CFB05468E
S3150800531038681CF0A0FB044638681CF0A0FB014660
S31508005320B368186855B1094A54B1094B51B10849CF
S31508005330009108490CF0CCFA03B0F0BD064AF3E731
S31508005340064BF3E70549F3E7083B002024BE0208AD
S3150800535070C6020884C60208ACBE020878C60208EF
S3150800536010B584B00446104B1B88ADF80C300022EB
S315080053708DF80420ADF80620ADF80830ADF80A30EF
S3150800538001A90A4B18681CF040FB30B9E368636052
S315080053902046FFF7B5FF04B010BD0146A368044ACE
S315080053A018680CF0EDFAF1E7FCC60208083B002085
S315080053B0B8C6020870B504468268C36852F8231056
S315080053C00978013352F823301E78094D003918BF81
S315080053D0012128681CF03DFB311E18BF01212868F1
S315080053E01CF03BFBE36863602046FFF789FF70BD4E
S315080053F0083B002008B58168C36851F82320127855
S31508005400013351F823301B78003A18BF01220A48A5
S315080054100270003B18BF012308480370086832B1C0
S31508005420074A33B1064B07490CF052FA08BD064A3B
S31508005430F7E7054BF7E700BF206700201F67002046
S315080054409CBD0208D0C60208A4BD020808B5826839
S31508005450C36852F823301B78003B18BF012305495F
S315080054600B70106823B1044A04490CF031FA08BDE0
S31508005470034AF9E70167002024BE0208ECC60208C1
S31508005480ACBE020810B50446074B18681CF0ABFD05
S31508005490A3681B6828B1054A054918460CF018FA8E
S315080054A010BD044AF8E700BF083B002024BE0208E6
S315080054B000C70208ACBE020810B504468368C26875
S315080054C053F822301B787BB1032005F05BF820B92E
S315080054D00A4B18681CF090FD0AE0A368084A2221C6
S315080054E018680CF04DFA08E0044B18681CF07DFDAE
S315080054F0E36863602046FFF7C5FF10BD083B002040
