:020000040800F2
:1000000000100020B9020008591200085912000817
:100010005912000859120008591200085912000814
:100020005912000859120008591200085912000804
:10003000591200089C75010859120008591200084D
:1000400059120008591200085912000859120008E4
:1000500059120008591200085912000859120008D4
:1000600059120008591200085912000859120008C4
:1000700059120008591200085912000859120008B4
:1000800059120008591200085912000859120008A4
:100090005912000859120008591200085912000894
:1000A0005912000859120008591200085912000884
:1000B0005912000859120008591200085912000874
:1000C0005912000859120008591200085912000864
:1000D0005912000859120008591200085912000854
:1000E0005912000859120008591200085912000844
:1000F0005912000859120008591200085912000834
:100100005912000859120008591200085912000823
:100110005912000859120008591200085912000813
:100120005912000859120008591200085912000803
:1001300059120008591200085912000859120008F3
:1001400059120008591200085912000859120008E3
:1001500059120008591200085912000859120008D3
:1001600059120008591200085912000859120008C3
:100170000348044B834202D0034B03B11847704736
:10018000201900202019002000000000064B07491C
:10019000C91A891048BF0131491003D0044B0BB173
:1001A00001481847704700BF20190020201900207F
:1001B0000000000010B5064C237843B9FFF7D8FFC4
:1001C000044B13B10448AFF300800123237010BD2A
:1001D000841A0020000000001076010808B5054BC5
:1001E0001BB105490548AFF30080BDE80840FFF7A3
:1001F000CDBF00BF000000002019002010760108CC
:10020000A3F5803A704700BF174B002B08BF134B74
:100210009D46FFF7F5FF00218B460F461348144A11
:10022000121A01F0C6F90E4B002B00D098470D4B67
:10023000002B00D098470020002104000D000D483D
:10024000002802D00C48AFF3008000F0D7FB20005C
:10025000290000F089FA00F001FB00BF000008004F
:100260000000000000000000001000202019002005
:10027000881A002000000000000000000346054A24
:100280000549106803448B428CBF4FF0FF30136068
:10029000704700BF00100020000001200348044AFE
:1002A0000449121A921000F0D8BF00BF447F010821
:1002B000447F0108881A002008B500F02FF8FFF7E6
:1002C000EDFF124B12498B4212D30020114B124901
:1002D0008B4218D3FFF798FF186850F822405868EF
:1002E00040F82240013298688242F5D30C33EAE7A5
:1002F0000022F8E71C6844F8220001325C68A24240
:10030000F8D30833E4E70022F8E700BF18760108C5
:100310002476010824760108247601084FF48041F0
:100320004FF0FF30114B124A10B59A60D3F8882075
:1003300042F47002C3F888200E4A91660E4901F516
:10034000005210660D4850660220C3F8D000BFF37B
:100350004F8FBFF36F8F01244FF440330848C0F82C
:100360008041D36004600B6110BD00BF00ED00E070
:100370000000000800900050008000447FFF7F01D3
:1003800000E100E008B5B0B14FF480620B4B9A6613
:1003900000F088FF4FF098435A6CD202FCD54FF41E
:1003A0008062586D064B10F470209A6604D0BDE848
:1003B000084000F098BF212008BD00BF0090005009
:1003C00000A0005010B5044668B161B10023074A8F
:1003D0008360C0E90023C36100F05BFF2046BDE8F5
:1003E0001040FFF7CFBF212010BD00BF0000024327
:1003F00010B5044668B161B10023074A8360C0E9C3
:100400000023C36100F045FF2046BDE81040FFF720
:10041000B9BF212010BD00BF0000034370B50E46D8
:100420001546044686B0D0B1C9B1C2B100230D4A09
:100430008360C0E90023C36101AB039301230493EC
:10044000094B03A9059300F01AFF2046FFF79AFF16
:1004500018B9019B3360029B2B6006B070BD212050
:10046000FBE700BF00000443080000201FB504465E
:1004700098B191B100230A4A8360C0E90023C361A7
:10048000012301910293074B01A9039300F0F7FEAA
:100490002046FFF777FF04B010BD2120FBE700BF27
:1004A000000008430400002010B5044600F0E0FE00
:1004B000024B1C6000F0E0FE002010BD3819002047
:1004C00010B500F0D5FE034B1C6800F0D5FE2046A9
:1004D00010BD00BF3819002013B5002301241A46AF
:1004E00019461846009400F0CBF8002300941A46F1
:1004F0001946184600F0F6F80248FFF7D5FF00202D
:1005000002B010BD0410002008B5124BA822002133
:10051000184601F04EF803220346026142610E487C
:100520000E4A98614FF48061DA61002219629A6282
:100530005A62DA6218660A485866996609491A6763
:10054000DA665A6711F8010D98540132102AF9D170
:1005500008BD00BF781800208974010878140020B5
:1005600078100020A27401082DE9F84FDFF8808090
:10057000824698F800308946532B164601D0FFF783
:10058000C3FF182707FB0A873D6FD7F86CB05D459E
:100590002BD9BC6E796E641BB44228BF34464846E2
:1005A0002944224601F010F8BB6E2544AB4208BF37
:1005B0000025A144361BABEB050B5E4528BF5E460C
:1005C00056B1182303FB0A83596E32462944484624
:1005D00000F0FAFF3444354424B1182303FB0A88A1
:1005E000C8F870502046BDE8F88F0024E3E700BF4C
:1005F00078180020F8B5182700FB0775124B0E4637
:100600001D4407FB0033DB6A1446012B0AD0022B82
:1006100014D023B9284600F0FEFE844208D90024F5
:100620002046F8BD284600F0F6FE844228BF044666
:1006300022463146284600F0F7FEF1E72846BDE89D
:10064000F84000F00CBF00BF78180020F8B50B4B45
:1006500004461B780D46532B164601D0FFF754FF76
:10066000EFF311874FF0200181F3118832462946BC
:100670002046FFF7BFFF87F31188F8BD78180020E8
:100680002DE9F041164C1E4623780546532B88462B
:10069000174601D0FFF738FF022D1DD8EFF3118C5C
:1006A0004FF0200181F3118865B1182005FB00038C
:1006B00044F80380E2180023576000FB05421662ED
:1006C00093625362182303FB0544069BE3628CF399
:1006D00011880020BDE8F0814FF0FF30FAE700BF3D
:1006E000781800202DE9F843154E1F46337805464B
:1006F000532B8946904601D0FFF706FF022D1BD8E9
:10070000EFF311824FF0200181F3118855B11824C5
:10071000002304FB0564C4F86090C4F86480A766F5
:100720002367E366182303FB0566089B736782F360
:1007300011880020BDE8F8834FF0FF30FAE700BFD2
:10074000781800204FF4005382B00193019B5A1E89
:100750000192002BFAD1034A136923F004031361B9
:1007600030BFF9E700ED00E0F0B58DB000212022A8
:1007700004A800F01EFF4FF0FF344FF480322C4BE2
:1007800001945A664FF480629A66FFF7A5FE00F066
:10079000A6FD04A800F0D5FD03AA02A904A8CDE98E
:1007A0000244FFF73BFEDDE90212224800F00CF99B
:1007B000214D01A904A8FFF759FE01991F4800F037
:1007C00003F9EC681E48214600F0FEF8019B24F076
:1007D0007F4423F07F43A34204D31A4800F006F974
:1007E000FFF7B0FF184F194E3B681B68B34201D1A9
:1007F0001748F3E704A800F0A4FD294604A8FFF772
:10080000E1FD04460146134800F0DEF84CB93B68B0
:1008100029461E6004A8FFF7EBFD01460E4800F0D4
:10082000D3F804A800F097FD00F05BFDD8E700BF07
:1008300000900050A3740108A01A0008E274010897
:10084000FA7401081A75010810100020EFBEADDE21
:1008500044750108687501088075010808B5064BE4
:10086000044613B10021AFF30080044B1B6803B1B1
:100870009847204600F09FFD00000000741A0020F9
:10088000002310B504468360818119464366C28106
:1008900008228361C0E90033C0E904335C3000F012
:1008A00088FE0D4B246263620C4BA3620C4BE36227
:1008B0000C4B23630C4B9C4206D003F1680294421C
:1008C00002D0D0339C4205D104F15800BDE810405D
:1008D00000F077BE10BD00BF6F1800089118000827
:1008E000C9180008ED1800083C190020024A034905
:1008F000034800F0EBBD00BF141000201F180008D3
:100900002410002041680C4B994210B5044601D0D8
:1009100000F085FFA168094B994202D0204600F003
:100920007EFFE168064B994204D02046BDE81040A6
:1009300000F075BF10BD00BF3C190020A4190020B5
:100940000C1A002010B50B4B04210B4C0B4A20460F
:100950001A600022FFF794FF04F1680001220921C8
:10096000FFF78EFF04F1D00002221221BDE81040F3
:10097000FFF786BF741A00203C190020ED0800081C
:10098000014800F01FBE00BF861A0020014800F099
:100990001ABE00BF861A002010B50446FFF7F0FF0C
:1009A000236A1BB1BDE81040FFF7F0BF044B236280
:1009B000044B1B68002BF5D1FFF7C4FFF2E700BF23
:1009C00005090008741A00200FB407B5064904ABE6
:1009D000086853F8042B8168019300F033F803B0E2
:1009E0005DF804EB04B0704720100020024B014674
:1009F000186800F089BD00BF2010002070B50D4DB3
:100A000000260D4C641BA410A64209D10B4D0026F4
:100A10000B4C01F025F8641BA410A64205D170BD53
:100A200055F8043B01369847EEE755F8043B01368C
:100A30009847F2E77010002070100020701000201E
:100A4000741000202DE9F04F0D469DB014469846D5
:100A5000064618B1036A0BB9FFF79EFF6B6ED90704
:100A600005D4AB899A0502D4A86D00F0ABFDAB8923
:100A70001B0701D52B699BB92946304600F0D4FAF3
:100A800070B16B6EDC0704D54FF0FF301DB0BDE8D0
:100A9000F08FAB899805F7D4A86D00F094FDF3E7CB
:100AA0000023CDF80C804FF00109DFF8B4810993E1
:100AB00020238DF8293030238DF82A3023469A469A
:100AC00013F8012B0AB1252AF9D1BAEB040B0BD08C
:100AD0005B4622462946304600F09AFD013000F080
:100AE000A780099A5A4409929AF80030002B00F026
:100AF0009F8000234FF0FF320AF1010A049307930D
:100B00008DF853301A93CDE90523544605225448F5
:100B100014F8011B00F08DFF049AD8B9D10644BF28
:100B200020238DF85330130744BF2B238DF8533007
:100B30009AF800302A2B15D0079A544600204FF01F
:100B40000A0C214611F8013B303B092B4BD9B0B1BF
:100B5000079214E0A0EB0803A24609FA03F313433B
:100B60000493D2E7039B191D1B68002B0391BBBFA5
:100B70005B4242F0020207930793B8BF04922378C6
:100B80002E2B0AD163782A2B32D1039B02341A1DF3
:100B90001B6843EAE37303920593DFF8D4A00322B2
:100BA0002178504600F045FF38B1A0EB0A00402202
:100BB000049B013482401343049314F8011B062262
:100BC00028488DF8281000F034FF00283FD0264B2D
:100BD0001BBB039B073323F0070308330393099BD5
:100BE0003B4409936AE70CFB02320C460120A8E75C
:100BF000002301344FF00A0C19460593204610F8E3
:100C0000012B303A092A03D9002BC6D00591C4E73D
:100C10000CFB012104460123F0E703AB2A4604A99B
:100C200030460093114BAFF300800746781CD6D1B5
:100C30006B6ED90705D4AB899A0502D4A86D00F074
:100C4000C2FCAB895B063FF51FAF09981EE703ABFB
:100C50002A4604A930460093044B00F0ADF8E4E7BF
:100C6000DC750108E6750108000000001116000897
:100C7000E275010870B50F4E0C460546316811B992
:100C800000F07EFA30602146284600F079FA431CD5
:100C900003D14FF0FF34204670BDC41C24F0030480
:100CA000A042F8D0211A284600F06AFA0130F2D1A9
:100CB000EFE700BF781A00202DE9F843CD1C064667
:100CC00025F0030508350C2D38BF0C25002D01DB60
:100CD000A94204D90C2333600020BDE8F883DFF873
:100CE000D48000F095F9D8F800301C4644BB294662
:100CF0003046FFF7BFFF431C044658D1D8F80040E8
:100D00002746002F43D1002C4BD02368394630466C
:100D100004EB030900F034FA814542D121683046E2
:100D20006D1A2946FFF7A6FF01303AD023682B44FD
:100D30002360D8F800305A6862BBC8F800700FE032
:100D40002268521B20D40B2A17D96119A3422560AF
:100D500018BF5960636808BFC8F8001062514B6043
:100D6000304600F05BF904F10B00231D20F0070072
:100D7000C21A1CBF1B1AA350AFE76268A3420CBF84
:100D8000C8F800205A60EBE723466468AEE73C46AB
:100D90007F68B6E71A465B68A342FBD10023536025
:100DA000DEE70C233046336000F038F994E7056045
:100DB000D6E700BF7C1A00202DE9FF470F7E914641
:100DC00080460C46782F9A460C9E01F1430207D8C4
:100DD000622F0AD8002F00F0DD80582F00F0C3806A
:100DE00004F1420684F842703AE0A7F16303152B40
:100DF000F6D801A151F823F0510E0008650E000845
:100E0000E10D0008E10D0008E10D0008E10D00080A
:100E1000650E0008E10D0008E10D0008E10D000875
:100E2000E10D00087B0F0008F30E0008330F0008E7
:100E3000E10D0008E10D00089D0F0008E10D00081C
:100E4000F30E0008E10D0008E10D00083B0F00085B
:100E500033681A1D1B68326004F1420684F8423080
:100E60000123A8E031682368081D30601E0601D503
:100E70000D6803E05D06FBD5B1F90050002D6168F7
:100E800078DA2D200029A16084F843002DDA6D4224
:100E90005D480A231646B5FBF3F103FB1157C75D06
:100EA00006F8017D2F460D46BB42F4D9082B0BD125
:100EB0002368DF0708D5236961689942DEBF3023C4
:100EC00006F8013C06F1FF36921B22614B4603AA4D
:100ED00021464046CDF800A000F0ACFB01306FD1B8
:100EE0004FF0FF3004B0BDE8F08723F00403236027
:100EF000CDE721683368080653F8045B02D449063D
:100F000048BFADB26F2F33603F4814BF0A23082398
:100F1000002184F843106668002EA660BADB2168C1
:100F200021F004012160002DB4D1002EB2D116466B
:100F3000BCE7236843F02003236078273348236805
:100F400084F845701F06316851F8045B02D45F06CF
:100F500048BFADB23160D90744BF43F020032360DE
:100F60001DB11023D4E72848E9E7236823F02003C4
:100F70002360F6E724480A23CDE733682568181D67
:100F8000616930602E061B6801D5196002E06806B1
:100F9000FBD5198000231646236197E733680021AB
:100FA0001A1D32601E686268304600F042FD08B1CA
:100FB000801B606063682361002384F8433085E709
:100FC0002369324649464046D047013088D02368DD
:100FD0009B0714D4E068039B9842B8BF184681E78A
:100FE0000123324649464046D04701303FF478AFAE
:100FF0000135E36803995B1AAB42F1DCEAE70025AF
:1010000004F11906F5E700BFED750108FE7501084A
:10101000014800F0D7BA00BF851A0020014800F04F
:10102000D2BA00BF851A002038B5294B05460C46B8
:10103000186818B1036A0BB9FFF7AEFCB4F90C30AD
:10104000190722D4DA0607D409222A6043F04003A4
:101050004FF0FF30A38133E0580712D5616B41B1E7
:1010600004F14403994202D0284600F0ABF8002373
:101070006363A38923F02403A381002363602369AE
:101080002360A38943F00803A38123694BB9A38993
:1010900003F42073B3F5007F03D02146284600F007
:1010A0008CFCB4F90C3013F001020AD00022A260CB
:1010B00062695242A261226942B913F08000C5D12F
:1010C00038BD990758BF6269A260F4E70020F7E7CE
:1010D0002010002038B50023054D044608462B603B
:1010E00000F067F9431C02D12B6803B1236038BDBF
:1010F000801A002038B50023064D044608461146E4
:101100002B6000F059F9431C02D12B6803B1236016
:1011100038BD00BF801A002038B50023054D0446B5
:1011200008462B6000F04DF9431C02D12B6803B137
:10113000236038BD801A002038B50446064D0846A5
:10114000114600222A601A4600F03DF9431C02D1E4
:101150002B6803B1236038BD801A002038B50446DF
:10116000064D0846114600222A601A4600F02DF965
:10117000431C02D12B6803B1236038BD801A0020C4
:1011800038B50023054D044608462B60FFF776F876
:10119000431C02D12B6803B1236038BD801A0020A4
:1011A00038B50446064D0846114600222A601A4604
:1011B00000F019F9431C02D12B6803B1236038BD3C
:1011C000801A002038B50546002941D051F8043C6A
:1011D0000C1F002BB8BFE418FFF71AFF1D4A136855
:1011E00033B9636014602846BDE83840FFF716BF86
:1011F000A34208D9206821188B4201BF19685B6897
:1012000009182160EDE71A465B680BB1A342FAD9D1
:1012100011685018A0420BD1206801445018116089
:101220008342E0D118685B68084453601060DAE7D5
:1012300002D90C232B60D6E7206821188B4202BF0D
:1012400019685B680918636008BF21605460CAE7C9
:1012500038BD00BF7C1A0020FEE710B53AB100236C
:1012600050F8234041F8234001339A42F8D110BD91
:10127000EFF3108072B6704700B962B670478368AA
:1012800013B9816070475B685A68012AFBD15960C5
:101290007047C369032B9FBF00EB83020133D1600A
:1012A000C3617047C369042B14D84FF09842116C86
:1012B000C902FCD504339B0013650168103B116023
:1012C0004168116050F8081F11604FF098420344C4
:1012D000984200D1704750F8041F1160F8E70020D1
:1012E000704700207047B0F5802F22D010D8B0F59D
:1012F000003F20D007D818B3B0F5803F08BF482082
:1013000018BF01207047B0F5403F08BF2C20F7E719
:10131000B0F5302F11D007D8B0F5E02F0FD0B0F5D1
:10132000202F08BF1020EBE7B0F57F0F08BF062085
:10133000E6E74B2070472A20704711207047212094
:10134000704708B528B12022002100F032F90020B2
:1013500008BD2120FCE708B1FFF7F3BF212070474B
:1013600070B50C46154610B9FFF7AAF838B14368B6
:101370002BB12A462146BDE870400068184723205B
:1013800070BDF7B50D4616461C4648B103B901AC11
:1013900087685FB12346324629460068B84706E0B1
:1013A000FFF78EF804B901AC0028F1D1232003B077
:1013B000F0BD00207047FEE74FF4005300204B6063
:1013C0007047012070470020704707B5002001AB2F
:1013D0000190FFF7D6FF0198002808BF4FF0FF30BB
:1013E00003B05DF804FB10B514460020FFF7B8FF0A
:1013F000204610BD10B500201C4600F059F800280A
:1014000020600CBF1B20002010BD08B50020FFF796
:101410001DF9002008BD0369C26893429CBF816822
:101420005B18013B981A70472DE9F041D0E902841E
:101430000546A8EB04064068964220440F46144433
:1014400004D900F0C1F8EC60BDE8F0813246A4EBAD
:10145000080400F0B9F822466868B919F1E72DE9E7
:10146000F8430646894617464FF00008C5683369B9
:10147000B4689D4228BF1B19641BBC4228BF3C4670
:10148000013B5B1B9C4228BF1C46706849462844B0
:10149000224600F099F8B3682544AB4208BF002506
:1014A0003F1BA044A144F560E1D14046BDE8F8836C
:1014B00010B50B46EFF311844FF0200181F3118832
:1014C0001946FFF751F884F3118810BD2DE9F84350
:1014D0000746884614460026D4E90195B9F101096A
:1014E00005D52468002CF7D13046BDE8F883AB89D8
:1014F000012B07D9B5F90E30013303D02946384600
:10150000C04706436835E9E7036A70B505460E46ED
:1015100084680BB9FFF740FA636EDB0705D4A38933
:10152000980502D4A06D00F04DF8A389190702D5E3
:101530002369002B35D121462846FFF775FD80B37E
:101540004FF0FF35636EDA0705D4A3899B0502D4FB
:10155000A06D00F038F8284670BD002B15DB23681D
:101560005A1C22601970A36816F8011F013BA36082
:101570000029F2D1002B16DA22460A21284600F073
:10158000B9F90130DCD00A25DCE7A2699A4201DC16
:101590000A29E4D12246284600F0ACF90130E2D114
:1015A000CEE7013EDFE723685A1C22600A221A7048
:1015B000E9E702440346934200D1704703F8011B58
:1015C000F9E77047704770470A44431E914200D1C3
:1015D000704710B511F8014B914203F8014FF9D152
:1015E00010BD9368013B002B936010B408DA946936
:1015F000A34201DB0A2903D15DF8044B00F07AB95C
:101600001368581C1060084619705DF8044B704749
:10161000F8B506460F461446D518AC4201D1002055
:1016200007E03A4614F8011B3046FFF7DAFF431C87
:10163000F3D1F8BD2DE9F047164698468A6807466B
:101640000B690C46DDF820909342B8BF1346336017
:1016500091F843200AB1013333602368990642BFF1
:10166000336802333360256815F0060506D104F1AE
:10167000190AE36832689B1AAB422BDC94F84330BA
:101680002268003B18BF0123920630D404F14302C4
:1016900041463846C847013023D023681A3454F8ED
:1016A0000A2C03F00603042B0ABF54F80E5C002535
:1016B00033684FF0000608BFED1A54F8123C08BF1B
:1016C00025EAE5759342C4BF9B1AED18B5421AD1BD
:1016D000002008E00123524641463846C847013001
:1016E00003D14FF0FF30BDE8F0870135C1E7E118C5
:1016F0005A1C30200233224481F8430094F84510EC
:1017000082F84310C2E70123224641463846C847C3
:101710000130E6D00136D9E7B1F90C202DE9F041CE
:10172000170705460C4656D44B68002B02DC0B6CA1
:10173000002B3DDDE66A002E3AD0002312F48052E1
:101740002F68216A2B6025D0626DA389580705D5C3
:101750006368D21A636B0BB1236CD21A216A00231F
:10176000E66A2846B047411C24D000236360236901
:101770002360A389DA0400D56065616B2F60B9B17D
:1017800004F14403994202D02846FFF71BFD0023D1
:1017900063630DE001232846B047461C0246D4D1BE
:1017A0002B68002BD1D01D2B01D0162B2AD12F60F6
:1017B00000202EE02A68B4F90C3042B11D2A01D075
:1017C000162A21D10023636023692360D5E7626074
:1017D00022692260CEE70F69002FE9D093070E68D7
:1017E0000F600CBF4B690023A6EB07088B60B8F1B4
:1017F000000FDDDD43463A46216A2846A66AB04717
:10180000002808DCB4F90C3043F040034FF0FF30FF
:10181000A381BDE8F0810744A8EB0008E7E738B5ED
:101820000B6905460C4613B90025284638BD18B18A
:10183000036A0BB9FFF7B0F8B4F90C30002BF3D002
:10184000626ED00704D4990502D4A06DFFF7BAFEEA
:1018500028462146FFF760FF636E0546DA07E4D4A9
:10186000A3899B05E1D4A06DFFF7ADFEDDE710B5C0
:101870000C46B1F90E10FFF771FC0028ABBF636D89
:10188000A3891B1823F48053ACBF6365A38110BDEB
:101890002DE9F0411F468B8905460C46DB051646AF
:1018A00005D502230022B1F90E10FFF745FCA389EC
:1018B0003246B4F90E10284623F48053A3813B46E8
:1018C000BDE8F041FFF76CBC10B50C46B1F90E1045
:1018D000FFF732FC431CA38915BF606523F48053D6
:1018E00043F48053A38118BFA38110BDB1F90E103A
:1018F000FFF7F0BBF8B50E461446054618B1036A6B
:101900000BB9FFF749F8A369A360A3891A0701D5AA
:10191000236943B921462846FFF786FB18B14FF0EB
:10192000FF373846F8BD2368F6B222693746981A61
:101930006369834205DC21462846FFF770FF0028D3
:10194000EDD1A368013BA36023685A1C22601E707E
:10195000431C62699A4204D0A389DB07E1D50A2EB1
:10196000DFD121462846FFF75AFF0028D9D0D6E715
:1019700070B50C46B1F90E1096B0154600291E46FA
:101980000CDAA389002113F0800F14BF40234FF419
:101990008063002031602B6016B070BD6A46FFF78F
:1019A000A9FB0028EDDB019901F47041A1F500537A
:1019B000594259414FF48063EBE78B89F7B59D0796
:1019C00006460C4607D504F1470323602361012333
:1019D000636103B0F0BD01AB6A46FFF7C9FF009F2A
:1019E000054630463946FFF767F948B9B4F90C3077
:1019F0009A05EED423F0030343F00203A381E2E748
:101A0000A389206043F08003A381019BC4E90407FC
:101A10005BB1B4F90E103046FFF77EFB28B1A38905
:101A200023F0030343F00103A381A3891D43A58190
:101A3000CFE7C9B20346024410B59342184601D11C
:101A4000002003E0047801338C42F6D110BD000081
:101A50000000000000000000000000000000000086
:101A6000F8B500BFF8BC08BC9E467047F8B500BF8B
:101A7000F8BC08BC9E467047000000000000000053
:101A80000000000000000000000000000000000056
:101A90000000000000000000000000000000000046
:101AA000EB17A65EE159010044590100060202024B
:101AB000010100003717FF53343A237E53E7B78DF7
:101AC000956C9131DC80DC3CB06887EDD086CDDA56
:101AD000118A2947AB71A931C051F22C13A23941A7
:101AE0001754C12173E0CCA5293A3E8EBA32102397
:101AF000F94EC585621B7C32A0A15FE726CD34C6B6
:101B00008E742B39008F62E6A0D97E11E399579A23
:101B1000302F849F86BD2386B44B0ECB40DF45F02B
:101B2000F3A64B562AF4951B382A778AF2FEB5F2B3
:101B300017FD62F1BB941630DD0AE9CEB5FD994977
:101B4000CB66294A0F6454932AD2024C3BB3D2C5C8
:101B5000D77158E54A3892B1505C5AE89017B8BE30
:101B6000BEE7BC5A2B7E13C864EE44E8CF59FEC2D0
:101B70002D19FE13ECC9116522DB9408A83B52F124
:101B8000771C01041C1D19F2F3D5BD457D5452B1DB
:101B9000BE2488C2E802645052F1E2A81915311F30
:101BA00025367627F55D8424A08F91EA215F7C6637
:101BB000C5049B0FD6C418486DBCDCA9001ACF33EE
:101BC000E91943ADE5DD1130BAF78F8A5A388F8BAA
:101BD0008D2568A3B280FFC570E4AD0224D24048D1
:101BE00073A7F46870936942FA823FF296C638523E
:101BF0004769D0962E4E2B7C52645045DB72D755E8
:101C00008F2F371FD75B4B783BC08C93ED510C5C0B
:101C1000F928C63E969B075E7840AA9D49C91824BC
:101C20000D08A6506440FF39B91524DE81FF780203
:101C300039385FF20FCA1C9829FD62BFC2D43D9AA1
:101C40009A86F415EDBE2CC3D9C473DB10B8E2CD6F
:101C5000DEB17ADDF47C67D26170FFA8FBA0706909
:101C6000DD7948BADC329383EC9132C22A4229A949
:101C7000594ED1F53A3FBF6F6DC6B83D345CBCD705
:101C80004EAAEC9207922E20D4539FA59805F58377
:101C9000442B9B2077F6F93B6F987471400C40926F
:101CA000024C50813614E8A9D011423F322A57889D
:101CB0007148A169DD858512046BB5774626C5C5D7
:101CC000B4831DF0BC2EA80B2F936800E3DB3D37D7
:101CD0009C912DF84B242C3A1D71C96C532093ED27
:101CE000FD335DE4C1141501359423C2E122B56FC3
:101CF000014200C2CEF17D7C73B003FEEBE3B37111
:101D0000CAE279EE82C923E84334999CD24696B65A
:101D1000ABA2741D63704E88EFFD24DC42F3419446
:101D20002480998C5C84AE3FEF0206580CC8883141
:101D300069F51FBBBC5ECFF66721EC5D3015E7C5CA
:101D40002E6F130D729EEB56BE9BAB4F0932D6BE63
:101D50002040FA65DD294B7023325C30974B39AE59
:101D600062B1FC690DF7862F5102E5C82CED8AB2ED
:101D7000250EC62ABE455BAC3FA79EE9961F3BBD1C
:101D80007F4E434F16D7179A4D7C3C9859923A9DF7
:101D900053792F905211EBA3AE047C131B32997C24
:101DA00019254FEB002FC19C011852F92C5CB04A49
:101DB000CA51807D9230444909E9FE4889A0F5EC7A
:101DC000C8F6DDC74EF3410A2B8F00E836088EE0D7
:101DD00005B1A7C764110F9A592A83BC19D4E875B5
:101DE000CA9AF8D5D0D37C8C7CEFC177F50453D751
:101DF000FE74C195FD890A7528F1C3D2220B1B61BF
:101E0000B9D6A66A6C7BF4F7AED753FD0BC28CF73C
:101E100068E028EB3BCDB4264CECBE168EC1D957FA
:101E2000E20967E6BDB590B0C92BE0B3ED71025889
:101E3000CC302182B870A4CC00B53A35A1AED79889
:101E4000E807B6849992CE6CB9B3F142A8A82A9754
:101E5000311C57BCF7289551F384447F5A3DDB1958
:101E6000A14B9D52DA226C5AE25B4404EAE8F95D28
:101E70004D5820F28439F9EBD230EE5750D73F0C51
:101E8000061A27CF6DCD3799D7BE98BBA587928FFD
:101E90001B6A715876ADFE8EE2BF1E320C80820244
:101EA00001DE68C7602E39A063EA93AAA6980510E0
:101EB0001A8F363619C8ADBDCF516E1975C089C39A
:101EC00024DCFB5151B9320A4569561A0CDD2AEF60
:101ED000887688FD412BD1C32AC4B8A0E8799648FA
:101EE000746649745A827D2B56097A6A456AF6806F
:101EF000D785FD5846965E50E6AA5A0A79D9406CB5
:101F0000D29CD58E01404FA7E70B3D5729AD531208
:101F10008E82D262195897397F04A63AC7FA882967
:101F20008E7A6EC9059D1AAA4785D6BE9AED0077AE
:101F3000942DCF3348F47C4C244E228F79EB0895B6
:101F400086E8EE402439FB2EDB769744D7104C25EB
:101F50003F73E5F912A6206E937EE20DE017622929
:101F600078B5F771A9F47CCB133865FD82CBBC271B
:101F700095513EA820F9AF06A059F3CEC24441B610
:101F8000D87FB379BC15117E71F4B1B821BCAEA66F
:101F9000577DFA3D2BECCC4C6215F8D3AA5A00C8F9
:101FA000E1A9B6D13C4D56383C4BEF98CF1E8F5926
:101FB00075C9F8F3AF52ACA705DA229E7CB2C031E6
:101FC0001BBF740BCFED60DE4DB61FDCC09A8320C3
:101FD000904F9F49DAB74127F49D3CA7247004B085
:101FE000301801661EC4DC540D81E059C2D93B5D36
:101FF000A129D327AB0DE64972CFCFB5EAAF35B9EA
:10200000D5E34A92952ADFB546CE4110DBE0AEFC1F
:102010008D1962D8A1798CFB2B43B923D4EDF7CD70
:10202000B7653E72AA5C7CAEE19D445765F4D7610A
:102030007D641B59D7ADA3DE787E3C613A524FC216
:10204000899A897BA5C5F84C1E61CD6528A40279C3
:10205000C921D18B7D3106681F775EE625D91E9C8C
:10206000CA6F85253E32D5DBD3B3D75EC66C540E1E
:10207000DD8DBE67E6F1DAD27AF6956A9BFC34DB39
:10208000C6C26DC4832953356CB616388B6E78136F
:1020900073A33C4966A05BB4F337F8FD61184E3D6D
:1020A0009780D2B49173C3276D7ADC46127BD44DEE
:1020B000628397BB05ED828DB041A3713E3896A631
:1020C0008133C02AC4AFAD33BD9E602477DC7DF17F
:1020D00050E9DAC77612F4F621FBA535FC001BFFA8
:1020E000CFBF1F478BA7959CDA67A5863872BB4583
:1020F000F9D3D82236E1D5A1C4E260C922F820780C
:10210000A5C878EBD0113B1D37FF3E219A8310B64E
:10211000D54EFA1232340633DEC30F63B463B20411
:102120001802BC01F9324D27BC719A5472681E7DA9
:1021300048EA4A37D9EAA1E7615EFF37B0EC1C43B1
:102140002046696D21FAF6BC40F1FD9E9BDEC8E396
:102150008948A3508B435F67A3F546D1C9AF2FF4DD
:10216000E7A3F9DA5DCDD9EF34FCCC976FEBCC2641
:1021700027B791F30790410FED535F4D828FA6FD76
:10218000038BEAEAA6D1E0FD9EC210BB2200C9FF84
:102190005766B36BA091D1780FF6B7601D658B348D
:1021A000A37A12DBD80E85C6507A34DF0A29A281C1
:1021B000B8DFEDDC9D02A04E53D13CE917A9BBA1CD
:1021C0008100F1906194A78251A287002D5EF0D327
:1021D000C6FF68BC82C5FD12EA760F534609A65CAD
:1021E0009B1EB006163902117700FD59B8F00DD8C4
:1021F000FE8DE47F892E6BFCA59A9AEB9056628B3C
:10220000F4E1C0C7450CED93D13BA1EBA2CE820017
:10221000FDC3D02E766A86AD0A231DEADA166D5EFE
:10222000E6CAA4B285CA7B1E784640254B59A695BE
:102230008D45BA8D4EC157B54B5A0AAB0410B74FF6
:10224000BC5222CBE07C3AF6F8A437D20224023208
:10225000FEBB77F7DEAAF52B7F6A7DFAE3DA2DAEB7
:10226000F61DAF68ADE5EF2A5824669E14ACBA950A
:10227000B214CD0F5B19087642C6B04B96FD4431BF
:102280007C084FD7D1A19B7F673202CBB66CC3FDD0
:10229000C5E61982BB41FAF35D648D7A82FD8F4BEE
:1022A000793C14D86F2D0D037FD2BD0FCDD3E4033D
:1022B0009953372D4064DF1C21E8B850472E09445C
:1022C00095F336FD21FA3A3875AA485A900CE786FC
:1022D0004F1E4C9A832CAA98A4C6675EB3385EF151
:1022E000CF816F2CC9D963CDB0493AAD41EB22966D
:1022F00071A3F7872BBAF24742BC4D2156653D4288
:102300000730CECF89F82A5FDAF30D9431735393F7
:102310001D2F139922E83B08E377A64B2A984261C8
:10232000E33E9C73FB4E411052BE032D6F81033C74
:10233000AA740B8BF099A270D00C34F13B9311A3CB
:10234000241FCA8DBB430B1F976CD6FD20752746F3
:102350007EA934C6A2FCB351EE181086CCD209492E
:1023600037F572B224DAD43C5A1A955F8804F31315
:10237000B7527DD59F382303D0C088A21532CA4DED
:10238000CF6457367619E20B459336EC74E2A78E8C
:102390005CE5234C00BD09B3773F7FBF5F2A6E8B9E
:1023A0007552C89837017B9A404B9F8B574B0B97C0
:1023B000A98C690439E3BECE2E9A5F340FBE8271B8
:1023C000B853D182EC666E449DD64DAA1979F5C3F7
:1023D00085E908A8AE19A9B329623E5B15D3E5B912
:1023E000721CC7F894522CB0E4ADDEC4A64F048D25
:1023F000B3767602FE0CA681C4BEAE513460D9D746
:10240000EBDE20E2FCB57B27CBB480A4B4A3BF53A2
:1024100005DE767B7E9FCA533FD9CEB70E1EEA8972
:10242000E6DC9F5312E39DACBCD4E531F6C58DDBF1
:1024300015AD2C04E41E74B550C3286237961A58A3
:102440004D44A9E3243FAFC4A2CAC0175A551A3657
:102450004416660AFD86A703BEF8D6B791F39D5AC7
:10246000829E4BBFEE8E9792EACD806E2C5E6C08FA
:1024700005B8741C9ED7BBDE63554B5256E5413AF6
:102480005BCE7B04F1AF46E7A8974BF6FDFCD31477
:10249000E1F39D43B73DD681F7744BFD55D5CDAAE9
:1024A000046BFF59415FCECAD41C7FD7CCE42431E2
:1024B000BE91663EB632074318B1C1BAA024741D5E
:1024C000D738299878003E66EF8F34343C6117D3B3
:1024D0001618DED6074C07E25A957422F4936F7FE4
:1024E00007F0DD4068400A1FF7232F9FA4E2656DC7
:1024F000BE7DC2D7F61FA77007925B5056B3F9DBBB
:1025000080931F4E00ACD5D8D852C5F19AA2941032
:102510005D447DB862875BDEF3877046DEC41ED6FD
:1025200033CD2DB6E26B2214843DA0CF07B511C880
:10253000B168B08E63BA1DD495F68A3D112645CF99
:10254000060CFD47E2043EF0AECC23A5EEC4B72254
:102550000738CC103D354BF5F1D82D1A92CB674E8C
:10256000659533DAAF0D0929594954C504B1B8D579
:102570008A1093EABA6272446F6909881E74B5A022
:10258000D4951FD5A43FF83CB63DA20FAED949F271
:102590004C60535C37C761E22257323954AB1C118F
:1025A000ADBAC2EE24EE51DE820E9526992877E967
:1025B000A6ECA0DB820C3213C35D7AC1993CE274B5
:1025C00047701F15D0C6C8727DA7E63B9855BCC39F
:1025D00060551626A0ABF38A6F7437101302270CD0
:1025E000D34668D6DF355DF4E4B8CC0BA0C987D8F4
:1025F0007AE7B6A16D92F4B1C8821D09619EF71702
:102600004463205C0754846C360E47043AE728780C
:1026100064F278EE4D874600BE0C64A8FD86F63362
:10262000F1619CD8C93F7F5D17B9BB6BB3DC17D98B
:102630005B7712CC588440FF42DFE807270C31F06B
:102640008606ABE8D4F618FD099B642E7F1E138422
:1026500049B0DBCD36215A5C8614A0D3F3DCA76CDD
:102660004639580B89DEB615CAC6A6E5E51BD886DD
:102670008876F72503E2D793A8275AA8DDF7CC5F21
:102680007D0C6BEA9FDB643C269A0805EA8B886424
:1026900010C797B86A9C9319AF7DB2D3A5478D3800
:1026A000460BA100463CE980300C6727022BF14C19
:1026B00010F7279A4B39E11361E4E75FD991493864
:1026C00001E8B8028E72765C59AD8B933E05653D8C
:1026D000171130E3A80ADA417A537616C535BA0ED7
:1026E00034C2509753A32B7727DDD0F91043B9BDDF
:1026F0007207928D568E4CCB2A93424E4BD5055481
:10270000FF8DFDB0A80C75D3AAA64877809D66649E
:10271000FEA0B3F924E81F106DFB5C76C285DABE1B
:10272000DF2D98B5788847AB999B985FA62B15BA93
:102730009CEA29931A2DE00AEDFFA738831D8DA38B
:10274000BC660A6AACB95E7830A6633A8334EF435C
:102750007FB977418827B8859607155C31EC01BBB6
:102760002A63ABCE609C9E5B1A32489495A036419A
:10277000E92AD53D894B75030B3CB75C569E64C274
:10278000D7857CD705BFCBD732F550795D803B6FBD
:102790006832A9919095727A62E296BA062568FC31
:1027A0003208F3E58FC01D614F700C1E142CC20956
:1027B000521CE221F2098C9E527D0E48F0D54897BA
:1027C000C7A145EDB520DB62511B751FD6C379E368
:1027D0005E049F5CBDA5E7CFCC1E545B116F0C60FF
:1027E0002B157600C99E27337DE3C79E08473E8D93
:1027F000AA7A2609801FF6BAA1995449CA22C1BEF5
:102800000317D2FC90079398504089D43071A2B539
:102810009CB330A12D56D56509B1CEAAFCB9E3D938
:10282000E3A78A873C60ACAF934011019288917214
:102830009DDA900D129E265BA668D8D99E1BB055D6
:10284000D218350002FD608BE93D5DE03BCF3F0BC8
:10285000DE6F1F805BBEB0438D22F87F1127801A88
:10286000CDBD9D59C636C4FDC5F13DE2381102D833
:102870009F169A56A85EF73E01873CD3D7F6BE0155
:10288000DB4D29E3C69C82D31ED6EC31F515743F8F
:1028900036A9F2F46567A7604D949C6ACF0B0EA62B
:1028A0009BE4D4FC6F783F69F75D2ED286CF8049D8
:1028B000F44A0C2A2258B03DB620F6EE79D6A90982
:1028C0004C814F914A47F7F5D8D24A0ADDA78C8C44
:1028D0005716795A3DC2262272AD130B870FCDE9E8
:1028E000ED98A4F023BE6A13EFA7B2E323CE4EDC2B
:1028F0001219E1A5A4E8C41FBD08C96F07AFC2F74C
:10290000FB994546B2C94AF0012CD08876FA18FBEB
:102910008245FBCB01232AA97925B7FE007D926F62
:102920002D52047B023DD9DF58C603E462154CA446
:10293000A01E99332255E3CFAC217A8E6FA92E2B9E
:10294000A8AD072A7FC95D1BCBA73E7B087029D5A0
:1029500062B10F209E04451DE060A5045C2E377116
:10296000E5D6AC34417BCCD740BDDAADAB6841E0B5
:10297000EB9C461441FC00F2B788EF34BFDB908F2C
:102980000473B9D8D561A327BF6C53EF7E24FBDC59
:102990004B7E298A451D5DC0B2B8266339A477E510
:1029A0007699F3149EDA2405BBA4517BDF2253529F
:1029B00040DC3C780F120C3B7A378DE1DCE3C73901
:1029C00061DD0AFF1E972AF9E6BDEC0F7001A3D462
:1029D0008072B1C4E63E0FFE6CC8E0363CFD3DF8A7
:1029E00063B8008B03BDFFE14766F1DFF1B40C244F
:1029F000546D3CBF46E472F510D6FA79EB89E25388
:102A0000580864F9AF105C1F1486FADF6881AA0CBD
:102A10005DE06C0AD6BA8AC595CF1299BC505F9713
:102A200096E9CCB6456741A09BE73B974D9875D991
:102A30008AB0E328E7128EB323A3E608A93260EF39
:102A4000E31DC8D8B0D7FAA108FD8FF5FAFFBF8AF9
:102A5000455E61B474A8F4429521B51E97A46F51E8
:102A6000C0573714577F62E2EAD1722F76993ACC79
:102A7000D07AF9E9A3C31F6C53E6126568006C9025
:102A8000AFF4B146AE0D1B38C741267028DB219448
:102A90001B5AF2326C1DC1EF733434BD9669C3A862
:102AA000FC432416C9361C00A529CDDE387CC38E14
:102AB0001799FF3047939A091A4FDC3F58B2ABCFB2
:102AC000A44510A0F8349135E05D31E535FC745D26
:102AD000CCE4BB632CF5415851F2FF474DDC43FD7C
:102AE000EAD6D40D8CD4B25AFD02074997B835B155
:102AF00026261DC260424264700D134514A38BAF9D
:102B0000F4478B19492BD420088EB5DFDE939854F7
:102B10002BC1C6A5F726234FD2FA388B11BDEA6C1C
:102B2000D3861C9C437E61DD287D2ED60989FCBBA3
:102B300052767BBD196B5E0EBA8FE1332477F21BA0
:102B40008A6F3303A30651564E15A9B56BB5D9F25A
:102B5000C765697D7D84BBBF5D5E1E1FD45710AD08
:102B600011906A01038937B4C45D530A7CE0CE0139
:102B700044D5C2EB83DE24D121D8FC74C5DB6618B2
:102B8000DFD39DED243F2ADCDA72A27D0D0AEE68C8
:102B9000F2A0DBE710073CF838B600A5C033CD0B38
:102BA00001A646B35421C72E2ED213E9209B7D5C8B
:102BB000A134E184FF6704D47055EFD2FF84D9AA11
:102BC000333B94A842E9AA1D0824558D389358FF39
:102BD0005665D2F56159A28C5A1F60727C06741832
:102BE000C6AC8704704CBB0CAFA5438118195EF2CC
:102BF000349A358334F510FB06E343A7EB5699F678
:102C000080A838A6E7BEA94958C93CA1BB0438DF53
:102C1000405B4542F30F9F4A9EB7E066B7BF1B3249
:102C200026C92BB126BDE5FEE0AFEEDD216E70E8D2
:102C3000149B465B031D85FFA9B390CDE4417B083F
:102C40004903D4359F0364E95F67949C2E4C0DD6ED
:102C5000EF492B3C77C6FCF6BF21251121558D4A43
:102C60007C8E03AC095DB31A06B1C7EC8F5922B54F
:102C7000B54EAF76D4E49272733035668D249C8560
:102C80005C3DB9623E83C7806B280223FFD740F1C9
:102C90000549F5F15BE4BC07649430519CC79E2460
:102CA000CAD9268050372E76C485F49860D8A49A65
:102CB000B3C102FA55F7486025E6D07735E83A798E
:102CC00077F5E469A28AF30BB106BCC621963541BB
:102CD0008BCA0469726BD44242D28DECDFAC13F024
:102CE00008AADC28C206211A7AFC24757C941754A1
:102CF000085969DA663E1DD7A535461C0F6173CDAC
:102D0000C6AA1A5B4FC6D33A82799E43847B894D0B
:102D100014CF862581862E544FBBDE1194D1224CD0
:102D2000C2B347E6BDC12D3FE3ECE8249F8C362CAF
:102D30001DB9A6B55462D60341DB210C4406D0BFB1
:102D40002790E6B59ACDF375E5EA4241ED7FC15C87
:102D5000A8E93AA8FBB0BDBFADD87BFDDB86AC7E51
:102D600076958C987D9DA0C94516CCA505D0EBF134
:102D70008C8522A52F88A329F18B6ECA4A834937F7
:102D8000938B16FD4F9B2423CADA52A4A583A8A4D3
:102D9000F350F643669287BFC9B1FB9572131A5878
:102DA000C927A8CEAFB76218CE84B9EC8B0E1E69C6
:102DB0007A080D1384077A72EC4D98934C5897ADAE
:102DC000DFA93E45491F8807B6EC867201F53B95A1
:102DD000660292ED343825C1D53133B6C7D01E8591
:102DE00006D609C5B1421FA37F855C98C4CA179C4B
:102DF00026D7F664A3484C44E92CD5A21915FAEA63
:102E0000334AFCF1815EA4556D587BDEE7735A8F1F
:102E10007CEA33CF66CB79EE191E8D82596E7DD553
:102E2000478397DBEA5D0234A0D961130F73183032
:102E300082B563341F35C4F93D1B3FF518CD2F30E3
:102E40009E34C0CEF9629F200B25D8D2B8A6CA5FA7
:102E5000303184DF08731FD192554DDF75315281B7
:102E6000322EB71EAB0F031EE207F26BCAC5A0D805
:102E70004BD300E8B3B1A89A717099B038670702D4
:102E800019D76F7EA146BD7C1B980752C501E7FF8D
:102E90008CC81AB411B7A971CA638646516F649978
:102EA00010290D0BD925D240DC874192B7D9D544E2
:102EB000DC6B5502BC2C86392844D84B35C0C5760E
:102EC0007B02B607F5FA87EDECD38F2324210A1C89
:102ED000162874CDD09B084A60E5AA9EF22B30E6F6
:102EE000FE55031B4625CC6EAE18E49936D317C2A7
:102EF0000A42EE7FADE0D64C60380C2A0CC1374058
:102F00004FBC2E445FA94D6C041599C8E33E278E33
:102F1000C37E001D20AB750F2D416D5D3141950EB7
:102F2000336552F4E92EE9F2DF24A0B2085CCB1F2E
:102F3000B7E374AABBB424A4C1827173850EAF2217
:102F40004AA535D3252D7EF57CE4A3D33E9C247978
:102F50003CF0C95A9F7447EF7BB29B3DED625235FE
:102F60006F5E473028CA24DC149EBE45AC87BE6B1A
:102F7000E007B1DEF16E174AD18C2EEF04DC05DAE2
:102F8000ED1167C3BF8794E1F9EED13F1F998EE041
:102F9000F7E339ABB4B39935A2C32E90952DF61B48
:102FA000063AEF8324974E51A3F5B2F1B5C4FD93D1
:102FB0008E6DD575DE7277242458C81A3559CCA881
:102FC000C2ED62C12D9F49B63B283A22A0C601F648
:102FD000C306C02BCD49E12F8FBB78AB0E8E4F833C
:102FE000178AC1EA46710FC3F1B31E9BB4C1ED4FFE
:102FF000A54C057807C6E84A1C24523581097EB6DF
:1030000016BC74577C5F607764B6512268270C3712
:1030100064DB2B5D8DA29623BFBB6B206E1F3355E7
:1030200029B2D70ABF5444141DDC6E4BD3279481B8
:10303000052BAE24863C780E03598BDA78644BA7B7
:1030400090EDA7F527775C30E02E376B477CA69193
:10305000B1C28E0E6112AA273DB7D0E23B07430BE7
:10306000361288572494CFAE7DEE3B9BF830598AB8
:10307000B25AB4778CD1D0A1D70058CAB0157531E7
:1030800060DC58118079D8118ABA3CD2B631E69CFE
:10309000E935D0F10011BF00926AE20677382C7C46
:1030A00086912E1C9BF4FA86A7732B4D11054BCAF3
:1030B000DC191FBE7C5662D4DB3723D2276D801803
:1030C000FDBC7046252286437B824200FBDC8F14C8
:1030D0009321A2E8E450A9DA6A00013B90C011DB19
:1030E000E970E072953197853971323BA7CE502651
:1030F000C40D1C301ECFB16E17CD1FBB5358595491
:10310000ADAE5A2D11DBC0918C39747FADEE817359
:10311000B48403A256AA4B70770758293E359D0BFD
:1031200099ED95FB086CD172CD3E0BE30AC0FF54BC
:103130006EF48183D1A10FBD6989D6B267BE332CED
:103140003A295C9084134C27452EEA9816989DF1F5
:10315000A4D6B2165FAF7D5C7DDADC9940CBCE5D44
:103160001585A0D1A2DA4A36E3FC556A8E9FFD1E72
:103170007CA949BA2141A2021D8547A86FC79A744C
:103180009DF989B22FDD4EC8F73E1478446EADDE4E
:103190001F3F2FE633EE7E43F2C88131ED3CE71648
:1031A000EA48B9A871753F1ABECA530488D954C0F9
:1031B0009BDF8DC07FAEEF7C21446D5C1DA6B4C04B
:1031C000AE4FF99F2DC3BBA6B13AC499D6E6F00B1A
:1031D000C5E768BDC01D79BEEE0F7E6177C10C8862
:1031E000CAD71330B2580C144567ADC3B6BC46A954
:1031F0009E5133C61AB0785EF0EC37DDCB64146DA7
:103200009BC0F5C0938B8021DC55EFDBA2C2C18946
:10321000E285595FF276FF42C3C0A46904E32CA2A1
:10322000A96F2A07FC66A149AC27C90F67E8B082DD
:103230003617153E501E5B8FCCB3F007015F6EA2B0
:10324000ABF36312D4FC1A49BDBD7ACCD31362CF61
:103250009004C799E81271B14525835BF66462F565
:103260007F92D2228C6D236EDF789AFE1DA8DE3C01
:10327000E3CA73643B4C5F2396FDBA3E0151A167DC
:10328000E1E4EE6C5AE9A52FE8D9C87A361BBC0AEE
:103290002746C51656E1F7986898C4617F0E3064DA
:1032A0009CECC09A716C02118796D2A86E9C6D5FDF
:1032B0000D50DC3469D759CBF94C4786F8EAB93858
:1032C000C28D797CF3A1C14966FAAA8DFB5972C7F8
:1032D00053906657A83695ED70A23185E5BE030878
:1032E000D8C7C0265A6738198980FB8ECC69D6E7C3
:1032F000841BA08C5F1F0FF5DD97E5433AC00FBD1F
:1033000049D49B48EAF05D8F2A319A085DCD2B1491
:103310005FFFBE6EDF6605FE01CD6A2C9D4E69D251
:10332000209B4954D5AE43805474161089B6DE12E2
:10333000DA1D3294C1CF054867DCE615001D9E42B8
:10334000BBE4836D56CEF598E39F52B3C6F8C7F33E
:103350000502A35F5B82CDF92115CC9898AC9F390B
:10336000D70E9D578021B8CDF8B8C46D7403D946E7
:10337000A5D73B61353C3ABDD39781DBD757BDD844
:103380005AD7ADD09B4C92147E1450FEC459A979E3
:1033900094120A336E1B0B1A81EA7378FB506C107F
:1033A000DE40449A81C1D99EDA2D2CE235BC369597
:1033B0003E330EF535326542117B7F007179E41999
:1033C000DBA617BA87CEF9AE3998E58A5D49C28681
:1033D000B8234E8A73A0A23AA1B2EFB9790FA565BE
:1033E00050313C3BE9718FEB438633116DF0A7B14F
:1033F0004AB19E714C46A610131BA3A86CEE302553
:10340000F0882BD08F0148A233AF2B127A03F01F24
:103410004B9B355BBDE18872DC6403D8EF5F9F8B0B
:10342000174F858C2434BDD1628D2AB15DD0AB5D40
:103430007CCA396E8ACC057D189E5E3F76046F5E2D
:10344000439A79A822438C39CCE2BADCA3DCF21C83
:10345000047E7882B799F34F221EC2692D1E6090B8
:10346000482E34DDDFEC7D80BEB5487DE6AD8917A2
:103470005A491CEFC4C95C1489956C8021789C75ED
:10348000D314C08602C2435F69512A0226FA8DE036
:103490001B0BCE3F3988604404C8084A170E55E01C
:1034A000395C2F5F51589BDBCD068CBE664D871D66
:1034B000D6A961A878293B83EAA031C13982FC2EC4
:1034C0009ED5B0606226D21146273FF499023001A2
:1034D000EBF47EBBEB99E3C072EF0FE4A329AB8B57
:1034E000832C9AB5E67CF64D7293C050CA7C77A2C5
:1034F0003D79346A5BC15D89506821620751FD44A2
:1035000081DAF7CF13E80C1711FFAD9555F9A6082E
:1035100056F87251EDD977A8D0A54FDA05E4589343
:1035200031B7D3E3C2EBF50DF4124FF51983CB910C
:103530000E8270AF9645F6A257E1774157ABEECDBC
:103540009FA8DBE25AE28377D5682F3DCA10DDA839
:103550009D88E0050CF6C04B9F1D9699853A9CCE40
:1035600064D8E36943885CA306CDBA1EF5FA52D04D
:10357000A4E44C3ED5A16F32D5089FE22714A3BE28
:10358000B41E76EBDB44E6F5C4A8D8E1B815DF64D9
:10359000E5F4227EBF51F8670044DB2E4572759832
:1035A000348D5304329766AF2E1A21F98C712A5646
:1035B00038DDDC921AC72C35B871D87102BEAD0D5A
:1035C000464149BF175A552258BF0BA226B318AF20
:1035D0002507A0B3525ED88C0014251257ABE5988E
:1035E000A6B5314C6703DC1F79200CFBC77B266D29
:1035F00064C61C9C4E1016B938C600D591C107365A
:10360000B6287D2D72A00D4E7A850C680B4BFD13EC
:10361000E5235DF5EAD5899C62EF53433B937FAA8E
:1036200049BEDFED659D51F5D80B82940EE80ABFC7
:10363000F4429B4CAED334285DA945FF6CA1DA72ED
:10364000383B1B06402F42E7A942C1C4D9FF5BE7C4
:10365000852578CCE585D4DD41A135EC49008A0289
:10366000218D96E9D9865C5714BB5A948FFCE79656
:1036700012AC2AC753483099F195AAF1E0EC8C16A8
:103680001AC983F34AC969CE25BC766B770C805E74
:10369000D18C52915D175B89E404EED3A78A15C5DE
:1036A000F6C12971200BE6DCC16F3F8043184D5AEB
:1036B0002496BE3D91AC809451951072347E1733A0
:1036C0009FFBD80FEA7A03E9E883E0C1F74D2AF0BF
:1036D0001F2AC1D8F00768E19EA2D5C596BAAC8C66
:1036E000EC1B536E06E7BCFFECB357803822D30FB8
:1036F000B367BF81614B2EA80184E92E593D7160EB
:1037000074F30B3BAB6CDC02452ACAC26B7C848928
:10371000DF3A348D5D222B5C78C5DD4DB0848D1889
:10372000EAC9DEBDD17AD1EF44DFD93B82E212860D
:1037300027AC3FECB039F517B45106C519D665B8BA
:1037400070AB6A1432D54FB8E51E66C6BD305EB7A1
:10375000EA3F753C792E5220FCC3534DE1FF0377BD
:10376000319173A0469AFF14E52CE51D94BB0FA17F
:103770005897043A132462A52066F08C74E39645AA
:1037800066045A242F3C51E2A42834B1F106C8F350
:10379000656A17C8DEF3D40C3BC01C154ECBF5BFD1
:1037A00075109E1EEB5876F9C6C1A46761569F92AC
:1037B00007FA037BACADB29772E6F634B936F38301
:1037C0002B0F3C9CABB01C699941052B808FDCB161
:1037D000387C7E33AF4BF8534AEB9A32E89AE615C1
:1037E000A7764ADB77E223C109042032881B9B2499
:1037F000DD0E56A5D0141A57AF11ABEAE30C5B16D9
:103800005D307767AE71EFBE75C0953CCD6815FA37
:10381000C952FF1B3C315DBFF089026D0DC7D4FB5F
:103820004EC560A405F145643F50B003578541A2E1
:10383000B02A3A344F34F46512E683C8D243643C6C
:103840003C2A2AC4AD695783DD61AC93653B4F3B8D
:1038500076DFB2FF2B34F09A1749A9DFF7414966AA
:103860000D74711184D74EF6FEE7FB1A8614226D93
:10387000312F69B27A171DCE6ABFFC1DF6CB993085
:10388000D459D31C8EEFD0818BB885DAE05DF7FB7D
:103890004A93BB875C5DEA5CFAAEF0AB61F7640407
:1038A000266D03F8D9A93F773A63F0100C0DFFC8D5
:1038B0001C5AF20DBB02B158CD68DB14DAA12E60A0
:1038C0007493F35B1EC8DD4FEE7EE88366ACA47D87
:1038D000932714378935BF9ED5437FB1566DE8DEF7
:1038E00016A6300B10EE5FCE19D7C3FB4FFF3C0F6F
:1038F000EEA8F3530102720AF02EC5B3ADA58DD028
:10390000D893692EC0D15E2F27A87EBF245F0B9865
:10391000B56327BC8500E2B3A3346D273EEAF144CA
:10392000CD3FDE5F74153F0AEE11448F7B6F095D5A
:103930004C0A894F026AF0CD6F2AC4C9C1C9E27C22
:10394000999EB4BC4E1F5B19858E9B8BB6399165D1
:10395000D416187EE304C9E84EA63C366403FD8CF9
:10396000C93A898D66013B65A6F6176165E97EE077
:103970002A55BC5B755AB0C89E5F4E1A2AD9A33629
:103980003B35407E0DC0EF2AF8DCC01D235D31B60B
:103990002F5B4B4037CE26FBF8AEB7F769BEEA3651
:1039A000D299991338DBD6F85A6C2D5444C3D58C70
:1039B000B85D7B32D2D5E5DDB8F4CB4752EF064C8B
:1039C000CA97A89EFDA07831EC1A53CB638E31863E
:1039D000B5E807925A4D2CF53BAA58DDF66FF26216
:1039E000349C73C8EEAC94CA06F1D27CF1DC48D4A6
:1039F0009365C778020A823421CC97358A7015BC4A
:103A0000D5599C3A1AB02A728A4CBE3411F6A8AC29
:103A10002AE778A81E7C75EC1CF08EC4E7A7876B9C
:103A2000BB4010127D8F4E2771D3C794B8FBE2D3F1
:103A3000F83D185A219F837AD2CE87D11F5DE4CCFE
:103A40009D5175CF1CBE232EAD297F0D79BC0390EF
:103A50009FB9F171DC3D9C690862D6A52FC85392CD
:103A600084A11FFCC4B8A1729345B4C575D38B580B
:103A700030881BF015868EB894BA75860019D01957
:103A8000CCBE3B7777139A2541C961D281777A38CA
:103A90001527651C76549C10E0316C3ABEE5113751
:103AA000B41062641369660F33EF7969E1B24C7444
:103AB000E7CFCCD1D65AB367EC78799289920C13C0
:103AC000847873F0CB4C8D168476340FCFF82E1794
:103AD0005EB38ED09F21CABDB16670BB5ED914C6DD
:103AE00071C7AD762FDCADB260C6ED14C07B2DA7DB
:103AF000BF605D069A89E2FA1977937E7EA93057F6
:103B0000C23877A816620B38E4339D58FDFA584046
:103B1000C6DF4222A1925F984BE29E559EE51FDED2
:103B2000CAC8C3A7994A1D65A35B9FD1541FC3BBD5
:103B3000E9DF15DF9C49B6244723C3BD1C8C5F0F0A
:103B4000C879F810B515A21479844D6B75E11B8204
:103B5000D10D9E8BE0FA5373282079B6E648BC0558
:103B6000CFB68EAAC1BFE08F7CADAFE290569C6D00
:103B700080DAFDEB6E82A0877C93BF288D2E20FD1E
:103B80009C89822643DE9537F84C60D881CF429ECF
:103B90007CFA7BF305007167ECCE17E3BAAF91A70F
:103BA0009BABCD6B02952D831244C5787AAE63B082
:103BB00005F0CC28B5252249BD8AD24931C02F4A0B
:103BC000DD063F5729B183C0928CFE448F008E538F
:103BD0005204C42514BE41C7C9C40CBF664867CF90
:103BE000FA98401553372DC6126D73E66896BB459B
:103BF000AD2C9C820028C0B9AE218E9CA57946F2DE
:103C0000FFD2DA77E69DFAA93B404F49DA2CFC97C0
:103C10000432DBB33C75AFD3280078B2BC3EAB2096
:103C200046EBB6C1C791B2AB7FA9DA3B7DFD9EECF6
:103C3000CB0C350B870952670570CBB83F431AF898
:103C4000BB108973491D815AA903D7B75F1D2A7319
:103C5000110120E9F6343ADD87189383043ED7C872
:103C6000FB193F87148A21D5762645E363FBB020F4
:103C7000DA68B5C37E06F4578E4C978EF41DDE5974
:103C8000D5325A7627FB140A66DF14068A28485D67
:103C9000B67C8A9B445F555659A9577925D686BE6E
:103CA0001F8D5CE4EC331C2E8A05E1862F96875A23
:103CB0003680AC532180D4D034710B8FE7C78AB1E2
:103CC000DC673970D5A94C85211B87F2A371F87D7B
:103CD00081C22DC76E52347AA2326B078EF40DBBAF
:103CE0002DA6C83B4EA9431A989ADE74E7601B19AB
:103CF0006F9780FB2011DBDD6281D4FE2866813A5C
:103D0000D9AF468E464A8199F1D40898DE9EC67294
:103D10009578671C6B5BDA9DA81E863B64D8FAE732
:103D20003703D3EF001A66CD34968A31E019D11AE1
:103D3000CDCA3CA8979CB2FB7A55765D04C1335F2F
:103D4000A99BD5FC62EDEF60630A8E94A926D05D35
:103D500083F556C612992CB4EC14F87AD087C6A80D
:103D6000C7C500447F872970BF81807E504C1E09E3
:103D700065D6DE2754B5163C2A1E98079EA23A89BE
:103D80002B3940E394A211185CBA98B91F744E60A5
:103D900043F94C4F36118A7DB0686CB57EFCCCD4AB
:103DA0008CE5653CD42A58E13B05DFD5172FBF577A
:103DB0008F4040349143EFA2288B67EB4C56AAF713
:103DC0006A3B568EFCD065CE6D7073C45838F2686D
:103DD00020C8AD3D4AE6275DFFF78645D758C7F7AF
:103DE0006E7143E577E4020BCF7194E8503E0B32DD
:103DF000E270A6BCE907B8DCAFF5A0EBD0346B08E5
:103E00008F387C13499AC9D9DF145F2CD09273ACD8
:103E10001AE36385541F773F710ABC9D533FA8C8BE
:103E20005E17D6FBFFC95683FEE1784EA9A1886BC9
:103E3000C2C34CA5FFFBF4E672F1D09A63560F465D
:103E40007A5A61A9AD3F2E3F475112A2A7EA725F8D
:103E50001EFC9F4AD3EC9F8E72A86C862CF7755877
:103E60009F450AEE2064FC23883C6208286174B7F1
:103E7000EFCD4D035B40EE7D972823977CDBB2317D
:103E800009FD934B7C8E62FAF205A7B9571E3ACA18
:103E90005D0F6F811DDCAE68A1811B7ABF35B9D57E
:103EA0005CC58966B5103757D04309C1D91A2A5461
:103EB00064F817AE4BBEC53FB708035648C87684B2
:103EC00048E86305E3141BB99AADF438612D265E0A
:103ED0009284ED2B413ADA0F67BD7FC540D53EC3D2
:103EE00002F0CAD5B76509A2C70FA49B7F57AC7271
:103EF00021057BFF7B46F7BE0A799758DE86E932BB
:103F000080D519355CABE13298FC8531986903A501
:103F100048B9D0C331ECB691708B7CF115B25A43DD
:103F2000D0CF2A77AE4242F198AE0E5844F1C44544
:103F30001A516A7F6D283FC37A0C768F1971F95B2D
:103F400041C25BD8908E977C8A27DA197CAE7A17AB
:103F5000EC1E1CAD851A61FFC30AAE357E82EBFDF7
:103F60007489EC3ECEAD522A3AF3FAF100E787BEEF
:103F700098B45C4FE66C2309769A97BEC8606E8C45
:103F80003450CC6BB6EAB21031908E9004A5BB834E
:103F900021B002AE263E43381DD36DF911783AD0D8
:103FA000895E9FCDF06EB56DCCEC94AFEF7FCFB056
:103FB000114F4E3FB4A68527A5B6A8E829001E6676
:103FC0004C1F19A5E4968F339676944123F5E43A75
:103FD0000D0BF763D018EF132933EFD76E23942717
:103FE0000892C4C69F62DAFB45DF804AE7DE5C3494
:103FF000FF302046A8C90653FB4925258BD35BCF4C
:10400000259CD36BE93DE33A9FFF95B28154DF993C
:10401000C805E3301994182DB44C2D18EC421DF945
:10402000E64E0DA07C9D95366BF2B85195C5D8181B
:1040300051557A45BA86A4DE344EE9A4D1C3218C09
:1040400023B1D421AD77D7D931CAAD9D637DAAF212
:1040500006C74C2E6604BDB19C6A3D2FBF2972A9CC
:104060009BBC3CC36672AD388043134C981663D634
:10407000978F16D348FB1F7BC6D1128462FE236341
:104080000B2A515351CC727F398CA9FA7416B1970F
:104090009A490C90EA0D6E58A719235443591E3BB8
:1040A000CB9F72E29D348A2C261C6A00BFEBE57F11
:1040B0005455EBBD7A4F766D36424D7CBA3E1C7F2F
:1040C000EFFB30310D17B290EBB492C96EBDA7B1C2
:1040D000008666DEC4F6AB0D3EB4A4C3D0A441E6B0
:1040E000F4FC89AFF0591008A789E726E5429B56F2
:1040F000FB2ACCAC10AFE247BDD753C9B66932F743
:104100004EC293C37A41FA723D00219332A08620B9
:10411000636787F4C7AFE8B3AFD1958FF466BE3C51
:10412000F0F4DAB4363B13F3F29A71045CF3D5651C
:10413000463608D4C7CAE1F93D9D66D3D8E6F87E75
:10414000269014AD37232E641CF272333F062F32B3
:10415000AACD0B5FDC942692309761ACB9E6E1976B
:1041600011987989285298BA4987772F0440A90A6B
:104170009A3031E968E81E0DBDE726142AEE6A215F
:10418000B5B595B7FCC65DD33448737838A76C6471
:10419000D318C86280937E7212B37DC3D8F501EF45
:1041A00041FD5679E444AB0DA61CAB79BCEDE89318
:1041B00043232FED9AABC722F5F21B27C3079BE5DC
:1041C000170C5003D3F5ABB63DD825C31D28EE24FC
:1041D0006373D19493FAFFC4068A7BBBDDCF996EDB
:1041E00049CFD023E200BAC9F22FC4D332F0D8F7B6
:1041F0000313960AE8C45D230E9678471BD60EADCE
:10420000049BEBB824CF73C8A09200D30988B57380
:10421000925BA3FF9B721A7B6EC98AC65EA063C9BC
:10422000326C6A7D04B47A1EDC0283A4A26FC72AB2
:10423000E4AD6A766EB8C716FDAB60922B0DA09404
:1042400044CF0E7E29EEB522A1FD273B910BC47E03
:104250007DF625CA47C781D6376ADE306CAC8470DC
:104260001DBD0DDEBDDB61E06E241E633F7C80B7AB
:10427000EED198543643D19E93EB6BFA374C1265CE
:10428000F91B8E690947C7C0D9D29DE85438F45C40
:104290005FB8FA283351C629EEDB579C439F56136B
:1042A00039579A46309A3AB8073A7FF5F1FF755078
:1042B0000B5C0D2D12FB205B2FA5C128DDEA89AB1D
:1042C000C9CFD2C442B82F4EB686EE6B5B8E427712
:1042D0005506E0AE92E0156EE12ED5898A887456B7
:1042E000062932A8639D34CEE0302A4DEBBE6B58D0
:1042F0005C0B80C6BEC3708827C98ED4F52FD07ED4
:104300007D63DBB5B6364337F9559670A2DDD2B67C
:10431000FCD9C9978082549224A3A813376A8D5B75
:10432000A9EDF60B36A1C86A3027EE7C1F31D547C0
:1043300087B446148A278E4A177C3A9629271E1C72
:1043400075D1862F0513FBC40D6A66AF9A9BA5E055
:1043500094B7C68A7317BFFF43E442196321FA106A
:104360006CB0185E46CD5EFC166B20C957DF7355E6
:10437000744126A812C08187B253536B1C52191A7C
:104380006BC30E3157B02DD6C371D0280152536A7A
:1043900098F6CF201DEDADB9C84BC0F065D86A08BE
:1043A000F84A8171526A2E4005F324C89ED43C1C01
:1043B0002D51FB68118DAFE1680139F49117064C5E
:1043C000945204C2AA26ADACA9BFA6A78823A7EF22
:1043D000BE621CA3A42B00FB7524712132878B3392
:1043E000FF672E4C548BBDCEE0AC67EDAD3F727CC9
:1043F000DE1D020EA176587523F72483721C8EEB06
:104400008CCCAED41B3ACC9A9E871B2E0339EAC8BB
:10441000B8C977E01FCD0C3AF42E3F610D45D34269
:10442000F58078529855152A1F9F401ED292F3AA04
:10443000D8DD209314491BC61C572D29CF252B5F8F
:104440003CB3161F7EC9B03E3836044AED64E60917
:10445000C32E933C697C4D6DD2F3C37EEFC6C15928
:10446000219C5088A30603D4916D53C3BE861A8045
:104470005BDF5305A69F7C1C735BDB2DDE7C500F3E
:104480001A7698BA8D7ED87BCF377EFE3E10BFDB82
:1044900046748FDA219B6163EA7D6116569AC5A93D
:1044A000DF42250E7B320BA208956EF9FCC27376B3
:1044B000781ACD77E001153A3DA93242C66FACD9E2
:1044C00014E78464F4B11DAB4010BDDFFE0E6C0434
:1044D00046F15AFEA8C106672F46EDCB9160AF1793
:1044E000F3E28CEF8401E95CE05E695AC35AF1069D
:1044F00013EE8A60AB40FFAFC1E4EE72028DBE9F47
:10450000E9C253F02A63DD7CB7B59A8D85741B032D
:10451000A099E0FCB75B9BE144116BDBBAD931CBCE
:1045200017D733DD3117D527EAEDD0FC968316BABD
:104530004669D47133090805EB3F3F8BFE1AAD4D38
:10454000E092016CD7D9F790B435D33672D506FB1B
:10455000C5DC73D6B18A15CE58247FA8B2A5C27522
:10456000A6EA6A4E5C57D5EDE746F1A9965B86C48C
:104570002F0D3FBF361A7E28A6B5E8022A56510FE6
:1045800017A2F12C06A243A0C271ACBF9C73B88CD9
:10459000AA9E2959A88EC5D261AA03EE93E5792077
:1045A000CE3D03F24C054E93003C5B790681055DE0
:1045B00005D2EC470D45793FAAE3A818A89C032F24
:1045C000C7E590DFAF89BC6ACD046D32F327C35DC8
:1045D00081B3BF1EDCCBE67A2B72019E723A53CDBB
:1045E000E927029CA855ED096E1148A67E113733C4
:1045F000FBE6F317DB5F89342B3F50699DD5E0F66E
:104600003829AC5D77AB68137F5DB60956B8137E69
:10461000487A835E1DD3207B7ACA310229930DA28A
:104620008BE5A24B2ED2EA6641DA4CE079974690B0
:104630000B230BB4D4DDCD4799C346CF289295A167
:10464000320FC508021FC5479F5E95FF447C5BB1D2
:10465000ADF04B6BAE452D9E3748AA87D80DE626A8
:10466000E8C6711790B663BC6B6E82460E620B246F
:10467000F517C69146F02E8E8D5DDEBC9DE846AEE8
:10468000F308D1D4FC9268D9E4738020A0837E9093
:1046900042485285FF4DDB2E7C9E4E828764A7E206
:1046A000C73914134F90246E47E9AFE9B565C312BB
:1046B0004B9B8DD7AD818F70FE357174CBD9F38F45
:1046C000662ADCE2921443C3615971D116F3843C2B
:1046D0007AA3FFA6680E14EC7356D35D8661B4DE30
:1046E0008EF792D1D6E6E0D6DFB9E75E3F8AB80E04
:1046F000D1C6C82F7653829F7D1D2C0EE055DD2D2F
:104700006903D560117A052B0ED51DC805BB513A3A
:1047100060E6A6997341F0EC977255DB51E556625D
:1047200031C1033F8E60371B9291823632527166DF
:10473000610FB42C8D7F3FCD7927DA9064861014F9
:10474000377A5F64A6134ECF39FCD25A645679EBA0
:104750004CF409E19376D57A5DA29857F178C8E4D4
:10476000C0DE73424687FDBB7E5BE020197476068F
:1047700027532AF37ED7C329CDA402AFEB074162AA
:10478000FB22AD62EFD89F152F92840B8F8925CD28
:1047900054BD6B90A57D943FAFDADBB4E3A71563FE
:1047A0007DCC9ACE5989766C07753BC18737DA394B
:1047B0001A73FE1AF7F5C14A3914AA9D874AA91738
:1047C000438F2BB2272ACBB5FCF2AC088D6FA4FC2B
:1047D0007DD44F5F1E0268CAE8248B5D127A31F8DF
:1047E00065C4DC4FEDBC7D389EF0ED19240B5F4DA8
:1047F000FBDE2AE9805B6413E800246B28D5277769
:10480000684C63D4BB97D6A4604DD9E0F93CE8016D
:104810007CF9B8741E4B53C0ECF43BD5F3564A3DBB
:10482000DBB8888E380EADB5237FE1EF0C2EC38D3B
:104830001F5A63D84283E414943E935A78A338CB2A
:1048400049BE6DC60004E81832A57B64A68AA94655
:1048500047F4C2B71B0AC5FFEBB2FF3E1B2BF6891C
:10486000F08B2E0D505A6275128B78FDCFB28A6292
:104870002BE4EF0C29DD35A6D55D667264E9A86DE1
:1048800075492D48C5D5EDBAD0ED30C163E0394446
:104890001711D7F64A234521D2990748DA08B20FF3
:1048A0005926AD1B784B5ED84520E13147D79AB1E8
:1048B0006D5DD9015B1C4BB28967623DAE8C0EB356
:1048C000760D31535D401E2D9B0BB767C856D4C281
:1048D000066CE932AFAF4ED7B040C7CB82A0880B91
:1048E000F2430B9EF7E11541216165A50B8C9F2FCB
:1048F00061DEC662C9661EBAAB29AA165FAD28354D
:10490000CE841F69C7282D253D4CDDA78410E3798F
:10491000C13BBBE89F06D6B01F82B200A318D0638C
:10492000EBD0ABCF4721FB3142B2350ED352A84674
:10493000B1B9999D83E6B6CB543924AF26A41D3373
:104940001E8A8CC79E3C590992BD4C31CBAC6CB7CA
:10495000F924BA834ADF9A3E195C9146E17B92DEE4
:10496000589CAAE86049AABEC2C1DD3F87C2E5944F
:10497000765B88A9C5780455217C88545AB96DBBEB
:10498000A97472630A76EB253ED17A6CA21B705F24
:1049900088A9137ABCD72C940F2E7B67CDF3395A94
:1049A00000F07A9F2B83D92FBAA23F98537993D4E2
:1049B000ECC05241D787B67C0245CBEDC9A4B32BDE
:1049C000545BA274FCB813C32A3A5736738F4890CD
:1049D000D92811932356641BC81A870722B1DF26F2
:1049E0004D7B3F76131BD90C850CE63418CEDE7E4A
:1049F000AF34EA38B95DB56B462B04967306111DCA
:104A0000A2B36FA9AA7490DE213D72273CFF1FFA62
:104A100046BCCA0B63943393461255BA566D9C0834
:104A200099FDE32956AB0337B75DFEEE1AB39A51F1
:104A3000505B64BB853C164F45FFD2269822A57873
:104A4000AD320FA6302A143F86C3DFF828BBC178E9
:104A50007EADA50A79B4C83A2418BC56110EC84FC9
:104A600030BA5951B7A03811F451E244B77BE4652C
:104A700094D9CDC0BF72C04D3C3531B80B2B20A0AE
:104A8000A0F2B2008F279A2B2DF817E6323F81BA99
:104A9000799C5BA85358A42E00CB2032D1B42D6A48
:104AA000CE73B27CB5DE665D0B4700B18E4C5371A0
:104AB00084CC25385D5B97A65D6BC4F87568BC93A4
:104AC000D1E34D2C1AA4841AFC08A40A6C4D75F28B
:104AD0006358B0158ACA83F4EB4E4F7A1A1CBC5740
:104AE000912D6FA16588751BE92CAF5A3AA044B28D
:104AF000BB795CCEB563FDB9EDC908B1E548EC8280
:104B0000F94E57A7CB0CE81B7E156BAE46477714C2
:104B1000DB7DCAC1E9DF79F8EE71F6A5EEEC4172F2
:104B200089E3576D391E56BF066FD1917AD102AC19
:104B300014C44542F72778D5517C2438734C8261E0
:104B40007BA207892C5D1B925D38F77E2F2790C4CE
:104B500081F4E389D7B3A585AB7D8F3F31936B1C7F
:104B60005D3CA2EEEB9EFDB9FA95166FB6A5EA6123
:104B7000324638C55CB711BC2022C09433CD608466
:104B80009195EBCBB2204F4A0E8DC98BEE68B0FAEF
:104B9000DAEFFB9DAE149A9B4507E39FD383063A59
:104BA00029B7C034952637469857EE4369EF843FBE
:104BB0001CE049764E35CED983F86FEBF8DAF68BE8
:104BC000C8A60101CCE83582AB6E2C643C600FDED8
:104BD00099C2E1FBCBFA73176E224C3A3301E1C262
:104BE000DBCF1A334F1D4E49E7BF6BCB52E9A745C8
:104BF00029147950EF935CBEE64F37DE2243FE9EC8
:104C000008D84A11C67CDDCF02869BF782BB2F0BEA
:104C1000ECD08D74A1C66D059C7E4E97C813AE571F
:104C2000CC8C4AEE0A92FC70C3701745566F17ACD5
:104C30004787AAFF575736A0674AF025CA7A9C6370
:104C4000805295BBBD19BDB0892699BC7F52D34710
:104C5000928F6B38EE2E254DD12F89709C00139AC0
:104C6000C420C9190F99C52EA8145D372B761924B5
:104C70002DC709280C8C456349F8D07EB3F4160F74
:104C8000FA996BB19EAB2C052A78D11A61C0CBEC96
:104C90002C9CC77F7ACF3EAC61CE9826A1B69931C5
:104CA000B6373A32E45E1AD72ABFD8566522F0B03A
:104CB000BE42C7CC0F012D61C18BE1C54281608F1F
:104CC0004395535ADC6CF3FCB0C3C238A5CE0A0539
:104CD0009C8CE413C2001CA410AF55D6B0763D5294
:104CE0004EB26F505B1FE495489A82715D903A52C4
:104CF0006835D2B835B77354440CC7280CFB15FF80
:104D00003531D3F47D522A108BC6569F615705BAB0
:104D10001FDFB88DD66DB7CF0D0A18283DADDADC90
:104D2000324E14152F6FBA098C94D5AE137F1C899F
:104D30004B31FC1B71A7DADB8A4CCBEA20B5FE1C99
:104D400017EC6530CE3260CF18373E18331427DEAB
:104D5000A36EB59E68A93AECD5237978B0482D1C8E
:104D600026533E0050372C60955BA757A47BC6475F
:104D7000C9B582DF50523AEFF8D9A13D311EE5D5D1
:104D8000DE2E0E05A7C7EE9411142EF4F4DEDEC25B
:104D90003FE48A3939695B59524C3E5ADACBCD66C9
:104DA0008BBC75C43C508DC851FCFEA9DE6150E837
:104DB000F794C4843E78CCC9DB2B243B5E64E3BE0D
:104DC000246EF28ED3035D8CA97EC4986E6E6C4FF8
:104DD000323C88481B7FC48E8BA1317AA5D6419F77
:104DE000F9485717F0B457E31732F3FC085BFB5B45
:104DF00045F07C9AB63F57D937E47E5CDB6EF58789
:104E0000C458C8509810AC8C969E8C71D2317BE9F6
:104E1000160CE725428F91681F3EE1AB2897312D94
:104E2000494B8E276AAE62351205E508AB14AE53C6
:104E3000179B0F1DB219C83EA127DA9270164801C0
:104E4000A1C43413952B808BB8EE22BF7780ADC6FA
:104E50008F166E9F1D95CA8DB1043171AA1AD27139
:104E60008C91B4A6793BBC10A5C6B7395C3C5110F7
:104E70009569A3BCFD9DB8633C1B1DB7F41B881549
:104E80004E63AF6E5F927C35587FAEDA8008E2DB0E
:104E90003AD62EDE1A41439126A3E8768327D6DC44
:104EA0005FD9CC1D9C0094131BA7FCFC7C38EF57EA
:104EB0002EC6A40C8557D5545D04675BB069E377B3
:104EC0002D5414A4C6A81EF3273BC971CFCC72CDB4
:104ED000A983D9A50CE18C14C8002568EE8D016565
:104EE0004B4C3086824D97E15B84A465A27733F901
:104EF00081F93816345A3E64972E1BF9A4B642DE67
:104F00000A25D1E410C83652AD37685302D0166175
:104F1000225B0394AE3B3FB50931BB1D3EE7A6992A
:104F2000803E90243252DF340D4C04A03F9DEDD8DA
:104F3000390BED3123DD290B0DDD88132570EDEBE9
:104F40006F763160BA16D245F2593377FB6B8E2BF0
:104F5000B48904434938CF70E1CE62CC9E1D8F687E
:104F6000273659EDB80EEF1E5691BD5299CDE4F893
:104F7000F5EBAC27E25C38D0159690436065C885A8
:104F80005AC0F258EF29B99FB48F42B8309C6B0DCC
:104F90003ACA458CD50E4286B059DEC805C5B9EF70
:104FA0007C1E1A83C7A11B8E8D220C6D25740A07E7
:104FB0000F7188D9CCD1CBA09E63662D9E389622E6
:104FC0007C8A57E26E3388F4AFD98249198D874CB9
:104FD0007801277181618A7265664B619613950429
:104FE0005CC30E9CA69E4B5090946E1A8D265DA0BD
:104FF000D077CB419BDBF68E2060F6CAE7D34967BA
:10500000145665A5D49A55F7A9221D3F88D00DF6F0
:10501000A2ECB9A9C40E164D53996542425AF26EDC
:1050200097522EBCB340ACED5D479EBF7941439390
:10503000B24713C774F1BDAB3BD9D6F4D959B44DBF
:10504000230763D0F6404AEAB2D2B802D12EBB4160
:10505000193B30D681BECA7D63D8AD277D6CDD019A
:105060007F31BFC651B0AEA503E4CA4AE087A9C5E7
:10507000AF40D75BD1CE312D7A1E61562A7EEB4DE3
:10508000C9620F7B187180256644552B0C1C69FD85
:10509000B34BB1C6DD6F48A5B63B42321A41E08141
:1050A00074E6C90206BD2ED55B8B58C1BA7917F2DA
:1050B0003E7753C5465ED95295D6E1AC1CBA10C1B5
:1050C000D38151918396621F9B81030EE5A0CA3E56
:1050D0009BF94D1FEDBA202BBB4A227C48CC615E68
:1050E000F7F5FEECCE32EA5607E09E4ADF7CC0D8E8
:1050F000BC584D5694C4FA1A04442D12CF34114BA7
:10510000CFAAF10EE397B99478C8DC8337E648BBA1
:10511000E71AB496FD111A8610FB247B50277B49B1
:105120005704E7D49E9257F7AF90BC9C175F4DE2AF
:105130004D06E81D3BF74E207174040E44281D0EE9
:105140009E60E1247999A617A91F0A11D71930EE9C
:1051500074DD084F84623C684F735DBB287F7469BF
:10516000477DF5D55D5B14FD3EC020A12E8DD48D0D
:10517000BCB2DC58ACDEACB04EC1A8BCB39012AC33
:105180003670571AE35B0E25502E748359C7ABB99E
:10519000AB6DA36E9299189939E7BC9281398E5103
:1051A0006CFDB053589BD69A960375CB66A19A476F
:1051B00092A050BDBB501BB2C0B7D72509FF8F6569
:1051C0007C39FE4EB470C00AFE52D655CE969484F9
:1051D000E365742D21D819F978E02906E261069F6C
:1051E000613DAEADACE0DA251804944ECA09AEE6D6
:1051F000E7F85890C27894E7EED3B01E09AD27D0F7
:10520000DE086C67703143A009D41426DE7E5EBBD5
:105210007D7FBCBAC0A46C1E3D5BA08EFDE09F28C4
:10522000324ACD0A32CAF57724C9BE75406462E7B6
:1052300084CC06AA312366DDAFC0FF247D4057B37E
:10524000AE651A17482BC7FA61E8A4D79E13FC3540
:10525000353667471B1CFC4D85FB035BDB31191D95
:105260001D19510AC0902766FD65DF786DD982331C
:10527000D56A79512ADD344215B03F27D1EFD4FBEE
:10528000069A9F39BD646784F38F997D433000652A
:105290000786A58E5B97781B0BEB89212FF341BD09
:1052A0000EBD31C13C6495A456EBD3EE7BD6CBBE8C
:1052B000CFA143CCD3BF9F5FCABFA5B05AEBD703E2
:1052C000068AA5064E5755CF3F9FFB1C712055F10E
:1052D000BE0D725DCC5621B52ADA76909875088796
:1052E00000E8EB1EDFC58CBD79F5E099861E897D4F
:1052F000462B60AA71DDEC471B9C1B25E370BEE0CA
:105300007050DB3DF9F82B153C74BC49B311F00229
:1053100023C3CBC2706B6678F41AD4A691C16F0D0B
:105320002A607E6F885C393B2A9B173BC24E699E80
:105330001CACF1AE053424FD0ADE8316EE4302E315
:10534000433AF98333CFECE06A7A13290D7FF3A94E
:105350000F52ACA85F0A4E649EF6547A8E6DE60634
:105360001C7734C17BFA3E06EE3B62CCF0136459E5
:10537000A980A23F0AD80426533A5964AEA61A2B34
:10538000CEE9859C22239ED48E286186CEE9E98AC7
:10539000D102F525CFBC816EB6A1FE489633537875
:1053A000B24350F2C3622401C917D9E3059D0B3CF7
:1053B0004811B019D5CA87170DF4826C1167B0A0D7
:1053C000BFBAB8AE937F1802EEDDB978CA4602E7DD
:1053D00058EA55D385974BAA4DB727E7F3933D80FD
:1053E0001DE0A5A605061DE3C8B4586DC29967BDAA
:1053F000709E9C74C021B03073A0702811E92FE01A
:10540000FAA5F4E5B42DF9E01F4438D5DAEDE94FFB
:10541000C36FDE5B6EEEB5DF64E6565361096B1A4F
:10542000B1E835D4D8A261A0C8C58922E0B8086F18
:105430007FBAB41A516D0F2CE30BDA0A5178B4F32A
:10544000278A4BA6673BBCCFE2686063596A5CD48D
:105450009F9846CDC9A81BDF29EA0439E6274D02EB
:1054600050659D20FED80FF6E1F8E57C2961F455E2
:10547000543990C8992B5678CE40B5A3A63B3A7ABA
:10548000F107572C6F1D41F0B277A0042E7338241A
:10549000FE6ACD9987D8E19568511414610889BADC
:1054A0002537B33328607915131D3818288685E70A
:1054B000055114A540A4605C2451AFBB79E117CA23
:1054C000A51DFF7ACF7D8B15B39CC735B9AE26F0ED
:1054D000715C8D0C655FD679406E2AA0A6E1B0455F
:1054E000EB9B187B8BC0B30A17B96637F82A5DBEF1
:1054F00087FA7E6590F1D99BCA3BF87352E7083A68
:10550000ECF1D3BCACB3BB6385FD2A25AF3D44555C
:105510007A4213B90525EA50C9E58E5699D4C60BCF
:10552000A9F9ADE1D2E746EEC497F17D2E54641E91
:10553000635F53BFF36F769D05C8B051EAD6ACDC0C
:10554000E2ACAE76BD891705D7796C77DFA740E46A
:1055500034D5419E9DEBD24F9A2FCA4685AD1B474D
:1055600001647CA35DA847CF0FD3CBE681539A8615
:105570003B8B72492E60BCD6BCBC0A773065119D4E
:105580006BE8BF4FACC6E03D617224FC5955B3AE29
:10559000972C2DE029D98718244097AC7DAB790D45
:1055A0006107B1CA9160D12598E5850ADE8D8343F4
:1055B000DBAB476D4279798901CB51ECCD83E7595B
:1055C00025D85F1DD2BC81E7BDA47A77A24A346892
:1055D0004AA355D1631E706DAF65B58B9B58627D34
:1055E000532FD8C9AB8F85377B5B050172A6F4DDDD
:1055F0002E673980CB19A31DF563E4BEDE9950BC3C
:10560000AD68F49EAF45276DB70019C02D6FA81E79
:105610000A32946FD9878F1B530363EFF708804BCF
:1056200062E712C35A40B1C23BFD266FBE9D31CB2B
:10563000E4E09E2FCB3CA16DCA9C7AC12F7130183B
:1056400093503AC3BA2D8CB1B2842227ADE7507B78
:1056500004369A07B5197253204045978CFCEC5FCD
:10566000D9608674C55A0980BEE4A6EDC7FEF6C2AD
:105670008D9841324653C680838A9E34CABC824488
:1056800059CC5DC59A666FFFBB30D0B90888CF4C46
:10569000502413201F449B2A04044B9DE5046115EC
:1056A0003FC6C93CD762D651DA40F28AE4492206A5
:1056B00006199B4074A3885607D8C851F23EC87D8E
:1056C000965468D1144B2DCF19A2283C1B8AD2398D
:1056D0008C3897F7DD5BF046C7FA242EA1C4D59C21
:1056E00040DF251FAC5F4892DFFA7220AF4D30AA31
:1056F0003737A18BB2CBA24EF0C41253F8D201F6C9
:105700007065AD6CEBF01DBF986BA2F8269EF8EFAC
:1057100080F37E795FAD88B86E0736A5F7A37E6CFF
:1057200021C4BD449AA92A6DA62E5C2E1249E0FF21
:10573000640956C4C192F58B2AD7245D900D683553
:1057400064CF085BE5B6F56C5696A02883D956A9B8
:10575000711C90A53F8D0F501B026D468B9B5D9376
:10576000996F7FD95D4E5FB11DD2FAE38C4B8DCD21
:1057700063CDC7F28855122DFB3903E9B11E8F3472
:1057800040C8C042353ABBAE10EF5CC79054B5AECE
:10579000F9FAF847B167493DBC27AF621A4AB0141D
:1057A0002B23AF6AF7E689CFEDB7B10F5A08F8425D
:1057B0001935D23023954E3EFE4836813CFE2EF5FB
:1057C0006AA87FEAD4C37C9550ABEF07725DC39F94
:1057D000AB6D3710A5A2A0F85A404AA55E31DF692B
:1057E000288C90010C0F2FFA2B15DDA8E0D723771A
:1057F00091F1C2450C5F0115BBB3298B31D9260D40
:10580000CA33376E56DC1B3456EE09B991F42100C9
:10581000178611515D5A110CF1716268D71B52F451
:10582000FC6E3559F25B9491D9392D49FDB6E304EC
:105830005AA27662337970EA3563976A716471525D
:10584000B06D1532CD958CA5F33AE89EEE8A61E9EC
:1058500019D411BCE9717FDE83F2F78B7DE5784CBA
:10586000C5B892DA4CD5B20B24EB4384820DA592D5
:10587000CEA4B513331903D9D81E6F4E1EF83426A3
:10588000A1E140E4CEF34C75D4F14FC265ACA9213F
:105890008F7D1A94B4CB4A472CB4EEA7C272F98715
:1058A0003C4859FFF2C876B6FAF94ADC5969869D38
:1058B000639711C714455D6CFDDD4337643A2818C2
:1058C000BA9A4273EF4CA1BE197FFDFD26EDA903E4
:1058D00096BD519D51FF240D1A6D46C4AF80ED8ACF
:1058E000CC94A7041DA89E3313B8CE431B1F64336A
:1058F0000241BF0118698407C0CECF0779BC34A12B
:105900006D48BB3A054C5928139AFC1A1EC3CF4167
:10591000FEDA181CDE92CFA41F0ED866B3470BD256
:10592000275224F2391AA9DD0A95F518B9F892839D
:10593000E1CDF49602BCC9887CDD73B6A4E52CD415
:1059400022190E181234580EEBB3E21D158D0C8C73
:1059500083C1252A96476B20AF18071FA2B7A2BFA5
:10596000530B6987B81424FAADC7C8550170488530
:105970008C998E2DA7397ED16AC735E043D02A563F
:10598000197A213A5ABB0B077675585AE78A7AFC7E
:10599000E86DCE9FE48447DE9D20D79877B15B7990
:1059A00095C3A2DB8E3DA110C84D830B87AC3F573A
:1059B000567FB1ABFD1657DD8380ED6DC2D235D376
:1059C0000BAA23699B199F4D9638D6146C8F4CD81F
:1059D00063A4BCFAB408B91D1233E87954A0CB6CA7
:1059E0000734EDE4347CB9FC1E5B376392B497272F
:1059F0001629219EFD31062656F4AD65AFAFBA9B40
:105A0000C5BEEB49800BF1FEE6485C623ED9D4AEE0
:105A100068F36431660792178972DBB7CBC963D725
:105A20006A3B057D4641E0DB92F58F29029E486A7C
:105A300084030C1DAD5BFA3A3833AA6C4D3A056B02
:105A4000C0276690C735B44D2E7823CD55B35C354D
:105A5000B74D9DC25D669EAD20883703619D45FEB2
:105A60003F1D3F6BE91E324171F95D3686A3F3C4D9
:105A70007853EA3E9D29C65F6BA3CA251057482379
:105A800025DEC13E991E01C1AA43C8E01819DE36C1
:105A9000F701CED61347BCB68836704EB50AC4CCD3
:105AA000FACB51DAAD7F1EBC5F8626418D412C3981
:105AB000B599F4BA56CB8BC3FBD3048C8D393927F7
:105AC00014208AC5DFF70DCA6C05DDAA46DEA2B434
:105AD000FF89BE1ECBBCC62D09215B9156A58D71D9
