S01D000053774F6E4F66665F5A473233425F3434325F5A5241442E73333705
S3150800600000100020AD670008C9CB020811F400088B
S315080060108BDE0208C9CB0208C9CB0208C9CB020825
S31508006020C9CB0208C9CB0208C9CB020851620008CD
S31508006030C9CB020820550308E161000899F4020853
S31508006040BD6C0008C9CB0208C9CB0208C9CB020837
S31508006050C9CB0208C9CB0208C9CB0208C9CB0208BA
S31508006060C9CB0208C9CB0208C9CB0208C9CB0208AA
S31508006070C9CB0208C9CB0208C9CB0208C9CB02089A
S31508006080C9CB0208C9CB020871B80008E5F50008B3
S31508006090C9CB0208C9CB0208C9CB0208C9CB02087A
S315080060A0C9CB0208C9CB0208A16F00087D6F00089A
S315080060B0C9CB0208C9CB020821950108919F01089E
S315080060C0A91F0308A51F03085D970108B51F030844
S315080060D0AD1F0308699F0108B11F0308F59F010852
S315080060E031A00108C9CB0208C9CB0208C9CB0208EE
S315080060F0C9CB020887DE0208C9CB0208C9CB020849
S31508006100C9CB0208C9CB0208C9CB0208C9CB020809
S31508006110C9CB0208C9CB02088DC10208C9CB02083F
S31508006120C9CB0208C9CB0208C9CB0208C9CB0208E9
S31508006130C9CB0208C9CB0208C9CB0208C9CB0208D9
S31508006140C9CB0208C9CB0208C9CB02085186000888
S31508006150C9CB0208C9CB0208C9CB0208D9800108F5
S31508006160C9CB0208C9CB0208271D03082D1D030841
S315080061700B4A1168086806C881F30B88022181F367
S315080061801488203080F30988BFF36F8F4FF0000022
S3150800619080F31188104700BFAFF30080AFF300808B
S315080061A0CC2C0020000000000000000000000000C9
S315080061B007480068006880F3088862B661B6BFF3CE
S315080061C04F8FBFF36F8F02DF00BF00BFAFF30080B2
S315080061D008ED00E0000000000000000000000000DC
S315080061E0EFF309801EF0100F08BF20ED108AEFF3B9
S315080061F00B82734620E9FC0F114A116808604FF0BC
S31508006200100080F31188BFF34F8FBFF36F8F09F02B
S31508006210F1FE4FF0000080F31188094A11680868FA
S31508006220B0E8FC0F13F0100F08BFB0EC108A82F329
S315080062300B8880F309881847AFF30080AFF3008016
S31508006240CC2C002000000000000000000000000028
S315080062501EF0040F0CBFEFF30880EFF30980044922
S31508006260084700BFAFF30080AFF30080AFF30080AC
S3150800627053FF02080348044B834202D0034B03B181
S31508006280184770470C1600200C1600200000000066
S31508006290064B0749C91A891048BF0131491003D06E
S315080062A0044B0BB101481847704700BF0C16002075
S315080062B00C1600200000000010B5064C237843B9E0
S315080062C0FFF7D8FF044B13B10448AFF3008001234E
S315080062D0237010BD128B00200000000020C30308A5
S315080062E008B5054B1BB105490548AFF30080BDE865
S315080062F00840FFF7CDBF00BF00000000E0180020EF
S3150800630020C30308A3F5803A704700BF174B002B3C
S3150800631008BF134B9D46FFF7F5FF00218B460F4636
S315080063201348144A121A26F0F7FB0E4B002B00D01E
S3150800633098470D4B002B00D09847002000210400F9
S315080063400D000D48002802D00C48AFF3008000F07D
S3150800635029F82000290026F013FC00F011F800BFE8
S3150800636000000800000000000000000000100020E7
S315080063700C160020A4C00020000000000000000049
S3150800638008B5064B044613B10021AFF30080044B51
S315080063901B6803B19847204626F0B7FC00000000AA
S315080063A0301A002070B50D4D00260D4C641BA41044
S315080063B0A64209D10B4D00260B4C2FF081F8641B21
S315080063C0A410A64205D170BD55F8043B013698477E
S315080063D0EEE755F8043B01369847F2E70416002025
S315080063E004160020041600200816002038B50546B5
S315080063F0002941D051F8043C0C1F002BB8BFE41803
S3150800640000F0D8F81D4A136833B96360146028464B
S31508006410BDE8384000F0D4B8A34208D9206821184E
S315080064208B4201BF19685B6809182160EDE71A46B7
S315080064305B680BB1A342FAD911685018A0420BD178
S3150800644020680144501811608342E0D118685B68DF
S31508006450084453601060DAE702D90C232B60D6E7AC
S31508006460206821188B4202BF19685B6809186360A7
S3150800647008BF21605460CAE738BD00BF3C1A002037
S3150800648070B50F4E0C460546316811B900F09EF8F6
S3150800649030602146284600F099F8431C03D14FF096
S315080064A0FF34204670BDC41C24F00304A042F8D073
S315080064B0211A284600F08AF80130F2D1EFE700BF2A
S315080064C0381A00202DE9F041CD1C064625F00305B3
S315080064D008350C2D38BF0C25002D01DBA94204D93F
S315080064E00C2333600020BDE8F081314F00F062F8DC
S315080064F03B681C4644BB29463046FFF7C1FF431C90
S31508006500044650D13C682146002941D1002C44D08C
S315080065102368304604EB030800F058F880453CD160
S31508006520216830466D1A2946FFF7AAFF013034D094
S3150800653023682B4423603B68002B36D05A68A24256
S3150800654029D100225A600EE02268521B1DD40B2A5C
S3150800655016D96119A342256018BF5960636808BF38
S31508006560396062514B60304600F02AF804F10B009E
S31508006570231D20F00700C21AB5D01B1AA350B2E794
S31508006580A3426268DED13A60EDE723466468B1E764
S315080065900C464968B8E71346CEE70C233046336005
S315080065A000F00EF89EE70560DDE75B60FFDE00BFE2
S315080065B03C1A0020014826F0B7BA00BF138B00200A
S315080065C0014826F0B2BA00BF138B002038B5002365
S315080065D0054D044608462B6000F07AFC431C02D1A0
S315080065E02B6803B1236038BD341A002013B5012087
S315080065F023F0B8FA08F00EFB04460DF1070021F067
S315080066004DF99DF8070028F01BF968B19DF8073089
S31508006610237208F003FB02220346012105482CF0E9
S3150800662098FF002002B010BD04F108002DF06EFEA0
S31508006630EFE700BF2DCB0208004870475010002036
S3150800664010B5274C01F056FA01F08EFB236F23F0A4
S31508006650070343F00303236726F0AFFB214B002013
S315080066609B6ADB015EBF4FF480321F4B9A62D4F8F7
S31508006670203123F0070343F00203C4F82031D4F88D
S31508006680283123F0070343F00203C4F82831D4F86D
S31508006690403123F0030343F00103C4F84031D4F832
S315080066A0603123F0030343F00103C4F86031D4F8E2
S315080066B0403223F0030343F00103C4F84032D4F810
S315080066C0003223F0070343F00103C4F80032D4F87C
S315080066D0083223F0070343F00103C4F8083210BD5B
S315080066E0008000500040005A0060005A4FF4803085
S315080066F02149224A4B6E10B55066486E4FF000414C
S315080067004AF6CD3451661E4903F480334A6C0C644C
S3150800671002F001024C6BE407FCD4012419494C60D1
S31508006720A1F500510C6BE407FCD50AB1164A0A64B8
S315080067300028A2BF4FF00041144A51661BB94FF416
S315080067408032124B5A6603F029FF03F0C3FE27F086
S3150800675098FB03F0EBFEFFF773FF03F0D3FE00F0A0
S315080067606FFA00F02FFC08F069FF23F021F9BDE865
S31508006770104004F081B900BF00800050009000501E
S3150800678000400950006009503254FFFF00A0005035
S315080067900348044A0449121A921026F016BA00BF92
S315080067A0F8CB0308F8CB0308A4C0002008B500F00E
S315080067B02FF8FFF7EDFF124B12498B4212D3002038
S315080067C0114B12498B4218D3FFF7A0FD186850F8F1
S315080067D02240586840F82240013298688242F5D330
S315080067E00C33EAE70022F8E71C6844F82200013275
S315080067F05C68A242F8D30833E4E70022F8E700BF52
S31508006800E0C50308ECC50308ECC50308ECC5030896
S315080068104FF480414FF0FF30114B124A10B59A6081
S31508006820D3F8882042F47002C3F888200E4A91668D
S315080068300E4901F5005210660D4850660220C3F84D
S31508006840D000BFF34F8FBFF36F8F01244FF440334F
S315080068500848C0F88041D36004600B6110BD00BFD2
S3150800686000ED00E000600008009000500080004441
S315080068707FFF7F0100E100E0014B1868704700BF09
S31508006880C8100020084B1B6F03F00703022B04D027
S31508006890032B05D0012B05D0FEE7044B186870477B
S315080068A0034BFBE70348704700800050C8100020E0
S315080068B0D0100020002D310108B5FFF7E3FF054B86
S315080068C01B6FC3F303330133B0FBF3F0024B1860BD
S315080068D008BD00BF00800050C41000200048704763
S315080068E000B4C404014B1868704700BFD0100020DC
S315080068F0054B1860054B1B6F03F00703032B01D1EB
S31508006900FFF7DABF704700BFD010002000800050A4
S3150800691000487047002D31014FF0B4439868C0F322
S3150800692004400C280AD8DFE800F00B090909090910
S31508006930072119091B1D1F000F48704700207047C3
S315080069409B6803F04073B3F1807F11D0B3F1007FE9
S3150800695010D00A4A002B08BF1046704708487047EF
S3150800696008487047084870470848704708487047FD
S315080069700848704708487047405DC60000093D0052
S31508006980C0EA210180BA8C010048E801005A620277
S315080069900024F40080841E0040420F00014B186852
S315080069A0704700BFCC100020BFF34F8F0549064B38
S315080069B0CA6802F4E0621343CB60BFF34F8F00BF8F
S315080069C0FDE700BF00ED00E00400FA054FF00063A4
S315080069D09B6A03F17842B2F5C04F03D21968064A9A
S315080069E0914203D00023037083607047012202702E
S315080069F09A689B694260F7E707B0CD5E08B54FF025
S31508006A000053024A1A60FFF7CFFF00BF02020FF0D9
S31508006A1073B54F4B04461A781AB102221A7002B09F
S31508006A2070BDCDE900220028F9D001261E7026F097
S31508006A30E0F9484D484B186010F040FB2B785BB9DD
S31508006A4000F0C0FA40B945480823454A4549006858
S31508006A500CF0E4F900B92E70434B5A6E62619B6ED6
S31508006A60424AA3614FF480439366414B5968E161FA
S31508006A7040499960196E2160596E6160D3F87011AA
S31508006A80A160196CE160596C21613B49086C186476
S31508006A90496C5964012151661B6E9C0441D5374ADD
S31508006AA0D368D807FCD4364B1A68531C3ED04FF42B
S31508006AB080139340334A13664FF400730426314C0F
S31508006AC02666236626F0EAF801300DD026F0E6F8A9
S31508006AD040F20113984207D04FF4005323664FF44F
S31508006AE080432366C4F870610823264C68462366EB
S31508006AF04FF4805323664FF0006323664FF4000378
S31508006B0001A9636626F074F8009B2366019B6366F9
S31508006B102B78002B83D0124B1A6822665B68636653
S31508006B207DE7194AD368D907FCD4BCE7174B1B780D
S31508006B30002BC1D14FF400720C4B5A6603F5A623FD
S31508006B405B68002BB8D14FF480120E4B1A66B3E778
S31508006B50158B0020168B0020601A0020FC100020E0
S31508006B60641A002000710800008000500090005050
S31508006B700080004455CEAC0000C00054000004401C
S31508006B80D41000200090004400000450148B00200C
S31508006B9070B5224D04462E78012E02D001232B70A3
S31508006BA070BD0028FCD026F079F801300BD026F00D
S31508006BB075F840F20113984205D0194B194A5E66DA
S31508006BC0D368DE07FCD42268174B1A6662685A66D1
S31508006BD0A268C3F87021E2681A6422695A64E269F5
S31508006BE0D00744BF00229A60104B1A68013207D1B9
S31508006BF00F4A127822B90F494968C90748BF1A606F
S31508006C0062690D4B5A66A2699A6610F05FFA0B4BD9
S31508006C10186826F0F4F80023C1E700BF158B00209A
S31508006C20009000400000044000800044D41000207A
S31508006C30148B002000C0055000800050601A002008
S31508006C4070B54FF00064A36A03F17842B2F5C04FFD
S31508006C5024D21A68134B9A4220D1134E337813F074
S31508006C60FD0F02D00024204670BD1048FFF7D0FE65
S31508006C7001254FF480330E4A0E49C2F88051CB6085
S31508006C8015600D4A1361A36ADB69984704460748ED
S31508006C90FFF77EFF002CE6D13570E3E74FF48174E9
S31508006CA0E1E700BF07B0CD5E148B0020401A002034
S31508006CB000E100E000A000440090004413B5204B1A
S31508006CC01B7803B9FEE700231E4CCDE900336A465C
S31508006CD008231D4920680CF0A1F8F0B91B4AD2F820
S31508006CE04031D2F840211F2B4FF0010310D9203A2A
S31508006CF09340019A1A43019208236A46124920686A
S31508006D000CF042F84FF00053114A1A60FFF74CFE98
S31508006D109340009A1A430092EEE70E4B9842F1D13F
S31508006D200A4AD2F84031D2F840211F2B4FF001030E
S31508006D3085BF203A93409340019398BF0093DBE7C1
S31508006D40158B0020FC10002000710800008000440C
S31508006D500B020FF00BE000F038B54FF00065AB6A98
S31508006D60044603F17842B2F5C04F13D21B6B03F108
S31508006D707843B3F5C04F0DD20848FFF749FEAB6A12
S31508006D8020461B6B5B69984704460448FFF700FFDB
S31508006D90204638BD4FF48174FAE700BF6C1A00200C
S31508006DA0F8B54FF00067BB6A164603F17842B2F5AC
S31508006DB0C04F04460D4611D21B6B7BB10948FFF73D
S31508006DC027FEBB6A20461B6B324629465B6A9847F4
S31508006DD004460448FFF7DCFE2046F8BD4FF401746C
S31508006DE0FAE700BF6C1A002070B54FF00066B36A68
S31508006DF0044603F17842B2F5C04F0D4614D21B6B18
S31508006E0003F17843B3F5C04F0ED20948FFF700FEE9
S31508006E10B36A20461B6B29469B6A98470446044872
S31508006E20FFF7B6FE204670BD4FF40174FAE700BFBF
S31508006E306C1A0020F8B54FF00067BB6A164603F1D6
S31508006E407842B2F5C04F04460D4615D21B6B03F1C6
S31508006E507843B3F5C04F0FD20948FFF7D9FDBB6A8F
S31508006E6020461B6B324629469B6B984704460448C6
S31508006E70FFF78EFE2046F8BD40F20114FAE700BF80
S31508006E806C1A002070B54FF00066B36A044603F129
S31508006E907842B2F5C04F0D4614D21B6B03F1784306
S31508006EA0B3F5C04F0ED20948FFF7B2FDB36A2046C4
S31508006EB01B6B2946DB6B984704460448FFF768FEB8
S31508006EC0204670BD40F20114FAE700BF6C1A002094
S31508006ED00346054A0549106803448B428CBF4FF0A8
S31508006EE0FF301360704700BFD81000200000012053
S31508006EF070B5044601250B4E04B970BD94FAA4F08A
S31508006F00B0FA80F005FA00F306EB001224EA03044F
S31508006F105368002BF0D0117B11B191689847EBE7C5
S31508006F209847E9E78C1A002008B51A2000F048FFB0
S31508006F3028B14FF08062074BC3F880211A601B20E6
S31508006F4000F03EFF28B14FF00062024BC3F88021E3
S31508006F501A6008BD00E100E038B505460C4625F084
S31508006F6048FF0022044B03EB05135C601A73BDE867
S31508006F70384025F044BF00BF8C1A0020074BD3F8D1
S31508006F802404D3F8202403F50053104000F05530AC
S31508006F9020F05020C3F82004FFF7AABF00C0035012
S31508006FA0074BD3F82404D3F8202403F500531040E4
S31508006FB000F0AA3020F0A020C3F82004FFF798BFFD
S31508006FC000C00350024B1968024B18680BF0E6BD67
S31508006FD0DC100020FC10002070B5940022460546FF
S31508006FE00E462EF079FA431C0AD058B92246314685
S31508006FF028462EF087F80028034808BF002070BDF1
S315080070000248FCE70248FAE710E000F021E000F049
S3150800701024E000F010B504462EF062FA431C10D0A6
S3150800702088B901F0D7F9234620F003002044984296
S3150800703001D1002010BD53F8042B0132F7D00348C4
S31508007040F8E70348F6E70348F4E700BF0EE000F068
S3150800705021E000F024E000F008B525F0C3FE014B5E
S31508007060186008BD5C200020014B186825F0BEBEDC
S315080070705C200020034B5A6812B19A6A002AFAD19A
S31508007080704700BF0040065043681249B3FA83F3BD
S3150800709010B5C3F11F044B680BB1FFF7EBFF0122D4
S315080070A00D4B5A604B689B07FCD4027A437843EA37
S315080070B0420343EA04130124427A8B60837A43EA43
S315080070C042034B62054B5C60037813B1FFF7D2FFAE
S315080070D0CC6010BD004006500060065000500650B7
S315080070E0044B9A6AD006FCD419639A6AD206FCD471
S315080070F0704700BF00400650014B186B704700BF31
S315080071000040065008B5FFF7B5FF02230449CB60D7
S3150800711000230B62FFF7AEFF0123CB6008BD00BF5B
S3150800712000400650044BD3F88420D206FBD4D3F88B
S315080071308400C0F3811070470040005038B5184BE2
S315080071400546D3F820010C4600F00700062823D888
S31508007150DFE800F0040A0E16121A1E00012305B114
S31508007160286004B1236038BDFFF786FB0523F6E7E0
S31508007170FFF7B8FB0323F2E7FFF7CEFB0723EEE79B
S31508007180FFF7C6FB0223EAE7FFF776FB0623E6E7E7
S31508007190FFF7A8FB0423E2E700231846DFE700BF52
S315080071A00080005038B5174B0546D3F828310C46F1
S315080071B003F00703013B052B20D8DFE803F0031390
S315080071C01B0F0B17FFF758FB052305B1286004B101
S315080071D0236038BDFFF750FB0623F6E7FFF79CFB55
S315080071E00723F2E7FFF77EFB0323EEE7FFF77AFBB9
S315080071F00423EAE7FFF78CFB0223E6E70023184699
S31508007200E3E700BF0080005073B50D460021114B1F
S315080072100191D3F88041064604F00304022C13D0EA
S31508007220032C0CD0012C13D101A8FFF787FF0F24DC
S315080072300EB1019B336005B12C6002B070BDFFF73B
S315080072406BFB07240190F3E7FFF762FB0190EFE77A
S315080072500C46EDE700800050002337B50193164B26
S315080072600546D3F820320C4603F00703042B21D831
S31508007270DFE803F0030B11161B0001230DB1019A79
S315080072802A6004B1236003B030BD002101A8FFF7CE
S3150800729089FF1123F2E7FFF73FFB07230190EDE78C
S315080072A025F0A0FC0A230190E8E7FFF777FB0923FE
S315080072B00190E3E70023E1E70080005038B5104B62
S315080072C00546D3F840310C4603F00303022B0BD0D6
S315080072D0032B0DD0012B0FD125F084FC0A2305B111
S315080072E0286004B1236038BDFFF758FB0923F6E789
S315080072F025F07BFC0B23F2E701230020EFE700BF14
S3150800730000800050002337B50193164B0546D3F885
S3150800731060320C4603F00703013B032B1FD8DFE856
S3150800732003F0020E1914002101A8FFF707FF0F2327
S315080073300DB1019A2A6004B1236003B030BD002163
S3150800734001A8FFF7BBFF1023F2E7FFF7E5FA0723CB
S315080073500190EDE7FFF7DCFA02230190E8E7002346
S31508007360E6E700BF0080005038B5144B0546D3F851
S3150800737000020C4600F0070004281BD8DFE800F0DE
S3150800738003090D111500012305B1286004B1236016
S3150800739038BD25F027FC0A23F6E7FFF7FFFA09238D
S315080073A0F2E725F022FC0B23EEE7FFF785FA0E231A
S315080073B0800AE9E700231846E6E700BF0080005088
S315080073C038B5144B0546D3F808020C4600F00700FA
S315080073D004281BD8DFE800F003090D111500012366
S315080073E005B1286004B1236038BD25F0FBFB0A23EC
S315080073F0F6E7FFF7D3FA0923F2E725F0F6FB0B23A6
S31508007400EEE7FFF759FA0E23800AE9E70023184644
S31508007410E6E700BF0080005038B5104B0546D3F8A4
S3150800742040320C4603F00303022B0BD0032B0DD07E
S31508007430012B0FD125F0D6FB0A2305B1286004B12C
S31508007440236038BDFFF7AAFA0923F6E725F0CDFB36
S315080074500B23F2E701230020EFE700BF008000506E
S3150800746038B5104B0546D3F850320C4603F00303E3
S31508007470022B12D0032B08D0012B0AD00023184662
S3150800748005B1286004B1236038BD25F0AEFB0B2397
S31508007490F6E725F0A7FB0A23F2E7FFF77FFA0923A9
S315080074A0EEE700BF0080005038B5104B0546D3F80C
S315080074B060310C4603F00303022B0BD0032B0DD0CF
S315080074C0012B0FD125F08EFB0A2305B1286004B1E4
S315080074D0236038BDFFF762FA0923F6E725F085FB36
S315080074E00B23F2E701230020EFE700BF00800050DE
S315080074F0B0F5207F1FD009D8B0F5007F15D003D886
S3150800750068B1B0F5C07F0AD000200CE0B0F5607F06
S31508007510FAD10B4BD3F88000C0F3011003E0084BF7
S31508007520186FC0F3033001307047054BD3F890004D
S31508007530C0F30460F7E7024B186FC0F38020F2E748
S315080075400080005002464FF48030104B10B5986604
S315080075500020FFF7CDFF504341F671320C4BDC6932
S31508007560DA635A6804F4803422F4401259B9094996
S31508007570884294BF00200120000502435A600CB1DE
S315080075800022DA6310BD0449F2E700BF00900050FC
S3150800759000000350005A6202002D3101430905D04C
S315080075A0012B0CD0022B084B18BF002300F01F003C
S315080075B039B103F58053012282401A607047034BA4
S315080075C0F4E703F50053F6E768800050648000503E
S315080075D01FB504460020B4F5807F019000F0F580C1
S315080075E06AD8002C00F0D480203C602C74D8602C1B
S315080075F072D8DFE814F0CD00D000CD00D000E0004E
S31508007600E000E000E000E000D000E5007A00FB00C2
S315080076109A007A00D000D000D00071007100710085
S315080076207100710071007100FB00D000D000D0001D
S3150800763027010001D000710071007100710071000E
S31508007640710071007100710071007100710005010F
S31508007650E000CD00CD00CD00AD007A007A00B5007F
S315080076600A018F00C400C400710071007100710026
S315080076707100710071007100710071007100710074
S315080076807100710071007100710071007100710064
S315080076907100710071007100710071007100710054
S315080076A07100710071007100710071007100710044
S315080076B0710071007100C900B4F5E06F00F09B809D
S315080076C038D8B4F5607F71D01AD8B4F5007F6DD07C
S315080076D005D8B4F5C07F5BD0019804B010BDB4F5E9
S315080076E0207F58D0B4F5407FF6D1FFF7E5F802467B
S315080076F04FF42070FFF7FCFEB2FBF0F2520853E09D
S31508007700B4F5B06F5CD00AD8B4F5806F53D0B4F531
S31508007710A06FE1D1002101A8FFF79EFDDCE7B4F5D3
S31508007720C06F63D0B4F5D06FD6D1002101A8FFF79A
S315080077301BFED1E7B4F5286F67D016D8B4F5186FD5
S315080077405ED00AD8B4F5F06F7CD0B4F5106FC3D10B
S31508007750002101A8FFF734FEBEE7B4F5206FBBD1C0
S31508007760002101A8FFF7CEFDB6E7B4F5306F5AD071
S31508007770B2D3B4F5386F39D0B4F5406FACD1002127
S3150800778001A8FFF70FFDA7E7FFF77CF80190A3E72D
S31508007790FFF792F8FAE7FFF78FF802464FF42070E2
S315080077A0FFF7A6FEB2FBF0F2019295E7FFF76AF83B
S315080077B002462046F4E7002101A8FFF7BFFC8BE745
S315080077C0002101A8FFF720FD86E74FF0E02302908D
S315080077D01B695B0705D5FFF76FF80290029B0193BB
S315080077E07AE703A902A8FFF769FDF7E7002101A8D0
S315080077F0FFF764FD70E7002101A8FFF70DFE6BE7B0
S31508007800002101A8FFF72CFE66E70021104B039123
S31508007810D3F8703203F00303012B02D103A8FFF754
S315080078204DFD039BDBE70A4BD3F8903203F00303C5
S31508007830012B04D0022BA9D1FFF76EF8A6E7FFF7B4
S3150800784067F8A3E7002101A8FFF72EFE44E700BF6B
S315080078500080005008B58020FFF7BAFE034B984217
S315080078609EBF4FF48032024B1A6708BD005A620267
S3150800787000A000501FB50023B0F5807F019300F0EB
S31508007880CC8078D8582869D8382806D824380928C2
S315080078904AD9019805B05DF804FB39381F28F8D88D
S315080078A001A353F820F000BF3D7A0008937800083A
S315080078B09378000893780008477A00088D7A0008BC
S315080078C0937800089378000893780008937800085E
S315080078D0937800089378000893780008937800084E
S315080078E0937800089378000893780008937800083E
S315080078F093780008977A00089B790008937800081F
S315080079009378000893780008DF79000893780008D0
S3150800791093780008A17A0008AB7A0008837A0008F1
S31508007920017A0008017A00080928B2D801A353F899
S3150800793020F000BF9B7900089B7900089B79000816
S315080079409B7900089B79000893780008117A00084B
S31508007950937800083D7A0008B9790008802898D1FC
S31508007960634B1B6F03F00703013B032B91D8DFE83A
S3150800797003F0BD4C7C84B0F5086F69D021D8B0F50A
S31508007980C06F5BD00ED8B0F5A06F7AD0B0F5B06FE7
S315080079903ED0B0F5806F7FF47CAF002001A9FFF7D9
S315080079A0CDFB76E7B0F5E06F70D0B0F5F06F4AD052
S315080079B0B0F5D06F7FF46DAF002001A9FFF7D4FCB6
S315080079C067E7B0F5286F70D00ED8B0F5186F62D09B
S315080079D0B0F5206F64D0B0F5106F7FF45AAF002071
S315080079E001A9FFF7EDFC54E7B0F5306F6FD0FFF44F
S315080079F050AFB0F5386F21D0B0F5406F7FF449AF7E
S31508007A00002001A9FFF7CEFB43E70523019340E7D2
S31508007A10002001A9FFF7F8FB3BE702934FF0E023AC
S31508007A201B695B0705D5FEF747FF0C230393039BEA
S31508007A30ECE703A902A8FFF741FCF8E7002001A933
S31508007A40FFF73CFC25E7002001A9FFF72DFD20E7FD
S31508007A50274BD3F8003103F00303022B07D0032B7F
S31508007A6009D0012B0BD1FEF73DFF0323CEE7FEF726
S31508007A7095FF0923CAE725F0B3F80823C6E70123CB
S31508007A80C4E7002001A9FFF7E7FB02E7002001A9E8
S31508007A90FFF7C2FCFDE6002001A9FFF7E1FCF8E6C6
S31508007AA0002001A9FFF72EFCF3E6114BD3F870323C
S31508007AB003F00303012B04D0022B0CBF142300236D
S31508007AC0A4E7002103A8FFF7F9FB10239EE7084A5D
S31508007AD0D2F8902202F00302012A05D0022A95D193
S31508007AE0FEF71AFF072391E7FEF712FF02238DE739
S31508007AF0008000504FF48012034B5A664FF48032D0
S31508007B00024B9A62704700BF009000500050005A1E
S31508007B10F8B504468020FFF7ADFE032800F08A80FA
S31508007B204FF48012564B574D5A6645F60E034FF0E2
S31508007B30A062C5F88030544B9A624FF4803203F540
S31508007B4080539A62AB6DDA03FCD4AE6D16F08046AC
S31508007B50FBD1D4E900231B0543EA0263E27B4B48C9
S31508007B601343227B4A4F43EA0243627B43EA0233CA
S31508007B70A27B43EA82132B61AA69D4E904131B0684
S31508007B8043EA816302F000421343A27E4FF4406148
S31508007B901343227E43EA0243627E43EA0223AB6131
S31508007BA04FF4006225F0E7F82B6AE17EE26923F0DC
S31508007BB00F0343EA8103002A3DD12B6294F824304F
S31508007BC094F82010AA6ADB0043EA41133A401343AB
S31508007BD094F821202F4943EA021343F48033294AB3
S31508007BE0AB62936D31EA0303FBD14FF080712648EF
S31508007BF081621369A56823F4700343EA0553136188
S31508007C004FF00043836194F822300BB9224B9962F6
S31508007C1094F823303BB94FF480321F4B9A62194AC5
S31508007C20936D5B00FCD494F825301BB1154B1B4AA9
S31508007C30C3F88020F8BD134343F00803022A2B62D9
S31508007C4008D12E614FF408524FF47F411448AE61B3
S31508007C5025F091F80B4994F822308A6A94F82000A6
S31508007C601B063A4043EA4013134394F8242043EA98
S31508007C70C20394F8232043EA02438B62D3E700BF8A
S31508007C80009000500040005A0050005A3840005AF0
S31508007C90C7FFFEFE030001000060005AF1A7FFFFC0
S31508007CA03440005A014B93F9000070471414002021
S31508007CB0014B1880704700BFA8130020B0F5207F3D
S31508007CC010B50C4642D008D8B0F5007F33D003D89B
S31508007CD088B1B0F5C07F0ED010BDB0F5607FFBD17E
S31508007CE01F4A4C1ED2F8803023F0300343EA0413AF
S31508007CF0C2F88030F0E725F04DF825F059F84FF432
S31508007D008031184B164A1967136F013C23F47043E8
S31508007D1043EA04331367FEF7CFFD0446FFF702FA7A
S31508007D20C0F10201204625F03DF800F02DF8BDE827
S31508007D301040FFF78FBD0A4A4C1ED2F8903023F048
S31508007D40F85343EA0463C2F89030C5E7044A4C1E68
S31508007D50136F23F4806343EA84231367BCE700BFE9
S31508007D60008000500090005008B50121022000F064
S31508007D708FF825F00FF825F01BF84FF48032014BE9
S31508007D801A6708BD0090005008B54FF4C070FFF799
S31508007D901FFCBDE808400449884294BF012102211E
S31508007DA04FF42070FFF78ABF80F0FA02034B586839
S31508007DB0C0F30800003818BF0120704700ED00E046
S31508007DC0054B420953F8223000F01F0023FA00F051
S31508007DD0C04300F00100704700E100E0024A536B1F
S31508007DE00342FCD1704700BF00400950044A41785D
S31508007DF0536F23F4407343EA01235367704700BF68
S31508007E00004000500C4A10B51369044643F00403B9
S31508007E10136103F00FF924F0F5FF084B084AC3F87D
S31508007E20202430BF24F0EFFF03F03EF91CB9BDE86B
S31508007E301040FEF741BD10BD00ED00E000E0035024
S31508007E400000FF0F0A4A10B51369044643F00403FD
S31508007E501361084B084AC3F8202403F0EBF830BF37
S31508007E6003F022F91CB9BDE81040FEF725BD10BD88
S31508007E7000ED00E000E003500000FF0F034A01791F
S31508007E80D36E23F030030B43D3667047004000508F
S31508007E90F8B504461C4BD3F88420D106FBD4D3F896
S31508007EA08430C3F381139C422CD0FEF7EBFC012CE3
S31508007EB0064602D1214624F075FF24F093FF4FF0C1
S31508007EC00072124B07465A66204624F0A1FF4FF46B
S31508007ED080630D4D621E93402B676B6E9A0103D427
S31508007EE0D5F884309B060AD5384624F07FFF022C45
S31508007EF008D13046BDE8F840002124F053BFD5F834
S31508007F008430EAE7F8BD00BF00400050006000502A
S31508007F1010B50C4608B9FEF7B5FC074B21461B7889
S31508007F203BB1064B984204D80120BDE81040FFF744
S31508007F30AFBF0220F9E700BF178B0020005A620284
S31508007F400278034B012100201A70FFF7E1BF00BF3A
S31508007F50178B00204FF0004238B5244B244C5A6644
S31508007F604AF6CD33656C014605F00105236428BB46
S31508007F700120FFF733FF6368DB0715D51D4B5860F3
S31508007F8008461D4B226BD2070CD4984208D1072409
S31508007F9015B1174B194A1A642AF002F9204638BD5A
S31508007FA00130EFE79842F2D00024F1E70132236B63
S31508007FB013F0080305D08A42F8D1E8E700220E49F3
S31508007FC0F5E78A42E3D020210A4A91620121A2F507
S31508007FD0805251600649084A886A800603D493424B
S31508007FE0D5D00133F8E79342DDE700BF0090005093
S31508007FF0004009500060095040420F003254FFFF0C
S31508008000F8B54AF6E8531A4CE56EE66E236624F090
S31508008010E9FE0746FFF7A8FE164A25F00305136F83
S3150800802045F0020523F0070343F00103136724F024
S31508008030C4FE0020FFF78EFF24F0E8FE24F0E7FEDA
S315080080400D4B0E4A46F00306C3F82024E56603F5F1
S31508008050AC23E666E566E666E566E666E566E66632
S31508008060E56638469B6ABDE8F84024F0BFBE00BF07
S31508008070004000500080005000E003500000FF0F51
S315080080804FF0004238B5164B01465A664AF6CD33CC
S31508008090144C154A656C236443780B205B0043F047
S315080080A00103D363FFF79AFE63688A7823F4F873AB
S315080080B043EA02136360CA784B7943EA0223A36052
S315080080C00A798B7943EA022323610878FFF742FF8E
S315080080D0EB0744BF054B23642AF062F8012038BD3C
S315080080E00090005000400950004000503254FFFFF5
S315080080F04FF00042124B70B55D6E03F580535A6619
S315080081004AF6CD3304460F4980204E6C0B64FFF7C0
S3150800811065FE0B6A23F00F030F2C94BF234343F02D
S315080081200F030B62F30744BF074B0B64002DA2BF76
S315080081304FF00042054B5A662AF032F870BD00BF70
S3150800814000800050004009503254FFFF00A0005044
S315080081504FF00042104B70B55D6E03F580535A66BA
S315080081604AF6CD3304460D4980204E6C0B64FFF762
S3150800817035FE0B6A23F4F85343EA04230B62F3072C
S3150800818044BF074B0B64002DA2BF4FF00042054BBE
S315080081905A662AF005F870BD008000500040095064
S315080081A03254FFFF00A00050072A2DE9F04115467A
S315080081B098464FF0030401F003072DD89600B44003
S315080081C000FA06F221461C4824F023FE21461B48E5
S315080081D007FA06F224F01DFE194B1A499DF81800F5
S315080081E0B8F1000F18BF1946012303FA05F50D600B
S315080081F0154B1649002818BF0B461D60144B9DF8F1
S315080082001C00C3F82054103103F22443002818BF79
S315080082100B461D60BDE8F081A2F10806B600B44021
S3150800822000FA06F221460B4824F0F3FD21460A48D7
S3150800823007FA06F2CEE700BF00C4035008C403508D
S3150800824010D4035010E4035014E4035014D403501C
S3150800825000E0035004C403500CC403502DE9F04158
S3150800826005460F461E4690464AB101233022194C50
S315080082708B4002FB004436B304F5825423600F2179
S31508008280072F05EB450388BFA7F108044FEA031338
S31508008290114895BFBC00A40004330C3308FA04F255
S315080082A0A140184424F0B5FDB8F1000F09D1012307
S315080082B03021084ABB4001FB05223EB102F5825235
S315080082C01360BDE8F08104F50154D7E702F50152C1
S315080082D0F6E700BF00C0035030C00350104B014002
S315080082E0D3F8302422EA0002C3F83024D3F8302425
S315080082F01143C3F83014D3F82C240243C3F82C24B2
S31508008300084AD36E03F03003202B1FBFD36E23F029
S31508008310300343F01003D366034BC3F820047047B9
S3150800832000C003500040005000E003504FF4803274
S31508008330054B9A6641F6713203F51C33DA6301225E
S3150800834003F50053DA6070470090005041F6713229
S315080083500121064BDA6303F50052D1600022DA6385
S315080083604FF48032A3F518339A667047000003501D
S31508008370014BD3F894007047004000504FF4803208
S31508008380064B5A6603F5E6239B69C3F3851282708A
S3150800839003F03F021B0B42700370704700900050B9
S315080083A040F6B732064B5B689BB293429FBF4FF4C9
S315080083B07A72B3FBF2F3034AD05C88BF0020704799
S315080083C00080E00F91550308014B986CD96C7047F3
S315080083D00080E00F0120034B9B680A3303F01F035C
S315080083E0984070470080E00F044B586820F04040E2
S315080083F020F44000000C0004704700BF0080E00F26
S3150800840038B50446064D29F062FA0FCC0FC50FCCD5
S315080084100FC594E8030085E80300002038BD00BFB7
S315080084206020002047F6FF739A42F0B56FD00929FD
S315080084306FD8394B5B5C032B6BD8384DDF0005EBE7
S31508008440C30415F83330A178012B13D10025E07841
S31508008450401AA84202D80844C0B2F0BD431B666859
S31508008460A0EB530336F913609642D4BF1D4603F1B9
S31508008470FF30EEE760680028EFD0B0F9004094427C
S3150800848004DBB0F902409442B8BF144683883D44E1
S31508008490FF2B19BFC8224FF0280CB0F90620B0F9F7
S315080084A008C0A2EB04030CBF0126002693FBFCF3CD
S315080084B033446E781BB29E4201DD002B01DA731E2F
S315080084C01BB24FF47A7C01339BB2071D5D1E2DB299
S315080084D04FEAC50E00EBC505EA88AD689E4214FB57
S315080084E0025222EAE27202F15C02B2FBFCF204DDFD
S315080084F037F8335001339542E8D200EB0E039888DB
S31508008500904228BF1046884238BF0846A4E7FF2095
S31508008510A3E70020A1E700BF9455030860200020C8
S3150800852008B50448FFF76CFFBDE80840012029F0AC
S31508008530D0B900BFA05503082DE9F04107F098F817
S315080085400128074624D907F0C7F8051E03DA0124CF
S315080085502046BDE8F081204B1B78002B39D100243A
S315080085604FF050081D4E06F110033046C6E9004488
S31508008570B360C6F80C8007F0FFF8306680B90124AE
S31508008580012FE5D9284607F0C9F80028E0DADEE722
S31508008590114B1B7803F0FF05002BE0D00024D7E72A
S315080085A00F4E214606F1100332460120C6E9004463
S315080085B0C6E9023807F0AAF930660028DFD010228B
S315080085C0084B83F8432308229A600122024B1A704B
S315080085D0D6E70024D6E700BF188B0020EC20002041
S315080085E08820002000E100E008B507F041F80228DD
S315080085F00FD1094B4FF0FF31186E07F007F9002825
S3150800860014BF0120002003D14FF48062034B9A6601
S3150800861008BD0020F8E700BFEC20002000900050BD
S315080086204FF4806208B5084B9A6607F021F80228CD
S3150800863007D1064B186E07F019F9003818BF012044
S3150800864008BD0020F9E700BF00A00050EC2000207C
S3150800865008B54FF098435B6CD90208D507F008F8BF
S315080086600238012803D8094B186E07F0DDF94FF0D8
S3150800867098435A6CD202FCD55B6D054A03F4702305
S3150800868013600822034BC3F8882108BD8820002000
S315080086900011002000E100E010B5044600283BD098
S315080086A0FFF7A2FF002838D1204624F069FC94F889
S315080086B0203043B94FF098435A6CD202FCD55C6D12
S315080086C004F4702412E04FF09844A36D43F00203BB
S315080086D0A36506F0CDFF022810D0A36D23F0020390
S315080086E0A3654FF4A0220D4B1C681A60FFF798FF8C
S315080086F09CB12046BDE8104024F0C0BC084B4FF0A2
S31508008700FF31186E07F05AF9A36D23F00203A3652B
S315080087100028E6D0012000E0212010BD001100202D
S31508008720882000202DE9F0418CB08846DDE91276D4
S315080087301D460446002847D0002945D0002F43D0BF
S31508008740002E41D013F00F033ED120482049A360E4
S31508008750002A08BF0146E361C4E90013404609A997
S3150800876024F088FD68BB2046099924F000FC2946B8
S31508008770204624F0FCFB6946404600F03FFC00BB5F
S315080087806946204624F0DFFB404603A924F071FE23
S31508008790B8B9204603A924F0D6FB06970127204638
S315080087A045F0005506A90797089524F0CCFB204606
S315080087B009A909960A970B9524F0CFFB2046FFF7DF
S315080087C06BFF0CB0BDE8F0812120FAE70001000438
S315080087D0000101042DE9F04F97B0894690461F46DF
S315080087E00546DDF880A0002800F0BB80002900F0CF
S315080087F0B8803AB1229B002B00F0B380239B002B54
S3150800880000F0AF80BAF1000F00F0AB80219B002B7F
S3150800881000F0A78067B13C680026229B4344029378
S31508008820464507D307B13C60002017B0BDE8F08F76
S315080088303C46F1E75CB1229B219A9B5D125D0134AF
S315080088405340239A04F00F0493550136E8E7A8EB42
S31508008850060BBBF10F0F58D9434B4846C5E9003400
S31508008860AC60EC6113A924F005FD0028DDD128468B
S3150800887013992BF00F0B24F07AFB5946284624F05F
S3150800888076FB484604A900F0B9FB0028CDD1284656
S3150800889004A924F058FB484607A924F0EAFD002855
S315080088A0C3D1284607A924F04EFB012322992F4A53
S315080088B0CDF828A00B930C928A190D9228464BF0F6
S315080088C000520AA90E9303920F9224F03CFB284605
S315080088D00DA924F038FB239B039A991901231091BB
S315080088E011931292214A284610A9CDF84CA0149348
S315080088F0159224F032FB284613A924F02EFB2846AD
S31508008900FFF7CAFE5E4400288FD1229B03EB060BB5
S31508008910239B1E44029B5B4501D1464680E7ACB9C2
S31508008920219B2246CDE900A3494610232846FFF796
S31508008930F9FE00287FF479AF0AF1100212F8013D1A
S315080089400133DBB213700BB95245F7D1219A1BF8E4
S31508008950013B125D0134534006F8013B04F00F0455
S31508008960D8E7212061E700BF0303000410000020B8
S315080089702DE9F04F97B0894615469A460446209F3A
S31508008980DDF88880DDF890B0269E002800F09D80EE
S31508008990002900F09A80002E40F08A80002B00F013
S315080089A09480B8F1000F0AD0219B002B00F08D802F
S315080089B0002A40F09F80F10700F1878002E0002A34
S315080089C040F08580FB1F062B7FD8524B0BEB050228
S315080089D09A427AD80023504A4846C4E90023A3603D
S315080089E0E36113A924F046FC00285ED120461399BA
S315080089F024F0BDFA204646EA074124F0B8FA414673
S31508008A00204624F0B4FA2946204624F0B0FA48460F
S31508008A1001A900F0F3FA002847D1204601A924F05D
S31508008A2092FA484604A924F024FD00283DD14FF0C7
S31508008A300109204604A924F086FA239B45F000552F
S31508008A400793219BCDF82090204609950DA90A93F6
S31508008A5047F0005748F00053CDF82C900C93CDF80A
S31508008A6034A0CDF838900F9724F06DFA20460AA95D
S31508008A7024F069FA204607A924F065FA259B2046C2
S31508008A8010A946F00056CDF840B0CDF8449012959E
S31508008A901393CDF85090159624F05FFA204613A943
S31508008AA024F05BFA2046FFF7F7FD17B0BDE8F08F14
S31508008AB0259B53B1BAF1000F07D0B8F1000F01D0CA
S31508008AC0219B13B1B5B9022E20D12120EDE7239BB6
S31508008AD0002BFAD0BBF1000FF7D0C7F10F03DBB2BA
S31508008AE0032B3FF668AF0122DB0002FA03F3AB4221
S31508008AF0EBD9E8E7239B002BE7D0BBF1000FE4D0C6
S31508008B00C7F10F03DBB2032BDDD8ECE7102E7FF697
S31508008B1052AFDAE7FFFF0020000005042DE9F04F09
S31508008B2099B0884615469B460446229FDDF89890DC
S31508008B30289E60B159B1279B4BB1BBF1000F06D0F7
S31508008B40249B0BB1239B13B11DB9022E13D12123EC
S31508008B509AE0259B002BFAD0B9F1000FF7D0C7F1A0
S31508008B600F03DBB2032BF0D80122DB0002FA03F372
S31508008B70AB42ECD9E9E7731E0F2BE8D816F0010AC9
S31508008B80E5D1FB1F062BE2D8414B09EB05029A42B9
S31508008B90DDD8404B4046C4E9003AC4F808A0C4F8FA
S31508008BA01CA015A924F066FB034600286CD12046B4
S31508008BB0159924F0DCF9204646EA074124F0D7F94E
S31508008BC02046249924F0D3F92946204624F0CFF9E3
S31508008BD0404603A900F012FA0346002854D120465D
S31508008BE003A924F0B0F9404606A924F042FC03463E
S31508008BF0002849D14FF00108204606A924F0A3F918
S31508008C00259B2046099345F00053CDF8288001930B
S31508008C100B93239B0FA90C93249B47F0005743F013
S31508008C200052CDF834800E92CDF83CB0CDF8408095
S31508008C30119724F088F920460CA924F084F92046D7
S31508008C4009A924F080F9019B204612A9CDF848907D
S31508008C50CDF84C80149324F080F9279B204615A95B
S31508008C6046F000561593CDF85880179624F06BF900
S31508008C702046FFF711FD034630B101902A465146BA
S31508008C80484623F049FF019B184619B0BDE8F08F06
S31508008C90FFFF0020000006042DE9F0418CB088464D
S31508008CA016461D460446129F00284BD0002949D077
S31508008CB0002A47D0002F45D00B68103B102B41D80F
S31508008CC0214A22FA03F3D9073CD500231F4A8360B9
S31508008CD0C0E90023C36109A9404624F0CBFA70BB5A
S31508008CE02046099924F043F92946204624F03FF9FD
S31508008CF06946404600F082F908BB6946204624F0DA
S31508008D0022F9404603A924F0B4FBC0B9204603A9BA
S31508008D1024F019F906960126204606A945F00055BD
S31508008D200796089524F00FF9094B204609A90997D3
S31508008D300A960B9324F011F92046FFF7ADFC0CB008
S31508008D40BDE8F0812120FAE70101010000000404D2
S31508008D50100000202DE9FF474FF000080E46174681
S31508008D600446CDF80080002859D022B900252846A7
S31508008D7004B0BDE8F087002951D032F0030902F0AB
S31508008D80030A1FD04FF0E063C0E9003801230191C0
S31508008D90C0F808800293C0F81C8049F0005301A966
S31508008DA0039324F0DAF84946204624F0E0F82046F2
S31508008DB0FFF772FC054628B14A464146304623F07D
S31508008DC0ABFED4E7BAF1000FD0D04FF000084FF051
S31508008DD0E063C4E900380123CDF804D00293114BAF
S31508008DE0204601A9C4F80880C4F81C80039324F01F
S31508008DF0B4F80421204624F0BAF82046FFF74CFCC4
S31508008E00054608B13A46D8E7009A4E44EB000135C4
S31508008E1022FA03F3AA4506F8013BF7D1A6E721256E
S31508008E20A5E700BF040000202DE9F04387B00D46F2
S31508008E3091461E460446DDF83880002836D0B8F13B
S31508008E40000F33D002B98BBB6B1EDBB2042B2DD8B7
S31508008E50174AD75C0F9B9F4228D80023280200F1A7
S31508008E60407000F580703146C4E901332060E36143
S31508008E70204624F07CF801236946204646F0005631
S31508008E8047F00057CDF8009001930296CDF80C8074
S31508008E900493059724F057F8204603A924F05DF8B3
S31508008EA02046FFF7F9FB07B0BDE8F0832120FAE773
S31508008EB0F8560308F0B50F4616461D46044693B005
S31508008EC010B9212013B0F0BD0029FAD0002AF8D035
S31508008ED0002BF6D0002331461A46384624F06FF99F
S31508008EE00028EFD1304602A924F005F90028E9D177
S31508008EF0EB68022B0AD039683F48029A81426B69AF
S31508008F0002D01830814270D19A42DAD82B68002BE9
S31508008F10D7D14FF060623846C4E90023A360E36105
S31508008F2001A924F0A7F90028CCD10199204621F4FB
S31508008F30F061019124F01BF86946284624F09AF955
S31508008F400028BFD12046009924F011F8384609A90F
S31508008F5000F054F80028B5D1204609A923F0F3FFFC
S31508008F6038460CA924F085FA0028ABD120460CA96E
S31508008F7023F0E9FFEB684BB1284606A900F03EF856
S31508008F8000289FD1204606A923F0DDFF304603A915
S31508008F9024F06FFA002895D1B368DA040CD59B043F
S31508008FA027D50621F36932691B6801FB03225B009A
S31508008FB043F0005303920593204603A923F0C3FF09
S31508008FC028460FA924F055FA00287FF47BAF2046DF
S31508008FD00FA923F0C2FF03252046FFF75DFB0128F2
S31508008FE07FF470AF013DF7D16CE7B3EB420F8DD23A
S31508008FF067E7292066E700BF200000B090B189B175
S3150800900001234B60C368013B012B08D88269064BD4
S315080090101AB10A6000208B607047044AF9E74FF0DE
S315080090200053F7E72120704708000020005703087F
S3150800903070B50E46154604468AB000285BD000294E
S3150800904059D0002A57D0012329461A46304624F01B
S31508009050B6F800284DD1B36813F4C04F4BD0AB68AF
S3150800906003F4C043B3F5005F45D1254BA060C4E9BE
S315080090700030E06107A9304624F0FCF8002838D112
S315080090802046079923F073FF304601A9FFF7B6FF7C
S3150800909078BB204623F057FF304604A924F0E9F9A7
S315080090A038BB204604A923F04EFFEB681BBBAB6810
S315080090B003F4C043B3F5005F1DD16946284624F082
S315080090C045F8B0B9009B6A699A4216D32A6943F0F3
S315080090D0005307920122204607A9089203250993FF
S315080090E023F03BFF2046FFF7D7FA012801D1013DBF
S315080090F0F8D10AB070BD2120FBE71D20F9E700BFB3
S315080091000000010238B5134DFFF716FA124B134A41
S315080091101349144808F000FD2B7803F0FF04BBB987
S3150800912006F0A6FA012802D906F0D6FA04462B78E4
S315080091302BB90D4B0D481B68984701232B7006F079
S3150800914097FA012804D92046BDE8384006F0E6BA61
S3150800915038BD00BF198B00203FD6020865D6020825
S31508009160ADD602088FD60208C81100205430002058
S31508009170012300F01F02A0F506200949A0F550605A
S315080091804009934051F820201A4341F82020054908
S3150800919051F8202022EA030241F82020704700BF38
S315080091A058210020502100200122A0F506230A4953
S315080091B0A3F550635B0900F01F00824051F82300B5
S315080091C0024341F82320054AD2E900329B1808BF1A
S315080091D0C1E90033704700BF502100205821002004
S315080091E02DE9F047A2B04022002102A823F094FC02
S315080091F04022002112A823F08FFC1C4C1C4F254648
S3150800920005F10F09CDF800902B461022386802A9FF
S3150800921028F091F94FF00008064610340DF1080AB7
S31508009220B04516D1CDF800902B461022386812A901
S3150800923028F08AF9002605460DF14808AE420FD1F6
S315080092400C4B9C42DBD101220B4B1A7022B0BDE8B5
S31508009250F0875AF8040BFFF78BFF08F10108DFE7E0
S3150800926058F8040BFFF7A0FF0136E7E7006D080082
S31508009270FC100020007108001A8B00202DE9F04729
S3150800928080460F461E46154688B00AB1002313606D
S315080092900EB1002333604FF0100ADFF8B090CDF816
S315080092A000A000233A464146D9F8000009F004FE1A
S315080092B00446F8B93B68214A93422ED14FF0180A62
S315080092C00146524602A823F027FCCDF800A0234603
S315080092D04146D9F8000002AA09F0EEFD044648B94D
S315080092E0069B7B60DDE90423C7E90223144B3B6038
S315080092F025B9144C204608B0BDE8F087114CC5F8CE
S3150800930000A0002EF6D033464146D9F8000002AA3E
S3150800931009F026FE60B10446ECE7094A1DB99342F6
S31508009320E8D0094CE6E79342C5F800A0E9D0F8E78B
S3150800933033682A689B1A3360DCE700BFD175E105FC
S31508009340105D175EFEDF00F0FFDF00F0FC10002066
S3150800935070B5104D2B7803F0FF04ABB906F088F909
S31508009360012802D906F0B8F904462B782BB90A4B1E
S315080093700A481B68984701232B7006F079F90128DB
S3150800938002D9204606F0CAF9BDE87040044B0348E6
S315080093901B6818471B8B0020C8110020602100207D
S315080093A0C0110020034B1B781BB1034B03481B68F5
S315080093B0184770471B8B0020BC1100206021002035
S315080093C02DE9F04F87B08246894698461646DDF85D
S315080093D040B02AB1002B53D040F26C739A4252D84F
S315080093E0BBF1010F52D8002406F1100739460120B7
S315080093F0059426F034F8054600284AD021463A4610
S3150800940023F08AFBFFF7A4FF05ABCDE901430094DF
S315080094102B4601225046494600F042F8044690B1D0
S3150800942010F18C0F08BF6FF08D043A4600212846CC
S3150800943023F072FB284626F022F8FFF7B3FF2046F2
S3150800944007B0BDE8F08F144BC5E902A92B60C5F833
S3150800945004B02EB13246414605F110002BF08AFEC3
S31508009460059E0E483B462A463146006809F08CFCA4
S3150800947018B93046FFF77CFED7E76FF09104D4E7BA
S315080094806FF08604DBE76FF09104D8E76FF0850488
S31508009490D5E76FF08C04D2E7105D175EFC1000204C
S315080094A02DE9F04F9FB002921F4604460822CDE9E7
S315080094B00301414021FA02F34B40980702F10802E2
S315080094C018BF9B00202A1C44F4D12123B4FBF3F3D4
S315080094D003EB4313E41AA14B04F506241B7804F5A1
S315080094E050640BBBFDF76EFD002840F079819C4E59
S315080094F03368E82B16D1DFF880828DF81F00012328
S315080095009849D8F800000DF11F0209F087FC18B138
S31508009510954B984240F064819DF81F303A2B38D11C
S315080095203A233360FFF75CFE4FF021080026DFF888
S315080095305092DFF850A2A4F50625A5F550635B09FD
S3150800954059F8232004F01F01CA40D20700F11E81F2
S315080095505AF82330CB40DB0740F1F380002E08BFD2
S3150800956026462123A5F6FF45B5FBF3F303EB431384
S31508009570ED1A05F50624B8F1010804F55064DAD1A8
S31508009580029B002B00F0DF80002E00F0DC803446C2
S31508009590DFE0402200210EA823F0BEFA734DDFF863
S315080095A0DC9105F10F0200922B461022D8F8000034
S315080095B00EA9103527F0BFFF002853D0102200212E
S315080095C00AA823F0A9FA00230E98CDE9083309AAB8
S315080095D008AB0AA9FFF752FE654B984200F00081D6
S315080095E018B1013B984240F0FB800A9BDFF898913E
S315080095F04B4503D05F4A934240F0F28074234022E1
S3150800960000210EA8336023F087FA102200210AA849
S3150800961023F082FA0023DFF85481089308F10F0338
S31508009620554800931022434600680EA927F083FF89
S315080096304FF0000A05900EAE059B534515D14F4BCA
S3150800964008F110089845E9D13A234B488DF8383087
S315080096504449012300680EAA09F096FB00283FF446
S3150800966063AFBDE04D459CD15AE700233068CDE98C
S31508009670083309AA08AB0AA9FFF700FE3C4B984233
S3150800968061D018B1013B984240F0AA800A9B394A3A
S31508009690DDF820B0934202D04B4540F0A18001206E
S315080096A00BF1100125F0DBFE0546002800F09B8033
S315080096B0089B0246304800933168099B006809F008
S315080096C0FBFB30BB0A9B4B4519D1DDE90C010B9B13
S315080096D05A4600932B4600F08FF8834690B110F156
S315080096E0850F0FD0089A00212846103223F014FA65
S315080096F0284625F0C4FE58461FB0BDE8F08F1D4A1F
S31508009700934209D01C4B3168186809F06DFC014674
S3150800971058B16FF0910BE5E70B9B5A46DDE90C0152
S3150800972000932B46FFF74CFED7E7089A28461032D7
S3150800973023F0F2F9284625F0A2FE04360AF1010ABA
S315080097407AE7029B13B96FF08B0BD4E7002E18BF8C
S3150800975034462A9B4FF0000B1C60CCE71A8B00207E
S3150800976004110020FF6C08000BE000F0003108002F
S31508009770FFDF00F0105D175EFC10002000350800C2
S315080097805821002050210020D175E105DDE9282364
S3150800979039462046FFF772FD144B984202D0123321
S315080097A0984218D1124B2146186809F01DFC00286A
S315080097B0C9D1D7E90223DDE90310834208BF8A42EB
S315080097C07FF4CFAE029B002BC3D07B68012BC0D1A0
S315080097D06FF0840B8FE70028EBD0064B9842E8D051
S315080097E06FF0910B87E76FF08C0B84E7FFDF00F0D3
S315080097F0FC100020FEDF00F02DE9F04F8BB082460A
S31508009800894698461646DDF850B00AB1002B4FD067
S31508009810BBF1010F4FD8002406F11807394601207D
S31508009820059425F01CFE0546002847D021463A46F1
S3150800983023F072F9FFF78CFD05ABCDE901430094DF
S3150800984001225046494606ABFFF72AFE044690B168
S3150800985010F18C0F08BF6FF08D043A460021284698
S3150800986023F05AF9284625F00AFEFFF79BFD204605
S315080098700BB0BDE8F08F134BC5E902A92B60C5F8FC
S3150800988010B02EB13246414605F118002BF072FC95
S31508009890059E0D483B462A463146006809F074FA8B
S315080098A018B93046FFF764FCD7E76FF09104D4E7A0
S315080098B06FF08604DBE76FF08504D8E76FF08C0459
S315080098C0D5E700BFD175E105FC1000202DE9F0476A
S315080098D08CB08146DDE914780C4616461D466BB1F8
S315080098E0B8F1000F49D0002F47D0B7F1005F44D335
S315080098F0C3F1005303F580339F423ED84FF0000A68
S315080099001022002108A823F007F9CDE905AAFFF7D8
S315080099101FFD07AB029305AB019306AB21460093E7
S315080099205246484608ABFFF7BBFD0446D0B9059B2F
S315080099303DB1B3421CD853EA060504D06FF086043D
S3150800994010E0B342FAD3069B0D48C8F800500095BC
S315080099503A4607990068334409F0AEFA002818BF5A
S315080099606FF09104FFF71EFD20460CB0BDE8F087A6
S315080099709B1B9D4228BF1D46E5E76FF08604F3E76B
S31508009980FC10002070B500260C4605468CB0102247
S31508009990002108A823F0C0F8CDE90566FFF7D8FC32
S315080099A007AB029305AB019306AB214600933246FB
S315080099B0284608ABFFF774FD0446D8B9099B012B66
S315080099C01DD0079D114B2946186809F00DFBC8B92B
S315080099D00122A5F506230E49A3F550635B0905F098
S315080099E01F00824051F823004240284641F82320B0
S315080099F0FFF7DAFBFFF7D6FC20460CB070BD6FF018
S31508009A008404F7E76FF09104F4E700BFFC10002028
S31508009A105821002030B5048804F4E043B3F5005F0C
S31508009A202ED1C4F30223042B2AD181F0AA6383F42E
S31508009A30807333F47E132AD081F0AA6383F400730B
S31508009A4033F47E1323D00023144D21F47E11A9424A
S31508009A501AD1B4F5105F17D1418821F0400080284B
S31508009A6002D0B1F5807F15D1191F0C2912D8DB0752
S31508009A7010D4073A072A34BF00206FF0860030BD9D
S31508009A8042F204039C42DED16FF08500F7E7C1F38A
S31508009A900543D9E76FF08600F1E700BF00014005EE
S31508009AA02DE9F04F9DB08146DDE92A761D468B46A5
S31508009AB0DDF8B080DDF8C4A0099241B138B1269B23
S31508009AC02BB1289B0BB9299B0BB91FB94EB16FF067
S31508009AD086047FE02EB1B8F1000FF8D02D9B002B3D
S31508009AE0F5D02E9B002BF2D0BAF1000FEFD0309BA9
S31508009AF0002BECD02F9B002BE9D0B9F8003003F4EB
S31508009B00E042B2F5005F69D1C3F30222042A65D1A7
S31508009B1085F0AA6383F4807333F47E1306D085F048
S31508009B20AA6383F4007333F47E1360D1C5F3054347
S31508009B3029464846279ACAF80030FFF76BFF0446BD
S31508009B40002847D10146242213A822F0E5FF202247
S31508009B5021460BA822F0E0FF13A823F0BDFA00283F
S31508009B6055D159464846099A0BAB00F003FB044603
S31508009B7000282FD12D9B9E424CD8DAF80030309A17
S31508009B80934247D8474508D2BB19984505D2394666
S31508009B90324640462BF0C6FA4746204B25F47E153A
S31508009BA09D4226D1DAF80030324606932F9B03975A
S31508009BB0CDE90483299B0BA90293289B13A801933B
S31508009BC0279B0093269BFEF7D3FE212819D0D8B9E8
S31508009BD02E9B1E6020461DB0BDE8F08F42F204029F
S31508009BE0934204D185F0052383F480139BE7002371
S31508009BF09EE76FF0880400232E9A1360CAF8003097
S31508009C00E8E76FF08604F6E76FF09204F3E76FF083
S31508009C109204DFE76FF08904DCE700BF0001400526
S31508009C202DE9F04F9BB08A46DDE9286593469846AC
S31508009C3081462C9F28B96FF0860420461BB0BDE8E4
S31508009C40F08F0029F7D0249B002BF4D0269B13B95C
S31508009C50279B002BEFD10EB9002DECD117B92D9B00
S31508009C60002BE8D12E9B002BE5D02A9B002BE2D0B7
S31508009C7041464846259AFFF7CDFE04460028DCD122
S31508009C800146242211A822F047FF2022214609A8CE
S31508009C9022F042FF11A823F01FFA10B16FF09204C8
S31508009CA0CBE75A465146484609AB00F063FA0446E4
S31508009CB00028C2D12D9B9D422AD8BE4208D27319CC
S31508009CC09F4205D231462A4638462BF02BFA3E46A5
S31508009CD0144B28F47E1898451DD12B9B2A460693CB
S31508009CE02A9B0396CDE90473279B09A90293269B11
S31508009CF011A80193259B0093249BFEF70FFF2128AB
S31508009D0099D02C280AD00028C8D12E9B1D6094E72C
S31508009D106FF0890491E76FF088048EE76FF094047A
S31508009D208BE700BF00014005084B984202D0084B5C
S31508009D30984207D10B88B3F5105F0CBF00206FF06F
S31508009D40850070476FF08500704700BF00444004E7
S31508009D500013C0042DE9F04F99460023A5B0934699
S31508009D60DDE93074DDE93268CDE90733CDE9093339
S31508009D70CDE90B33CDE90D33DDF8D0A0049005917C
S31508009D8029B96FF08605284625B0BDE8F08F002A68
S31508009D90F7D00FB9002CF4D12E9B13B92F9B002BAB
S31508009DA0EFD116B9B8F1000FEBD1BAF1000FE8D030
S31508009DB048460499FFF7B8FF05460028E3D101464F
S31508009DC024221BA822F0A8FE2022294613A822F046
S31508009DD0A3FE1BA823F080F9002878D1DDE9040149
S31508009DE05A4613AB00F0C6F905460028CBD113989E
S31508009DF023F041FD05460028C5D114B9CAF800006C
S31508009E00C1E7B7420AD23B199E4207D24445B8D8A1
S31508009E103946224630462BF085F937464E4B99454A
S31508009E2058D003F54073994515D04C4B994540F0E9
S31508009E308C804445A5D814F00F02A2D12346CDE95B
S31508009E40007613A91BA8FEF76DFC0746002834D137
S31508009E50CAF8004097E700234445CDE90F33CDE91A
S31508009E6011338ED82F9B0D2B8BD101238DF83C30C7
S31508009E702E9B0DF13D0203F10C0153F8040B8B42A6
S31508009E8042F8040BF9D11B78137001238DF84B3077
S31508009E9014F00F0933D10F2CDAD907AB01930FABA6
S31508009EA0CDE90276009324F00F02002313A91BA81C
S31508009EB0FEF790FC0746002843D04246002130466C
S31508009EC022F02AFE0023012FCAF8003040D06FF096
S31508009ED0920558E744453FF654AF2F9B102B7FF465
S31508009EE050AF2E9B0DF13C0C03F1100E624618681C
S31508009EF05968083303C273459446F7D1C8E724F076
S31508009F000F033B440DF12C0C03F1100E6246186842
S31508009F105968083303C273459446F7D10F2CBCD849
S31508009F2024F00F03334403930BAB029307AB01935F
S31508009F300FAB00934A46002313A91BA8FEF74AFC59
S31508009F4083E7B9F1000F83D0EAE76FF085051AE7D2
S31508009F506FF08B0517E700BF0010C00400444004EB
S31508009F602DE9F04F0C46A3B00021DDE92CB6DDE95A
S31508009F702F5A0746904601A82022994622F0CCFD82
S31508009F802022002109A822F0C7FD2022002111A8BD
S31508009F9022F0C2FD2422002119A822F0BDFD54B1E9
S31508009FA0B8F1000F07D0BBF1000F04D02E9B13B1F8
S31508009FB0BAF1000F05D16FF08604204623B0BDE83C
S31508009FC0F08F2188628801F4E043B3F5804FF2D020
S31508009FD0264B27483B4043F01063834202D06FF07C
S31508009FE08504EAE7D31DB9EBD30F4FEAD307E2D3CB
S31508009FF0AF4235D847F241139942F0D1B742DAD881
S3150800A000FF2AECD11B4B033609932E9B03352046BA
S3150800A01015934A46414626F0030625F0030501AB8B
S3150800A020CDF834B00E961695129700F0A3F80446AC
S3150800A0300028C2D10B9B119043F4005319A80B9327
S3150800A04023F04AF878B911AB09AA01A919A8FEF7AD
S3150800A05031FF10B14828AED1C1E7CAF80070ACE7A5
S3150800A0606FF08904A9E76FF09204A6E70000FFF6EF
S3150800A07000000209200000B0F8B5134642880C46D5
S3150800A0800732072A4FEAD20101D0A1426DD14668AC
S3150800A0900588C76820221846002122F03DFD360AA9
S3150800A0A0034626B1012E11D06FF08B00F8BD002CA7
S3150800A0B05BD041F20102954205D0B5F5885F02D022
S3150800A0C0B5F5905F1BD15C600020EFE7C660002CF9
S3150800A0D04BD041F2010295420BD15C60B90707F0FB
S3150800A0E001021FD4002AEFD19A6842F080729A6062
S3150800A0F0EAE7B5F5885FF0D0B5F5905FEDD0B5F530
S3150800A100105F0AD1182C03D0202C01D0102C2CD18A
S3150800A110C3E90044002ED7D0E0E705F44F42B2F574
S3150800A120824F02D06FF08500C0E7EAB2412AF9D122
S3150800A130202CF7D10E4A25F0FF05B5F5E24F1A6037
S3150800A1400CD0B5F5824F10D14FF4005217F4705F5A
S3150800A15009D017F4864F04D09A60E3E74FF480429B
S3150800A160F4E742F480629A60D4E76FF086009DE7D0
S3150800A170200000B02DE9F041164600221C4643682F
S3150800A1808CB01B0A07460D46009204D0012B5ED000
S3150800A1906FF08B0096E0018821F0FF03B3F5824F3C
S3150800A1A053D1428808460732D208009223F06FFB43
S3150800A1B058B12B78042B05D1013EB6EB420F05F1B9
S3150800A1C0010509D06FF086007CE04139C9B2012942
S3150800A1D000F2CA80B242F5D1DDF800802246414637
S3150800A1E03846FFF749FF00286CD1F21CC4E903057D
S3150800A1F022F003026261B8F1000F00F0A680202267
S3150800A200002101A822F088FC4146384601AAFFF73A
S3150800A21033FF002840F099802368019A9A4240F05B
S3150800A22094806368029A9A4240F08F80A368039AE2
S3150800A2309A4240F08A80A369079A9A4240F085803C
S3150800A240E369089A9A423DD07FE00096C4E7032E58
S3150800A250B8D90B78012B40F08A80497800294BD071
S3150800A260F739082994D801A353F821F0D5A2000894
S3150800A27091A2000891A10008CBA2000891A10008AC
S3150800A280EFA2000891A10008DFA20008E7A20008D3
S3150800A2904FF41056F825374F1C22002102A822F049
S3150800A2A03BFC03230197CDE90435039601AA09ADC2
S3150800A2B0134603CBAB42206061601A4604F10804DA
S3150800A2C0F6D100200CB0BDE8F08110274FF080765B
S3150800A2D0FA25E1E720274FF00076F725DCE7FE258B
S3150800A2E0244F254ED8E7FF25224F244ED4E74FF4B6
S3150800A2F01056FC251F4FCFE72B2E7FF663AF202283
S3150800A300204622F009FC05F110032361AB070DD0A6
S3150800A31001AB05F1280C1A4628686968083503C296
S3150800A32065451346F7D1286801AD10606B68103E85
S3150800A3302360AB6869466360EB682046A360012327
S3150800A3406661E36022F0D7FE28B12022002120466C
S3150800A35022F0E2FB36E7DDF80080626908F11C03AB
S3150800A3609A42BFF448AFF0E76FF08500AAE76FF0AE
S3150800A3709100A7E720000080004400020044000383
S3150800A3802DE9F04F91B0DDF8688081460C4692467B
S3150800A3909B461C9FB8F1000F05D16FF08604204636
S3150800A3A011B0BDE8F08F002FF7D00028F5D0242291
S3150800A3B0002107A822F0B0FB07A822F08DFE10B1F5
S3150800A3C06FF09204EBE714F47C1FC4F305452AD01A
S3150800A3D0102DE2D81B9B9D4233D81D4B24F47E14C6
S3150800A3E09C4231D1002303AECDE90333CDE90533D1
S3150800A3F052465B464946009607A8FEF74DFC0446BA
S3150800A40098B92A46314640462AF0B4FE23463355C3
S3150800A4100134102CFBD100243D6007A822F066FE0B
S3150800A4200028BCD0CCE71025D4E7212806D001287F
S3150800A43014BF6FF092046FF08B04EEE76FF086049A
S3150800A440EBE76FF08904AAE76FF08504A7E700BF7A
S3150800A4500002C0032DE9F0438DB01746DDE91494D8
S3150800A46098460E4601B96ABBB8F1000F0DD1B9F18D
S3150800A470000F27D134B3164B984226D100236FF02C
S3150800A480890023600DB0BDE8F083DCB1104B98421B
S3150800A4901BD11423B9F1130F2360EFD903A822F0B7
S3150800A4A01BFE054610B16FF09200EBE73B463246BD
S3150800A4B00121CDE9008903A8FEF7B6FC0028E1D002
S3150800A4C02560F0E76FF08600DCE76FF08500D9E7D6
S3150800A4D00500000213B50024094B18689A889B7971
S3150800A4E000906846ADF804208DF806308DF80040D7
S3150800A4F0FDF7C6FD0620FDF7FBFD204602B010BDA0
S3150800A50008570308084A13B5536F002443F001039C
S3150800A51053672023684600948DF80430FDF7AEFC97
S3150800A520204602B010BD00BF0040005030B58BB0C9
S3150800A5306C46174D0FCD0FC40FCD0FC495E8030019
S3150800A54084E80300134BD3F84C2112031CD5A3F55A
S3150800A550FE431C884FF6FF739C4208BF8C248DF877
S3150800A5601940FDF79FFB204480F308008DF818007A
S3150800A5700948FCF7BDF96846FDF7CAFA3220FDF727
S3150800A58097FB00200BB030BDD3F85041E4B2E6E7A4
S3150800A590105703080080E00FC01753026FF004033A
S3150800A5A0502110B50A480B4C13F0800F03F1010235
S3150800A5B007D123444C2A83F800131346F4D100200C
S3150800A5C010BD03F00F03043B034419761346EBE76B
S3150800A5D000ED00E000E100E038B500F00DFF0446AC
S3150800A5E0E0B900F0D5FF4FF4167343430C4A03F560
S3150800A5F0742303F23F23B3FBF2F30A21094A0A48FC
S3150800A60013600A4D0268013911F0FF0145F8043B51
S3150800A610F9D11A4403EBC30313440360204638BD3B
S3150800A62040420F00F8210020C8210020CC2100203C
S3150800A630012208B5034B1A7023F07EFC024B186002
S3150800A64008BD00BF1C8B0020C4210020F8B51C4C97
S3150800A6502378D3B123F070FC1A4B1B4D1B68C01A24
S3150800A660012838BF0120286000F092FF4FF41673C6
S3150800A6705843164B00F5742000F23F20B0FBF3F068
S3150800A6802968814202D900232370F8BD104D114E66
S3150800A6902B78114F56F8232046F82310501A0A2112
S3150800A6A03A680133121A3A600932B2FBF1F20B48E2
S3150800A6B0DBB20260B3FBF1F201FB12332B70E2E767
S3150800A6C01C8B0020C4210020F421002040420F00EA
S3150800A6D01D8B0020CC210020C8210020F821002055
S3150800A6E0014B1868704700BFF821002020234FF45B
S3150800A6F080120A4981F82D33094B5A66094B0A4AD2
S3150800A70003F50050426702674FF40050C1F8840110
S3150800A710486003F580535A67704700BF00E100E0C0
S3150800A720009000500040005A010000A0044B9A6DAA
S3150800A730D20702D40028FAD170470120704700BF1B
S3150800A7400040005A0C4B10B51C6FE20707D50122D2
S3150800A75003F500531A67FFF779FF00F085FB14F03D
S3150800A76000521CBF054B1A67002CBEBF4FF00042B3
S3150800A770024B1A6710BD00BF0040005A0060005A1D
S3150800A780BFF35F8F074B5A6A22F480325A62D3F8B6
S3150800A790942022F00102C3F89420BFF34F8FBFF331
S3150800A7A06F8F704700ED00E070B52948294CFFF718
S3150800A7B0E7FF8442284D294919D1D5F8C03023F03E
S3150800A7C0FF0343F0A003C5F8C0304FF080430A6882
S3150800A7D0214D234EC5F8982043F0010301328442E7
S3150800A7E0C5F89C60C5F8A0300A601ED00DE0D5F803
S3150800A7F0C02020F01F03203B22F0FF0242F0A002F7
S3150800A800B3F1005FC5F8C020E1D2164B0A681248BA
S3150800A81023F01F0343F00303C0F89820C0F89C30C8
S3150800A820114B0132C0F8A0300A60BFF35F8F0522D2
S3150800A830094BC3F894205A6A42F480325A62BFF32D
S3150800A8404F8FBFF36F8FBFF34F8FBFF36F8F70BDFF
S3150800A850581400200416002000ED00E0FC2100201A
S3150800A8600300002023160020E1FFFF3FF8B5144639
S3150800A870FFF786FF1F2C27D90027C2062A4D1CBFC3
S3150800A88020F01F0020302A68CB06284B18BF21F07D
S3150800A8901F01FCB2A2422BD8D3F8C04020F01F00FB
S3150800A8A024F47F4444F4807421F01F01C3F8C040A7
S3150800A8B040F00300C3F8982041F003010132C3F8C1
S3150800A8C09C00C3F8A0102A600020BFF35F8F052202
S3150800A8D0164BC3F894205A6A42F480325A62BFF380
S3150800A8E04F8FBFF36F8FBFF34F8FBFF36F8FF8BDD7
S3150800A8F0C3F89840D3F89C40D3F8A06024F01F040E
S3150800A900A04226F01F0601D1B142DDD0B04201D8DF
S3150800A910A14207D2D3F89840013724F0FF04C3F8C0
S3150800A9209840B6E72820D0E7FC21002000ED00E09B
S3150800A930BFF34F8F0549064BCA6802F4E06213431A
S3150800A940CB60BFF34F8F00BFFDE700BF00ED00E00F
S3150800A9500400FA05054B1A782AB95B78002B0CBF58
S3150800A9600320022070470120704700BF288B002073
S3150800A9700329F8B598BF124B05460E468CBF00242E
S3150800A9805C5C032805D8DFE800F002080B0E44F0EB
S3150800A99002040C4B1F684FB9F8BD44F00804F8E7E9
S3150800A9A044F02004F5E744F08004F2E77B681A686F
S3150800A9B0144203D0314628465B6898473F68EAE761
S3150800A9C0385703082C22002038B5104D2B78ABB128
S3150800A9D00F4C23781BB100F099FB0023237000204D
S3150800A9E000F0BCFB0B4C50B100F0C2FB0023012168
S3150800A9F020782B70FFF7BCFF0123237038BD012296
S3150800AA00054B1A702278054B1A70F7E7238B00203E
S3150800AA10218B00202A8B0020248B0020258B0020E8
S3150800AA2010B522F0DFF9064B04461B781BB1BDE8CA
S3150800AA30104022F0DBB9FFF7C7FF2046F7E700BF53
S3150800AA40208B0020094A137830B101331370084B64
S3150800AA501B78012B03D87047013B13707047054BD1
S3150800AA601B780BB9FFF7B0BF704700BF288B0020D3
S3150800AA702A8B0020248B002070B522F0B3F9134EE0
S3150800AA8005463378ABB900F0B7FC044620B1284632
S3150800AA9022F0ACF9204670BDAFF300800C4822F0D6
S3150800AAA02DF900F001FF0B4B1C6000F071FD0A4BFD
S3150800AAB0186000F01FFA23F0F7F9084B0024186015
S3150800AAC001232846337022F091F9E3E72B8B002007
S3150800AAD02C22002000220020282200200422002008
S3150800AAE02DE9F843284A0138135C39B1274F013359
S3150800AAF039781354012904D8BDE8F883013B135467
S3150800AB00FAE7FFF727FF0128044635D822F06AF945
S3150800AB10DFF88480054698F8003013B31C4E337866
S3150800AB201BB9012232701B4A1370DFF8709099F82E
S3150800AB30003023B100F0EAFA002389F800302846ED
S3150800AB4022F054F9012000F009FB22F04BF9337882
S3150800AB5005461BB100F00CFB00233370002388F870
S3150800AB600030284622F042F93878A042C4D021465F
S3150800AB70FFF7FEFE3C70BFE70329F5D10228F3D1A3
S3150800AB8023F096F9F0E700BF288B00202A8B0020D7
S3150800AB90208B0020248B0020238B0020218B002073
S3150800ABA038B522F01FF9094B05461B78012B04D846
S3150800ABB022F01CF90024204638BD054B1C6800F01D
S3150800ABC031FB0444284622F011F9F4E72A8B0020C9
S3150800ABD00022002038B54160044622F003F90546F4
S3150800ABE02146044822F08DF82846BDE8384022F070
S3150800ABF0FDB800BF2C220020054B1B685843054BA7
S3150800AC0000F5742000F23F20B0FBF3F0704700BF58
S3150800AC102822002040420F002DE9F04F85B0EFF3BF
S3150800AC20108772B6AFF3008025F0BEF900286FD002
S3150800AC30804EDFF82C82337823B10020FFF702FF1D
S3150800AC4000233370FFF786FE0446002867D0841E6B
S3150800AC50E4B2012C6AD9FFF77DFE01280546764C39
S3150800AC60DFF8009200F28C802078854240F0C6809A
S3150800AC70207800F0C1FA99F8003013B16F4B1B78B1
S3150800AC802370AFF3008007B962B6EFF3108772B688
S3150800AC906B4B1A7852B100221A70684B20781B78D1
S3150800ACA0984203D101212170FFF762FE654800F042
S3150800ACB0DDFB06F0B7F805460028BCD1624BDFF885
S3150800ACC09481187098F80030ABB189F80000DFF865
S3150800ACD08C9199F800301BB100F018FA89F80050E9
S3150800ACE0002000F03BFA002800F09B8000F040FAB4
S3150800ACF0002388F80030337823B10020FFF7A2FE3E
S3150800AD000023337000212078FFF732FE00232370DA
S3150800AD10AFF3008007B962B605B0BDE8F08F3378A7
S3150800AD20002B98D0FFF78EFE347094E7002003A915
S3150800AD3000F0EAFB044600288DD1D8F80030039AC3
S3150800AD409A4205D80120FFF77DFE0123337082E77A
S3150800AD503E4B1D6800F066FA039B05449D42F1D2FE
S3150800AD6000F070FA8200039942F0020292B2CDE92D
S3150800AD7000422346364A491B324823F09AF86AE7C6
S3150800AD80344BDFF8C4A093F800B0BBF1000F25D10F
S3150800AD9000F03AF92078854230D19AF800307BB92C
S3150800ADA02C4D2B78002B7FF463AF2B4B1B7823B9E4
S3150800ADB000F0A6F90122294B1A7001232B7057E7D8
S3150800ADC0022DEDD18AF800B015E02378022B25D1A3
S3150800ADD000238AF8003027F06DFA1FE020788542B4
S3150800ADE00CD19AF80030002B3FF442AF022DD7D190
S3150800ADF000238AF8003027F05DFAD1E70023DFF850
S3150800AE0048A08AF8003099F8003013B92946FFF7A8
S3150800AE10AFFD9AF800302570002BD6D1012DBFD88A
S3150800AE2026E7012000F0E8F907B962B6EFF31087C4
S3150800AE3072B655E7228B00202A8B0020258B00202E
S3150800AE401E8B002008220020268B002000220020CE
S3150800AE5021AA0008238B0020278B0020218B0020A5
S3150800AE6004220020248B002010B5094B1B786BB1F7
S3150800AE70084C237853B100F07BF90023064A237067
S3150800AE8013700123054A1370054A137010BD00BFDD
S3150800AE902A8B0020248B0020238B00201F8B002068
S3150800AEA01E8B002073B5114E0446337883420FD0AB
S3150800AEB04FF400730E4DADF8043058B101A8FCF7F5
S3150800AEC095FF4020FFF798FE2B68181A2860347003
S3150800AED002B070BD8DF8050001A8FCF787FF402079
S3150800AEE0FFF78AFE2B681844F0E700BF1514002008
S3150800AEF03022002073B5002401A88DF80440FDF720
S3150800AF001FF82046FFF7CEFF364A3749136F3748F2
S3150800AF1003F007030B60D2F80011354C01F003016A
S3150800AF2001604FF480103349032B48664FF4003014
S3150800AF30486601F59831896901F00200C1F34001BC
S3150800AF40217046D0D2F8203103F00703991E4B42F0
S3150800AF504B41D2F82811284D01F00701022908BFF4
S3150800AF6043F0010325490B7058B33BB9D2F80031B9
S3150800AF7003F003035A1E534253410B70194BD3F87F
S3150800AF80003103F00303022B25D0032B26D0012B17
S3150800AF9017D1FBF7A7FC024698B1194B194EDC6886
S3150800AFA000231946C4F30B04013404EB8404013866
S3150800AFB0E4FB060121F03CF9FFF71EFE2B6803446B
S3150800AFC02B601F20FFF718FE2B6803442B6002B086
S3150800AFD070BD0123BDE7FBF7E1FCDCE721F000FECD
S3150800AFE0D9E700BF00800050342200203822002014
S3150800AFF02E8B002000900050302200202F8B00203E
S3150800B00000C0015040420F00074A0849D2F82031D3
S3150800B01003F007030B60D2F82831054A03F007034B
S3150800B020136021F0F1BE00BF0080005040220020CE
S3150800B0303C22002008B5164B1A7822B300221A7053
S3150800B040144B1A6F22F0070242F001021A67D3F86E
S3150800B050202122F0070242F00302C3F82021D3F888
S3150800B060282122F0070242F00302C3F828210A4BDE
S3150800B0701B7833B10122094B5A60094A53689B076A
S3150800B080FCD4FBF719FC0122064B5A6708BD00BF22
S3150800B0902D8B0020008000502E8B002000E00150F0
S3150800B0A000C001500060005A0122114B10B55A67C2
S3150800B0B0104B114C1B78A3B1022000F0C9FB80B1DC
S3150800B0C000F052FA68B1A36DD90302D5E36D9A0769
S3150800B0D003D4094B9B6DDB0704D54FF48032044B30
S3150800B0E09A6210BD0122054B1A70FFF7A1FAF4E720
S3150800B0F00050005A2F8B00200040005A2C8B00204D
S3150800B1000122014B1A7070472D8B00200F4B10B58A
S3150800B1101B7883B10E4C2378A3B90E4B9A6DD103D5
S3150800B12002D5DA6D920702D49B6DDB0704D54FF47E
S3150800B1308032094B9A6210BDFFF77AFA4FF48032D3
S3150800B140054B9A6200232370F5E700BF2F8B00207A
S3150800B1502C8B00200040005A0050005A034B1B78E5
S3150800B1600BB1FFF7E3BA0120704700BF2F8B002011
S3150800B17008B521F04AFE174B1B7833B10122164B4E
S3150800B1805A60164A9369DB07FCD5154B15491A6FA1
S3150800B190096822F007020A431A671349D3F82021DF
S3150800B1A0096822F007020A43C3F820210F49D3F899
S3150800B1B02821096822F007020A43C3F828210C4B04
S3150800B1C01B781BB14FF480320A4B9A62BDE80840DF
S3150800B1D0FBF772BB2E8B002000D0015000C0015037
S3150800B1E00080005034220020402200203C2200200B
S3150800B1F02F8B00200060005A02280AD003280BD0A3
S3150800B20001280CD1064A136923F00403136130BFE1
S3150800B21070470020FCF7F6BD0020FCF713BE704708
S3150800B22000ED00E008B5054B187818B1FFF758FA95
S3150800B23000EBD000024B1B68184408BD2F8B00207A
S3150800B24030220020014B1878704700BF2F8B002052
S3150800B25038B500F0B7FA0025084B094C1A68236878
S3150800B260C31A2AB123B15169994203D3C91A516144
S3150800B270206038BD55615B1A9268F2E74C220020BF
S3150800B28048220020C38870B504460D463BB9FFF72F
S3150800B29087FC8542064602D222F0FBFD35460E495A
S3150800B2A065610B688BB90C60A3600DE0AD1A9A68EE
S3150800B2B0184665616AB113465A69AA42F6D930B189
S3150800B2C08460521BA3605A6170BD0020F4E70C60CD
S3150800B2D0F7E79C60A260F7E74C22002038B5134DCB
S3150800B2E02B685B6993B1124A022014681C4400F06B
S3150800B2F06FFA204600F074FA00230E492A680B708C
S3150800B300D088800709D501230B7038BD022000F0CC
S3150800B3105FFA022000F094FAEEE79268002AF4D069
S3150800B32050690344012BEBD9EFE700BF4C220020FC
S3150800B33048220020318B002070B516469DF814204F
S3150800B340C0E903360271049ABDF81830026000227B
S3150800B35004460D468260C380EEB900F033FA2844ED
S3150800B360A0619DB12E4621F03DFD0546FFF770FF11
S3150800B37031462046FFF786FF104B1B68A34201D1D2
S3150800B380FFF7ACFF284621F031FD02E0E36865616E
S3150800B3907BB9002070BD00F015FA3044A061002D7D
S3150800B3A0E0D1E3686561002BDDD020462168984727
S3150800B3B0D9E7204621689847EBE700BF4C220020D2
S3150800B3C000220C490B687BB183420AD183687AB1A3
S3150800B3D0936083681BB15A6941690A445A6100201F
S3150800B3E070471A469B68EEE70028EFD002207047A0
S3150800B3F00B60EEE74C22002070B521F0FAFC144EE3
S3150800B40005463478FCB9134B1C60134B1C60134B70
S3150800B4101C8000F0A7F9012000F0DAF922F0A3FD5C
S3150800B4200F4B0246186020B9284621F0E8FC232075
S3150800B43070BD234640F2E7310A4820F0F9FE0A4B70
S3150800B440186001233370284621F0D9FC0020EFE765
S3150800B450328B00204C22002048220020708A0020CF
S3150800B4605022002018FCFFFF4422002070B5044635
S3150800B47040B321F0B7FC144E0546FFF7E9FE3068E5
S3150800B480A04209D02046FFF79BFF0446B0B12846E4
S3150800B49021F0ACFC204670BDFFF792FF0446002859
S3150800B4A0F5D133683BB9022000F0C2F9284621F0ED
S3150800B4B09DFC0024EEE7FFF711FFF7E73368002B42
S3150800B4C0F4D1F0E72224E5E74C22002038B50C46F3
S3150800B4D00546A8B1A1B100230B7021F08AFC012111
S3150800B4E0084B1B6833B921F08AFC002038BD9D4201
S3150800B4F004D121702278002AF9D0F4E79B68F1E795
