S023000053774F6E4F66665F323032343132305F5A473233425F47656F4C6F632E73333736
S31508006000081000204D7A0008CDDF0208CDDF02080F
S31508006010250C0308CDDF0208CDDF0208CDDF020814
S31508006020CDDF0208CDDF0208CDDF02085172030872
S31508006030CDDF020808AF0308E1710308C39C030813
S31508006040257E0008CDDF0208CDDF0208CDDF020875
S31508006050CDDF0208CDDF0208CDDF0208CDDF02085A
S31508006060CDDF0208CDDF0208CDDF02086D75000816
S315080060706BDB0208CDDF0208CDDF0208CDDF0208A0
S31508006080CDDF0208CDDF020805FD0008CDDF0208D6
S31508006090CDDF0208CDDF0208A5890008CDDF02089A
S315080060A0CDDF0208CDDF0208B1850008918500081A
S315080060B0CDDF0208CDDF0208F9B00108A9BB010847
S315080060C0213B03081D3B030869B30108373B030856
S315080060D0253B030879BB0108293B03080DBC0108C9
S315080060E049BC0108CDDF0208CDDF0208CDDF020872
S315080060F0CDDF0208A7050308CDDF0208CDDF0208B9
S31508006100CDDF0208CDDF0208CDDF0208CDDF0208A9
S31508006110CDDF0208CDDF020841C50208CDDF02083F
S31508006120CDDF0208CDDF0208CDDF0208CDDF020889
S31508006130CDDF0208CDDF0208CDDF0208CDDF020879
S31508006140CDDF0208CDDF0208CDDF0208F1BD000869
S31508006150CDDF0208CDDF0208CDDF0208819A0108EB
S31508006160CDDF0208CDDF0208113B0308173B030801
S31508006170F0B5114A114C124E00F00105E3695F07AC
S3150800618013D40DB9334213D103EA00078F4207D15E
S315080061900B4A1A40002A0CBF00206FF00100F0BD20
S315080061A0013AEBD16FF00200F9E74FF0FF30F6E75E
S315080061B06FF00100F3E700BF8096980000000350D7
S315080061C0020001000B4B70B5D96911F480310DD16D
S315080061D001244FF48072084E084DF46020462C6462
S315080061E01A61FFF7C5FF3464EC6070BD6FF00100FB
S315080061F0FBE700BF000003500010035000200350C7
S315080062004FF4803238B50E4B0E4C9A66E56941F666
S31508006210713315400122E3630B4B0021DA60022338
S31508006220606121202361FFF7A3FF10B92120FFF742
S315080062309FFF0122054BDA600DB10023E36338BDE9
S315080062400090005000000350001003500020035037
S3150800625070B5134C6061E3695B071ED40E4656F8A9
S31508006260043B8D18A361AE420BD1042300212120E3
S315080062702361FFF77DFF58B9BDE870402120FFF77D
S3150800628077BF08210846FFF773FF10B1042323617F
S3150800629070BD56F8043BA361E5E74FF0FF30F7E71A
S315080062A0000003502DE9F84315464FF48032184B89
S315080062B089469A6603F51C33DF690646174041F698
S315080062C07132DA63012203F58053DFF84C80DA6015
S315080062D055B9284601220F4BDA601FB10022A3F5F3
S315080062E00053DA63BDE8F88306F5005404EA0804A7
S315080062F0A41BAC4228BF2C46494622463046FFF727
S31508006300A7FF0028E6D12644A1442D1BE0E700BFDD
S31508006310009000500020035000E0FFFF000000003E
S31508006320000000000000000000000000000000005F
S3150800633000000000FF000100E91E03086C000100D0
S315080063400100FF00FF000000000000000000000040
S31508006350000000000000000000000000000000002F
S31508006360000000000200850002000000E115030895
S31508006370000000000000000000000000000000000F
S31508006380DD150308D91503080200590003000000AB
S31508006390210F0108000000000000000000000000B6
S315080063A000000000A50E01080000000002008E0093
S315080063B003000000ED1603080000000000000000BE
S315080063C000000000000000000000000000000000BF
S315080063D00300200002000000BD19030800000000A9
S315080063E0000000000000000000000000000000009F
S315080063F00000000003002500020000000D1B030832
S315080064007D1A0308931A0308871A03080000000078
S31508006410D1190108D119010802005A00010000002B
S31508006420000000000000000000000000CB1C03086C
S3150800643000000000000000000000000002007A00D2
S3150800644005000000951B0108000000000000000080
S315080064500000000000000000811B0108811B0108E4
S315080064600200870003000000DD2701080000000085
S3150800647000000000551D0308000000000000000091
S31508006480000000000200720002000000611D0308FF
S3150800649000000000000000000000000000000000EE
S315080064A00000000000000000020073000100000068
S315080064B01D2A01080000000000000000000000007E
S315080064C000000000B5290108C129010802006C0076
S315080064D001000000D52C01080000000000000000A3
S315080064E00000000000000000852C0108852C01082A
S315080064F00200860003000000DD2E010800000000EF
S31508006500000000000000000000000000000000007D
S315080065100000000002005E0002000000291F0308B8
S31508006520000000000000000000000000000000005D
S3150800653000000000000000002500000088AD0020D3
S31508006540FF0000000000000018000000B126020845
S31508006550220000001124020801000000295803083F
S315080065600500000049220208040000000929020863
S315080065700B000000612E020825000000AD2302086A
S31508006580240000004D230208140000000535020807
S315080065900C000000253002081600000069240208D5
S315080065A003000000BD3502080200000087570308F3
S315080065B008000000A12B02082A000000C9240208CE
S315080065C0290000004D260208020000007F57030834
S315080065D0010000002358030803000000E52502080F
S30D080065E0000000002F58030813
S315080065F02DE9F04F93B0CDE90A32DDE91C530E932D
S3150800660053EC102BCDE90801104619468DED060B03
S315080066101E9E26F00BFC80B1DDE906014FF0FF3225
S31508006620C54B26F02BFC40B9DDE906014FF0FF32D9
S315080066306FF4801326F004FC70B1DDE908019DEDC6
S31508006640060B0E9B1E96CDE91C53DDE90A3213B0E4
S31508006650BDE8F04F00F088B90022DDE90601002305
S3150800666026F0EEFB002800F03381DDE906A303F1EE
S31508006670004BCBF30A5016F48063A0F2FF3008BF34
S3150800668006250F9326F000F99BA3D3E9002326F0ED
S3150800669065F99BA3D3E9002325F0AAFFCBF31304DE
S315080066A0894644F07F5180460022A44B504641F467
S315080066B0401125F09BFF94A3D3E9002326F04EF959
S315080066C002460B464046494625F092FF26F0E0FB77
S315080066D0044626F0D9F88EA3D3E9002380468946D6
S315080066E026F03CF90022964B25F082FF26F0D0FBD7
S315080066F089A3D3E9002307464946404626F02EF9E2
S3150800670080463846894626F0BFF885A3D3E9002394
S3150800671026F024F902460B464046494625F066FF10
S3150800672002460B46CDE90C2326F018F9DDE90C23C1
S31508006730804689461046194625F05AFF0022CDE9BB
S315080067401001804B4046494626F032FA00227E4B1D
S3150800675025F04EFF02460B464046494626F028FAE3
S3150800676000227A4B25F044FF02460B46404649462E
S3150800677026F01EFADDE90C238046894600204FF0F4
S31508006780804125F033FF02460B464046494625F030
S315080067902FFF02460B46DDE9100126F009FA07F23B
S315080067A0FF3700226A4B25F023FF00223B0526F01F
S315080067B0D5F852465B468046894626F05FFB002898
S315080067C040F08980CDE90C8904F16303C72B34BFF7
S315080067D00427052731051BD553A3D3E900235046C3
S315080067E0594626F041FB00287FD051A3D3E9002360
S315080067F05046594626F024FB002876D00027A542A5
S31508006800C6BF2C1B04F1FF3500253C4646F48066BE
S315080068100E9B9F422CBF4FF00008A3EB070816F00B
S31508006820020903D0002F18BF4FF000083CB1DDE97C
S315080068300C235046594626F0BBF982468B46DDE9BD
S3150800684006010022002326F0FBFA10B10BF10043E3
S315080068509B46DDE9080126F40063CDE90183DDE9FD
S315080068600A324BEC10AB009500F07EF802465FB397
S31508006870DDE9091316F0200F00F10105089E0CBF8B
S3150800688065204520B047DDE9080105230022059368
S315080068900A23002CCDE9023207F1FF374FEAD473F9
S315080068A0B8BF64422A46019304970A9B00942CF0C9
S315080068B0E2FB0246B9F1000F06D00B9BC41A0B9BEC
S315080068C01A190E9BA34245D8104613B0BDE8F08F9F
S315080068D0DDE906ABCDE60022404649461A4B26F0CE
S315080068E067F9013CCDE90C016EE7002D90D00F9BAE
S315080068F0002B8DD0013D8BE7FB799F501344D33F86
S31508006900B3C8608B288AC63F61436F63A787D23FA7
S3150800691071A379094F930A401655B5BBB16B02406E
S31508006920EF39FAFE422EE63F2D431CEBE2361A3FBC
S315080069300000000080842E41FFFFEF7F0000F83F33
S315080069400000E03F00002C400000244000001840F2
S315080069500000F03F2020DDE90913089DA84701340F
S31508006960ADE700BF000000002DE9F04F5BEC10AB6F
S3150800697097B0CDE90501DDE92057CDE90723504653
S3150800698052465B465946229E26F050FA70B90323B2
S31508006990CDE902760193B04B0093DDE90501DDE907
S315080069A007232CF088FA17B0BDE8F08F4FF0FF32B6
S315080069B06FF480135046594626F042FA28B104234C
S315080069C0CDE902760193A54BE6E74FF0FF32504634
S315080069D05946A34B26F052FA68B1A24A06F00403B8
S315080069E0002B08BF0322A04B1CBF13460422CDE987
S315080069F002760192D0E7504693A3D3E9002359467D
S31508006A0026F03CFA38B992A3D3E9002350465946F2
S31508006A1026F016FA68B1DDE90723DDE905014BEC36
S31508006A2010ABCDE92176209517B0BDE8F04FFFF7FA
S31508006A30DFBD002200235046594626F001FA0028F9
S31508006A4000F09A805B4652460020002125F0CEFDD4
S31508006A50012382468B46099316F4806400F08E80E3
S31508006A60092D40F28E80002430210EABA5F10902D3
S31508006A700134202C03F8011BA5EB040901D094422C
S31508006A80F6D15946504626F003FA784B054603EBED
S31508006A90C90393ED007B8DED0A7B25F0F5FE0246D2
S31508006AA00B465046594625F0A1FDDDE90A2325F097
S31508006AB055FF02460B46CDE90C2326F011FA80460F
S31508006AC025F0D2FE02460B46DDE90C0125F08EFDC7
S31508006AD002460B46CDE90C230022654B26F0CEF97B
S31508006AE0002851D008F10108404625F0BDFE0246AF
S31508006AF00B46DDE90A0126F0ADF910B14FF00008A2
S31508006B000135B9F1000F50D1284625F0BDFE0246E1
S31508006B100B465046594625F069FD0022544B8046DF
S31508006B20894626F08DF930B1002240464946504B39
S31508006B3026F0A4F910B1E80700D501350A210EABF5
S31508006B401A19202C0AD095FBF1F001FB10553035A7
S31508006B5002F8015B013405460028F2D106F003026B
S31508006B60012A57D1002F55D0099A12B916F00C0FE1
S31508006B7000D0013F302245E009906DE74FF0060945
S31508006B807FE7A94600247CE70022DDE90C01384BA3
S31508006B9026F056F90028B4D1B8F1000F02D018F043
S31508006BA0010FAED008F10108ABE70A210EAB23446A
S31508006BB0202C0ED0B8FBF1F001FB1082B8F1090FBA
S31508006BC002F1300209F1FF3904F1010403F8012B3F
S31508006BD011D83021A1440EAA202CAFD0A14504F12A
S31508006BE001030AD11C4609F158030DEB03092E23AC
S31508006BF009F8203CA2E78046DAE7A1541C46EBE7F1
S31508006C001A550134A74205D9202CF9D1CDE90276C7
S31508006C100194C1E6202CF9D0099A3AB12D2104F144
S31508006C2058026A4402F8201C0134EFE7710704D5BC
S31508006C3004F158022B216A44F4E73207E6D504F139
S31508006C40580220216A44EDE70000000065CDCD41D9
S31508006C500000000065CDCDC19DB50308A1B50308A8
S31508006C60FFFFEF7F94B5030899B50308A8B5030895
S31508006C700000E03F00000000F7B5044600782FF05A
S31508006C80FCFE18B1E3780BB130F06DFA4E482CF0E3
S31508006C90B2FF002023F0C4FF4C4B002118604C487B
S31508006CA015F054F84B4F8446386000B9FEE74A4E53
S31508006CB00FCC35460FC50FCC0FC5102294E803003C
S31508006CC0464B85E8030083F81F23012183F8202318
S31508006CD0604683F8212383F8222383F8232383F845
S31508006CE0242383F8252383F8262383F8282383F887
S31508006CF0272383F84A2383F84B2383F8472383F80B
S31508006D001E230DF033FF24F085FAB6F90A30002861
S31508006D104AD0C82B01DDC82373817378304A022B09
S31508006D2028BF02232F49137238684FF48073002254
S31508006D302DF099F824F058FF0122386811462DF0F5
S31508006D4019F81FA3D3E90023CDE9002338684FF0CB
S31508006D50FF324FF0FF332DF00BF896F82000224C47
S31508006D60003818BF012024F053FFB6F90820B6F9F9
S31508006D7006103379307824F0F9FE1C4B5B681878D6
S31508006D8024F060FA01223868114630F01AF9002218
S31508006D901546174924F022F9904209D831F022FF06
S31508006DA0144B186003B0F0BD8C2BB6DD8C23B3E70B
S31508006DB001F8015B24F8025B0132EBE7AFF30080D0
S31508006DC0088D015522020000690345EC189500203C
S31508006DD018B1002028B10020387F002000E100E02B
S31508006DE0C07E0020C07D0020AC9500202CB100207C
S31508006DF0F0A80020149500200348044B834202D0D3
S31508006E00034B03B11847704754B2002054B2002010
S31508006E1000000000064B0749C91A891048BF01310E
S31508006E20491003D0044B0BB101481847704700BFFF
S31508006E3054B2002054B200200000000010B5064CE1
S31508006E40237843B9FFF7D8FF044B13B10448AFF3CF
S31508006E5000800123237010BDB695002000000000B5
S31508006E608C1F040808B5054B1BB105490548AFF347
S31508006E700080BDE80840FFF7CDBF00BF0000000056
S31508006E80201900208C1F0408A3F5803A704700BF1C
S31508006E90174B002B08BF134B9D46FFF7F5FF002144
S31508006EA08B460F461348144A121A26F02AFD0E4B33
S31508006EB0002B00D098470D4B002B00D09847002098
S31508006EC0002104000D000D48002802D00C48AFF33D
S31508006ED0008000F013F92000290026F0FFFD00F0DD
S31508006EE011F800BF000008000000000000000000C4
S31508006EF0081000200810002060AB002000000000E9
S31508006F000000000008B5064B044613B10021AFF394
S31508006F100080044B1B6803B19847204629F0A2FB62
S31508006F2000000000701A0020002310B50446836094
S31508006F30818119464366C28108228361C0E900330C
S31508006F40C0E904335C3026F0DCFC0D4B2462636236
S31508006F500C4BA3620C4BE3620C4B23630C4B9C4219
S31508006F6006D003F16802944202D0D0339C4205D180
S31508006F7004F15800BDE8104026F0CBBC10BD00BF98
S31508006F807DD802089FD80208D7D80208FBD802087D
S31508006F9038190020024A0349034826F051BC00BFAD
S31508006FA02CAD00201FDA02083CAD002041680C4BCE
S31508006FB0994210B5044601D026F031FDA168094B67
S31508006FC0994202D0204626F02AFDE168064B9942EE
S31508006FD004D02046BDE8104026F021BD10BD00BFF4
S31508006FE038190020A0190020081A002010B50B4BEC
S31508006FF004210B4C0B4A20461A600022FFF794FF27
S3150800700004F1680001220921FFF78EFF04F1D00080
S3150800701002221221BDE81040FFF786BF701A002031
S3150800702038190020956F0008014826F073BC00BF88
S31508007030B7950020014826F06EBC00BFB795002022
S3150800704010B50446FFF7F0FF236A1BB1BDE81040F0
S31508007050FFF7F0BF044B2362044B1B68002BF5D1E6
S31508007060FFF7C4FFF2E700BFAD6F0008701A0020F3
S3150800707038B50023054D044608462B6029F0F0FA7A
S31508007080431C02D12B6803B1236038BD741A002053
S3150800709038B50446064D0846114600222A601A46A7
S315080070A029F0E6FA431C02D12B6803B1236038BDE8
S315080070B0741A002038B50446064D084611460022C3
S315080070C02A601A4629F0D6FA431C02D12B6803B166
S315080070D0236038BD741A002038B50446064D0846A4
S315080070E0114600222A601A4629F0D2FA431C02D118
S315080070F02B6803B1236038BD741A002070B50D4D96
S3150800710000260D4C641BA410A64209D10B4D00267F
S315080071100B4C33F075FC641BA410A64205D170BD58
S3150800712055F8043B01369847EEE755F8043B013617
S315080071309847F2E74CB200204CB200204CB200202F
S3150800714050B2002013B5012023F048FC0BF0BEFF17
S31508007150FE2304460DF107008DF8073015F0A2FA54
S315080071609DF807002AF0FFF968B19DF807302372E9
S315080071700BF0B0FF02220346012105482EF0A9FABA
S31508007180002002B010BD04F108002CF076FFEFE7EE
S315080071906FDA020808B5103029F0B2FD0346054A31
S315080071A010681BB1BDE8084027F068B8BDE808407C
S315080071B027F076B8D0AE030810B5032000F034FBEC
S315080071C060B1094C0949206829F030FA26F0E7FC35
S315080071D026F0E6FC0649206829F028FABDE81040A2
S315080071E0712009F06DBB00BF241F002028AA0308E0
S315080071F02DAA030838B5032000F016FB60B1154C1C
S315080072001549206829F012FA26F0C9FC26F0C8FCB0
S315080072101249206829F00AFA00F046F82AF011FD0A
S315080072200F4C104B002818BF1C46032000F0FCFA30
S3150800723078B1084D0849286829F0F8F926F0AFFC16
S3150800724026F0AEFC224628680749BDE8384029F0F2
S31508007250EDB938BD241F002028AA030843AA03084D
S315080072603FAA03089CAB03085FAA030810B50320CE
S3150800727000F0DAFA60B1094C0949206829F0D6F914
S3150800728026F08DFC26F08CFC0649206829F0CEF9FC
S31508007290BDE81040722009F013BB00BF241F002070
S315080072A028AA030870AA03080048704788AD00207A
S315080072B0114B00B51868114B114A1860114B8BB069
S315080072C01360114A00210092104A1268CDE9012381
S315080072D00F4B4FF4C86203930E4B04930E4B059362
S315080072E01923CDE906233223CDE90813694606F0AA
S315080072F005FD0BB05DF804FB08AE0020A4270020AE
S31508007300A0270020FCAD002087AE0308981D0020AA
S31508007310341D0020381D00200810002010B52A4C06
S3150800732003F0B2FC03F0EAFD236F012023F0070304
S3150800733043F00303236703F00BFE244B01219B6AEA
S315080073403E20DB015EBF4FF48032214B9A62D4F8AF
S31508007350203123F0070343F00203C4F82031D4F8A0
S31508007360283123F0070343F00203C4F82831D4F880
S31508007370403123F0030343F00103C4F84031D4F845
S31508007380603123F0030343F00103C4F8603103F0CE
S31508007390D5F9D4F84032002023F0030343F0010363
S315080073A0C4F84032D4F8003223F0070343F001034F
S315080073B0C4F80032D4F8083223F0070343F0010377
S315080073C0C4F8083210BD00BF008000500040005AC3
S315080073D00060005A4FF480302249234A4B6E10B59C
S315080073E05066486E4FF000414AF6CD3451661F4943
S315080073F003F480334A6C0C6402F001024C6BE40718
S31508007400FCD401241A494C60A1F500510C6BE40721
S31508007410FCD50AB1174A0A640028A2BF4FF00041FA
S31508007420154A51661BB94FF48032134B5A6607F05A
S3150800743083FA07F03FF929F0AAF829F0B2F807F01D
S3150800744051F9FFF76BFF07F003FF00F0ADFC30F0D2
S315080074509FFE23F01FF902F0A1FDBDE8104008F0D9
S3150800746095BA00BF008000500090005000400950B7
S31508007470006009503254FFFF00A00050064B1B68FD
S315080074801A7A022A04D812B11B68044A1360704794
S31508007490032AF9D0704700BF0CAE0020981D0020C3
S315080074A01C2200B51A4B8FB00DEB02000021069383
S315080074B026F027FA4FF4E132164B0021CDE90823CE
S315080074C0154B0E220A9308238DF82E3009230DF149
S315080074D00A008DF8303026F014FA4FF480110F4B5D
S315080074E006AACDE900130B238DF808300C238DF876
S315080074F009300B4B6946039320230493012309485B
S315080075008DF81430084B07F03FFB0FB05DF804FB0D
S3150800751054B30308000200014CB303083C00015BA6
S31508007520B8950020D81E00209C1D002029B9074BBD
S31508007530186803684BB107F049BE022905D8034B02
S31508007540186803680BB129F0F0BA704720AE00201E
S3150800755008B50449044808F0F1F9BDE80840FFF702
S315080075609FBF00BF24AE0020001F0020014829F05D
S3150800757076B800BFD81E002008B5044826F013FECA
S31508007580BDE80840024826F00EBE00BFB8AE0308A4
S31508007590A0AE030808B5044826F06DFEBDE808400D
S315080075A0024826F068BE00BFE8AE0308D0AE03085E
S315080075B070B5104D286826F085FC0446C0B90E4EF5
S315080075C0306826F0F5FD012803D132F06BFB0B4B32
S315080075D01860706826F0ECFD012803D132F062FBD2
S315080075E0064B98600022064B28681A7026F07EFC27
S315080075F0204670BD101F00202CAE0020141F00204E
S3150800760003B200200021164A00B511605160042219
S31508007610144B89B019705970134B01A81A711A7353
S3150800762010221960996026F06CF929238DF8043028
S315080076300E4B4FF4806202930D4B0E4903930223BF
S315080076408DF810300C4B01A8CDE9052308230793C4
S3150800765026F0E7FB08B12AF0D7FC09B05DF804FB71
S31508007660081F0020DB950020141F00207D760008E7
S315080076706FDB0208101F002005000400F0B5214E3C
S3150800768085B0306801AA02A926F07DFC04460028C8
S3150800769035D14FF4C870029F9DF80C5030F0F0FBBE
S315080076A0874228D340F2DC50029C30F0E9FB844242
S315080076B023D341F28830029C30F0E2FB844234BF87
S315080076C002200320104C04EBC505287121790429F2
S315080076D004D000202AF099FC04232371217B042975
S315080076E004D001202AF091FC04232373306826F085
S315080076F0FDFB05B0F0BD2046E4E70120E2E72AF0ED
S3150800770083FCF6E7101F0020141F0020194BF7B55D
S315080077101C7884B9184B1A68904203D05B68984263
S3150800772009D1012426F044FD0128144D05D132F073
S31508007730B9FA45F8340003B0F0BD32F0B3FA55F89B
S3150800774034308DF80440C71A2820009730F098FB8B
S31508007750874204D805EBC4052B79052BEBD1084BDA
S3150800776008226946186826F0D3FB0028E3D02AF0D9
S315080077704BFCE0E703B200202CAE0020141F0020CB
S31508007780101F002038B5D0E9023253F82230074DD1
S315080077901C78012C28BF01242B5D33B932F082FAFC
S315080077A0034B43F8240001232B5538BDDB950020F5
S315080077B0081F00202DE9F041D0E9023253F82230A3
S315080077C0DFF860801C78012C28BF012418F80460B3
S315080077D0012E12D132F066FA0027114B08F8047010
S315080077E053F82450451B4FF4C87030F049FBA842A3
S315080077F005D9394620462AF008FCBDE8F08140F252
S31508007800DC5030F03DFBA84201D93146F2E741F29F
S31508007810883030F035FBA8428CBF02210321E9E706
S31508007820081F0020DB9500200B4B02461B7883B10E
S315080078300A4B1B78834234BF00200120084B1B7873
S3150800784033B1084B1B78134113F0010F08BF002012
S3150800785070470120F2E700BF06B2002005B20020FB
S31508007860DD95002004B20020012208B5074B1A70E6
S315080078700022074B1A700422064B1A701F22064B69
S315080078801A7007F0D9F8054B186008BD06B2002033
S31508007890DD95002005B2002004B20020241F002038
S315080078A073B5846905462CBB082029F075F9A861CB
S315080078B060B10460446021464FF6FF70AE6932F04D
S315080078C0E9FE706028B9284626F0C7F9192002B0E3
S315080078D070BDAA6801962B7907490848CB5CC2F3A4
S315080078E04F02009321462B4632F074FF0128EAD155
S315080078F02046ECE71220EAE700AF0308ED79000816
S31508007900014826F0F7BB00BF281F0020037970B591
S315080079109B07054602D41D4B1C6844BB1C2029F056
S315080079203BF9044680B32B7C012603712B7995F825
S315080079302020C3F3400343750023027583608361E7
S31508007940036140F80C3B26F0D5FB95F820300BB1C7
S31508007950012323756B69A26829469A4238BFA3603A
S3150800796004F10C0026F0CDFB4EB9002070BD667DF3
S315080079701EB922792B7C9A42E7D02468CDE72146A6
S31508007980024826F0BEFBF0E71920EFE7281F002083
S315080079900D4B70B51C6804B970BDA3690BB124689A
S315080079A0F9E7E36820462361FFF77AFF06460028D1
S315080079B0F5D0E568002DF2D0EB6813B1314600200A
S315080079C098472D68F6E700BF281F0020064B024699
S315080079D0186800B97047C3680BB90068F9E793429D
S315080079E0F8D01B68F8E700BF281F002010B504462A
S315080079F026F0F4F940B90D4B1A78A2B901221A708B
S31508007A0026F0F1F926F073F8204626F085F90028C5
S31508007A10FAD0204626F0ECF90028F5D08368002B2A
S31508007A20F2D09847F0E726F0DEF9EDE7DE9500207C
S31508007A300348044A0449121A921026F0C8BA00BF2D
S31508007A40706100083063000860AB002008B500F0DC
S31508007A502FF8FFF7EDFF124B12498B4212D3002085
S31508007A60114B12498B4218D3FFF712FA186850F8CF
S31508007A702240586840F82240013298688242F5D37D
S31508007A800C33EAE70022F8E71C6844F822000132C2
S31508007A905C68A242F8D30833E4E70022F8E700BF9F
S31508007AA0941F0408A01F0408A01F0408A01F0408A8
S31508007AB04FF48041124B134A70B59A60D3F8882068
S31508007AC0114D42F47002C3F88820104A05F5005497
S31508007AD091664FF0FF3222660D4A62660222C3F8AB
S31508007AE0D020BFF34F8FBFF36F8F4FF4403600207F
S31508007AF006F06AFF0020E66006F04AFF2E6170BDB8
S31508007B0000ED00E00060000800800044009000508E
S31508007B107FFF7F01054B1860054B1B6F03F00703BA
S31508007B20032B01D12FF0C6BB704700BF40AE002023
S31508007B30008000504FF000639B6A03F17842B2F56B
S31508007B40C04F03D21968064A914203D00023037036
S31508007B5083607047012202709A689B694260F7E762
S31508007B6007B0CD5E024B034A1A6028F01EBD00BF5F
S31508007B700000002002020FF073B54F4B04461A7836
S31508007B801AB102221A7002B070BDCDE9002200288F
S31508007B90F9D001261E7031F049FF484D484B186050
S31508007BA010F098FE2B785BB902F0F8F940B9454811
S31508007BB00823454A4549006802F08AF800B92E703C
S31508007BC0434B5A6E62619B6E424AA3614FF48043EF
S31508007BD09366414B5968E16140499960196E216085
S31508007BE0596E6160D3F87011A160196CE160596C27
S31508007BF021613B49086C1864496C59640121516636
S31508007C001B6E9C0441D5374AD368D807FCD4364B3B
S31508007C101A68531C3ED04FF480139340334A1366B8
S31508007C204FF400730426314C2666236626F032FA92
S31508007C3001300DD026F02EFA40F20113984207D0F3
S31508007C404FF4005323664FF480432366C4F87061EB
S31508007C500823264C684623664FF4805323664FF064
S31508007C60006323664FF4000301A9636626F0BCF996
S31508007C70009B2366019B63662B78002B83D0124BEF
S31508007C801A6822665B6863667DE7194AD368D9076E
S31508007C90FCD4BCE7174B1B78002BC1D14FF40072FC
S31508007CA00C4B5A6603F5A6235B68002BB8D14FF434
S31508007CB080120E4B1A66B3E7E0950020E195002086
S31508007CC04C1F002068AE0020501F002000710800DD
S31508007CD000800050009000500080004455CEAC0053
S31508007CE000C000540000044044AE00200090004448
S31508007CF000000450DF95002070B5224D04462E780A
S31508007D00012E02D001232B7070BD0028FCD026F06E
S31508007D10C1F901300BD026F0BDF940F201139842A3
S31508007D2005D0194B194A5E66D368DE07FCD422686B
S31508007D30174B1A6662685A66A268C3F87021E26829
S31508007D401A6422695A64E269D00744BF00229A601D
S31508007D50104B1A68013207D10F4A127822B90F4917
S31508007D604968C90748BF1A6062690D4B5A66A26915
S31508007D709A6610F0B7FD0B4B186831F052FE0023D7
S31508007D80C1E700BFE09500200090004000000440D5
S31508007D900080004444AE0020DF95002000C0055056
S31508007DA0008000504C1F0020F8B54FF00066B36AFB
S31508007DB003F17842B2F5C04F26D21A68144B9A429C
S31508007DC022D1144D2C7814F0FD0402D0002420464C
S31508007DD0F8BD4FF480371048FFF7CEFE204606F070
S31508007DE0F3FD0E4B2046DF6006F0D2FD0C4B1F61FB
S31508007DF0B36ADB69984704460748FFF77DFF002CFE
S31508007E00E5D101232B70E1E74FF48174DFE700BF6A
S31508007E1007B0CD5EDF9500202C1F002000A000448F
S31508007E200090004413B5204B1B7803B9FEE70023E6
S31508007E301E4CCDE900336A4608231D49206801F027
S31508007E4047FFF8B91B4AD2F84031D2F840211F2B18
S31508007E504FF0010311D9203A9340019A1A4301922F
S31508007E6008236A461249206801F0EEFE124B134AAF
S31508007E701A6028F09AFB02B010BD9340009A1A4384
S31508007E800092EDE72D28F1D10A4AD2F84031D2F80E
S31508007E9040211F2B4FF0010385BF203A93409340A2
S31508007EA0019398BF0093DBE7E095002068AE0020B9
S31508007EB00071080000800044000000200B020FF04B
S31508007EC038B54FF00065AB6A044603F17842B2F55F
S31508007ED0C04F13D21B6B03F17843B3F5C04F0DD2D5
S31508007EE00848FFF749FEAB6A20461B6B5B69984753
S31508007EF004460448FFF700FF204638BD4FF4817456
S31508007F00FAE700BF581F0020F8B54FF00067BB6AB4
S31508007F10164603F17842B2F5C04F04460D4611D213
S31508007F201B6B7BB10948FFF727FEBB6A20461B6B14
S31508007F30324629465B6A984704460448FFF7DCFE42
S31508007F402046F8BD4FF40174FAE700BF581F002019
S31508007F5070B54FF00066B36A044603F17842B2F58D
S31508007F60C04F0D4614D21B6B03F17843B3F5C04FCF
S31508007F700ED20948FFF700FEB36A20461B6B294656
S31508007F809B6A984704460448FFF7B6FE204670BD2C
S31508007F904FF40174FAE700BF581F0020F8B54FF0F8
S31508007FA00067BB6A164603F17842B2F5C04F04462D
S31508007FB00D4615D21B6B03F17843B3F5C04F0FD2AC
S31508007FC00948FFF7D9FDBB6A20461B6B324629468E
S31508007FD09B6B984704460448FFF78EFE2046F8BD7B
S31508007FE040F20114FAE700BF581F002070B54FF0A1
S31508007FF00066B36A044603F17842B2F5C04F0D46EF
S3150800800014D21B6B03F17843B3F5C04F0ED209485F
S31508008010FFF7B2FDB36A20461B6B2946DB6B984710
S3150800802004460448FFF768FE204670BD40F2011476
S31508008030FAE700BF581F0020BFF34F8F0549064BCC
S31508008040CA6802F4E0621343CB60BFF34F8F00BFE8
S31508008050FDE700BF00ED00E00400FA0570B5D0B1F9
S31508008060C9B10E4E431E013913F8014F2046325D41
S3150800807002F00302012A11F8012F08BF04F12000BB
S31508008080B55C05F00305012D08BF2032801A01D121
S31508008090002CE9D170BD0120FCE700BF8A1E040848
S315080080A040B1054A1378012B04D803700133002028
S315080080B01370704701207047E295002030B50568B7
S315080080C087B0AB8804461848ADF80C3028F061FA3A
S315080080D00022012103A800F075F80DF10B0103A891
S315080080E000F050F99DF80B3083F001032B70AB7943
S315080080F0022B15D14FF0FF330022CDE9043304A932
S315080081000A4B009403A800F0EFF9049B009401338E
S315080081100CBF04220122054B05A903A800F060F94B
S31508008120002007B030BD00BF48B30308BBE1020812
S315080081302DE9F04104460C254FF00108124E0CB308
S3150800814014F001000BD0002024F0010405FB0062A6
S315080081505768002FF3D09168C0B2B847EFE72246B8
S31508008160013020284FEA520201D0D307F8D508FA81
S3150800817000F20F2824EA0204E8D9103805FB006249
S31508008180B432E5E7BDE8F081781F002008B50C4851
S3150800819028F0FFF91A2006F009FC28B11A2006F083
S315080081A013FC1A2006F0F4FB1B2006F0FFFB28B18F
S315080081B01B2006F009FC1B2006F0EAFB002008BD80
S315080081C048B303082DE9F0410E461746054618B38D
S315080081D00F2923D80378E3B1013BDBB2022B1DD864
S315080081E0104A32F813306A78D340DB0716D50E4B9F
S315080081F0D3F81043A4B931F019FC80463A4628460C
S31508008200314603F00FFC404631F00BFC2046BDE832
S31508008210F08140F2FF73E6E72224F7E72124F5E729
S315080082200224F3E758AF030800C0035010B504460C
S31508008230E8B10378C3B1013BDBB2022B19D80E4A69
S3150800824032F813306278D340DB0712D531F0EEFBF3
S315080082500122637821789A4030235943074B5A50B4
S3150800826031F0DFFB002010BD40F2FF73EAE7222061
S31508008270F9E72120F7E700BF58AF030840D00350BD
S3150800828010B50446E8B10378C3B1013BDBB2022B53
S3150800829019D80E4A32F813306278D340DB0712D564
S315080082A031F0C4FB0122637821789A403023594380
S315080082B0074B5A5031F0B5FB002010BD40F2FF7352
S315080082C0EAE72220F9E72120F7E700BF58AF0308BD
S315080082D040E0035010B50446E8B10378C3B1013B4A
S315080082E0DBB2022B19D80E4A32F813306278D34023
S315080082F0DB0712D531F09AFB0122637821789A4080
S3150800830030235943074B5A5031F08BFB002010BDE0
S3150800831040F2FF73EAE72220F9E72120F7E700BFDA
S3150800832058AF030840F0035038B50D46044618B355
S3150800833011B30378EBB1013BDBB2022B1ED8104A0E
S3150800834032F813306278D340DB0717D531F06EFB6D
S3150800835030222378534303F1A04303F570331B6C93
S315080083606278D34003F001032B7031F05AFB0020EA
S3150800837038BD40F2FF73E5E72220F9E72120F7E749
S3150800838058AF030838B50D46044618B311B3037839
S31508008390EBB1013BDBB2022B1ED8104A32F8133080
S315080083A06278D340DB0717D531F040FB30222378BB
S315080083B0534303F1A04303F570335B6C6278D340F3
S315080083C003F001032B7031F02CFB002038BD40F27E
S315080083D0FF73E5E72220F9E72120F7E758AF0308FE
S315080083E02DE9F0410D46164698460446002852D017
S315080083F0002950D00378002B43D05A1ED2B2022A45
S3150800840003D9FF2B08D0212043E0244B33F8123040
S315080084104278D340DA07F6D5022E01D9042EF2D1D6
S3150800842031F004FB23780746FF2B05D03246204659
S31508008430296803F03DFB28602B68013309D12378AE
S31508008440FF2B06D1164B6078D3F8241426F0BFFD0F
S31508008450286029684B1C18D00C23124A03FB0122FA
S31508008460069BC2F8048093602378FF2B04D001236F
S315080084700D4A8B40C2F82434384631F0D2FA00202F
S3150800848007E040F2FF734278C3E7384631F0C9FA8D
S315080084902D20BDE8F0812220FBE700BF58AF030876
S315080084A000C00350781F002000D003500F2810B5D5
S315080084B0044613D831F0BAFA0123094AA340C2F890
S315080084C02034C2F824340C22064B02FB0433002461
S315080084D0C3E9014431F0A5FA204610BD2120FCE786
S315080084E000E00350781F00202DE9F0410D46904624
S315080084F01F460446002843D0002941D00378002BA4
S3150800850034D0591EC9B2022903D9FF2B08D021201D
S3150800851034E01C4B427833F81130D340DA07F6D5ED
S3150800852031F084FA23780646FF2B05D042462046CA
S31508008530296803F043FB28602A68531C1AD00C23C9
S31508008540114903FB0211069BC1F8B870C1F8BC308B
S315080085502378FF2B05D00123103293400B4AC2F82B
S315080085602434304631F05DFA002007E040F2FF730C
S315080085704278D2E7304631F054FA2D20BDE8F08132
S315080085802220FBE758AF0308781F002000D00350CD
S3150800859008B503F02DFA054B00F0553020F05020B1
S315080085A0C3F82004BDE80840FFF7C2BD00E0035049
S315080085B008B503F01DFA054B00F0AA3020F0A020FC
S315080085C0C3F82004BDE80840FFF7B2BD00E0035039
S315080085D013B504460A4827F0DCFFA2780421B2FA4C
S315080085E082F2237852098DF8043063780DEB010086
S315080085F08DF80530FFF7E6FD002002B010BD00BF7C
S3150800860048B303082DE9F04F9A46564B85B01B78B8
S3150800861006460F461546DDF83C909DF844B0DDF851
S315080086205080002B00F09780072A00F296800E9B58
S31508008630002B00F09280B9F1000F00F08E80129B9B
S31508008640B3F5006F00F38980012803D1109B002B36
S3150800865000F08380444B03EB05131B7B002B7ED075
S31508008660424C10220021684625F04BF904EB4514CC
S315080086701022A7BB3946204625F043F943F21003DA
S315080086806380BBF1000F03D1E37843F00303E37083
S31508008690364A0E9B02EB451CCCE90193129B6901F5
S315080086A0581E9DF84C30C0F30A0003F003039B06DE
S315080086B043EA001E53582E48012E00EA03004EEAEC
S315080086C00003CDF800A0535017D0B8F1000F2ED1F3
S315080086D09CF8023068F304138CF8023027E0002176
S315080086E0204625F00EF94FF444736380BBF1000F62
S315080086F0CED1E37843F03003C9E713230CF1100E0B
S31508008700CCF80C309CE80F008EE80F006FF00301E0
S31508008710DCF81C20109B61F39F02012FCCF81C206B
S31508008720CCF8143003D1CCF81890CCF804300027D4
S315080087300D4A290102EB051342F80180159A2846CD
S315080087405A60694622469F605E7303F045F83846CC
S3150800875005B0BDE8F08F0748FAE70748F8E7074885
S31508008760F6E700BFE3950020E0210020E020002086
S315080087700F80FFF3028000F0018000F0078000F010
S3150800878038B5124B05461B78DBB1E0B131F04EF92E
S315080087900F4A00231146147B54B92B6001251A0190
S315080087A001EB03131D738C5031F03BF9204638BD9D
S315080087B00133082B02F11002EDD131F032F90548E8
S315080087C0F5E70548F3E70548F1E700BFE39500201C
S315080087D0E0210020048000F0028000F0018000F013
S315080087E038B531F023F9002305460B4A147B6CB9DA
S315080087F00133082B02F11002F8D102F099FF074B5A
S3150800880028461C7031F00DF9204603E0284631F061
S3150800881008F9034838BD00BFE0210020E395002091
S31508008820058000F00D4B10B51B78044693B1072858
S3150800883012D831F0FBF80A4B03EB04131A7B2AB162
S3150800884000241C7331F0EDF8204610BD31F0E9F82C
S315080088500448FAE70448F8E70448F6E7E3950020F1
S31508008860E0210020068000F0028000F0018000F080
S31508008870154B13B51868002301908DF8043031F0B4
S31508008880D5F8124B1C7824B131F0CBF8104802B059
S3150800889010BD01221A7031F0C4F80E4B01A81C73E2
S315080088A01C7783F82C4083F83C4083F84C4083F8C7
S315080088B05C4083F86C4083F87C4008238DF80730C9
S315080088C002F05AFF2046E2E75EAF0308E395002070
S315080088D0038000F0E0210020F8B50D4D2D7885B114
S315080088E0072810DC0B4D060105EB0014277B67B142
S315080088F0AB510025069BA560636002F06DFF284614
S31508008900F8BD0548FCE70548FAE70548F8E700BF5B
S31508008910E3950020E0210020028000F0018000F0AD
S31508008920078000F00A4A08B512785AB107280BD80A
S31508008930084A02EB00131B7B43B1002102F00EFF2D
S31508008940002008BD0448FCE70448FAE70448F8E7AD
S31508008950E3950020E0210020028000F0018000F06D
S31508008960078000F00A4A08B512785AB107280BD8CA
S31508008970084A02EB00131B7B43B1012102F0EEFE0D
S31508008980002008BD0448FCE70448FAE70448F8E76D
S31508008990E3950020E0210020028000F0018000F02D
S315080089A0078000F0184B2DE9F0411F6D5B6D1F40E5
S315080089B000D5FEE701260025144CDFF8588037421B
S315080089C018D02368C8F85060A3B1A16828460131B9
S315080089D06268A1609847637B012B0BD150B90C4B99
S315080089E003EB45131A7B60F341021A731A7F60F38F
S315080089F041021A770135082D4FEA460604F110049C
S31508008A00DDD1BDE8F08100BF00000450E021002060
S31508008A10E0200020002004502DE9F04F14460646B9
S31508008A200D469B46C36B87B001225B6902A9606845
S31508008A309847F36B01225B6903A92846984702A861
S31508008A4026F0C9F8074648B10023A37563754FF0A9
S31508008A50FF33A360002007B0BDE8F08F03A826F017
S31508008A60C7F80123A375237E04EBC303DD611F84C6
S31508008A706368AB420ED1206003A826F0DBF84FF0FE
S31508008A80FF332075A360237D043B022B26D80023E1
S31508008A90A375DFE723681A1A53425341A37503A83F
S31508008AA026F0C8F8237D834218BFA77503A826F0C9
S31508008AB0A3F8074602A826F09FF8874218BF0023A6
S31508008AC003A818BFA37526F09FF8074602A826F044
S31508008AD09BF887421CBF0023A375D4E703A826F09A
S31508008AE08BF880B1F36B022228465B6904A9984784
S31508008AF004A826F090F80346207D032839D8DFE835
S31508008B0000F03838040903A8F3E7CC22237E04EBE7
S31508008B10C3031A8401F0DCFA109B187003A8277E99
S31508008B2026F05EF804EBC70787F82200237E03A821
S31508008B3004EBC303B3F8209093F8227026F05CF890
S31508008B40804603A826F060F88246B8F1000F15D0D3
S31508008B50F36B022228465B6904A9984704A826F005
S31508008B601FF86075637D6BB90023A3754FF0000885
S31508008B7038E0227E04EBC2021384CBE703A825F073
S31508008B80FAFFEEE794F81680B8F1000FEED0B9F1C7
S31508008B90000F09D1DFB10123627EE375002A44D1B3
S31508008BA09F4218D1677614E0736C05EB0A025942A6
S31508008BB085EA020008421CBF0021A175591E0A4019
S31508008BC09B1A9945D0D8A37D002BE3D1CEE7E37D48
S31508008BD043B94FF000084B4652462946304625F021
S31508008BE0E2FCA060A27D12B123694B4423611449BB
S31508008BF0237E097899421ED901332376BBF1000FEB
S31508008C001BD0D2B1E37DC3B1B8F1000F15D1032F44
S31508008C1013D0A1684B1C10D0109B224600933046F7
S31508008C200123FFF7F9FEA07507E0012FDAD0032F1D
S31508008C3008BFA376CDE70023A375A07D0BE700BF89
S31508008C40A0AF03082DE9F04F0E46984600238BB0D7
S31508008C5004464FF0FF31104617468DF8133001F0E1
S31508008C6021FAB6F5801F3BD3B21C53D1E56A6B1CBB
S31508008C7057D12046616A25F0DCFB0546B31C18BFB0
S31508008C800123DFF810910193636A626C02932368EB
S31508008C9005A902FB053AE36B05225B69504698472E
S31508008CA005A826F033F826F056F8504626F05EF862
S31508008CB04FF0000B824601464B1C05D0636C81EAD7
S31508008CC00A025B42134232D02946204625F0B1FB00
S31508008CD0029BAB424DD0BBF1000F4DD10546D3E701
S31508008CE0314605AA04F1080025F0C3FE0146481CD2
S31508008CF010D0384601F0D6F90122394620460DF142
S31508008D00130325F0A2FC28B19DF8133088F800302B
S31508008D10002003E0237C002BA8D12D200BB0BDE852
S31508008D20F08F2368ED1A636CB5FBF3F5A6E74846A2
S31508008D3001F0B8F90DF1130349462046019A25F0CA
S31508008D4084FC034690B1B21C03D0D9F80020B24285
S31508008D500CD19DF8132003930D4B88F80020494643
S31508008D601A6838462EF0EDF8039B9B46D9F808108A
S31508008D70A2E7BBF1000FD0D0B6F5801FC8D23146A6
S31508008D8098F800307A6804F1080001F097F8BFE710
S31508008D909CAF0308B42500202DE9F3410446174685
S31508008DA098460E46194D816AE36A8B422AD04B1CB7
S31508008DB018E0284601F076F90122294620460DF1E9
S31508008DC0070325F042FC30B14346294620469DF864
S31508008DD00720B847B0B1A9684A1C05D0012E0AD0A9
S31508008DE0E36A9942E5D10DE06968204625F0AEFBB5
S31508008DF0012E0146D8D16B6881EA0302636C5B4297
S31508008E001A42D1D002B0BDE8F08100BF8825002003
S31508008E102DE9F041036B9046826B07689A4288BF3A
S31508008E208363426C436A90B002FB0377C36B0E46BA
S31508008E30052201A95B6904463846984701A825F02A
S31508008E4065FF01280146307057D0656CE26B2368D0
S31508008E50606AD2F814C005FB0030052206A9E0476F
S31508008E6006A825F053FF01284FF0000523D0D4E9C2
S31508008E700A3201219342CDE90B458DF834800E95CF
S31508008E808DF83C102AD11946204625F05FFB236B46
S31508008E90626C14339B1AE06223630C9B53B99DF8EA
S31508008EA03C303BB1626A616C2368E06B01FB0231BE
S31508008EB025F0E4FE0C9DE36B05225B6901A93846A3
S31508008EC0984701A825F022FF30702846236BA26B2D
S31508008ED09A4288BFA36310B0BDE8F081237C33B9FA
S31508008EE01C490BAA04F1080001F036F8D5E720461C
S31508008EF0194A0BABFFF750FFCFE7237C23BB22466B
S31508008F00164904F1080001F027F8616A204625F0A1
S31508008F10B1FA616A421C204625F07AFA054620B95C
S31508008F20236B626C1344143B23632046A16A25F025
S31508008F300DFB2368A062C01A636CB0FBF3F0606295
S31508008F40204625F046FBB6E700232046044AFFF7ED
S31508008F5023FFDAE725970008A1960008D3E602085A
S31508008F606FE6020873B50D46D11E4A421C461B7EA3
S31508008F704A419A4226D129682368994222D36368CE
S31508008F8099421FD8114E0DF107033246FFF75AFED4
S31508008F90C0B972686B689A4214D19DF80730DA1E18
S31508008FA053425341227E93420CD163690133636174
S31508008FB0D4E90323934205D22968A26842F823100C
S31508008FC001332361012002B070BD00BFE0250020F7
S31508008FD02DE9F04F9A468BB09DF85030DFF850B126
S31508008FE00293DBF81030804653450D461646C0F00E
S31508008FF09980D146DBF804300193B9F1000F00F0EF
S315080090008D80D8F83C3001225B6907A901989847FA
S3150800901007A825F0EDFDDBF80030984240F0858082
S3150800902007A825F0F1FD0428074614D107A825F05E
S31508009030F2FD019B029A04463B44002A3FD1864230
S3150800904012D91446361A4046019925F07FFAA9EB3B
S3150800905004090190D1E7D8F83C3002225B690198EF
S3150800906008A9984708A8E2E7841B544528BF544630
S31508009070032C03EB0607AAEB040A4FEA94021CD951
S31508009080D8F83C30294638465B69984724F00303EC
S3150800909004F003061F441D44002ED4D0D8F83C30F3
S315080090A001225B6908A9384698473246284608A926
S315080090B035442DF046FF0026C5E72646ECE7074669
S315080090C000F00302039203442A1804920593049BB2
S315080090D0DD1B059BD81B039B9F420FD1002FB2D0E7
S315080090E0D8F83C30012208A95B6998473A462846D1
S315080090F008A92DF0A2FE78B93D44A4E7D8F83C307B
S31508009100012208A95B6998470422284608A92DF078
S3150800911094FE08B9043FDAE74FF0360948460BB023
S31508009120BDE8F08F4FF06309F8E74FF06F09F5E7F0
S315080091300C2600202DE9F0410F46164698460446AF
S3150800914088B060B390F83450FDB1012125F036F9A6
S3150800915000210E9BCDE90511CDE902379DF83C307B
S31508009160CDF804808DF81C30237C04968BB90D4904
S3150800917001AA04F1080000F0EFFEDDE90553E06BF3
S31508009180002E08BF1D4625F0B2FA284608B0BDE8ED
S31508009190F0812046044A01ABFFF7FEFDEDE70546E0
S315080091A0F3E700BF9DE60208658F00082DE9F04F3A
S315080091B099B00F4609920A69416C0E931439D31D6A
S315080091C0B3FBF1F3013302EBC302036B044693428C
S315080091D0C0F00D820023DFF820940D93E36A484619
S315080091E01946079300F05EFFD7E9033604930E9BF2
S315080091F0022B4ED1CC2E40F08A81099B002B42D0FF
S315080092003946204625F0D1FA656C079A6B1E13403D
S315080092101490ED1AE36B01225B6916A978689847E2
S3150800922016A825F0E9FC00280CBF04230823782E8D
S3150800923006933DD9012300254FF0080A05933B689C
S3150800924005990E98C9F80030C9F8106025F0F6FCA3
S315080092504FEA9A0310930023DDF81CB089F814002E
S315080092600B930F9308930C93616C4A1E0BEA020248
S315080092708B1A002E38D05544AB4240D8236B5B1A64
S3150800928013442363ABE0049B1B68149308230693DB
S31508009290D0E7656C079A6B1E1340782EA5EB03057D
S315080092A016D8FB7D7BB9099B002BB3D10423069303
S315080092B0331DAB4210D9A6B1082DBBD8042500230F
S315080092C0AA460593BBE7099B002BA3D10823EEE723
S315080092D0099B002B9ED1D9E7002505954FF0040A76
S315080092E0ADE704250596F9E75345C7D3B0460BEB1A
S315080092F00A030393089B002B18BF032313E0A3EB71
S315080093000A039E42B0460BEB0A0228BF98469E42C5
S315080093100392EFD90123D9F8102089F8173096421D
S3150800932071D1C9F804B0089399F81730002B6CD09E
S3150800933099F818200899D31C09EBC3030132C3F81E
S3150800934004B0A3F80880997289F81820B8F1000FBC
S3150800935014D00E9B022B5BD10B9B7BB90F9B43440E
S31508009360032B0BD9E36B01229B69039814A9984731
S315080093700546002840F03D8101230B93089B16A85B
S315080093800193059B009399F814204346396800F029
S315080093903FFEE36B58469B69109A16A99847051E27
S315080093A00D9B18BF5B4652460D93594643462046C9
S315080093B025F0F9F8236B08F10302A3EB0A0322F060
S315080093C003029B1AC9F808002363002D40F0118197
S315080093D00F9BDDF80CB04344A6EB08060F935946DD
S315080093E0204625F0B3F800258346002E7FF43CAFCF
S315080093F0814A3968936804F10800E36252680E9B53
S3150800940000F05CFDDEE002238DE7C9F804B09DE7B5
S31508009410099B002B30D1049BB8F1030F43440A93F0
S3150800942027D9DDE90301E36B4FEA98029B69984760
S315080094300546002865D118F003025FD0049B28F082
S3150800944003052B440493039B1D444FF0FF330499F3
S3150800945015A815932DF075FDE36B28469B69012227
S3150800946015A9984705460A9B0493002D86D0039BA9
S3150800947099E74246039DE8E7039B0A9307F1200311
S315080094801193FB7D78689BB100233D7E0C9AD9B277
S315080094908D4211D9119903F1010C31F8331091421B
S315080094A026D9069907EBC303D8690A44104403E092
S315080094B00C9B069A13441844E36B01225B6915A9B1
S315080094C09847159B012213930C9B0A9804330C9317
S315080094D0E36B13A99B699847039B0A9A43449B1A13
S315080094E0042B054607D978B9134604330A93C8E707
S315080094F06346521ACBE70A9B0393B6E70A9B049383
S315080095003CE70A9B0493B2E70A9B0393AFE77026EE
S3150800951004F1080303932368079A606CA2EB030A15
S31508009520BAFBF0FA00FB0A3025F020FCE16A804617
S31508009530204625F00BF8A26A82424AD0626CD9F816
S315080095400830511E0B40216B2568891A0B4423638A
S315080095500D9BE0625D1BB5FBF2F5AA4536D1079B6C
S31508009560B3EB080A12D0E36B4FEA9A0241469B69AD
S3150800957098478346E36A079A5344E362236B039842
S315080095809B1A4344236325F045FADA462368616C3F
S31508009590E06B01FB053125F05EFB204624F019FF40
S315080095A0204625F016F82063BAF1000F11D03A6963
S315080095B0616CD31D1439B3FBF1F3013302EBC3021B
S315080095C09042A8D2304619B0BDE8F08F4FF0000A95
S315080095D0DCE73A69616CD31D1439B3FBF1F3013347
S315080095E002EBC302236B9342BFF4F8ADEAE71C26ED
S315080095F0E8E72E468CE700BFB42500202DE9F3479F
S315080096001E4643690446B342884617469DF8289085
S315080096103DD300258DF80750204624F0A6FED4F841
S3150800962030A082450AD2236AB5EB430F06D2002240
S3150800963020460DF10701FFF7EBFB30B39DF8073025
S31508009640012B05D1002220460DF10701FFF7E0FBAB
S31508009650B9F1030F06D03146204624F071FE256B7A
S31508009660854218D30D4D4FF0FF31284600F01AFDFC
S315080096704B46002229462046C5E90376C5F80080F0
S3150800968002B0BDE8F047FFF791BD0135C4E7622097
S3150800969002B0BDE8F0871C20FAE700BFE0250020ED
S315080096A0032A2DE9F34106460D4617461C4606D100
S315080096B0237A012B23D0012002B0BDE8F081DFF820
S315080096C06080096842460DF10703FFF7BBFA606040
S315080096D00028EDD19DF80720237A032AE8D0D8F888
S315080096E004106A689142E3D1012B2969D4F80CC0A9
S315080096F007D172690CEB0103934202D92074207CCE
S31508009700DAE708316144E1603B46012229463046E2
S31508009710FFF74CFD60600028CAD00020CCE700BFE8
S31508009720E02500202DE9F341089C032A1746266800
S3150800973006D1237A012B24D0012002B0BDE8F0819E
S31508009740DFF89080304642460DF10703FFF77AFAB4
S3150800975060600028EDD12568D8F80400A96AD5F814
S3150800976044C04840CCF100031840227AE1D1012ACE
S3150800977009D1E268D8F8103013447269934202D9C5
S315080097802074207CD9E72868EB6A1B1A081AB3FBF1
S31508009790FCF3B0FBFCF083420BD1706CF36A421EFB
S315080097A01340326B121A13442846336324F0CEFE54
S315080097B0E862D8F81020E36808321344E36001220F
S315080097C03B4604492068FFF7F1FC60600028B0D0EA
S315080097D00020B2E7E02500202DE9F04F4FF0FF33D7
S315080097E04FF6FF720025044600F10806C0E9092372
S315080097F08BB0C3620562056330460F4625F00AF949
S31508009800204624F0E6FD20BB2046394624F061FEBA
S31508009810204624F0DEFD20BB5E200BB0BDE8F08FAD
S31508009820E26B2368606CD2F814C000FB0530052291
S3150800983005A9E04705A825F069FA012828D129468F
S31508009840204624F017FE421C2946204624F0E0FD57
S315080098500135E3699D42E3D3204624F0BAFD00288A
S31508009860D2D000254FF0FF394FF6FF73CA46A846F7
S31508009870C4E90853E369984514D3A5EB0905012DF6
S3150800988036D84FF6FF72636A934246D16720C4E71B
S3150800989025F066FA0028DBD02946204624F0EAFDA2
S315080098A00246D1E72368E26B606C576900FB083013
S315080098B0052205A9B84705A825F028FA834605A86C
S315080098C025F0FBF90746584625F045FA68B157458D
S315080098D038BFC4F82480B94528BFB946BD4238BF49
S315080098E03D46BA46236A0133236208F10108C1E7F7
S315080098F04FF6FF7300256362E3699D42C1D2676C28
S315080099002068E36B052207FB05005B6905A99847F4
S3150800991005A825F0D2F90135EEE7E26B676C2068F9
S31508009920694607FB030055690522A847684625F0DE
S31508009930C4F9626A2368606C504D00FB023025F05A
S3150800994015FA4FF0FF33A062E3622A466FF0010171
S31508009950204605ABFFF776F900284FD1AD682946B2
S315080099602046E56224F011FD206320B92046E16A0D
S3150800997024F0ECFDE0622946204624F0E7FD054682
S31508009980A36A9D423CD16569626CE91C143AB1FB35
S31508009990F2F14FF0000805EBC1050335B5FBF2F50A
S315080099A0C1460235E36999453CD3A8455AD22046B3
S315080099B0616A24F03EFD0027064604F1400AB845D0
S315080099C012D8626C2368694602FB0639E36B0522E6
S315080099D05B6948469847684625F06FF9534602463C
S315080099E04946E06B25F0C4F93146204624F021FDAE
S315080099F00137AF420646E2D364200EE7A56AAEE712
S31508009A002946204624F0C1FC236B29460344074611
S31508009A102363204624F09AFD0546002FB0D1C4E9F9
S31508009A200B07ADE7636C2768052203FB0977E36B31
S31508009A3005A95B693846984705A825F067F925F012
S31508009A408AF960B1384625F091F90146204624F096
S31508009A509CFC636C143B984208BF08F1010809F1A5
S31508009A6001099FE7304624F0D5FF00232046194612
S31508009A70034AFFF791F90020CFE600BFE025002052
S31508009A8039E602080023624A2DE9F04117680E46B6
S31508009A900446136018B921252846BDE8F08190F8D8
S31508009AA034500DB309680268914240F0A980716884
S31508009AB04268914240F0A480B1688268914240F0C1
S31508009AC09F80F168C268914240F09A803169426984
S31508009AD0914240F09580B169C26B914240F0908006
S31508009AE072691D468261D7E750222946D0F8388028
S31508009AF023F007FFD6E90212336804F10800236051
S31508009B007368C4F838806360336963617369A361F5
S31508009B1024F092FFB36904F14000E3639B68984719
S31508009B2094F8432020B1E561002AB4D05B25B3E759
S31508009B30656C002DF7D06668B6FBF5F3E361002A7D
S31508009B40A9D0B542F2D82268B2FBF5F105FB11227D
S31508009B50002A57D105FB1363002B53D1204624F066
S31508009B6004FCA369043303449E424DD340F6347281
S31508009B706369CC3B934249D8B5F5007FD6D3032118
S31508009B80204624F01BFCD4E90001E36B1B689847C8
S31508009B900546E36B0220DB6898471DB1002384F86D
S31508009BA034301DE039462046FFF716FE6428054680
S31508009BB004D139462046FFF70FFE0546636C143B71
S31508009BC0002DEBD1226A204602FB03F624F0CDFBDA
S31508009BD0A369043303449E4206D284F834505A25B6
S31508009BE0E06B24F084FD57E70123D4E90001094A14
S31508009BF084F8343013680133136024F0B7FFEFE7B5
S31508009C005D2549E7592547E75A2545E75F2543E78F
S31508009C10642200206022002008B578B190F834301C
S31508009C2073B10023074A80F834301368013B136088
S31508009C3013B9C36B5B689847002008BD2120FCE771
S31508009C401120FAE7602200202DE9FF410F469046D1
S31508009C501E46054698B390F8343093B3B1F5801F85
S31508009C6031D21A4C022124F0A9FB2246394628464D
S31508009C700DF10F03FEF7E6FF024678B101234246CF
S31508009C800093394633462846FFF7B8FC0446E86B86
S31508009C9024F02DFD204604B0BDE8F0819DF80F3074
S31508009CA0012BEBD12169B142E8D1009341463346F5
S31508009CB02846FFF78DF904460028DFD1E7E7212477
S31508009CC0E8E71124E6E72924E4E700BF0C2600208C
S31508009CD02DE9FF410C4616461F46054680B390F807
S31508009CE034307BB3B1F5801F2ED2DFF860800121B6
S31508009CF024F064FB2146424628460DF10F03FEF781
S31508009D00A1FF044670B99DF80F30012B11D1D8F880
S31508009D101030BB4212D10246009031462846FFF762
S31508009D2057F90446E86B24F0E2FC204604B0BDE887
S31508009D30F081022B14BF2D246024F3E76324F1E796
S31508009D402124F2E71124F0E72924EEE70C26002067
S31508009D502DE9F04385B00C4617461E460546DDF844
S31508009D60308098B390F8343093B3B1F5801F31D270
S31508009D70DFF86490012124F021FB21464A46284653
S31508009D800DF10F03FEF75EFF044688B99DF80F3004
S31508009D90012B14D1D9F8102006EB08039A4213D3E5
S31508009DA000904346324639462846FFF711F90446DD
S31508009DB0E86B24F09CFC204605B0BDE8F083022B36
S31508009DC014BF2D246024F3E76324F1E72124F2E786
S31508009DD01124F0E72924EEE70C2600202DE9F341AB
S31508009DE01F4600230C46164605463B6050B390F8BE
S31508009DF034304BB3B1F5801F28D2DFF854800121E7
S31508009E0024F0DCFA2146424628460DF10703FEF700
S31508009E1019FF0446A0B99DF80730032B10D0022B72
S31508009E200AD10123336004233B60E86B24F05FFC0E
S31508009E30204602B0BDE8F081D8F810303060F3E76C
S31508009E402D24F2E72124F3E71124F1E72924EFE78B
S31508009E500C26002030B50C46054685B028B390F888
S31508009E60343023B3B1F5801F23D2022124F0A6FA99
S31508009E700DF10F03214628460F4AFEF7E3FE034677
S31508009E8088B99DF80F20032A0DD003222146009297
S31508009E9002462846FFF7B2FB0446E86B24F027FC87
S31508009EA0204605B030BD2D24F7E72124F8E7112414
S31508009EB0F6E72924F4E700BF0C2600202DE9F04335
S31508009EC0466886B3056898464FF0000CA946AE4624
S31508009ED055F83C400CF1010CC4F31307013401D0CA
S31508009EE0B94217D066450EF1080EF1D12F46002467
S31508009EF003E0A64207F1080712D055F834300134BA
S31508009F000133F6D1C1F3130141EA0851C7E900123A
S31508009F10BDE8F08341EA0851CEE90012BDE8F083B6
S31508009F20B8F1030F03D101230372BDE8F0830023C0
S31508009F3003E09E4209F10809F5D055F8334001338C
S31508009F40C4F30754032CF4D1C1F3130343EA0853AB
S31508009F50C9E90032BDE8F0832DE9F04106464068BC
S31508009F6082B0C0B10F4690460024336853F8345087
S31508009F7003EBC403C5F30752C5F31301013504F116
S31508009F80010406D05B683046CDF80080B84710B1AA
S31508009F9070688442E9D302B0BDE8F081024B1968C3
S31508009FA0024B1868FFF76EBD48AE002068AE002069
S31508009FB010B5044C23681BB903482EF0C5FA206077
S31508009FC010BD00BF382600208CAF030810B52EF050
S31508009FD0F9F802280BD1064C23680BB9FFF7E8FFFE
S31508009FE020684FF0FF31BDE810402EF0F7BA10BDDB
S31508009FF03826002008B52EF0E5F8022805D1034BCF
S3150800A0001868BDE808402EF019BB08BD38260020A0
S3150800A01073B504462248012A00EAC1119DF8185072
S3150800A02023F07C4007D9961E012E28D9073303F062
S3150800A0307F03194308E09DF81C300A43DB0603F04A
S3150800A040C053134343F060410023C4E900108DF860
S3150800A0500730B5B1202221460DF1070024F0A2FEF3
S3150800A0601A220DF10700211D24F09CFE08206368C2
S3150800A0709DF8072043EA8263636002B070BD11430E
S3150800A080E2E71B220DF10700214624F08BFE236828
S3150800A0909DF80720042043EAC2632360EDE700BF6A
S3150800A0A080FFFF0738B5094B0D461A68002104469C
S3150800A0B023F027FC00234FF0FF322383C4E9002551
S3150800A0C02361A260E382A37638BD00BF9CAF030874
S3150800A0D00138C0B205289ABF014B185C01207047A9
S3150800A0E0A1AF03082DE9F0410746154600240E46A0
S3150800A0F0596888B0490A012922464FEA510104F1F4
S3150800A1000104F8D8DC78997824031B88C90201F47D
S3150800A110006104F480540C43C3F30A035203234436
S3150800A12092B24FF000089C18274B6FEA0444039339
S3150800A13025F07843ED4302A90DF107001B2202938F
S3150800A1408DF8078024F02EFE9DF80720029B02A9B1
S3150800A15043EAC2630DF107001B2225F078450493F4
S3150800A16002958DF8078024F01DFE9DF80720029BB6
S3150800A1706FEA144443EAC26305934FF0FF3307942A
S3150800A180069307A9BB69012206F110009847BB6927
S3150800A19005A90446012206F108009847BB6940450F
S3150800A1A018BF044604A90122301D984701224045DC
S3150800A1B018BF0446BB69304603A99847404508BFFF
S3150800A1C0204608B0BDE8F08101009AB2034B5A68F0
S3150800A1D012B19A6A002AFAD1704700BF00400650A9
S3150800A1E043681249B3FA83F310B5C3F11F044B68E9
S3150800A1F00BB1FFF7EBFF01220D4B5A604B689B072B
S3150800A200FCD4027A437843EA420343EA041301245E
S3150800A210427A8B60837A43EA42034B62054B5C6061
S3150800A220037813B1FFF7D2FFCC6010BD004006508B
S3150800A2300060065000500650044B9A6AD006FCD4BB
S3150800A24019639A6AD206FCD4704700BF00400650CC
S3150800A250014B186B704700BF0040065008B5FFF762
S3150800A260B5FF02230449CB6000230B62FFF7AEFF5C
S3150800A2700123CB6008BD00BF00400650044BD3F84D
S3150800A2808420D206FBD4D3F88400C0F3811070472B
S3150800A2900040005038B5174B0546D3F828310C4610
S3150800A2A003F00703013B052B20D8DFE803F003136F
S3150800A2B01B0F0B172CF0DEFF052305B1286004B130
S3150800A2C0236038BD2CF0D6FF0623F6E72DF012F8EA
S3150800A2D00723F2E72DF008F80323EEE72DF004F83C
S3150800A2E00423EAE72CF0FCFF0223E6E700231846DE
S3150800A2F0E3E700BF00800050002337B50193164BF3
S3150800A3000546D3F820320C4603F00703042B21D860
S3150800A310DFE803F0030B11161B0001230DB1019AA8
S3150800A3202A6004B1236003B030BD002101A8FFF7FD
S3150800A330B1FF1123F2E72CF0DDFF07230190EDE7CB
S3150800A3402FF060FB0A230190E8E72DF01BF809239C
S3150800A3500190E3E70023E1E70080005038B5104B91
S3150800A3600546D3F850320C4603F00303022B12D0ED
S3150800A370032B08D0012B0AD00023184605B1286004
S3150800A38004B1236038BD2FF040FB0B23F6E72FF00E
S3150800A39039FB0A23F2E72CF0F5FF0923EEE700BFA5
S3150800A3A00080005038B5104B0546D3F800310C46EE
S3150800A3B003F00303022B0BD0032B0DD0012B0FD177
S3150800A3C02CF092FF032305B1286004B1236038BD41
S3150800A3D02CF0D8FF0923F6E72FF012FB0823F2E743
S3150800A3E001230020EFE700BF0080005038B5184B66
S3150800A3F00546D3F820010C4600F00700062823D8A6
S3150800A400DFE800F0040A0E16121A1E00012305B131
S3150800A410286004B1236038BD2CF02CFF0523F6E72D
S3150800A4202CF062FF0323F2E72CF064FF0723EEE724
S3150800A4302CF056FF0223EAE72CF01CFF0623E6E77A
S3150800A4402CF052FF0423E2E700231846DFE700BF9B
S3150800A4500080005038B5104B0546D3F840310C46FD
S3150800A46003F00303022B0BD0032B0DD0012B0FD1C6
S3150800A4702FF0C8FA0A2305B1286004B1236038BD55
S3150800A4802CF080FF0923F6E72FF0BFFA0B23F2E73B
S3150800A49001230020EFE700BF00800050002337B5F6
S3150800A4A00193164B0546D3F860320C4603F00703B2
S3150800A4B0013B032B1FD8DFE803F0020E1914002115
S3150800A4C001A8FFF793FF0F230DB1019A2A6004B183
S3150800A4D0236003B030BD002101A8FFF7BBFF10239E
S3150800A4E0F2E72CF007FF07230190EDE72CF0F8FEC2
S3150800A4F002230190E8E70023E6E700BF008000504A
S3150800A50038B5104B0546D3F860310C4603F0030303
S3150800A510022B0BD0032B0DD0012B0FD12FF072FA83
S3150800A5200A2305B1286004B1236038BD2CF02AFF40
S3150800A5300923F6E72FF069FA0B23F2E70123002037
S3150800A540EFE700BF0080005073B50D460021114BA0
S3150800A5500191D3F88041064604F00304022C13D077
S3150800A560032C0CD0012C13D101A8FFF73FFF0F24B1
S3150800A5700EB1019B336005B12C6002B070BD2CF0A2
S3150800A580B9FE07240190F3E72CF0AAFE0190EFE745
S3150800A5900C46EDE70080005038B5104B0546D3F859
S3150800A5A040320C4603F00303022B0BD0032B0DD0CD
S3150800A5B0012B0FD12FF026FA0A2305B1286004B122
S3150800A5C0236038BD2CF0DEFE0923F6E72FF01DFACE
S3150800A5D00B23F2E701230020EFE700BF00800050BD
S3150800A5E038B5144B0546D3F800020C4600F00700B0
S3150800A5F004281BD8DFE800F003090D111500012314
S3150800A60005B1286004B1236038BD2FF0FBF90A2391
S3150800A610F6E72CF0B7FE0923F2E72FF0F6F90B233D
S3150800A620EEE72CF047FE0E23800AE9E700231846DA
S3150800A630E6E700BF0080005038B5144B0546D3F84E
S3150800A64008020C4600F0070004281BD8DFE800F0D3
S3150800A65003090D111500012305B1286004B1236013
S3150800A66038BD2FF0CFF90A23F6E72CF08BFE092325
S3150800A670F2E72FF0CAF90B23EEE72CF01BFE0E23A8
S3150800A680800AE9E700231846E6E700BF0080005085
S3150800A690B0F5207F1FD009D8B0F5007F15D003D8B4
S3150800A6A068B1B0F5C07F0AD000200CE0B0F5607F35
S3150800A6B0FAD10B4BD3F88000C0F3011003E0084B26
S3150800A6C0186FC0F3033001307047054BD3F890007C
S3150800A6D0C0F30460F7E7024B186FC0F38020F2E777
S3150800A6E00080005002464FF48030104B10B5986633
S3150800A6F00020FFF7CDFF504341F671320C4BDC6961
S3150800A700DA635A6804F4803422F4401259B90949C4
S3150800A710884294BF00200120000502435A600CB10C
S3150800A7200022DA6310BD0449F2E700BF009000502A
S3150800A73000000350005A6202002D3101430905D07A
S3150800A740012B0CD0022B084B18BF002300F01F006A
S3150800A75039B103F58053012282401A607047034BD2
S3150800A760F4E703F50053F6E768800050648000506C
S3150800A7701FB50021B0F5807F0446019100F00081E5
S3150800A7806BD8002800F0DF80A0F12004602C74D874
S3150800A790602C72D8DFE814F0D700DA00D700DA00A8
S3150800A7A0EA00EA00EA00EA00EA00DA00EF007A00C6
S3150800A7B09D0005017A00DA00DA00DA0071007100FE
S3150800A7C0710071007100710071009D00DA00DA00F5
S3150800A7D0DA002F010F01DA007100710071007100B3
S3150800A7E071007100710071007100710071007100D3
S3150800A7F01401EA00D700D700D7000A017A007A00C8
S3150800A8001901BA008F00CE00CE00710071007100E8
S3150800A81071007100710071007100710071007100A2
S3150800A8207100710071007100710071007100710092
S3150800A8307100710071007100710071007100710082
S3150800A8407100710071007100710071007100710072
S3150800A8507100710071007100D300B0F5F06F00F05F
S3150800A860CA803BD8B0F5607F7BD01AD8B0F5007F98
S3150800A87077D005D8B0F5C07F65D0019804B010BD73
S3150800A880B0F5207F62D0B0F5407FF6D12CF012FDEE
S3150800A89002464FF42070FFF7FBFEB2FBF0F25208B7
S3150800A8A05DE0B0F5B06F66D00AD8B0F5806F5DD0C0
S3150800A8B0B0F5A06FE1D1002101A8FFF71DFDDCE787
S3150800A8C0B0F5D06F6DD0B0F5E06F74D0B0F5C06F4D
S3150800A8D0D3D1002101A8FFF7BDFDCEE7B0F5206F63
S3150800A8E073D00CD8B0F5106F60D0B0F5186F67D07C
S3150800A8F0B0F5086FC1D101A8FFF754FDBDE7B0F563
S3150800A900306F67D010D8B0F5286FB6D100213C4B10
S3150800A9100391D3F8703203F00303012B02D103A885
S3150800A920FFF798FD039B35E0B0F5386FD1D0B0F549
S3150800A930406FA2D1002101A8FFF7ACFC9DE72CF0DF
S3150800A9409FFC019099E72CF0B5FCFAE72CF0B2FCD5
S3150800A95002464FF42070FFF79BFEB2FBF0F201921D
S3150800A9608BE72CF08DFC02462046F4E7002101A86F
S3150800A970FFF73CFD81E7002101A8FFF7E5FD7CE72D
S3150800A9804FF0E02302911B695B0705D52CF092FC7A
S3150800A9900290029B019370E703A902A8FFF75AFDEC
S3150800A9A0F7E7002101A8FFF71BFE66E7002101A8CB
S3150800A9B0FFF742FE61E7002101A8FFF7EDFD5CE71E
S3150800A9C0002101A8FFF7CAFC57E7002101A8FFF7F5
S3150800A9D065FD52E70A4BD3F8903203F00303012BC7
S3150800A9E004D0022B05D12CF085FCAAE72CF078FCC4
S3150800A9F0A7E70846A5E7002101A8FFF781FD3CE780
S3150800AA000080005008B58020FFF7B2FE034B98423D
S3150800AA109EBF4FF48032024B1A6708BD005A620285
S3150800AA2000A000501FB503460020B3F5807F0190B3
S3150800AA3000F0D18077D8582B68D8382B06D8243B15
S3150800AA40092B49D9019805B05DF804FB393B1F2B42
S3150800AA50F8D801A252F823F0F9AB000845AA000875
S3150800AA6045AA000845AA000803AC00081FAC000860
S3150800AA7045AA000845AA000845AA000845AA0008EC
S3150800AA8045AA000845AA000845AA000845AA0008DC
S3150800AA9045AA000845AA000845AA000845AA0008CC
S3150800AAA045AA000829AC00084BAB000845AA0008CF
S3150800AAB045AA000845AA00088FAB000845AA000861
S3150800AAC045AA000833AC00083DAC000815AC0008E0
S3150800AAD0B1AB0008B1AB0008092BB3D801A252F8F4
S3150800AAE023F000BF4BAB00084BAB00084BAB00088C
S3150800AAF04BAB00084BAB000845AA0008CDAB0008D5
S3150800AB0045AA0008F9AB000869AB0008802B99D163
S3150800AB105C4B1B6F03F00703013B032B92D8DFE85E
S3150800AB2003F0534C4F51B3F5086F6FD021D8B3F5E6
S3150800AB30C06F61D00ED8B3F5A06F6BD0B3F5B06F08
S3150800AB4044D0B3F5806F7FF47DAF002001A9FFF7ED
S3150800AB504DFC77E7B3F5E06F61D0B3F5F06F50D0F1
S3150800AB60B3F5D06F7FF46EAF002001A9FFF738FD6B
S3150800AB7068E7B3F5286F61D00ED8B3F5186F53D0D0
S3150800AB80B3F5206F55D0B3F5106F7FF45BAF002097
S3150800AB9001A9FFF751FD55E7B3F5306F60D0FFF413
S3150800ABA051AFB3F5386F27D0B3F5406F7FF44AAF8E
S3150800ABB0002001A9FFF76EFB44E70523019341E74F
S3150800ABC00323FBE70823F9E70223F7E7002001A997
S3150800ABD0FFF7BAFC36E74FF0E02302901B695B07E4
S3150800ABE005D52CF067FB0C230393039BE6E703A923
S3150800ABF002A8FFF72FFCF8E7002001A9FFF72AFCB7
S3150800AC0020E7002001A9FFF77BFC1BE701A9FFF756
S3150800AC10C9FB17E7002001A9FFF76EFB12E7002022
S3150800AC2001A9FFF7B9FC0DE7002001A9FFF796FB7C
S3150800AC3008E7002001A9FFF731FC03E7114BD3F819
S3150800AC40703203F00303012B04D0022B0CBF14232C
S3150800AC500023B3E7002103A8FFF7FCFB1023ADE7A9
S3150800AC60084BD3F8903203F00303012B06D0022BCE
S3150800AC7002D12CF03FFB07200190E3E62CF030FBD5
S3150800AC800220F9E7008000504FF48012034B5A6601
S3150800AC904FF48032024B9A62704700BF0090005012
S3150800ACA00050005AF8B504468020FFF7BBFE03287B
S3150800ACB000F08A804FF48012564B574D5A6645F677
S3150800ACC00E034FF0A062C5F88030544B9A624FF4D9
S3150800ACD0803203F580539A62AB6DDA03FCD4AE6D0D
S3150800ACE016F08046FBD1D4E900231B0543EA02632C
S3150800ACF0E27B4B481343227B4A4F43EA0243627B7B
S3150800AD0043EA0233A27B43EA82132B61AA69D4E998
S3150800AD1004131B0643EA816302F000421343A27E32
S3150800AD204FF440611343227E43EA0243627E43EABC
S3150800AD300223AB614FF4006224F052F82B6AE17EDD
S3150800AD40E26923F00F0343EA8103002A3DD12B620F
S3150800AD5094F8243094F82010AA6ADB0043EA4113D9
S3150800AD603A40134394F821202F4943EA021343F447
S3150800AD708033294AAB62936D31EA0303FBD14FF066
S3150800AD808071264881621369A56823F4700343EA33
S3150800AD90055313614FF00043836194F822300BB9D1
S3150800ADA0224B996294F823303BB94FF480321F4BFB
S3150800ADB09A62194A936D5B00FCD494F825301BB14E
S3150800ADC0154B1B4AC3F88020F8BD134343F008030C
S3150800ADD0022A2B6208D12E614FF408524FF47F41A4
S3150800ADE01448AE6123F0FCFF0B4994F822308A6AB6
S3150800ADF094F820001B063A4043EA4013134394F89C
S3150800AE00242043EAC20394F8232043EA02438B62D0
S3150800AE10D3E700BF009000500040005A0050005A87
S3150800AE203840005AC7FFFEFE030001000060005AC2
S3150800AE30F1A7FFFF3440005A014B93F90000704711
S3150800AE4007B20020014B1880704700BF94B100205C
S3150800AE50B0F5207F10B50C4642D008D8B0F5007F73
S3150800AE6033D003D888B1B0F5C07F0ED010BDB0F589
S3150800AE70607FFBD11F4A4C1ED2F8803023F0300386
S3150800AE8043EA0413C2F88030F0E723F0B8FF23F052
S3150800AE90C4FF4FF48031184B164A1967136F013CEB
S3150800AEA023F4704343EA043313672CF003FA044689
S3150800AEB0FFF7E4F9C0F10201204623F0A8FF00F0ED
S3150800AEC035F8BDE81040FFF79DBD0A4A4C1ED2F87A
S3150800AED0903023F0F85343EA0463C2F89030C5E78C
S3150800AEE0044A4C1E136F23F4806343EA84231367D2
S3150800AEF0BCE700BF008000500090005008B5012153
S3150800AF00022000F0ABF84FF42070FFF7C1FB054BA9
S3150800AF10187023F074FF23F080FF4FF48032024B41
S3150800AF201A6708BDE49500200090005008B54FF454
S3150800AF30C070FFF71DFCBDE808400449884294BF6D
S3150800AF40012102214FF42070FFF782BF80F0FA0238
S3150800AF5038B504462CF0AEF90546FFF78FF9C0F16F
S3150800AF600201284623F053FF0121002000F0B6F81D
S3150800AF702CB1FFF7DBFFBDE83840FFF743BD034BB5
S3150800AF804FF420701978FFF763FFF4E7E495002083
S3150800AF90024A536B0342FCD1704700BF0040095078
S3150800AFA0044A4178536F23F4407343EA01235367F5
S3150800AFB0704700BF004000500E4A10B5136904469A
S3150800AFC043F0040313612CF0C7FD23F02BFF0A4B53
S3150800AFD05B6E5B0142BF094B094AC3F8202430BFA8
S3150800AFE023F021FF04F0F2FD1CB9BDE810402CF057
S3150800AFF061B910BD00ED00E00080005000E003508C
S3150800B0000000FF0F0C4A10B51369044643F0040309
S3150800B01013610A4B5B6E5B0142BF094B094AC3F8D1
S3150800B02020242CF099FD30BF04F0D0FD1CB9BDE8F2
S3150800B03010402CF03FB910BD00ED00E00080005034
S3150800B04000E003500000FF0F034A0179D36E23F096
S3150800B05030030B43D366704700400050F8B50446EA
S3150800B0601C4BD3F88420D106FBD4D3F88430C3F321
S3150800B07081139C422CD02CF003F9012C064602D1F0
S3150800B080214623F0C4FE2EF0C8FC4FF00072124B86
S3150800B09007465A66204623F0CBFE4FF480630D4DD3
S3150800B0A0621E93402B676B6E9A0103D4D5F88430E1
S3150800B0B09B060AD538462EF0ABFC022C08D1304642
S3150800B0C0BDE8F840002123F0A2BED5F88430EAE7AF
S3150800B0D0F8BD00BF004000500060005010B50C4697
S3150800B0E008B92CF0CDF8074B21461B783BB1064B27
S3150800B0F0984204D80120BDE81040FFF7AFBF0220F0
S3150800B100F9E700BFE5950020005A62020278034B72
S3150800B110012100201A70FFF7E1BF00BFE595002066
S3150800B1204FF0004238B5244B244C5A664AF6CD33C4
S3150800B130656C014605F00105236428BB0120FFF76D
S3150800B14027FF6368DB0715D51D4B586008461D4B5E
S3150800B150226BD2070CD4984208D1072415B1174B95
S3150800B160194A1A6411F04CF8204638BD0130EFE749
S3150800B1709842F2D00024F1E70132236B13F008035A
S3150800B18005D08A42F8D1E8E700220E49F5E78A4257
S3150800B190E3D020210A4A91620121A2F5805251602A
S3150800B1A00649084A886A800603D49342D5D00133F3
S3150800B1B0F8E79342DDE700BF0090005000400950D1
S3150800B1C00060095040420F003254FFFF4AF6E85328
S3150800B1D02DE9F0411B4C1C4FE56EE66E23662EF0FA
S3150800B1E01CFC8046FFF78AFE3B6F012023F007030D
S3150800B1F043F001033B67FFF7ABFE0020FFF790FF24
S3150800B20023F014FE23F013FE7B6E25F003055B0185
S3150800B21044BF0E4B0E4A45F0020548BFC3F820242A
S3150800B22046F003060B4BE566E666E566E666E56602
S3150800B230E666E566E666E5664046BDE8F0419B6A71
S3150800B2402EF0E6BB004000500080005000E003509E
S3150800B2500000FF0F004009504FF0004238B5164B6A
S3150800B26001465A664AF6CD33144C154A656C236472
S3150800B27043780B205B0043F00103D363FFF788FE96
S3150800B28063688A7823F4F87343EA02136360CA781A
S3150800B2904B7943EA0223A3600A798B7943EA0223AE
S3150800B2A023610878FFF73CFFEB0744BF054B23648F
S3150800B2B010F0A6FF012038BD00900050004009504C
S3150800B2C0004000503254FFFF4FF00042124B70B559
S3150800B2D05D6E03F580535A664AF6CD3304460F4928
S3150800B2E080204E6C0B64FFF753FE0B6A23F00F03A6
S3150800B2F00F2C94BF234343F00F030B62F30744BF9D
S3150800B300074B0B64002DA2BF4FF00042054B5A664F
S3150800B31010F076FF70BD00BF008000500040095055
S3150800B3203254FFFF00A000504FF00042104B70B59A
S3150800B3305D6E03F580535A664AF6CD3304460D49C9
S3150800B34080204E6C0B64FFF723FE0B6A23F4F85338
S3150800B35043EA04230B62F30744BF074B0B64002D33
S3150800B360A2BF4FF00042054B5A6610F049FF70BD68
S3150800B37000800050004009503254FFFF00A00050E2
S3150800B38010B523F05AFD042300F5805100F500524C
S3150800B3900B6113610B6113610B6113610B6113611F
S3150800B3A0202341F2020103610023C36083604161E7
S3150800B3B04FF4A021836141620449C3610362836239
S3150800B3C0C36243630365D164036310BDFF3F0D0386
S3150800B3D070B505461446084661B9364B9D421CD0E1
S3150800B3E0354B9D421BD003F580439D4208BF58202C
S3150800B3F0FFF7BEF9AB6813F0010F6B6832D0B0FBEC
S3150800B400F4F4D90704F1FF344FEA046409D42B692C
S3150800B41023F07F4323432B6170BD5620E8E757206E
S3150800B420E6E72821284623F004FDAB6C9A0715D1D8
S3150800B430AB6CDB0714D4AB6C13F0020F14BF0626F3
S3150800B4400026284623F0F9FC2B69314623F07F4372
S3150800B45023432B61BDE8704023F026BD0526F0E79F
S3150800B4600926EEE7AB6803F0E003402B1BD004D8AF
S3150800B470DBB1202BD0D1082304E0602B17D0802B1A
S3150800B480CAD1012363434101B1FBF3F20B4B203AC6
S3150800B490284603EAC202012123F0CBFC2A63BDE851
S3150800B4A0704023F0C6BC0623ECE71023EAE7042322
S3150800B4B0E8E700BF0000015B00000A50F8FF7F00C4
S3150800B4C0F8B5436804460D4616461BB140F6FF71AB
S3150800B4D023F0AFFC2046FFF753FFE9896B7B6269CF
S3150800B4E00B43298A22F44C520B4322F00F021343D2
S3150800B4F06361A2682B7B297E22F0804222F0E20259
